:020000040100F9
:108600003DB8F396000000000002000068980200E8
:10861000000000000000000000000000000000005A
:10862000FFFFFFFFFFFFFFFFFFFFFFFFFFFFFFFF5A
:10863000FFFFFFFFFFFFFFFFFFFFFFFFFFFFFFFF4A
:10864000FFFFFFFFFFFFFFFFFFFFFFFFFFFFFFFF3A
:10865000FFFFFFFFFFFFFFFFFFFFFFFFFFFFFFFF2A
:10866000FFFFFFFFFFFFFFFFFFFFFFFFFFFFFFFF1A
:10867000FFFFFFFFFFFFFFFFFFFFFFFFFFFFFFFF0A
:10868000FFFFFFFFFFFFFFFFFFFFFFFFFFFFFFFFFA
:10869000FFFFFFFFFFFFFFFFFFFFFFFFFFFFFFFFEA
:1086A000FFFFFFFFFFFFFFFFFFFFFFFFFFFFFFFFDA
:1086B000FFFFFFFFFFFFFFFFFFFFFFFFFFFFFFFFCA
:1086C000FFFFFFFFFFFFFFFFFFFFFFFFFFFFFFFFBA
:1086D000FFFFFFFFFFFFFFFFFFFFFFFFFFFFFFFFAA
:1086E000FFFFFFFFFFFFFFFFFFFFFFFFFFFFFFFF9A
:1086F000FFFFFFFFFFFFFFFFFFFFFFFFFFFFFFFF8A
:10870000FFFFFFFFFFFFFFFFFFFFFFFFFFFFFFFF79
:10871000FFFFFFFFFFFFFFFFFFFFFFFFFFFFFFFF69
:10872000FFFFFFFFFFFFFFFFFFFFFFFFFFFFFFFF59
:10873000FFFFFFFFFFFFFFFFFFFFFFFFFFFFFFFF49
:10874000FFFFFFFFFFFFFFFFFFFFFFFFFFFFFFFF39
:10875000FFFFFFFFFFFFFFFFFFFFFFFFFFFFFFFF29
:10876000FFFFFFFFFFFFFFFFFFFFFFFFFFFFFFFF19
:10877000FFFFFFFFFFFFFFFFFFFFFFFFFFFFFFFF09
:10878000FFFFFFFFFFFFFFFFFFFFFFFFFFFFFFFFF9
:10879000FFFFFFFFFFFFFFFFFFFFFFFFFFFFFFFFE9
:1087A000FFFFFFFFFFFFFFFFFFFFFFFFFFFFFFFFD9
:1087B000FFFFFFFFFFFFFFFFFFFFFFFFFFFFFFFFC9
:1087C000FFFFFFFFFFFFFFFFFFFFFFFFFFFFFFFFB9
:1087D000FFFFFFFFFFFFFFFFFFFFFFFFFFFFFFFFA9
:1087E000FFFFFFFFFFFFFFFFFFFFFFFFFFFFFFFF99
:1087F000FFFFFFFFFFFFFFFFFFFFFFFFFFFFFFFF89
:1088000050840021B151020187DA02019D51020119
:108810009D5102019D5102019D5102010000000085
:1088200000000000000000000000000015530201DD
:108830009D51020100000000AD5202019D51020154
:10884000CD540201CD540201CD540201CD54020198
:10885000CD540201CD540201CD540201CD54020188
:1088600065DF0201CD540201CD540201CD54020155
:1088700031DF0201CD540201CD540201CD54020179
:10888000CD5402014BDF0201CD540201CD5402014F
:10889000CD540201CD540201CD540201CD54020148
:1088A000CD540201CD540201CD540201CD54020138
:1088B000CD540201CD540201000000000000000070
:1088C00000000000000000000000000000000000A8
:1088D0000000000000000000000000000000000098
:1088E0000000000000000000000000000000000088
:1088F0000000000000000000000000000000000078
:108900000000000000000000000000000000000067
:108910000000000000000000000000000000000057
:108920000000000000000000000000000000000047
:108930000000000000000000000000000000000037
:108940000000000000000000000000000000000027
:108950000000000000000000000000000000000017
:108960000000000000000000000000000000000007
:1089700000000000000000000000000000000000F7
:1089800000000000000000000000000000000000E7
:1089900000000000000000000000000000000000D7
:1089A00000000000000000000000000000000000C7
:1089B00000000000000000000000000000000000B7
:1089C00000000000000000000000000000000000A7
:1089D0000000000000000000000000000000000097
:1089E0000000000000000000000000000000000087
:1089F0000000000000000000000000000000000077
:108A0000DEE61E284CBBCE8F023500003C00000085
:108A1000B8970200010000000088000100880001F2
:108A2000FFFF0291000000000000000000000000B5
:108A3000000000000000000000000000084B1B7850
:108A4000002B4FF00003836018BF0222036008BFB1
:108A50000122044B4360FF23C2710372704700BFC1
:108A6000080A002128010800064A074B9B7802608B
:108A70004FF41272C3710023828008220372827144
:108A8000704700BF41380201080A0021064A074B1F
:108A9000DB7802604FF43272C371002382800822B7
:108AA00003728271704700BF57360201080A002125
:108AB000064A074B1B7902604FF4B472C371FF235F
:108AC0008280082203728271704700BF1132020156
:108AD000080A00212DE9F341C41D0028064624F0B0
:108AE00007040CBF0020204600F024FD071E04DA16
:108AF0006FF00B0002B0BDE8F0810EB9FC42F7D474
:108B0000364D6989288903316B7B03302A7B89B212
:108B100080B217F081F90028EADB3C44A978EB78B1
:108B2000002E04F10304194424F0030400FB01F1B6
:108B30000CBF0020204600F087FE20440EB900281C
:108B4000D6DB2B790446B3B1697D19446B7919449E
:108B5000FF29CDDC0330002E2A8AC9B220F003049D
:108B60000CBF0020204600F0DFFE0028C0DB0444DC
:108B70000EB9002CBCDB012000F0D2FCC8B1A97BEF
:108B8000B9B195F82C300734002B24F0070415BF39
:108B9000402325234FF481722822002E14BF204643
:108BA000002006F021FC0028A2DB04440EB9002CB2
:108BB0009EDBAB7CDBB12B7993B10734002EA97C13
:108BC00024F007040CBF002020460CF0BDFE002856
:108BD0008EDB04445EB9002C09DA89E7080A00211B
:108BE000012000F09DFC10B1AB7B002BE5D1724B56
:108BF0001B6893B1A97981B10334002EEA7C24F07B
:108C000003040CBF0020204698470028FFF670AFF1
:108C1000044416B9002CFFF66BAF684B1B688BB190
:108C2000297D79B10334002E24F003040CBF002009
:108C3000204698470028FFF65BAF044416B9002C85
:108C4000FFF656AF5E4B1F68B7B1697DA1B1033423
:108C5000002E2B7E24F0030408BF0020009318BFD1
:108C60002046EB7DAA7DB8470028FFF641AF0444BB
:108C700016B9002CFFF63CAF072000F051FC98B16C
:108C8000A97989B10334002EAA7E24F003040CBF15
:108C90000020204600F036FF0028FFF629AF0444EC
:108CA00016B9002CFFF624AFB6FA86F795F8250022
:108CB0007F09A0B10334EB7F297F24F00704194416
:108CC0003B4644F00404C9B2224600F05DFF002890
:108CD000FFF60EAF044416B9002CFFF609AF95F865
:108CE0002610002959D00734002E2A8D24F00708B9
:108CF0000CBF0020404617F0A4F8041EFFF6F8AEA3
:108D0000444416B9002CFFF6F3AE1EB1298D40463F
:108D100012F068F895F82010002940D095F824301A
:108D2000002B3CD06A8C0734002E24F0070802F197
:108D300024020CBF0020404692B217F082F8041EB5
:108D4000FFF6D6AE444416B9002CFFF6D1AE03347C
:108D5000AB7F297F24F0070495F8240019443B4693
:108D600044F00404C9B2224600F000FF0028FFF6D8
:108D7000BFAE044416B9002CFFF6BAAE3EB16A8C01
:108D8000404695F82010083292B212F031F82B6B61
:108D90005BB176B12C630020ACE68846B5E7002EC7
:108DA000F5D0002211461046EFE7002EF3D1204601
:108DB000A0E62834FBD59BE6580000216000002186
:108DC0005C0000211FB572B6194B5D6BE5B9BFF3AE
:108DD0004F8F1849184BCA6802F4E0621343CB6006
:108DE000BFF34F8F00BFFDE7B4FBF6F4D3B20132FF
:108DF000002CF9D103F110026A4402F80C4C0A224B
:108E000033B901A8A847E2E7044600220A26EDE7A5
:108E1000013BDBB203F110040DEB0406B0FBF2F4EE
:108E200002FB1400303006F80C0C2046E8E700BFC7
:108E3000080A002100ED00E00400FA0513B5114C0A
:108E40006846637B8DF80130237B8DF800306389A1
:108E5000ADF804302389ADF802300AF04FFB18B1A9
:108E6000DB210320FFF7AEFF207E0AF0ABFB08B149
:108E7000DE21F6E7E07D0AF09FFB08B1DF21F0E795
:108E800002B010BD080A002138B5054600283ED0C2
:108E900015F0E2FC10B94FF0FF3038BD12F00CFEB7
:108EA000B0F5FA7FF7D81C4C1C486563002500F02C
:108EB000B3FA2A222946A01C84F83850257084F879
:108EC0002C50256315F0DAFF1B2240F2011322819A
:108ED000628140F2032263800123A2810322237175
:108EE000A2731F22A376F72322824FF402726384B7
:108EF000FB23628244F601122385E282EFF31084A1
:108F000072B600F051FE2CB962B62046C5E76FF08C
:108F10001500C2E72846C0E7080A00213D8E00017F
:108F200038B51446002840F0B9805E4D95F83830C9
:108F3000032B00F0B080B1B112B96FF0150038BD4D
:108F40000139142900F2AA80DFE801F00B1C1F345C
:108F50005E67853A6A6D7F404654598B8E9C9FA20E
:108F600094001378AB700020FFF7B4FD0028B7BF62
:108F7000012302236FF00B0085F83830A8BF85F875
:108F80003830DCE71378EB70EDE71379002BD4D0A1
:108F90005379002BD1D01288FB2ACED81A2A6388A5
:108FA000CBD91B3BE02BC8D82368A288AB603E4BD3
:108FB0009A80D8E713786A799342BED32B71D2E7AF
:108FC00013782A799342B8D86B71CCE713782A7951
:108FD0009342B2D86B75C6E71378002BADD05378A7
:108FE000013BDBB2F82BA8D813889278EB822F4B89
:108FF0009A70B8E71078687610F0B8F8B3E713788D
:10900000002B9AD0AB76AEE7012000F089FA2378E6
:1090100008B1012B91D9AB73A5E713882B82A2E786
:109020001378AB719FE7072000F07AFA10B9237824
:10903000012B82D9072000F073FA18B12378002B96
:109040003FF47BAF2378EB748DE71378082B3FF662
:1090500074AF2B7587E71388FF2B3FF66EAFAB74A9
:1090600081E71378EB767EE713780E2B3FF665AF3A
:109070002B7778E723680E4A2B6263685360238955
:10908000138170E713786B776DE71378EB776AE7F6
:109090001378AB7767E74FF0FF3050E76FF02C00A5
:1090A0004DE700BF080A0021100A00211E0A002116
:1090B000280A0021F8B50D46064630B329B311F051
:1090C000070422D1124F97F83830012B02D16FF0EC
:1090D0000B00F8BD032B02D14FF0FF30F9E700F091
:1090E000CBF80028F8D02846FFF7F4FC0028EEDB88
:1090F00010F042F83046396B0AF020FBFFF79EFE75
:109100000323204687F83830E3E76FF01500E0E7E7
:10911000080A002110B5074C94F83830032B03D10E
:109120000AF028FB0BF072FC16F0D3FF002084F845
:10913000380010BD080A002150B1074B03F114029A
:1091400053F8041B934240F8041BF9D100207047E8
:109150006FF01500704700BF7C150301074B10B579
:1091600093F838403CB90AF07BFA0320044900F038
:10917000CFF9204610BD4FF0FF30FBE7080A002171
:10918000B18A0001074B10B593F838403CB90AF09A
:109190007BFA0220044900F0BBF9204610BD4FF0D5
:1091A000FF30FBE7080A00218D8A000108B50C4B4F
:1091B00093F838208AB993F82C305BB10AF0A2FA00
:1091C0000849012000F0A4F90020074900F0A0F9A7
:1091D000002008BD0AF07AFAF2E74FF0FF30F8E716
:1091E000080A00213D8A0001698A0001054B10B57B
:1091F00093F838401CB917F0BBFF204610BD4FF064
:10920000FF30FBE7080A0021054B10B593F8384002
:109210001CB917F0B0FF204610BD4FF0FF30FBE740
:10922000080A0021054B10B593F838401CB917F017
:10923000A5FF204610BD4FF0FF30FBE7080A0021D4
:10924000054B10B593F838401CB917F099FF20462C
:1092500010BD4FF0FF30FBE7080A00210268002034
:10926000014B1A60704700BF440A0021014B1B6884
:10927000184700BF440A0021024B1868003818BF85
:1092800001207047440A0021F7B504462D4E071D02
:109290002C4837600BF0DAFB0228054606D1294935
:1092A000204615F04CFF284603B0F0BD042842D1FB
:1092B0003378092B0AD0262B1ED03146204615F0D4
:1092C000B8FFB0F5817F2DD3722112E005213E2039
:1092D00015F008FF0028F0D1F37801A9327968462B
:1092E00043EA0223ADF8003016F05EFB0028CFD031
:1092F00053210820FFF766FD1A213E2015F0F2FEEB
:109300000028DAD17368694601A8C3F30F23ADF8CA
:10931000043011238DF8063016F060FB0028B7D01A
:109320006521E6E70028B3D0A178207815F0DAFEB1
:109330000028B8D1ACE70828B5D10249204615F07D
:1093400036FFB0E7480A0021074B4FF0FF3141F6E6
:10935000FF72C3E9001205490022C1E900221F2162
:10936000C3E90212704700BF000000214C0B00212E
:109370003F280CD801380B4BC0F3421200F01F00FD
:1093800053F8223023FA00F000F001007047FF2864
:1093900006D04038044BC0F3421200F01F00EFE744
:1093A00001207047000000214C0B0021074B0146B3
:1093B000006849681A4603C240F48C221A6041F0E2
:1093C000107242F4FF625A60704700BF0000002133
:1093D0000246024B0068516803C370474C0B0021E2
:1093E0000246024B0068516803C370470800002121
:1093F000FD28084B16BF00F1FF303F20C0B24209E4
:1094000000F01F0003EB82039B6823FA00F000F0DA
:109410000100704700000021014B1860704700BF39
:10942000540B002110B5FFF78FFF17F0FDF8034B29
:1094300004461B6803B19847204610BD540B002119
:1094400070B50C88C27CA6B2C4F30E04931C0588C8
:1094500004F118021D44825AADB21A4443882A44CA
:10946000013AB2FBF5F202FB054292B29342044B81
:109470008BBF3340B34313439BB20B8070BD00BF1F
:109480000080FFFF4A1E062A08B50346084604D896
:109490004FF4D1711520FFF795FC094A914202D98A
:1094A00040F2A311F6E711B903B1196008BD2BB161
:1094B0001B680022C3E901211A1D1A600430F5E778
:1094C000FAFFFF7F10B5114B00EB41041A78638956
:1094D000B3FBF2F303FB0223013A1A44B2F5706FB7
:1094E000027928BF00231A448378B2FBF3F01944B1
:1094F00003FB1020091AB1FBF3F003FB1013134414
:109500006FEA43436FEA5343638110BD580B002158
:10951000024B03EB80035960704700BF580B0021DA
:10952000034B03EB80035868003818BF01207047D5
:10953000580B00212DE9F04F10F0070A85B00546C1
:1095400004D040F261111720FFF73CFC544F044651
:109550004FF0010B07F14006B146B04657F8043B07
:109560008DF80BA03BB101A898479DF80A30082B55
:1095700001D9E821E7E79DF80B1081BB05B1316007
:10958000B94506F10406E9D12DB30023DFF814E153
:109590000F221E468EF8003058F82200013A60B1C2
:1095A00090F804A08178BAF1FF0F64D14FF0000762
:1095B0008E4207713CBFCEB20123511CECD10BB1DE
:1095C0008EF800600F2640F6FF6A58F82670002FCC
:1095D00063D1013EF9D2601B05B0BDE8F08F9DF864
:1095E0000AC04A1DBCF1020FE64604EB420438BF34
:1095F0004FF0020E53000EF1FF300444CEF1000094
:109600002040BDF808406444CCF1000C013C04EA61
:109610000C04B4F5803F01D3F82194E775B1C31A67
:10962000336099701C8083F803B09DF80C201A7188
:10963000019A4FEA124C1A81A3F806C004FB0104F8
:109640009EE758F82C90B9F1000F06D099F804B0B5
:10965000D34504BF99F802904F440CF1FF3CBCF194
:10966000000FEEDA3944FF29A2D90BB18EF8006061
:1096700040F2271167E794460027F0E707EB410324
:1096800009F101093846A3F80AA0FFF71BFF5FFAAA
:1096900089F1BB788B42F1D89BE74FF00009F6E7E0
:1096A0005C0B0021580B0021F8B54FF6FF730546FF
:1096B0000380184B03EB8103586CB8B186780379AB
:1096C000B3FBF6F206FB1233DBB219460A1D00EBC0
:1096D0004202B2F902705488002F09DB0131B1FB5C
:1096E000F6F206FB1211C9B28B42EFD10020F8BD91
:1096F000FF29FBD0C4F30E03C4782B8024B94FF4A8
:10970000D5711720FFF75EFB5380BDE8F84016F0D7
:1097100062BB00BF580B00211D4B03EB810370B5EA
:109720005C6C054644B3030404D54FF4DC71172088
:10973000FFF748FB0146204616F030FBFF280146A4
:1097400004D02046BDE8704016F045BBA078B5FBBC
:10975000F0F300FB1353DBB219460A1D04EB42067B
:10976000B6F90260002E09DB0131B1FBF0F200FB1B
:109770001211C9B28B42F0D1002070BDFF29FBD07D
:109780008B4204EB42021CBF0023E3705580D8E7F4
:10979000580B0021094B03EB8103014610B55C6CAB
:1097A000204616F0FBFAFF28014604D02046BDE80B
:1097B000104016F010BB002010BD00BF580B002158
:1097C000F8B5104B074603EB810301465C6C20465D
:1097D00016F0E4FAFF28054611D0E688238953EAFB
:1097E000064606D00146204616F0F5FA01463846F0
:1097F000B04720462946FFF765FE0020F8BD05204A
:10980000FCE700BF580B002138B50E4B04468279A7
:1098100003EB8203586C08B9052038BD8278E179E2
:109820009142F9D24B1CE37100EB41035D89B3F91E
:109830000A30002BF3DBA58016F0CDFA2060002063
:10984000EBE700BF580B002170B5044610F0030091
:109850000E4603D04F211820FFF7B4FAFFF712FE8F
:10986000054624B1034831460460FFF70BFE284645
:1098700070BD00BFDC0B00212DE9F14FDFF870B0A7
:109880001E4607460D46DBF8003090469DF828A09E
:109890009DF82C901BB961211820FFF793FA5246CE
:1098A0000921404616F0EBF84A4684B209213046B9
:1098B00016F0E5F881B2DBF80000214416F043FA17
:1098C000386018B9286001B0BDE8F08F04445346F1
:1098D000414609222C60386816F08AF84B46092266
:1098E0003146286801B0BDE8F04F16F081B800BFDE
:1098F000DC0B002170B50E46044616F0D3F8054681
:10990000304616F0CFF8044B2A1821461868BDE8F7
:10991000704016F03CBA00BFDC0B0021014B186808
:1099200016F005BADC0B00211F2AF8B504461346D1
:109930000ED89200033222F00303B3F5803F2DD2FC
:10994000184DACB1A00710D05F210920FFF73AFAFB
:10995000FF2B4FEA420204D9FF339A42A8BF1A46AE
:10996000E8E77C2AB8BF7C22E4E729706C602B8191
:1099700022F0030228230127120403FB01F06B6885
:109980000025120CEEB28E4200D3F8BD14B1261899
:109990001F705E60104401352833F3E74FF0FF304D
:1099A000F3E700BFE00B0021144A002138B55368EB
:1099B0001478C8B2844203D8AB210920FFF702FA19
:1099C0001846013128330578002DF2D0002181702E
:1099D000012412898161051D44709208C16100F162
:1099E0002001446821F8022B994245F8044B1444A5
:1099F000F8D100234361037038BD00BFE00B0021A4
:109A00000A4B1B89B3F5FF7F4FEA930006D25A0831
:109A10009B1A9BB2984238BF18467047B3F5EE6F59
:109A200001D8FF22F4E740F27263F3E7E00B002174
:109A30002DE9F8434B7880460C4602F0040602F00C
:109A4000FB07D3B1DFB12E4BD4F804901D89B7BB0F
:109A50000123AD084A46211D637004F1280004F17A
:109A60002003A761E76123F8025B984241F8042BC9
:109A70002A44F8D10023636101E0002FE3D0FF23E3
:109A8000A370002E18BF0226A3191B7D032B03D140
:109A9000022F1CBF0136F6B2A31901221A7506F176
:109AA0000C02002304EB860624F812307268A370BF
:109AB0004046C8F80020A8F80430BDE8F88300212B
:109AC00014226170A01815F0D9F9B5F5FF7F0FD2F7
:109AD0006B08ED1AADB209EB0502C4F804902584B9
:109AE000A2606384C4F80C90A5842261E384C6E775
:109AF000B5F5EE6F4FF0FF03EBD940F27265EAE780
:109B0000E00B00212DE9F84305460C46F72005211E
:109B1000914615F0B4FF061E22DB1DB906FB04F0CA
:109B2000BDE8F88315F0030703D098211920FFF74B
:109B300049F9DFF83480C8F81050A5B2A8F81460CD
:109B4000BBB29D42EAD9B8F814C04B46D8F8100011
:109B50000522F72107FB0C00013715F049FFEFE75D
:109B60004FF0FF30DCE700BFF40B002107B5CDE973
:109B700000230B4603490246081D16F084FA03B081
:109B80005DF804FB0C0C002113B5064CCDE9002355
:109B90000B46024604F1080104F10C0016F073FABA
:109BA00002B010BD0C0C0021144B012200214FF01B
:109BB000FF309A60C3F80012C3F80803C3F8001519
:109BC000C3F804259A60C3F808034FF48040C3F833
:109BD0000015C3F8042503F5805341F6F8720849CF
:109BE000C3F80825C1F88000BFF34F8FBFF36F8F14
:109BF000C1F88001C3F80825704700BF00E00041AC
:109C000000E100E08C463222064B00B50CF8032B35
:109C10008E4607CBCEF80300CCF80410CCF8082011
:109C20005DF804FB280C002110B5154C10F02CFB3E
:109C30000FF04CFC0021636A608C9847237E9BB92F
:109C4000104B628C93E803000BF008FFE36A18885E
:109C50000BF02EFE636B94F8301094F831009847A7
:109C6000002384F8383010BD94E8070004F10C0399
:109C700083E80700044904F1190018F07DFBDFE7D1
:109C80001C0C0021440C0021059C0001034B93F89F
:109C9000383003B97047FFF7C7BF00BF1C0C002165
:109CA00040F26741062008B5FFF78CF808B5094B6C
:109CB00093F83820022A07D1DA7A42F00102DA72E8
:109CC000BDE80840FFF7B0BF40F22D212720FFF785
:109CD00079F800BF1C0C002138B5364D044695F8C4
:109CE00028300BB1C2071FD4012924D82B6C204681
:109CF000984700B395F83000E8B995F82820E2B10C
:109D00008CB995F84430D806C3F300142ED4EB6C0C
:109D100023B30123AAB16A8F910713D5EB6BD878CF
:109D2000023818BF012038BD6B8F1B07DCD5EB6BE9
:109D3000DB78022BD8D1012038BD002CE1D12046A0
:109D400038BD6A8F002AF6D16A6D107803EA1010C8
:109D50002043C0F1010000F0010038BDB5F85030DB
:109D6000B3FA83F35B09002AEBD0D4E7E96B0B78F5
:109D700003F00303032B02D1CB78022B18D0A86C7D
:109D800015F018FF48B9EB6B1B7803F00303032BA6
:109D900006D195F828200446B9E795F82820B6E7BB
:109DA00009F004FF80F0010095F82820C4B2AEE766
:109DB0000024ACE71C0C002170B5234C0646E56A74
:109DC000636D95F88C2094F85C00A3650AB1031DBF
:109DD000D8B2FF2895F86D1004D11EB995F86C30F3
:109DE0008B4203D00FF00AFF95F88C2032B3206E1F
:109DF00010F062FB94F82830D5F8E820003B216E83
:109E0000626718BF0123D5F8EC20A06D84F87C3080
:109E1000A2670FF0F9FA46B995F86D30033B012BB4
:109E200094BF2820002010F0E5FB95F86C1000206E
:109E300010F044FC022384F8383070BDA06D10F09F
:109E40003BFB0FF043FBE6E71C0C00212DE9F04142
:109E50003D4C82B094F83830E56A012B6CD15FFA42
:109E600083F895F87C3006460F4673B1638F002166
:109E7000042043F0040385F87C106387636A9847E5
:109E800094F828300BB185F87E80E16B0B7803F0F5
:109E90000303032B37D04B788BB3022385F8823032
:109EA00095F88C30F3B1E36A94F8282093F86D307C
:109EB000003A03F1FF3318BF0122DBB284F87C20A3
:109EC000D5F8E820032B6267D5F8EC20A26794F858
:109ED0005C2036D81D490020CB5C009001201C4935
:109EE0000FF028FA012F05D126B931463046FFF789
:109EF000F3FEE0B102B0BDE8F041FFF795BE0123EB
:109F000085F88230CCE795F8823063B9638F022000
:109F100043F002036387636A9847E16B0B7803F0B1
:109F20000303032BB7D1032385F88230B8E702B0CF
:109F3000BDE8F041FFF740BF40F29D412720FEF70A
:109F400041FFFFF7ADFE00BF1C0C002120F3020112
:109F5000800C002170B5804C002282B0E56A8DF83B
:109F6000052095F88C2094F85C300AB10433DBB2FC
:109F7000FF2B95F86C1004D118B995F86D308B4211
:109F800002D0FF200FF03AFE95F88230032B00F24A
:109F9000DE80DFE803F0021C817194F8BA306F486C
:109FA000ADF80630A5F85C3009F0DAFD002840F085
:109FB00098800DF105020DF10601A06C15F09AFDD7
:109FC000E06320B195F8C730002B00F0A280644B0D
:109FD0001846E36395F883200378D20003F0F30377
:109FE00002F00802134395F88420920002F0040264
:109FF000134303F0EF0203F00303032B027002D1BB
:10A00000C378022B11D0A06C15F0D4FD48B9E06BD9
:10A01000027802F00303032B07D009F0C7FD0028E4
:10A0200070D1E06B027842F01002027095F88B302C
:10A0300013B14378002B41D110F03EFA0FF046FAED
:10A04000E66B0AF0F1FD20B1337803F00303032B34
:10A050005BD095F86D10012010F030FBE26B01230E
:10A0600040491088927884F8BC30A4F8440084F801
:10A0700038308A7002B070BD384809F071FD002890
:10A080005BD0E06BC3781B2B14D1012105F11000CC
:10A090000FF0E6FDE06B0DE0B5F85C300DF1050268
:10A0A0000DF10601A06CADF8063015F023FDE0635C
:10A0B000002847D0012384F8BB308BE7206E10F0D6
:10A0C000FBF994F82830206EB3FA83F3D5E93812FF
:10A0D0005B09C4E91D12E16B84F87C300FF094F940
:10A0E000AEE7638F4FF48070E16B43F48073626A74
:10A0F000638790470121E06B85F87D10C3781B2BA7
:10A10000D8D1C3E7E06B02788FE7012011F056FE4B
:10A110009FE79DF8053043B1BDF8061018F0D3F85D
:10A120000123E06B84F8BB3054E703800121837086
:10A13000E06B17F0D1FFE06BEEE740F2D72127206C
:10A14000FEF740FE40F2CD212720FEF73BFE40F215
:10A15000E5212720FEF736FE1C0C0021580C0021BB
:10A16000A40C0021600C00212DE9F04FB84C87B001
:10A17000002294F83830E76A022B049240F01482EF
:10A18000638C0D46804613F0400106D1636A40207F
:10A190009847638C43F040036384B8F1000F5CD0B0
:10A1A00097F88C30002B40F05B81D4F858A09AF8D7
:10A1B000013099B2A4F85010002940F067810023C3
:10A1C000E3649AF80060638C97F88310C6F380020A
:10A1D00043F400739142638400F0F780D4F82C902C
:10A1E00099F88220FAB1022A00F0B881002194F88F
:10A1F000283089F8821023B199F87E30002B40F086
:10A20000A38199F87D30002B40F0808199F883304C
:10A21000D4F858A0012B0CBF0023012389F8833008
:10A22000638C9AF8006097F88410C6F3C00243F478
:10A2300000634FF000099142638400F0CE80002655
:10A240000AF0F2FC30B39AF8003003F00303032B5A
:10A2500020D1012011F0B2FD1CE097F88C20002ADB
:10A2600040F01C8143F4806394F8C620638401327B
:10A2700097F86D3084F8C620033B012B05D90AF00E
:10A28000D3FC8146002800F0D6800026012011F082
:10A2900095FDB14697F88B3013B394F8283097F8B2
:10A2A0007620B3FA83F3002AD7F8E0204FEA53135D
:10A2B00014BF0420002084F87C3097F86C3062676B
:10A2C000013BD7F8E420DBB2A267032B00F27181D7
:10A2D000604A6149D35C00220092FB220FF02AF809
:10A2E00045B994F8C6100120FFF7F6FC0546002892
:10A2F00000F0D880012510F031FA002E3BD1B9F1E1
:10A30000000F09D094F82830002B40F09680B4F864
:10A3100009300133A4F80930B8F1000F4AD0B4F87D
:10A3200005300022013384F8C620A4F805304B48DC
:10A330000BF0ACFA049830B115F0D9FCE16A0022B8
:10A3400002720AF0CDFB36B1E16A002333720C22AF
:10A3500030460AF093FB002D32D1638C1B0607D4E4
:10A36000636A294680209847638C43F080036384A6
:10A3700007B0BDE8F08FA16DE36C4E78002B00F0C4
:10A380001A81B4F850201846033214F00DFE0DF176
:10A390000E0205A9A065D4F8C00015F0BEFC059812
:10A3A00015F0A5FC314601220646D4F8C00015F090
:10A3B0004BFCA4E7B4F807300133A4F80730B6E744
:10A3C000FFF732FC07B0BDE8F08F97F88410C6F3B2
:10A3D000C002C14691427FF432AF06F00306D4F8C2
:10A3E0002CB0032E64D143F4805301205146002643
:10A3F0006384638F8BF87C0043F001036387636A97
:10A400009847D4F858A09BF88430013B18BF01232B
:10A410008BF884309AF80130002B3FF411AFDBF851
:10A42000E8300133CBF8E830DBF8EC3043F10003DF
:10A43000CBF8EC3004E706462CE7B4F80530B4F866
:10A440000710B7F880200B4313433FF465AF5EE776
:10A450001C0C002120F30201800C0021440C00217F
:10A460000FF05CF8D4F858A09AF8013000287FF477
:10A47000A0AE002B65D09AF8002097F88410C2F3A4
:10A48000C00291427BD099B2A4F85010D4F8C00019
:10A4900015F0B1FBD4F858A0E06492E60FF07EF816
:10A4A000638CDFE6FFF756FD002E3FF428AF62E72E
:10A4B000002EA8D09AF80160002EA4D043F4805357
:10A4C0009BF88C6063840FF027FB042894F8C43059
:10A4D00006D1002E14BF1B221F22934228BF134611
:10A4E000D4F858A09AF801209A424ED8E66C002E73
:10A4F0003FF4A6AE94F8C530002B53D0636A002118
:10A50000202000269847D4F858A099E6002689F81C
:10A510007D6009F035FB002852D0638F314608205A
:10A5200043F008036387636A9847D9F8E030013342
:10A53000C9F8E030D9F8E43043F10003C9F8E43059
:10A5400064E6A4F850303AE6638F102089F87E1054
:10A5500043F010036387636A984752E604A9A06C2E
:10A5600015F0EAFA88B3D9F8E0300133C9F8E030E1
:10A57000D9F8E43043F10003C9F8E43036E60123AA
:10A5800084F83130FFF750FBF2E694F830300120C8
:10A59000002643F0100384F8303011F00FFCD4F89B
:10A5A00058A04DE646462EE740F211512720FEF70F
:10A5B00009FCFFF775FB40F28E412720FEF702FCF5
:10A5C00040F21C412720FEF7FDFB40F20541272009
:10A5D000FEF7F8FB0D4B0E4A70B50E4C1A6094F85E
:10A5E00038301BB1DE212720FEF7ECFB03F0FF0221
:10A5F00006460D4622760BF029FA012104F1880067
:10A6000017F06AFD6665256670BD00BF6400002115
:10A6100094AA00011C0C0021074A10B592F83830AA
:10A6200013B10C24204610BD03F0FF0414760BF088
:10A630000DFA204610BD00BF1C0C0021024B012268
:10A6400083F8C520704700BF1C0C0021F0B585B011
:10A65000C24C02AD85E8030094F838100A9800292E
:10A6600040F07781002B18BF002A00F07281B0FA09
:10A6700080F14909002800F06C81236404F128036B
:10A68000606384F8C51084F8301084F8C61084F82C
:10A69000311084F8BC1084F8BB1061876184626259
:10A6A00095E8030083E80300E56A0FF00DFB0EF068
:10A6B0000DFF95F974000FF007FCA86A0FF0E0FE9B
:10A6C000286A0FF007FC95F89C000FF00DFC95F838
:10A6D0007630002B40F0C58096200FF007FA94F8F2
:10A6E0002800002840F0C58095F86C209C4B03EBB7
:10A6F000420399889B4B01F5FA71A3FB013189094B
:10A700007D310FF065FD984B984E18680FF0BEFE36
:10A71000D5F8F000D5F8F410E76AD5E90523A2646E
:10A72000C4F8C030D5F8F820D5F8FC300FC6D5F8FD
:10A730000031D5F80421C4F87D3097F88630C6F88A
:10A740000D20A3F12602012A40F29A8097F8872073
:10A75000262A00F09580213B012B00F2E280242A7A
:10A7600040F0D18094F82830002B00F0DD8097F87D
:10A77000652097F8263197F86C6013405A0700F16E
:10A78000CC8013F0010240F0DD809B0700F1D28005
:10A7900005F134073146384617F05AFE314617F0B6
:10A7A0000EF9B5F84030024695F86D1038469342E0
:10A7B00028BF134684F8BA3017F017FE95F86D10CD
:10A7C00095F88C700429B5F8486008BF032117F08C
:10A7D000F6F80FB9043080B2B04228BF3046C6B296
:10A7E00084F8C4600AF020FA00287ED194F828008A
:10A7F00084F85C6000285AD195F88B30E3B195F865
:10A800006C30012295F87610013B84F87C200029F9
:10A81000D5F8E020DBB218BF04206267032BD5F81F
:10A82000E420A26700F2A4804D4A0021D35CFB2201
:10A8300000914E490EF07EFD0120FFF78BFB0023B7
:10A84000B5F8800095F89C20A360C4E900332B6F15
:10A8500029886080218022710BB101221A6005B025
:10A86000F0BD4D200FF042F994F8280000283FF485
:10A870003BAF95F86D209C2101200FF0A9FC42E729
:10A8800094F82830002B37D197F8FA3197F86C609C
:10A89000002B3FF47DAFF21E012A3ED9DA1E012AB9
:10A8A0003BD9012E3BD0012B39D0022670E795F819
:10A8B0008C30B3B1D5F8E83001206367D5F8EC30BF
:10A8C00084F87C00A36795F86D30013BDBB2032B65
:10A8D0004ED823493246CB5C0021009123490EF02B
:10A8E00029FD0120FFF768FAA9E70AF0A3F9B042B1
:10A8F00038BF3046C6B279E797F8923297F86C6065
:10A90000002BC8D144E794F828306BB197F8263172
:10A9100097F86C6059077FF534AF042638E70126B5
:10A9200036E7242A3FF41EAF97F86C60032E08BF69
:10A9300004262DE7F31EDBB2012BEED9012E18BF42
:10A94000022625E7F31EDBB2012B8CBF1646042638
:10A950001EE740F26D112720FEF734FA1C0C00218F
:10A9600020F30201D34D621064000021800C00210D
:10A97000FFF796F908B5124B93F8382092B193F887
:10A98000282022B993F83830012B14D108BD93F850
:10A990003820022A0AD1DB6AD3F8D001BDE808408A
:10A9A0000FF0FABDBDE80840FFF73EB940F20F21B5
:10A9B0002720FEF707FA40F20B212720FEF702FAC4
:10A9C0001C0C0021FFF730B9014B1876704700BF0F
:10A9D0001C0C0021014B93F8BC0070471C0C00219B
:10A9E000034B93F8BB0010B9588CC0F3003070478C
:10A9F0001C0C0021024B588CC0F3C020704700BFD4
:10AA00001C0C0021014B93F8C60070471C0C002160
:10AA10002DE9F04182071E4F82B00446FE6A13D42E
:10AA2000E3070ED596F88410D6E93A32013342F1A5
:10AA300000020129C6E93A320CBF0023012386F83F
:10AA4000843002B0BDE8F081FB6CE3B1B7F8502070
:10AA50000D46B96D1846033291F8018014F0A4FA3E
:10AA60000DF1020201A9B865D7F8C00015F055F93B
:10AA7000019815F03CF9012228604146D7F8C00042
:10AA800015F0E2F8CCE740F28E412720FEF79AF964
:10AA90001C0C0021AD9C000169A100014D9E00012C
:10AAA0008D9C00012DE9F843002800F0E480044665
:10AAB000072900F2D380DFE801F0AB2525A7D120DC
:10AAC0009ECD0146204618F0ADFBD4F8443100F18C
:10AAD000F6059D4240F2C780E81A0321402838BF9E
:10AAE000402013F029FB0346C4F8445120461D467C
:10AAF00018F05FFC002D00F09C802046BDE8F84374
:10AB000018F058BC18F0CFFB0023D4F814210546E8
:10AB10000E4684F8403184F84931BAB150EA010355
:10AB200014D0CA00C30042EA50721B1A62EB010241
:10AB3000D4F830115B18D4F8341142EB0102D4E997
:10AB40005401834272EB0103C0F09380022304F5A9
:10AB5000A07784F84831384612F048FD002800F00C
:10AB60008E8094F8603103F0FF01002B6AD16FF002
:10AB70000043D4E956029A4208BFB0F1FF3F12D019
:10AB80002046D4E9549818F04DFBD4F85831F630EB
:10AB9000D4F85C21B3EB090362EB08021B1A62F1E3
:10ABA0000002002A4BDB394694F8100112F00AFE2D
:10ABB00000286ED0D4E95401D4E94A32834272EBC2
:10ABC00001071FD255EA06071CD0C01A334661EBB5
:10ABD00002012A4614F094F805FB01F1A5FB00538D
:10ABE00000FB0616D4E94A213344551943EB01030F
:10ABF000C4E94A5306E090F8100112F0D1FC00239A
:10AC000084F83831BDE8F883BDE8F8430FF0BABDE9
:10AC10000BF00CFFD4F84401DC3813F0FBF998B3C7
:10AC2000204618F07DFB00283FF44BAF204618F07B
:10AC3000C0FBD4E95423C4E94C23BDE8F883204683
:10AC40000BF0FCFE94F8100112F0AAFC002384F82B
:10AC50003831AFE7FD213020FEF7B4F840F20111A2
:10AC60003020FEF7AFF82046C4F8445118F0A1FB9D
:10AC7000DFE701236BE7E0213020FEF7A3F84FF474
:10AC8000D3613020FEF79EF840F25A213020FEF7C3
:10AC900099F840F29C613020FEF794F82DE9F04FCE
:10ACA000044689B000201F460E46914694F86DA0D8
:10ACB000049016F039FB94F8B8310B2B00F24B835B
:10ACC000824A32F8135094F887302844442B85B2D6
:10ACD00000F0878294F886800E2B18BFB8F1440FDD
:10ACE0000CBF4FF001084FF0000889F001030293F8
:10ACF000B9F1000F1AD0B4F8481204F50679B4F887
:10AD000080B0711AA6EB0B0B09B20FFA8BFB00296E
:10AD1000C0F25D82384694F8FC31032B00F23A838E
:10AD2000DFE813F0D2019801DA00470094F8FC3113
:10AD3000032BE0D1B8F1000FDDD0B4F89032B3426C
:10AD4000D9D1B4F8D4212046B4F84A3241F64B5B4D
:10AD50001344C4F8F831D4F80432C4F8F031E3698C
:10AD6000C4F8F4310DF00EF8D4F8982294F8A43217
:10AD70005A458CBF4FF0000B4FF0010B002B40F0F9
:10AD8000D582E3699A4204D0208818F00AFED4F8EC
:10AD90009832E361D4F8943284F876B0E362B4F880
:10ADA00092322386D4F89C326362022384F8FC3109
:10ADB000A1E7E26902FB01F30493002F00F0148283
:10ADC000B4F8D451002D40F00F8284F81352D4F817
:10ADD00004C20CFB113194F88630262B049100F04C
:10ADE000168294F88730262B00F0118200283CD080
:10ADF000002D3AD1D4E98EE0D4E98C237245834109
:10AE000080F0C38294F86D00C31E012B40F2838250
:10AE100003910FF0F9FE4AF2A13CD4F838322C4DE0
:10AE20008444A3F1830194F86D00A5FB0C3CA0F1D0
:10AE3000030ED4E98C23BEF1010FA1EB02030399A9
:10AE40001944A1EB9C1140F29A8203910FF0DCFEB1
:10AE500000F2E730D4F804C20399A5FB0030B4F83F
:10AE6000D4518009014410390491AB44AAF1030381
:10AE70000CFB0BFBDBB20BF1300B012B4FEA4B0B46
:10AE800040F20E825046124D0FF0BEFE4AF2A13340
:10AE90000344A5FB03239D0950460FF0ADFE0BF1C3
:10AEA00073031D4494F8763028440A4D2860002B23
:10AEB00000F0088104AB2A465946E06916F0C3FD4C
:10AEC000049B84F81302E26928686EE030F3020103
:10AED000D34D6210E40C0021E36A2946D4F8F40152
:10AEE000184410F0ADFD2946C4F80002E06910F0E6
:10AEF000A7FD94F87630002B40F0878194F86DA080
:10AF0000C4F804025046AAF1030A0FF07DFE4DF684
:10AF10004171BAF1010FC44D01442046A5FB013136
:10AF200094BF2823002303EB9111803117F0F4FA2A
:10AF3000B4F8D43113B9002F40F0B481D4F8F4310F
:10AF4000E26A94F86DB01344D4F80002ABF1030147
:10AF50001B1AC9B20493D4F8F0310129D4F8F821AE
:10AF6000B4F830A002FB03050AF1730A05F13005BD
:10AF70004FEA450540F2428158460FF045FE4AF23D
:10AF8000A1330344A848A0FB03239B09584603931D
:10AF900055440FF031FE039BE2691D44A34B284446
:10AFA0001860012384F8FC31049BD4F80452D4F8CF
:10AFB0004012551B6FF4B3721544854228BF0546F5
:10AFC000C918D4F8443204F13400C4F8D05143F124
:10AFD0000003C4F82812C4F82C32002384F8183275
:10AFE00017F001FA2844A4F84862C4F81C02D4E916
:10AFF0008A23C4E990230CF047F920B1D4F81C321D
:10B000001E33C4F81C32B4F8C01100238E1B84F820
:10B01000203236B29E4202DD022384F82032B8F19B
:10B02000000F40F00581002F40F0058194F8FC31BD
:10B03000002B40F02081494694F8140212F0C2FB24
:10B04000002800F08D81029B84F81032002009B0A6
:10B05000BDE8F08FD4F80402E269D4F8F851B4F8EE
:10B06000D431121AB4F830A09B4402FB01F1D4F899
:10B070000032EA430AF1730A049130339344D4F85E
:10B08000F02102FB053594F86D20D31E00FB0B5513
:10B09000012B4FEA450540F2B380104603920FF0B2
:10B0A000B3FD4AF2A13303445F48A0FB0323039A94
:10B0B0004FEA931B554410460FF09EFD5B4B5D44D9
:10B0C00028441860049B80E094F86D1094F8CE0139
:10B0D00016F09CFC8246E06A2946504410F0B0FC11
:10B0E0002946C4F80002E06910F0AAFC94F8763012
:10B0F000002B40F0888005A9C4F8040206A8DFF8F8
:10B1000028B10FF033FB059B0093DDE90623D4E95A
:10B11000900113F06BFA94F86D30054618460393CE
:10B120000FF072FD039B4DF64171033B0144204635
:10B13000012BABFB013194BF2823002303EB9111BA
:10B14000803117F0E9F9D4F84C32E26A94F86D00D6
:10B15000049303920FF058FD4AF2A133039AC318E7
:10B16000D4F80002ABFB0331049B933B13441B1A3E
:10B170005344B4F830A05B1B00F130050AF1950A86
:10B18000A3EB91136D00049394F86D30DA1E012A3D
:10B1900031D9184603930FF037FD00F52340A13055
:10B1A000ABFB003B039B4FEA9B1B184655440FF03B
:10B1B00023FD049BD4F84C225D441C499A1A284470
:10B1C000B2F5A07F0860C0F0D080E269EDE6002310
:10B1D0005946012084F81332D4E98C23C4E9902322
:10B1E00099E54FF0010880E594F81352002D54D0F2
:10B1F0000E490868D9E64FF0650BD6E76523C5E62A
:10B200004FF0650B56E7023075E7023076E6B4F88A
:10B210009032F31A1B043FF5E9AD94F89332002BFA
:10B2200018BF9A46E2E500BFD34D6210E40C00213E
:10B23000002F3FF400AFB4F8E821CAB1B4F8EA0136
:10B2400094F8EC1100FB011101308A427FF7F3AE54
:10B25000002B3FF4F0AE0023A4F8EA0184F820327A
:10B2600009F0EEFC00F00700013084F8EC01E2E6A2
:10B27000A4F8EA21DFE6D4F804324846E169C91AA5
:10B2800016F06CFB83B2002B3FF4D5AE129A01206E
:10B29000002A3FF4DCAE1380D9E6B4F8D45196E529
:10B2A0006525F9E5E26AD4F8F43194F86D0003EB12
:10B2B000020A0FF0A9FC4AF2A13394F86DB0AAF18A
:10B2C000930A0344ABF10301D4F80002A5FB032366
:10B2D000C9B2D4F83822AAEB000A9B09012992448A
:10B2E0000393D4E98C23AAEB020A1DD958460FF028
:10B2F0008BFC94F86DB000F2E732D4F80002ABF1A9
:10B300000301A5FB0235C9B2AD09039BAAEB0302F9
:10B310002A4404921FE6AEF1E80E3C20D4E98C23C7
:10B32000AEEB020E71449DE53C25EEE7208818F057
:10B3300035FBF8B1B4F8A022CB46B4F8903262865F
:10B34000B4F8A2224381013B82810382A0F80E90CF
:10B35000D4F898321DE540F2F2310620FDF732FDB7
:10B3600040F287513020FDF72DFD40F2D2413020D0
:10B37000FDF728FD40F232713020FDF723FDB4F8CF
:10B38000D4513C20D4F804C26CE540F22651302060
:10B39000FDF718FD40F23E513020FDF713FD00BFD0
:10B3A000F0B585B0002800F00C810446072900F2B2
:10B3B000FC80DFE811F07B00080008006C00FA0058
:10B3C00099007100F60010F0F7FCD4E98C23801A84
:10B3D00061EB0301012871F10003C0F204816FF0F9
:10B3E0000102002382428B41C0F2F480E3690BB179
:10B3F000B0FBF3F394F88710442905D094F8862025
:10B40000433A012A00F28480B4F80E12013189B265
:10B41000A4F80E12B4F8BA0002ADB4F88030B4F853
:10B420004A220344B4F8B800714E0132013BA4F83B
:10B430004A221B1A9FB2336853B1013900222046B9
:10B4400089B29847B4F80E12014489B2A4F80E12DA
:10B450007B1A18047ED40023204600951A46FFF775
:10B460001DFC08B3012840F0B080B4F80E12B4F807
:10B47000C031CA1A120400F18A80BDF8083019449C
:10B4800089B23368A4F80E12002BD6D1E0E705B0DC
:10B49000BDE8F0400FF076B990F8FC31042B40F095
:10B4A0009E80002380F8FC3105B0F0BD90F810328A
:10B4B00013B3B0F80E32B0F88020934279D09A1AC4
:10B4C000A0F88030A0F8C6212046D4E98A23C4E938
:10B4D0008C230CF077FB94F8CB31002BE4D005B033
:10B4E000BDE8F04018F0DCB8012010F067FC05B0B2
:10B4F000BDE8F040FFF766BAB0F80C32B0F8801043
:10B50000B0F80C225B1AA0F88020A0F8C631DBE767
:10B510000E293FF479AFB4F88010B4F80E220B4432
:10B520009BB2D11A0D0454BF531C01339BB2A4F833
:10B530000E3294F81132B4F80E12002B7FF46AAF79
:10B54000B4F8C4318B427FF465AF013189B2A4F8FD
:10B550000E125FE794F88A20012328460394002AFC
:10B560008DF808300CBF3E23082384F8A93009F079
:10B5700021FF204618F096F8002394F8140284F86E
:10B58000FC3112F00DF8202384F814328CE7BDF85A
:10B590000820114489B27A1A12F4004F18BF1946D4
:10B5A0006FE7D4213020FDF70DFCD8213020FDF7C6
:10B5B00009FCB0F8C421D31AA0F88020A0F8C63145
:10B5C00082E7A8213020FDF7FDFB40F26A613020C0
:10B5D000FDF7F8FB40F213613020FDF7F3FBCE21BD
:10B5E0003020FDF7EFFB40F212613020FDF7EAFB5F
:10B5F000680000212DE9F043D0F81431002683B013
:10B60000054680F818610F46D0E9548983F8CE21A9
:10B6100080F838610121D0F8140108F0E9FED5F86E
:10B620001441324631462046C4E98C8995F81031E0
:10B63000C4F84C7284F81432334684F8FC61A4F8E0
:10B640004862C4E990890096FFF728FBD0B901232E
:10B65000C4F8F801C4F8F00184F8FC31A4F80E0233
:10B66000A4F80C0284F81102B4F88030A4F84A025D
:10B67000013BA4F880300EF097FE03B0BDE8F04324
:10B6800011F004BE4FF4FE713020FDF79BFB00BFAC
:10B69000D0F81401704700BF2DE9F043002385B0B6
:10B6A0000322FF26CDE900338DF806206846FEF719
:10B6B000ABF8044620BB009D95F83831002BF5D03F
:10B6C00085F860610121284617F076FE95F838313B
:10B6D000002BEBD095F8100112F0D0FA95F810017C
:10B6E00012F04EFE95F8100111F05AFF00283CD0E0
:10B6F00085F838416846FEF787F804460028DAD016
:10B70000DFF87C800123002502264FF6FF7788F8BA
:10B7100004301AE0029BE3B193F81422202A18D0D7
:10B720001888B8421BD00221FEF734F8814608B3CE
:10B7300090F8140212F024FE99F8140289F8FC41E2
:10B7400011F02EFF202389F81432CDE902558DF82F
:10B750000E6002A8FEF758F804460028DAD000234D
:10B7600088F8043005B0BDE8F0834FF4F471302060
:10B77000FDF728FB4FF49A713020FDF723FB00BF43
:10B78000E40C0021044B002242F210715A71D9805E
:10B790001A71FFF781BF00BFE40C00212DE9F843C7
:10B7A00090F83831002B76D1044688460146564839
:10B7B000154603F0FF0711F0BFFE202806466AD0A9
:10B7C0005822394604F5887013F058FB84F810614C
:10B7D000C4F81481FF2384F83831B8F1000F06D083
:10B7E00009F046FA00F00700013088F8EC01022366
:10B7F0004FF00008A4F8483184F8408110F066F951
:10B8000000F1BC062046B6B217F08AFD002846D0EB
:10B8100015F08AFD00F5CD6128464FF0010989B287
:10B8200010F00EF92844C4F8440110F0C5FA30189D
:10B83000A4F8268041F10001C4F8500184F8189161
:10B840002046C4F8541117F081FD002845D0A5F218
:10B85000F2454946204617F0E5FC2D1AC4F81C5164
:10B860004FF0FF326FF00043C4E9562304F5A07196
:10B8700094F8100111F0A6FF00283FD020460021C7
:10B88000D4E95423C4E94A23C4E94C2317F094FDB6
:10B890003846BDE8F8830C273846BDE8F8830146F2
:10B8A000204617F0BFFCDFF86480F630C4F844018E
:10B8B000B8F8060008B1E08CB8B9064410F07CFA7C
:10B8C000361841F10001C4E95461002DC8D0AE1909
:10B8D00041F10001C4E95661C8E7F63D484617F05A
:10B8E00008FE2D1AC4F81C51BAE709F0C1F9B8F8DE
:10B8F0000630B0FBF3F202FB1300DEE74FF4E57114
:10B900003020FDF75FFA00BFA5AA0001E40C00217A
:10B9100090F838310BB90020704710B50446FF236A
:10B9200080F86031012117F047FD94F838310BB9E8
:10B93000002010BD94F8100112F0A0F994F8100145
:10B9400012F01EFD94F8100111F02AFE20B1002320
:10B9500084F83831002010BD4FF4F4713020FDF729
:10B9600031FA00BF014B5871704700BFE40C002151
:10B9700090F8602182B910B502F0FF0490F8182108
:10B9800012B90122104610BDD0E947319942F9D9C8
:10B990000BF054F82246F5E700221046704700BF2E
:10B9A00008B50EF0DDF8054B9A68824203D318798A
:10B9B00080F0010008BD002008BD00BFE40C00219C
:10B9C00040F20B2108B516F0AFFDB0F5296F28BF86
:10B9D0004FF4296080B208BD90F8CB31002B73D1B1
:10B9E000F0B503F0FF0590F8FC3185B00446032B59
:10B9F00001D005B0F0BD10F0DFF9D4E98C23801A36
:10BA000061EB0301012871F10003F2DB6FF0010328
:10BA1000834275EB01035ADBE369B4F88020002B05
:10BA200053D0B0FBF3F080B20132B4F8C43110440B
:10BA300080B2A4F80C02B4F80C229B1A1BB2002BA3
:10BA4000D7DD94F8140212F019F90028D1D0FF23A1
:10BA500084F81132B4F880500DF10E06B4F8BA2013
:10BA6000B4F8B83015441F4F013DED1A3B68ADB234
:10BA700063B1B4F80C1200222046013989B298470C
:10BA8000B4F80C32184480B2A4F80C02B4F80C32AA
:10BA9000EB1A1B04ADD4B4F80C120023012220468B
:10BAA00089B20096FFF7FAF80028A2D0012813D136
:10BAB000B4F80C32BDF80E2013449BB2A4F80C323B
:10BAC0003B68002BD5D1E1E770471846ACE740F260
:10BAD000BB513020FDF776F940F202613020FDF7CE
:10BAE00071F900BF680000212DE9B043044682B01F
:10BAF000062900F29780DFE801F0041D0A1A232AC4
:10BB00006D004B4B1B7903F0FF02002B7CD004230C
:10BB100084F8FC310EF048FC11F0B8FB0023B4F8B7
:10BB20008020A4F84A32A4F80E2284F8113202B020
:10BB3000BDE8B083032380F8FC3102B0BDE8B083D8
:10BB40000EF03CF8C4E98E0102B0BDE8B08390F875
:10BB50006D30C569033BD0F80412DFF8D480012BA7
:10BB600098F8053094BF4FF4BD794FF4A9798D4210
:10BB70008CBF6D1A00251BB9436B9D4228BF1D4623
:10BB8000D4F8D07104F1340016F02DFC07440220E3
:10BB900012F07EFA0221ED1B25EAE575854228BFE9
:10BBA0000546284612F0C8FA00B92F444A463946DD
:10BBB000204616F09FFCE269D4F8D031C8F808009E
:10BBC000D01812F027FA0028B1D140F27E3130208F
:10BBD000FDF7F8F890F86D502846033D0FF014F883
:10BBE0004DF641710246134B012D20461144A3FB33
:10BBF000013194BF2823002303EB9111803102B05F
:10BC0000BDE8B04316F088BCB0F8C411012300921F
:10BC1000FFF744F800283FF47DAF4FF4DA6130209D
:10BC2000FDF7D0F840F284713020FDF7CBF800BF6B
:10BC3000E40C0021D34D6210012A70B5064609D0EC
:10BC4000022A14460D461ED04AB140F2AE71302091
:10BC5000FDF7B8F80DF084FFC6F84C0270BD0DF08A
:10BC60007FFF224601462846FFF7C4FC32460F49B3
:10BC700095F8100110F08CF80028EFD140F2977180
:10BC80003020FDF79FF8D0F84C1201222846FFF72C
:10BC9000B1FC3246054995F8100110F079F80028FA
:10BCA000DCD14FF4F5613020FDF78CF8A1B3000131
:10BCB000F8B5044651B1012960D1002380F818314C
:10BCC0000EF072FBBDE8F84011F0E0BAC58C002D13
:10BCD0004CD12046D4E94A7617F0E5FA40194FF0E6
:10BCE000000341F10001C01984F840314FF0020314
:10BCF00046EB0101C4F85001C4F82801C4F85411FE
:10BD0000A4F84831C4F82C1194F8603103F0FF0115
:10BD1000002BD5D16FF00043D4E956029A4208BFF8
:10BD2000B0F1FF3F0CD104F5A07194F8100111F0AF
:10BD300049FD0028C4D140F2EF613020FDF742F800
:10BD40002046D4E9545617F06DFAD4F85831F6303D
:10BD5000D4F85C215B1B62EB06021B1A62F1000245
:10BD6000002AE0DA20460AF069FEA9E708F068FF39
:10BD7000E58CB0FBF5F303FB1505AAE740F2BE71B5
:10BD80003020FDF71FF800BF90F83801003818BFC9
:10BD900001207047014BD880704700BFE40C0021A0
:10BDA00006220B4603F8032BB0F809C0C27AA1F8AB
:10BDB00003C09A70704700BF40F2C321322008B51B
:10BDC000FDF700F810B582B090F8DE3073B903F0DB
:10BDD000FF02ADF804209DF8042000209DF80530F6
:10BDE00062F3070063F30F2002B010BD36380C4633
:10BDF00004F06CF9182204232270ADF80430EAE74D
:10BE000070B5002865D0437A04460D46002B3FD01C
:10BE100000214089FDF7BEFC064600285ED0008860
:10BE200007F05EFE00213088FDF7CAFC00285AD1D9
:10BE300094F8546094F8A6302BB194F8A7301E43C0
:10BE4000002384F8A630204604F040F9B30730D12F
:10BE500013212B4604F10902293403F8031BD2F8FD
:10BE600000C0103252F80C6C103352F8080C52F823
:10BE7000041CA24243F810CC43F80C6C43F8080CA5
:10BE800043F8041CEBD1117800221970AA7170BD1F
:10BE9000036DD0F80E20C3F80320428AA3F80720D0
:10BEA000427B036D12F0FD0F14BF012200229A7035
:10BEB000BEE7002226F004062046114684F85460AE
:10BEC00004F0BAFF0028C3D14FF44B713220FCF7C5
:10BED00079FF4FF443713220FCF774FF4FF4467141
:10BEE0003220FCF76FFF4FF447713220FCF76AFFF6
:10BEF000044B00221B68A3F8212183F8232183F837
:10BF000070207047F00C002108B508F02FFB034BA0
:10BF100018700EF0B9F9032008BD00BF1000002111
:10BF200008B508F023FB024B024601201A7008BD39
:10BF30001000002138B5114C20686C3003F0C6FAAF
:10BF4000656803F073FA63682860186858B103F0F5
:10BF50009BFA68B10EF0B0FA00200EF04BFB63685C
:10BF600004221A7138BD40F2F7413220FCF72AFF53
:10BF700040F2F9413220FCF725FF00BFF00C002110
:10BF800008B508F0F3FA04490246044B48681A70F1
:10BF900003F00EFB012008BDF00C00211000002171
:10BFA000F0B5534C00220E460546236841F27070EE
:10BFB00083B0196D5A72CA69B1F800C0A3F80AC0FB
:10BFC000A2F57A7C844540F286804A48A0FB0202B2
:10BFD000C2F38F221A848A8C5A84CA8C9A844FF4B2
:10BFE0007F42DA844FF6FF721A85002D69D0012155
:10BFF000304615F076FF3278D209236893F848105E
:10C0000009B1002A3DD1207B0021082859611983FC
:10C0100043D003F10E0203F10D0108F053F800289C
:10C0200061D023685A7B03F11A0742F002025A7367
:10C03000002D40D103F1780002683A608288BA800E
:10C0400093F95810186D08F075FA20682A4916F00F
:10C050008AF9236829491A6D1088A3F8330003F17F
:10C060002A0092F88E2083F8352016F085F9206892
:10C07000022105F091F820686C3003F027FA03B034
:10C08000F0BD427902F0C002402ABCD102685A6178
:10C090008288207B1A830828BBD193F87E109A6F80
:10C0A000B3F87C0059730021C3F80E205882C3F8FE
:10C0B0001A10D983C4E70021304615F012FF236817
:10C0C000BAE7A068694615F0BFFDA36868461A780C
:10C0D000C2F3801291E70A48A0FB0202920902F51E
:10C0E000506292B276E741F2EA313220FCF76AFE02
:10C0F000F00C00215917B7D101BE0001A1BD00010C
:10C10000D34D621040F29D31322008B5FCF75AFE43
:10C1100010B504788CB004F00F0402A9224603F095
:10C12000E1FC08F023FA234A042C107002D003200B
:10C130000CB010BD204C0399236891F800E093F8EF
:10C1400078C0E645F3D191F801E093F879C0E6456F
:10C15000EDD191F802E093F87AC0E645E7D191F885
:10C1600003E093F87BC0E645E1D191F804E093F851
:10C170007CC0E645DBD191F805C093F87D108C4575
:10C18000D5D193F87E309DF819109942CFD17F28F0
:10C190000DD04FF07F0C009002A9606882F800C0BB
:10C1A000237C227B03F008FC03200CB010BDFFF7BA
:10C1B000A9FF00BF10000021F00C00212DE9F04F75
:10C1C000054687B006290BD8DFE801F0A630100A33
:10C1D0000A0A0400B04C60688379002B40F0C580E7
:10C1E0000EF052F8032007B0BDE8F08F0EF04CF8C7
:10C1F000A94A136893F854108F07F3D050688179D7
:10C200000029EFD0A54C94F900107F2900F0EF81B0
:10C2100002912946127B7F2542330192FF22009230
:10C220000222257003F020FB0320DCE79A4CAE7C51
:10C2300060682168012E837990F80790059391F842
:10C24000483083F0010B00F0AB80002691F85420B9
:10C25000374612F0040300F0AB8091F84DE0BEF1D8
:10C26000000F00F0A58091F84E80B8F1080F40F063
:10C27000A28091F841800027404623B36A6891F874
:10C280005BC092F800E0E64500F04B814FF0000AF9
:10C2900062685279082A05D091F84EC0944508BFCB
:10C2A0004FF0010A002F40F0E280BBF1000F40F098
:10C2B00032813846B9F1000F40F0DB800DF0E4FF29
:10C2C000236893F8542093078CD00DF0DDFF059B75
:10C2D000002B87D02068AB6800F14201AA7C90F85F
:10C2E000410015F0B1FA17B9002800F058816B4EE3
:10C2F00096F900307F2B00F07A8102932946237B48
:10C300000122CDE90083D4E900307F244233347028
:10C3100003F0AAFA032066E75F4C2368606893F88D
:10C320005420570719D5C279002A56D06A6893F865
:10C330005B1016788E4200F0C98093F85620012ACF
:10C3400000F0A68093F84E30082B03D042799A4231
:10C3500000F09E800DF098FF60688379002B40D13B
:10C36000C379002B7FF43EAF3AE7236893F854205B
:10C37000960760D5494A92F900107F2900F037816D
:10C3800002912946257B42330195FF2500957F25A3
:10C390001570062203F068FA00230920237422E7AF
:10C3A000AA68527902F0C002402A7FF44EAF4DE7EE
:10C3B00090F8058059E7404607F092FD002818BF25
:10C3C0008346002F40F0DB80216891F8418091F88E
:10C3D0005420404602F004034FE78379002B3FF4DA
:10C3E000FFAE236893F85420960759D4D0077FF501
:10C3F000F9AE510700F1F480284B93F900207F2A11
:10C4000000F0F5807F200292227B29461870FF20E1
:10C4100023680192002200904233606803F024FAFE
:10C4200003206368DA79002A7FF4DDAE9B79002B64
:10C430007FF4D9AED4E6D1077FF5D2AE530700F131
:10C44000CC80164B93F900207F2A00F0D0807F200B
:10C450000292227B29461870D4E90030FF24019211
:10C4600042330622009403F0FFF90320BBE60120CB
:10C4700020E7236893F85630012B06D0002B7FF479
:10C480001DAFBAF1000F3FF419AF00283FF416AF0B
:10C490000A2007B0BDE8F08FF00C00211000002149
:10C4A000544A92F900107F2900F0A1800291294698
:10C4B000257B42330195FF2500957F2515700022CD
:10C4C00003F0D2F9012309202374AAE7567893F8E0
:10C4D0005C108E427FF431AF967893F85D108E42F7
:10C4E0007FF42BAFD67893F85E108E427FF425AFA1
:10C4F000167993F85F108E427FF41FAF517993F84D
:10C50000602091427FF419AF697C93F85A209142E0
:10C510007FF413AFBCE74231AB68AA7C15F094F905
:10C52000C8E692F801E091F85CC0E6457FF4AEAE53
:10C5300092F802E091F85DC0E6457FF4A7AE92F86C
:10C5400003E091F85EC0E6457FF4A0AE92F804E007
:10C5500091F85FC0E6457FF499AE92F805C091F876
:10C56000602094457FF492AE95F811A091F85A207E
:10C57000AAEB0202D2F1000A4AEB020A88E6A96895
:10C58000404607F08FFE2168074691F8542091F845
:10C59000410047B340F0020802F004036DE623684F
:10C5A00093F85520023A012A3FF61CAE002E3FF4C4
:10C5B00019AE104E96F900207F2A18D0029242330D
:10C5C000227B294660687F240192FE22009201228C
:10C5D000347003F049F9032005E60DF055FE30E70D
:10C5E0000DF052FE08E7804602F0040345E6FFF72F
:10C5F00089FD00BF100000210E4A536810B519795B
:10C6000002290CD9197908290ED8197952690A4BCF
:10C6100092680B44BDE8104052F82330184741F2AD
:10C6200093413220FCF7CEFB41F294413220FCF7DB
:10C63000C9FB00BFF00C0021FDFFFF3F38B5194DCD
:10C640006B681B79022B28D82B680446027C83F880
:10C65000A4201A44C168996692F8242183F8202105
:10C660004268C3F88820037A022B0ED00DF02CFB11
:10C670000EF00AF80CF0CAFD0B480DF007FF0B484E
:10C680000DF0FEFE0A480DF025FC637C23B12B68FB
:10C690005B6E0BB101221A6038BD40F6EA01322010
:10C6A000FCF790FBF00C002184010021555555004A
:10C6B000D6BE898E70B53A4C064663681A79032A4D
:10C6C00030D01A79042A2DD0226892F8542092078B
:10C6D0002DD1A568002D40D0236893F85430002B4D
:10C6E00040D03EB1284615F0C0FC28BB284615F0C6
:10C6F000D7FC08BB63681A79022A3DD91A79082A3F
:10C700003FD819796269274B52690B4452F823309C
:10C7100098470C282BD86369DB68BDE8704053F854
:10C7200020301847186802F0AFFE0546D2E71868B7
:10C7300002F0ACFE0546CDE763681A79022A25D9D6
:10C740001A79082A27D8197928466269154B12697F
:10C750000B4452F823309847DBE741F29B313220FB
:10C76000FCF730FB41F2A1313220FCF72BFB41F208
:10C77000B4313220FCF726FB41F281313220FCF744
:10C7800021FB41F282313220FCF71CFB41F22131C6
:10C790003220FCF717FB41F222313220FCF712FB6A
:10C7A000F00C0021FDFFFF3F1B4B2DE9F04793F9F3
:10C7B000008084B0B8F17F0F2CD0184C7F228146C6
:10C7C0000E4667681A703B79032B1AD03B79062B0B
:10C7D0000CBF4FF0030A4FF0010A236803F1420532
:10C7E0000DF09AF9324600902B46257B4946384693
:10C7F0000195CDE9028A02F02BFF28B904B0BDE80B
:10C80000F0874FF0000AE8E7606804B0BDE8F04741
:10C8100002F08EBEFFF776FC10000021F00C002124
:10C8200038B505460C4606F0EFFF420704D4A3785E
:10C8300003F0E003402B0DD006F0E6FF830704D49D
:10C84000A37803F0E003202B04D0237803F03F0308
:10C85000242B01D9002038BD0DF064F994F9003083
:10C8600094F802C0002B62780CF01F03ACBF1E21AD
:10C870004FF4967142EA032301FB03F31A1AB2F54F
:10C88000877FE7D39842E5D8054A29462388106870
:10C89000A0F8213180F823C1BDE8384003F09CBCEA
:10C8A000F00C00212DE9F047344E84B07568AB7967
:10C8B0006BB3D6F800A0044689469AF8953033B990
:10C8C0000378002B0CBF012302238AF895302879C6
:10C8D0000628C3B23ED0072B14BF4FF001084FF01B
:10C8E0000208274890F900707F2F45D07F230370FE
:10C8F0000DF012F9317B0AF1420300904A46019192
:10C9000028462146CDE9027802F0A2FE20B9002592
:10C91000284604B0BDE8F087657815F010051CD0F6
:10C92000A1690220FFF77CFF0546E8B100233268C9
:10C9300082F896306369DBB15978C1F3031182F84C
:10C94000971059781B7801F00F0143EA0123A2F8F0
:10C950009830DDE74FF00308C3E7706802F0E8FDA8
:10C96000284604B0BDE8F087706802F021FECFE7EA
:10C97000FF2382F89730CBE7FFF7C4FBF00C0021D0
:10C980001000002110B504468AB007F0EFFD194AE7
:10C990002378107003F00F03072B02D001200AB098
:10C9A00010BD2046694603F03BF9684603F026FABD
:10C9B0009DF80030002BF1D19DF80130DB07EDD55B
:10C9C0000D4C019922689DF8110002F1780392F84C
:10C9D0007E2014F039FF0028E0D020680121A0302B
:10C9E00014F071FCFF216846FFF75CFF0028D5D0EA
:10C9F0000220D4E710000021F00C00212DE9F043C3
:10CA000004468BB007F0B2FD404A2378107003F063
:10CA10000F03082B04D0012528460BB0BDE8F08396
:10CA20006946204603F092F89DF80050002DF2D19F
:10CA30009DF8013003F00303032BECD1344E37682B
:10CA400097F84D308BB397F84E90737B8BBB4FF0BC
:10CA5000000807F1780397F87E2001999DF81100EE
:10CA600014F0F2FE10B9B8F1000FD4D097F84820B6
:10CA7000376897F841804237002A36D19DF8120076
:10CA80000299012821D03B46424614F0DDFE0028E1
:10CA9000C1D030680121A03014F015FC737B6BBB52
:10CAA00021460120FFF77CFAB6E7736893F80590FA
:10CAB000CBE714F00DFF0828C9D0A0EB09083073AC
:10CAC000B8FA88F84FEA5818C3E74B7903F0C00367
:10CAD000402BD8D13B46424614F0B6FE0028D8D1B0
:10CAE0000299484607F0DEFBD1E7484607F014FC00
:10CAF0000028C3D007464FF00108BFE70DF0C4FD82
:10CB00000CF084FB00237373CAE700BF1000002100
:10CB1000F00C00212DE9F04FDFF8E8A09346847C6B
:10CB200083B0DAF800200646012C894692F8487056
:10CB3000984687F0010738D000249AF80D50234614
:10CB4000E5B192F85410490721D47268A2B3DAF81B
:10CB500004205579082D22D02846019307F0C0F90A
:10CB6000019B002818BF0746EBB19AF80F307BB342
:10CB700014F0B8FE002305468AF80F308BF80050F9
:10CB800089F8004088F8007003B0BDE8F08F92F893
:10CB90004D100029D9D092F84E50082DDCD113B198
:10CBA0009AF80E10D1B10025E8E783685B7903F0AD
:10CBB000C003402BC0D1C0E7DAF80420019310680D
:10CBC00002F072FF019B0028C1D1002BEBD0E7E7F8
:10CBD0002846B16807F066FB0546CFE7B0680191CB
:10CBE00007F088FA05468AF80D000028C6D014F030
:10CBF0006FFE0828019903D0DAF804305871BDE7B8
:10CC00000D46BBE7F00C002108B5054B586802F053
:10CC10008FFC07F0ABFC034B024601201A7008BDE5
:10CC2000F00C0021100000212DE9F843774C002280
:10CC300005460F46A368D4F8009018461A800DF0F8
:10CC400071FC0646002836D0032D4ED0052D56D057
:10CC5000A06809F1780114F0FEFF99F87E10A06831
:10CC600015F00DF8236893F8482003F1420793F874
:10CC7000418092B9A068394614F0DFFF4146A068B0
:10CC800014F0F0FF624BD3F80431002B40F0B98070
:10CC9000052D1DD03046BDE8F88393F85420520787
:10CCA0000FD46368587907F037FB0028E2D00746B5
:10CCB0004FF00108DEE7032007F000FF3046BDE833
:10CCC000F88393F84D20002AEBD093F84E00EAE762
:10CCD0002368304639681A6DC2F80A10B988D181C4
:10CCE0001B6D83F80980BDE8F883A0680C234370AE
:10CCF000037823F00F0343F003030370A9E7D4F88C
:10CD000008802223226898F8001088F8013021F06A
:10CD10002F0141EA471747F0050788F80070136DA7
:10CD20001B6AC8F80F30116D8B6A180A88F8133027
:10CD30001B0C88F8140088F8153091F87630088EAE
:10CD4000002B4BD1334FA7FB0030CB6AA7FB0373FB
:10CD5000800AC3F38F2388F817301B0A88F816005F
:10CD600041F2707088F81830CB69A3F57A77874262
:10CD70003FD92848A0FB0303C3F38F2388F8193059
:10CD80001B0A88F81A308B8C88F81B301B0A88F82D
:10CD90001C30CB8C88F81D301B0A88F81E30D1F867
:10CDA0008F30C8F81F3091F8933088F82330136D16
:10CDB00098F8242093F89A3022F01F0203F01F0302
:10CDC000134388F8243006F045FD98F8243003F02A
:10CDD0001F0343EA401388F8243039E70E4FA7FBBE
:10CDE0000030CB6AA7FB0373C0F34710C3F34F13A4
:10CDF000B1E70A48A0FB03039B0903F550639BB20C
:10CE0000BCE740F23F613220FBF7DCFFF00C002171
:10CE1000008000415917B7D11F85EB51D34D6210E7
:10CE200038B5154C236893F854309B0718D1A56882
:10CE3000E5B12368FF2093F820110CF0DFFE2846AF
:10CE40000DF03AFB236893F82031033B012B94BF8C
:10CE5000282000200DF0CEFB636807221A7138BD30
:10CE60006368186802F012FB0546E1E740F21E51C4
:10CE70003220FBF7A7FF00BFF00C002138B51E4C95
:10CE80000E20236893F820110CF0B8FE236893F865
:10CE900054309B0724D1A56845B328460DF00CFB00
:10CEA000236893F82031033B012B94BF28200020F6
:10CEB0000DF0A0FB2368681D93F8205107F048F996
:10CEC000607348B1033D012D94BF552550250CF0EA
:10CED00081F928460DF0CCFB636808221A7138BD31
:10CEE0006368186802F0D2FA0546D5E740F20B51A4
:10CEF0003220FBF767FF00BFF00C002170B50D4D2D
:10CF00000222D5E900031A7103F0BEFF00B170BD23
:10CF10002E68044606F16C0002F04AFB2868A6F869
:10CF2000214186F8234186F87040BDE8704004F046
:10CF300009B900BFF00C002110B50A4C07F016FB30
:10CF4000094A637B10701BB90DF09EF9032010BDD8
:10CF50000DF09AFB0CF05AF9002363730DF094F96D
:10CF6000032010BDF00C00211000002170B52D4CE5
:10CF70000546236893F823215F2A2CD851092A4AB1
:10CF8000565C93F8210100F03F000CF0ADFF2368E0
:10CF900093F958000CF098FFFDB123683246012048
:10CFA000996E0DF015F92368314693F89630022BEF
:10CFB0000CBF4020FF200CF021FE236893F8542082
:10CFC000920710D193F89530A568B3B12846BDE813
:10CFD00070400DF071BA0026D3E73246732101206C
:10CFE0000DF0F6F8DFE76368186802F04FFA23687F
:10CFF000054693F89530002BE8D1681D07F0A8F896
:10D0000060730028E2D0033E012E94BF55245024C3
:10D010000CF0E0F820460DF02BFB2846BDE87040F0
:10D020000DF04ABAF00C002148F30201F0B52F4C84
:10D0300083B00646236893F823215F2A30D851092C
:10D040002B4A575C9A6E7ABBD3F888000DF0A4FA8D
:10D05000256895F854309A0703D595F89620022A4A
:10D0600033D05B072DD46368186816BB02F01CFD33
:10D0700063680646186802F01DFD024605F19A0035
:10D080002568314695F8963095F82051009502F0C4
:10D090005DFE2268002382F82071A37303B0F0BD07
:10D0A0009A6E0027002ACFD00120FFF75FFF236888
:10D0B000CAE702F00BFD014605F19A0002F03CFEC2
:10D0C000E7E795F89630012BCDD1FB1E012B05D952
:10D0D000394600200DF0F2FA2568C4E795F859307A
:10D0E000012B14BF39460321F3E700BFF00C0021E8
:10D0F00048F3020110B50B4C637B63B9A1680020B3
:10D10000FEF74EFF23680022A3F8212183F8232194
:10D1100083F8702010BD0DF0B7FA0CF077F80023FB
:10D120006373EBE7F00C002110B50E4C637B8BB9F9
:10D1300000220120D4E90031087103F16C00A3F84A
:10D14000212183F8232102F0C1F92068BDE81040B5
:10D1500003F0F8BF0DF098FA0CF058F80023637351
:10D16000E6E700BFF00C002107292DE9F04F0D463E
:10D1700087B004469146476803D12FB9002A00F0D2
:10D18000BD80002F00F08480637CDFF8A482012B37
:10D1900044D0D8F80430587908285AD00DF10F013E
:10D1A00004AA06F08FFF002800F0388104A99DF83A
:10D1B0000F0015F098FD0746D8F8001091F854C0FC
:10D1C0001CF0030A6DD1D8F8046086F806A091F827
:10D1D000543013F0040340F0BA80F371954B1B6890
:10D1E0002BB14946204698473072D8F804606368EE
:10D1F0004BB1617CD8F8002082F87E1019689167E5
:10D200009B88A2F87C30337A002B00F00C81072D2C
:10D21000A06800D188BB07B0BDE8F08F7B7903F030
:10D22000C003402BB5D1072D98F80D3000F0BC801D
:10D23000002BAED0D8F8046014F04AFBD8F80430C4
:10D24000707158790123082888F80C0088F80E308E
:10D25000A4D16168607C15F046FDD8F8042007462B
:10D2600061680532607C06F063FE03460028A3D1A6
:10D27000D8F80460F0803072C9E771790829CAD003
:10D28000002BC8D006F054FF012388F80F30C2E706
:10D29000DFF89C81D8F8001091F854C01CF0030A04
:10D2A00091D0062D91F84CA0D8F804606AD9082DC9
:10D2B0006DD896F806B08BF00103B9F1000F0CBFE2
:10D2C000002303F00103002B61D16268002A59D1C9
:10D2D000B9F1000F40F08D806278D00640F189806E
:10D2E00001201CF0040FB0713FF477AF91F84D307E
:10D2F00096F807A0D2066ED501236EE7DFF83081DD
:10D30000D8E9001091F8543013F0030218BF01223D
:10D3100013F00403827105D02378A3F10103B3FA5B
:10D3200083F35B09C37191F89430002B3FF473AF22
:10D33000D8F80030D3F89000503016F0FDFA0028ED
:10D340007FF469AFD8F8043001221A7263E7062D22
:10D3500091F84D3004D8002B7FF43FAF3B463CE7BB
:10D3600096F807A0082D1DD8BAF1010F02D0B9F127
:10D37000000F17D16268002AEDD1B9F1000F2AD150
:10D380006278B7E7BAF1000F08BFBA461DE700237D
:10D39000B3711CF004033FF420AF91F84D3096F8C0
:10D3A00007A0DFE7002318E7002B3FF4F2AEB9F146
:10D3B000000F7FF43FAFD8F8003093F82011012917
:10D3C0007FF438AF384606F095FE88F80D00002847
:10D3D0003FF4DFAE2EE73068019302F065FB1AEAF6
:10D3E000000702D1019B9BB11F46D8F804603B4661
:10D3F000F3E6306802F058FB1BEA000B0CD1BAF1DF
:10D40000000F02D106F08EFD8246D8E90016DCE658
:10D4100006F088FD0746E8E7DA46F6E740F693317E
:10D420003220FBF7CFFCF388003B18BF0123EEE668
:10D43000F00C00216C00002170B5194E8AB0054631
:10D4400007F094F83368174A93F85430107013F0CB
:10D45000060F16D12C782846694604F00F042246A0
:10D4600002F040FB214600226846FFF77DFE214680
:10D470006846FEF7A3FE737B044643B920460AB014
:10D4800070BD0122962100200CF0B8FEE2E70DF0FD
:10D49000FBF80BF0BBFE0023204673730AB070BD8F
:10D4A000F00C00211000002110B50F4C606802F054
:10D4B0007FF8637B8BB900220120D4E90031087129
:10D4C00003F16C00A3F8212183F8232101F0FEFF72
:10D4D0002068BDE8104003F035BE0DF0D5F80BF024
:10D4E00095FE00236373E6E7F00C002110B5104CA5
:10D4F00007F03CF80F4A637B10708BB900220120C3
:10D50000D4E90031087103F16C00A3F8212183F8FC
:10D51000232101F0DBFF2068BDE8104003F012BEBC
:10D520000DF0B2F80BF072FE00236373E6E700BF64
:10D53000F00C00211000002110B5114C606802F0C1
:10D5400037F807F013F80F4A637B10708BB900228D
:10D550000120D4E90031087103F16C00A3F8212106
:10D5600083F8232101F0B2FF2068BDE8104003F0EA
:10D57000E9BD0DF089F80BF049FE00236373E6E77F
:10D58000F00C00211000002110B5134C06F0EEFF46
:10D59000124A00212368107003F1A00013F093FEDB
:10D5A000637B8BB900220120D4E90031087103F1BB
:10D5B0006C00A3F8212183F8232101F087FF206864
:10D5C000BDE8104003F0BEBD0DF05EF80BF01EFE8E
:10D5D00000236373E6E700BFF00C00211000002178
:10D5E00010B5144C606801F0A3FF06F0BFFF0246BF
:10D5F00020680021104BA0301A7013F064FE637B8A
:10D600008BB900220120D4E90031087103F16C00CC
:10D61000A3F8212183F8232101F058FF2068BDE8F9
:10D62000104003F08FBD0DF02FF80BF0EFFD00233D
:10D630006373E6E7F00C00211000002110B5002113
:10D640000320164CFFF7F0FA20B10321206802F006
:10D65000C3FD98B9637BCBB900220120D4E9003126
:10D66000087103F16C00A3F8212183F8232101F054
:10D670002DFF2068BDE8104003F064BD012108467D
:10D680000DF01CF8636809221A7110BD0CF0FCFF44
:10D690000BF0BCFD00236373DEE700BFF00C00213C
:10D6A00010B51C4C0C220121D4E900031A7103F0BF
:10D6B00073FD00210520FFF7B7FA20B1062120688D
:10D6C00002F08AFD98B9637BEBB900220120D4E90E
:10D6D0000031087103F16C00A3F8212183F82321A4
:10D6E00001F0F4FE2068BDE8104003F02BBD236874
:10D6F000012093F820110CF0E1FF236801221B6D3B
:10D7000083F88E2010BD0CF0BFFF0BF07FFD0023CF
:10D710006373DAE7F00C002170B5244C236893F8AA
:10D7200023215F2A29D85109214A565C9A6E42BBAF
:10D73000D3F888000CF030FF256895F854309A072C
:10D7400003D595F89620022A20D05B0703D595F8DB
:10D750009630012B1AD06368186802F0B7F90146B9
:10D7600005F19A0002F0E8FA002221686368A273CA
:10D77000062281F820611A7170BD9A6E0026002A77
:10D78000D6D00120FFF7F2FB2368D1E7F31E012B6F
:10D7900005D9314600200CF091FF2568DBE795F8AC
:10D7A0005930012B14BF31460321F3E7F00C00215F
:10D7B00048F3020138B5154C0521206802F00CFD34
:10D7C00048B12368012093F820110CF077FF6368BB
:10D7D0000B221A7138BD637B8BB900220120D4E97A
:10D7E0000031087103F16C00A3F8212183F8232193
:10D7F00001F06CFE2068BDE8384003F0A3BC05468C
:10D800000CF042FF0BF002FD6573E6E7F00C00211F
:10D8100038B5234C6368186801F036FE00283AD00A
:10D8200063680A22054600211A71206803F0B4FCDF
:10D8300022682B780520126D92F88E5005EA531558
:10D8400005F001052946FFF7EFF948B104212068EA
:10D8500002F0C2FC20B123681B6D83F88E5038BDE6
:10D86000637B8BB900220120D4E90031087103F1F8
:10D870006C00A3F8212183F8232101F027FE206802
:10D88000BDE8384003F05EBC0CF0FEFE0BF0BEFCC1
:10D8900000236373E6E740F263513220FBF792FA0C
:10D8A000F00C0021F0B52C4C83B0236893F82321B1
:10D8B0005F2A37D85109294A575C9A6E002A35D118
:10D8C000D3F888000CF068FE256895F854309A0764
:10D8D00003D595F89620022A2DD05B0703D595F83D
:10D8E0009630012B27D06368186802F0DDF8636872
:10D8F0000646186802F0DEF8024605F19A0025682F
:10D90000314695F8963095F82051009502F01EFAB0
:10D91000002221686368A273052281F820711A71C0
:10D9200003B0F0BD9A6E0027002AC9D00120FFF78E
:10D930001DFB2368C4E7FB1E012B05D939460020D7
:10D940000CF0BCFE2568CEE795F85930012B14BFCA
:10D9500039460321F3E700BFF00C002148F3020130
:10D96000012910B512D188B91D4A536819790829BF
:10D970002BD919790C292DD819795269194B52686C
:10D980000B44BDE8104052F823301847144C60682F
:10D9900001F00EFE637B8BB900220120D4E9003137
:10D9A000087103F16C00A3F8212183F8232101F011
:10D9B0008DFD2068BDE8104003F0C4BB0CF064FE90
:10D9C0000BF024FC00236373E6E741F2634132204D
:10D9D000FBF7F8F941F264413220FBF7F3F900BF9D
:10D9E000F00C0021F7FFFF3FF0B55A4C83B02068E0
:10D9F0006C3001F06BFD656801F018FD636828600C
:10DA00001868002800F0A18001F03EFD05460028BE
:10DA100000F09680236893F8A630002B54D1D4E907
:10DA2000000290F8A430034493F8247180F8207128
:10DA3000137913B11379012B5FD190F8A520464BD0
:10DA4000134418790CF050FA236893F8A420134477
:10DA500093F82461022E4ED02FD9F31E012B2ED81D
:10DA600001F0DEFC31460CF0C9F828460CF024FD2C
:10DA7000314601200CF03EFA012F34D0681D06F02B
:10DA800067FB607348B1033F012F94BF55255025B4
:10DA90000BF0A0FB28460CF0EBFD62680821002388
:10DAA0002068517121730321D3801372E38180F8C0
:10DAB00095302374117103B0F0BD012ED0D040F227
:10DAC000FE713220FBF77EF9236893F8542093F817
:10DAD000A700196D0243C3F8101183F854200022E7
:10DAE00083F8A6209BE7E81C06F032FB6073002851
:10DAF000D3D04025CCE70D20B4E7002102F06CFB29
:10DB000008B1206899E7637B93B900220120D4E92A
:10DB10000031087103F16C00A3F8212183F823215F
:10DB200001F0D4FC206803B0BDE8F04003F00ABB6C
:10DB300001900CF0A9FD0BF069FB01986073E4E71C
:10DB400040F256413220FBF73DF940F25441322079
:10DB5000FBF738F9F00C002148F3020108B506F094
:10DB600005FD044B18700CF08FFBBDE80840FFF773
:10DB70003BBF00BF1000002110B50C4C06F0F6FCB6
:10DB80000B4A637B10702BB90CF07EFBBDE8104094
:10DB9000FFF72ABF0CF078FD0BF038FB002363730E
:10DBA0000CF072FBBDE81040FFF71EBFF00C002127
:10DBB0001000002138B50446FEF740FD237A032B00
:10DBC00075D03D4D002B48D12A683C4992F8A530CC
:10DBD00092F84B000133A1FB034C0CF4FF7404EBEF
:10DBE0005C041B1B40FA03FCDCB21CF0010F16D1D5
:10DBF0000133A1FB034C2CF0010404EB5C041B1B60
:10DC000040FA03FCDCB21CF0010F08D10133A1FB88
:10DC1000034121F0010404EB51015B1ADCB282F8EC
:10DC2000A54092F958000CF04FF9FFF7DDFE2C6883
:10DC300094F8483083B16FF00043D4E920129A423F
:10DC400008BFB1F1FF3F07D00EF0B6F8D4E92023AA
:10DC5000904271EB030302D238BD2A68E1E701204C
:10DC600006F0ECFA0028F7D02D6806F025FA0446F5
:10DC70000EF0A2F86301E20E1B1B62F100025202D9
:10DC800042EAD3525B021B1942F1000C9A014FEA9F
:10DC90008C1ED21A4EEA936E6EEB0C0C13194CF1DB
:10DCA00000021B1842EB0101C5E9203138BD40F6E6
:10DCB00019113220FBF786F8F00C0021ABAAAAAAB2
:10DCC00038B50446FEF7BAFC237A032B62D0012B49
:10DCD00069D051D84D4C4E49226892F8A53092F83F
:10DCE0004B000133A1FB035C0CF4FF7505EB5C05F5
:10DCF0005B1B40FA03FCDDB21CF0010F16D10133AF
:10DD0000A1FB035C2CF0010505EB5C055B1B40FAF5
:10DD100003FCDDB21CF0010F08D10133A1FB03515C
:10DD200021F0010505EB51015B1ADDB282F8A55027
:10DD300092F958000CF0C8F82368002283F8952067
:10DD4000FFF752FE256895F84830A3B16FF0004305
:10DD5000D5E920129A4208BFB1F1FF3F0BD00EF077
:10DD60002BF8D5E92023904271EB030303D3012064
:10DD700006F064FA08BB38BD023B012BFBD8234CEC
:10DD8000236893F8950088B9FFF750F96368052276
:10DD90001A7138BD1D4B1B68986E88BBFFF7E6F8FB
:10DDA000237A012B95D1194C2268C1E70120FFF796
:10DDB0003DF9636806221A7138BD256806F07CF9C2
:10DDC00004460DF0F9FF6301E20E1B1B62F1000235
:10DDD000520242EAD3525B021B1942F1000C9A0133
:10DDE0004FEA8C1ED21A4EEA936E6EEB0C0C13198E
:10DDF0004CF100021B1842EB0101C5E9203138BD8E
:10DE000040F62F113220FAF7DDFF00BFF00C0021A1
:10DE1000ABAAAAAA2DE9F047A64F86B0D7F8008092
:10DE200098F857305BB17E680546B37963B12C78BA
:10DE3000012C12D0022C00F0E080002C54D00324DE
:10DE4000204606B0BDE8F087F279002AEFD1327A99
:10DE5000002AF4D02C78012CECD198F82031022B38
:10DE60006B7800F0018103F01803182BE7D198F8C4
:10DE70005430590700F1FE809A0718D08E4B93F961
:10DE800000407F2C00F07B817F221A700BF044FE53
:10DE9000397B08F142030090FF22019100213046B6
:10DEA00002940391294601F0D3FB0028C7D0A96949
:10DEB0000120FEF7B5FC0028C1D001233A6882F8A2
:10DEC00096306B69002B00F0E88059780224C1F38A
:10DED000031182F8971059781B7801F00F0143EA7B
:10DEE0000123A2F89830ABE798F854209007A6D009
:10DEF00013B9337A002BA2D06B7813F0100FC3F351
:10DF0000001614BF0822012232EA030397D100232E
:10DF1000AA688DF815308DF816308DF81730002A64
:10DF200000F0EB800DF117030DF116010DF1150254
:10DF30002846FEF7EFFD39689DF8153091F84180CD
:10DF4000002B40F009814231AB68AA7C404613F0B7
:10DF50007BFC90B93B6893F85530023B012B3FF6B0
:10DF60006EAF9DF81630002B3FF469AF9DF8153069
:10DF7000002B7FF464AF4FF0FE08002E00F0C0804D
:10DF80004D4A92F900607F2E00F0F9803B684FF017
:10DF90000009D7F804A003F142047F2313700BF0AB
:10DFA000BBFD397B234600904246019150462946ED
:10DFB0000296CDF80C9001F04BFB00283FF43FAFE8
:10DFC000A9690120FEF72CFC00283FF438AF3B681C
:10DFD00083F896906A69002A00F0CC805178022478
:10DFE000C1F3031183F897105178127801F00F01F3
:10DFF00042EA0122A3F8982022E798F854309B07C0
:10E000003FF41DAF6B7803F01803182B7FF417AFA4
:10E01000294B93F90090B9F17F0F00F0B0807F2277
:10E020001A700BF079FD3A7B08F142030090294603
:10E03000019200223046CDF808900392FF2201F0B1
:10E0400007FB00283FF4FBAEA9690120FEF7E8FBBF
:10E0500000283FF4F4AE3A6882F896406B69002BD2
:10E0600000F08480597832E703F01903192B3FF44C
:10E07000FEAEE4E66B680BBBAB68002B7FF4DFAE53
:10E08000AB699B7813F0E0030CD198F84930002B72
:10E090003FF4D5AE98F85430EEE6FF23022482F820
:10E0A0009730CDE6402BF5D198F84A30002BF1D1CE
:10E0B000C5E600BFF00C00211000002108F15B0351
:10E0C00098F85A2008F1780198F87E0013F0BCFB0C
:10E0D0007E68D7F800807379082B03D098F84E201B
