:020000021000EC
:10C0000000D7002091F10100BB7D02007DF101000D
:10C010007DF101007DF101007DF101007DF1010064
:10C0200000000000000000000000000009F3010013
:10C030007DF101000000000095F201007DF101009A
:10C0400099F4010099F4010099F4010099F40100B8
:10C0500099F4010099F4010099F4010099F40100A8
:10C0600099F4010099F4010099F4010099F4010098
:10C0700099F4010099F4010099F4010099F4010088
:10C0800099F4010099F4010099F4010099F4010078
:10C0900099F4010099F4010099F4010099F4010068
:10C0A00099F4010099F4010099F4010099F4010058
:10C0B00099F4010099F4010099F4010099F4010048
:10C0C00099F4010099F4010099F4010099F4010038
:10C0D00099F4010099F4010099F4010099F4010028
:10C0E00099F4010099F4010099F4010099F4010018
:10C0F00099F4010099F4010099F4010099F4010008
:10C1000099F4010099F4010099F4010099F40100F7
:10C1100099F4010099F4010099F4010099F40100E7
:10C1200099F4010099F4010099F4010099F40100D7
:10C1300099F4010099F4010099F4010099F40100C7
:10C1400099F4010099F4010099F4010099F40100B7
:04C1500099F401005D
:10C1540053B94AB9002908BF00281CBF4FF0FF316A
:10C164004FF0FF3000F00CB8ADF1080C6DE904CECF
:10C1740000F010F8DDF804E0DDE9022304B07047B4
:10C18400704700BF034613F8012B002AFBD1181A8D
:10C19400013870472DE9F04786468C460846089ECC
:10C1A400154674461946002B40F0C1808542B2FA08
:10C1B40082F245D94AB1C2F1200300FA02FC95404B
:10C1C40094402EFA03F343EA0C0C4FEA154EA8B23E
:10C1D400230CBCFBFEF80EFB18CC08FB00F943EA69
:10C1E4000C43994528D9EB1808F1FF3704D2994537
:10C1F40002D9A8F102072B44A3EB0903A4B2B3FBB1
:10C20400FEFC0EFB1C330CFB00F044EA0344A0428A
:10C2140014D92C190CF1FF3304D2A04202D9ACF189
:10C2240002032C44241A43EA07401EB1D4400023DD
:10C2340034607360BDE8F0874746DDE76346F1E7A5
:10C2440092BB431B01214FEA154EAFB2200CB3FB46
:10C25400FEFC0EFB1C330CFB07F840EA0343984535
:10C2640061D9EB180CF1FF3004D2984502D9ACF136
:10C2740002002B44A3EB0803A4B2B3FBFEFC0EFBA9
:10C284001C330CFB07F744EA0344A7424DD92C198D
:10C294000CF1FF3304D2A74202D9ACF102032C44BF
:10C2A400E41B43EA0040C0E7C2F1200395409440F8
:10C2B40020FA03F12EFA03F34FEA154E9040AFB281
:10C2C4000343B1FBFEFC0EFB1C10190C0CFB07F81E
:10C2D40041EA0041884522D969180CF1FF3004D2A3
:10C2E400884502D9ACF102002944A1EB08019BB2B4
:10C2F400B1FBFEFC0EFB1C110CFB07F743EA0143E8
:10C304009F420ED9EB180CF1FF3104D29F4202D99F
:10C31400ACF102012B44DB1B41EA004193E7604688
:10C32400E3E76146F7E76046A4E76346B8E783427C
:10C3340006D916B9002108467CE7C6E900E0F9E70A
:10C34400B3FA83F78FB9834201D3724508D8BEEBA1
:10C35400020460EB030301209C461EB9002169E737
:10C364003846FAE7C6E9004CF8E7C7F1200CBB40B1
:10C374000EFA07F522FA0CF42EFA0CF1BA401C431B
:10C3840020FA0CF3B8404FEA144901431FFA84FE23
:10C39400B3FBF9F809FB18300B0C08FB0EFA43EA5F
:10C3A40000439A4540D9E31808F1FF3004D29A4576
:10C3B40002D9A8F102002344A3EB0A0389B2B3FB18
:10C3C400F9F809FB183308FB0EFE41EA03418E45D8
:10C3D4002CD9611808F1FF3304D28E4502D9A8F193
:10C3E4000203214443EA0040A1EB0E01A0FB0298A2
:10C3F4004145CE46434602D306D14D4504D20138C9
:10C40400B9EB020E68EB0403002EA7D0B5EB0E02C5
:10C4140061EB030101FA0CFC22FA07F3F9404CEA40
:10C424000303C6E9003199E74046C5E74346D9E727
:10C43400F7B501250A230321094A0A480BF00CFB2E
:10C444002C46094F074E6543032123463A4630469E
:10C45400009501340BF00AFB0B2CF4D103B0F0BDB2
:10C46400FC9C0200D49802002B9D02002DE9F041AF
:10C4740084B000AF3A46B846414B03F10805144670
:10C4840018685968083303C4AB422246F7D11868C8
:10C494001B792060237103213A4A3B480BF0D3FAFD
:10C4A40002230321394A38480BF0D6FA6E4688B085
:10C4B4006C46374B25466361364BA361032345F82D
:10C4C400103F00232A464FF4C8512F4800F0F8FFCC
:10C4D400B5460221304A2C480BF0B5FA01212F4A07
:10C4E40029480BF0B0FAA5462D4B63612D4BA3618F
:10C4F4004FF40073A3832C4B23612C4943462A46F3
:10C50400214800F0DDFFB546294C20460CF03FFBE6
:10C5140078B34FF4D01127480AF097FA002828DBA3
:10C524004FF4803124480AF090FA002821DBA568F2
:10C53400AE696EB123694FF0A0721B680E2113F42B
:10C54400804F14BF4FF000734FF080632046B04714
:10C554001A491B4B4B604FF480438B60EB6913B15A
:10C5640001221348984700214FF096700CF05FFDAC
:10C57400F9E74FF0FF301037BD46BDE8F08100BF4A
:10C58400B8990200469D0200D4980200639D0200FF
:10C594006F9D0200DB9D0200909D0200B09D020091
:10C5A40029A90200CE9D020003000001C01CD00096
:10C5B40004950200D8990200E099020068AE0020B8
:10C5C40035C401002DE9F04F91B0009302F004034B
:10C5D4000293C2F3C2030133840705460E46DDF815
:10C5E40068800392059340F0BB81041D30B1072994
:10C5F40009D86FF01B0011B0BDE8F08F01F00706F9
:10C604003444C6F10806009B4FF000094FF0040AB9
:10C61400591E4FF0FF334F460193CB465346CDF896
:10C6240010900DB1009A22600598002800F3E8806C
:10C634009848009A824203D397488242C0F0E0802F
:10C64400039AA4EB050E92074FEA9E0000F10381C2
:10C654000F2F00F2B180002D00F0058107F1400298
:10C664000DEB020C019A0CF8200C0CF8102C049819
:10C6740001300490E7E07A285DD84B280ED847288B
:10C6840059D829282DD8252852D054D820287AD0F2
:10C694002338D0F1000B4BEB000B74E04C382E2800
:10C6A40049D8DFE800F070484848484848484848B6
:10C6B40048484B484848484848484859484B4B59CB
:10C6C4005959704B6D487048184B184848827F4B35
:10C6D40048484B487F0000204FF0000B4FF0040AFD
:10C6E40038E001222A38C0B202FA00F010EA0E0F34
:10C6F40049D110F0625C2FD110EA020B43D060469E
:10C70400013C5444B4FBFAF40AFB04F4002D61D058
:10C71400A3EB050CA444B4453FF66BAF002868D1E5
:10C72400042B47D158F8043B2360042304342AE043
:10C73400019A013A01924FF0000B24E011F8010C28
:10C744006C2834D1002011F8023C83466C2BC5D1EF
:10C754004FF0080A5346D3E708F1070828F0070802
:10C76400073424F00704F8E802AB35B106982044F6
:10C77400B0423FF63EAFC4E900AB4FF0000B0834C3
:10C784004FF0080A534611F8010F002878D0BBF186
:10C79400000F7FF470AF2528F5D14FF0010B019BFA
:10C7A400013301934FF0040AECE7584694E7002064
:10C7B4008346A5E7082B02D06FF015001BE708F1AC
:10C7C400070828F00708F8E80223C4E9002308232F
:10C7D4000834D8E768B9042B02D108F10408A4E7A7
:10C7E400082BE9D108F1070828F0070808F1080820
:10C7F400EDE7059A013A059258F8042B009210E7E8
:10C80400039A900720D54FF0010CA4EB050E4FEAD4
:10C814009E00BEF5007FCFD20F2FCDD8F5B107F122
:10C8240040020DEB020E019AC0B20EF8200C0EF875
:10C83400102CBCF1000F3FF41AAF60F07F000EF82B
:10C84400200C09F101090137C5F108024FF6DA7E1F
:10C854000434069297E74FF0000CDAE7BCF1000FBE
:10C8640001D00136EFE7029802360028EBD1009898
:10C87400CDE90631FFF786FCDDE906310644E2E73F
:10C88400631BB3F5806F97D245B9A6F10804E0188D
:10C89400B1E600BF109402001CAF0200029A9B088C
:10C8A40028602B709DF81030C2B1EB7085F80290AF
:10C8B400B9F1000F05D0002208A8C5F1010C974278
:10C8C4000ED14FF0000AC5F101030DF120080193C8
:10C8D4000DF1300B574512D1601B8CE66B70E5E708
:10C8E40010F8013B190608D50CEB040EB64503F00D
:10C8F4007F033FF67EAE04F8013B0132DFE7B9F176
:10C90400000F03D098F90020002A17DB029BD3B153
:10C914001AF80B2004F8012B0022019B181910446B
:10C92400B0423FF666AE98F80000009904F8010B97
:10C93400204603920CF0D0FC039A14440AF1010A35
:10C9440008F10108C6E798F8002055F82230009352
:10C95400029B009845F82230FFF714FC421CDCE7E8
:10C964006FF00D0047E600BF2DE9F04F97B000AF20
:10C97400D7F880B03B62CBF3C0030446894690F8F5
:10C9840002A0FA62BB6141B9457800780AEB8000E5
:10C9940020444D4517D8A0EB0409E378FB61BAF1B4
:10C9A400000F02D01BF0010F16D1FB6953BBFB6AC9
:10C9B4001BB1494620463A6A98474D4628465C379B
:10C9C400BD46BDE8F08F461C3046FFF7DBFB013067
:10C9D400304409F10109DCE7626823787A62FA6A73
:10C9E4009900796104EB8301002A40F001810E462D
:10C9F4004FF000084D4601EB0A094E454CD101EBBE
:10CA04000A0610E01BF0020FD1D023789A007A6155
:10CA1400626804EB83017A62FA6A002A77D14D4690
:10CA2400904601EB0A061BF0050F0CBF02230123FD
:10CA3400FB62FB6906EB430A0BF00203BB6256453B
:10CA4400BCD016F8021B16F8013C54F82390994BFD
:10CA5400994502D3984B994536D3BB69002B40D0F6
:10CA6400786A0AF0EFFA00283BD0E9468AB06A46B1
:10CA7400924B53617B6AC2E906314FF4007313840D
:10CA84008F4B42F8103F00234FF412518D4800F0B1
:10CA940017FD023DCD46D2E716F8013BF96254F882
:10CAA4002300FFF76FFBD7F88430F96A01304BB1EC
:10CAB400D7F8883098453EBFD7F8843023F818005B
:10CAC40008F10108054498E7BB6923B1786A0AF0C4
:10CAD400B9FA0028C9D11BF0010F05D1FB6AED1A80
:10CAE400ADE7BB6A002BAAD04846FFF74BFBD7F84B
:10CAF400843053B1D7F8883098453FBFD7F88420A5
:10CB0400431C22F8183008F10108054497E7BAF1EC
:10CB1400000F73D01BF0040673D0D046002607F133
:10CB2400480052463B61B9620CF0D6FBB96A3B69D6
:10CB340001EB0A02BA62FA69F9695200FA60BA6A48
:10CB440002EB41023A610BF00202BA603A69B96A37
:10CB54008A4258D162781BF0020F18BF00217A6212
:10CB640008BF4FEA5801B2181BF0010FD2B240F0CF
:10CB74009F801BF0040F14BF40460020BB6162700D
:10CB8400A070E17020463A6A7969FB6A9847051EED
:10CB9400FFF614AFBB69414623707B6A3A6A63703F
:10CBA400FB6984F802A0E37007F14800FB6A984728
:10CBB400B0F10008C0F2BA807B69A9EB0A01C91A76
:10CBC400FB683A6AC91AD7E90A0398470028C0F2F1
:10CBD400AF804FF0000BA84408EB000507F1380ABA
:10CBE400B34571D300213A6A0846FB6A9847E5E6E3
:10CBF40056464FF0000807F1380092E75646D046F3
:10CC040096E7B04694E7BA6A12F8021B12F8015C80
:10CC1400BA6254F82500274A904202D3264A904229
:10CC24001ED3BA6932B1786A7B600AF00BFA7B686A
:10CC340000288BD1BA6802BB08F1280207F1300C36
:10CC440008F10100944407F1580208F1020852FA6D
:10CC540080F00CF8101C5FFA88F800F8105C75E797
:10CC6400BA693AB1786A7B600AF0ECF97B6800280B
:10CC74007FF46CAF1BF0010F09D006F1280207F115
:10CC84003000711C161806F8205CCEB25EE71BF06B
:10CC9400040F3FF45BAF08F1280207F1300008F1FC
:10CCA400010102EB000808F8105C5FFA81F84DE717
:10CCB400002063E7109402001CAF0200EC9D020008
:10CCC40004000001DC9802001BF80A3054F8239099
:10CCD40087F83730D7F884302BB3D7F888309B45A2
:10CCE40021D2D7F8843033F81B8001213A6AFB6AD9
:10CCF40007F13700984700281ADB0544B8F1000F04
:10CD040006D14846FFF73EFA00F101081FFA88F8F9
:10CD1400414648463A6AFB6A9847002808DB0544BE
:10CD24000BF1010B5CE74FF00008DEE7454645E6F2
:10CD3400054643E6014B1860704700BFB0A00020D1
:10CD440080B505460E461746984609F083F8034613
:10CD54000CF052FB0446DFF81890424649F80030C4
:10CD640039463046A84754F8090002F07BFA00BF60
:10CD7400080000002DE9F047058B0446280790467B
:10CD840011D4022905F0070540F0CC8020460AF0B2
:10CD94000BFC78B10138218B042811D8DFE800F0AE
:10CDA400C2106D85950001290CBF45F0100545F0B2
:10CDB4002005258388F31188BFF36F8FBDE8F087C2
:10CDC40001F0070AAA4500F0A5800027B9463E46AF
:10CDD400A368002B00F0BC8041F00801218388F394
:10CDE4001188BFF36F8FA168002900F0BA800D6825
:10CDF400002900F0B680334652462046D1F804801C
:10CE0400C047002D76D02B6829461D46F0E701F077
:10CE140007035A1F012A1BD8002221F00701062B01
:10CE2400276889B2C4E9002209D13B4603E0628B3A
:10CE3400013262831B68002BF9D141F002012046C4
:10CE440021830AF0B1FB00287AD041F0200176E07A
:10CE5400042B0AD121F0070189B2204621830AF06C
:10CE6400A3FB10B141F020012183218B01F0070ABB
:10CE7400AA454FD00027B946AAE7236921F0070144
:10CE840041F00601062DD3F8009021832DD1B9F18C
:10CE9400000F3FD041F00801218388F31188BFF3CC
:10CEA4006F8F20463949C84729E021F007012369DB
:10CEB40041F0040189B2042DD3F804902183E6D013
:10CEC40000274FF0040A3E4682E721F00701236958
:10CED40041F0050189B2052DD3F808902183D6D0FD
:10CEE40000274FF0050A3E4672E700274FF0060A76
:10CEF4003E466DE72B4687E7B9F1000FD1D1EFF33A
:10CF04001188202383F31288BFF36F8F238B23F0C0
:10CF140008032383258BEA062ED525F010032383EB
:10CF240005F007056669218B002EBFF670AF00235C
:10CF34002768C4E9003321F0070141F0010121838E
:10CF4400218B4FF0000901F0070AAA457FF440AF96
:10CF5400002F9CD041F00801218388F31188BFF38E
:10CF64006F8F002FC8D03D6839463346524620465D
:10CF74000AF046FB2F46F4E7AB067FF51BAF25F01E
:10CF84002003238305F0070500E700BF3176020084
:10CF94002DE9F047044607464FF00109DFF85080B9
:10CFA40014B93846BDE8F08794FAA4F5B5FA85F5C6
:10CFB40009FA05F32E0108EB05156FEA030A24EAC2
:10CFC40003042B7B002BEBD058F806301B694BB9BC
:10CFD4004644736804222846196807EA0A0700F0E1
:10CFE4005BFADDE7284698470028D9D1F0E700BF6F
:10CFF4005C99020030B5002289B00F490F480CF04B
:10D00400D7F84FF4003200230024CDE906230E2381
:10D014000B4DCDE903344FF440722846CDE9014469
:10D02400084B0949009408F05DFC0849284608F0BB
:10D03400E3FB204609B030BD55D0010030A90020E3
:10D0440070A4002041D30100C0BE0020A09E0200B5
:10D05400014808F0DFB900BF84A300202DE9F047A0
:10D0640080461F480F460AF06CFC0646002830D064
:10D0740000252846BDE8F087237B6BB12368DB6875
:10D084000BB12046984723681B69D3B9636804220F
:10D094002046196800F000FA013610344C45EBD3F1
:10D0A400B8F1000FE5D0002DE2D02846FFF770FF5D
:10D0B4000546002FF7D000214FF4A4700BF0B7FF02
:10D0C400F1E7204698470028E0D00AFA06F31D430A
:10D0D400E2E705464FF0010A024CDFF80C90DDE769
:10D0E40084AE00205C9902006C990200014B53F855
:10D0F40020007047FC99020008B5034608462BB18E
:10D10400044A136000F072FC002008BD6FF01500A3
:10D11400FBE700BFB4A0002010B5044C237813B97A
:10D12400034808F077F90123237010BD68BE00207E
:10D1340084A3002010B5044609480AF002FC3CB15F
:10D14400084BD3E8EF1F0139C3E8E21F002AF8D1E6
:10D1540005480CF039F8BDE81040044808F05AB905
:10D164007CAE002080AE002030A9002084A30020E3
:10D1740000200146034BD3E8EF0FC3E8E21F002A67
:10D18400F9D170477CAE002070B5FFF7F1FF05467A
:10D19400074C084EB44200D370BD63685B792BB171
:10D1A40023685B6813B12946204698471034F1E799
:10D1B4005C9902006C99020010B5044C04492046A5
:10D1C4000AF070F8034B1C6010BD00BFBCA2002025
:10D1D400E899020074AE002008B50023074A4FF412
:10D1E40000411370064A07481360074A1360FFF7AB
:10D1F40083FFBDE80840FFF7DFBF00BF69BE002022
:10D204007CAE00204379020080AE0020014600225B
:10D21400002301480AF067B8BCA2002001480AF0C4
:10D2240000B900BFBCA20020024B014618680AF0F6
:10D234004CB900BF74AE002001480AF081B900BFA8
:10D24400BCA2002070B5264B1878002847D0FFF701
:10D25400E5FF054670B1234BD3E8EF1F0139C3E85E
:10D26400E21F002AF8D1204C204EB4422DD3284688
:10D27400FFF7DAFF1E4B1F4C1B68002B19DD0BF068
:10D2840050FF4FF47A72A0FB020302FB0131C30B7F
:10D2940043EA4143D4E900209B1A40F2E9324FEAC1
:10D2A400D13161EB0001934271F1000101D3FFF729
:10D2B4006BFFD4E9003213F57A7342F10002C4E93A
:10D2C4000032BDE87040FFF7B7BF63685B7923B1F4
:10D2D4002368294620461B6898471034C5E770BD6B
:10D2E40068BE002080AE00205C9902006C990200A8
:10D2F4007CAE002028A9002070B50D4D297861B9B5
:10D304000120FFF7ABFE0B4C0B4EB44206D3FFF7E4
:10D3140099FF0028FBD101232B7070BD63685B79F2
:10D324001BB1236820469B6898471034EDE700BF83
:10D3340069BE00205C9902006C99020000212DE96D
:10D34400F0470846FFF78AFE044658B340F2676880
:10D354004FF000090CF050F81B4B1C4A1B5813608B
:10D3640033B11B4B1B68092B02DD1A4808F052F835
:10D374000025194FDFF85CA044B12046FFF708FEF2
:10D38400044618B94FF0FF384FF0FF39FFF75AFF42
:10D39400064628B9B5B942464B46504608F06EF8E1
:10D3A4003546E9E74FF0FF384FF0FF39D2E72B68F5
:10D3B4009B691BB100222846114698471035BD428F
:10D3C400F5D3E8E7054DFAE70800000078AE002041
:10D3D40080AE002084A300206C9902005C990200B6
:10D3E40013B518480AF0ADFA174B1B7873B1EFF375
:10D3F4001184202383F31288BFF36F8FFFF722FF7A
:10D4040084F31188BFF36F8F02B010BD0F4B1B68FC
:10D41400002BF9D050B9002200230D48CDE9002398
:10D424004FF40042002309F003F8EDE70928EBD19B
:10D4340007480BF0C9FE074802B0BDE8104007F0EA
:10D44400E9BF00BF80AE002069BE002078AE002096
:10D4540030A9002084A3002010B5064B04461B68A5
:10D4640098472146A060044809F0BCFFBDE810407D
:10D47400FFF7B6BFB4A00020BCA20020044A054BAD
:10D484009B1AB1EBD30F34BF52F831000020704720
:10D49400D49802005C990200084B10B4C31A446883
:10D4A4001B110133237143689A7101224368196087
:10D4B40043685A7110BCFFF72FBE00BF5C9902008D
:10D4C4002DE9F04F8FB0C1F34A2804AF0D469146C1
:10D4D400B8607B600C0DB8F1000F63D000264FF0EC
:10D4E400040B4FF00A0A07F11403C7F80C80C7E9CC
:10D4F40007667E620193CDF808B0CDF800A007F16D
:10D504001C0332464846F968FFF72EFAB0F5006F5F
:10D5140003461CD36C468AB0D9F8041004AB2648E1
:10D524001A46C3E9050140F2FF71D9614FF4007155
:10D534001984224B42F8103F4FF4125133462048CD
:10D54400FFF7BEFFA5462C37BD46BDE8F08FC0F3FC
:10D554000A0804F11700184420F0070080083B6013
:10D56400FFF754FE68F35325044690B13B6800F17D
:10D574001001C7E9083607F11403F961CDE900A3E6
:10D58400CDF808B048460F4AF96807F11C03FFF7C5
:10D59400EBF968F353252A4620467B68B9680AF0FC
:10D5A40002FAD0E704F1170020F007008008FFF723
:10D5B4002DFE0446EDE700BFB59E02000400000105
:10D5C400FC9802007F7902002DE9F04F87B00446F1
:10D5D400DDE9105ADDE91279934698460391BFB10B
:10D5E4003B46524610210020CDF80090CDF814900F
:10D5F400FEF7E8FFB0F5006F06460AD340F2FF736A
:10D604000221174A174807B0BDE8F04F0AF024BAC0
:10D614003E4605F11700304420F007008008FFF76C
:10D62400F5FD04F007040BF0070BE40044EA8B1447
:10D6340044EA462444EA0554054640B13FB13B461A
:10D6440052463146CDF800901030FEF7BBFF4346FA
:10D6540022462846039907B0BDE8F04F0AF0A3B963
:10D66400F49E0200FC980200406820B1034BC01AEB
:10D6740040F3CF0070474FF0FF307047D49802005A
:10D684000EB403B503AB53F8042B014604480193CD
:10D6940002F020F902B05DF804EB03B0704700BF5C
:10D6A400BF7A0200CA0605D48B064CBF024903495F
:10D6B400FFF7E6BF704700BF2D9F02002C9F0200BA
:10D6C4002DE9F04F89B09B46149B9DF84CA006931E
:10D6D400159B04460593169B0D469046179E04938E
:10D6E400BAF1000F00F09D8006F4807307930AF0EE
:10D6F40042F906F00209024600283ED0204691492C
:10D70400FFF7BEFF0746B9F1000F08D016F0440F2B
:10D7140035D12A4620468C49FFF7B2FF074406F06C
:10D72400010353B1894B204653F82A20884B894979
:10D73400002A08BF1A46FFF7A3FF06F48073002BE4
:10D7440049D006F00803002B63D1B8F1000F66D06E
:10D75400424620468049FFF793FF0546069B3D4419
:10D76400002B6DD1049B002B73D1F30700F1E480EF
:10D7740031462046FFF796FFD8E00746C3E7774BCC
:10D7840018680028CAD0764B4FF47A791B684FF09A
:10D794003C0CB5FBF3F5B5FBF0F14FF4616300FB12
:10D7A400115509FB05F5B1FBF3F2B5FBF0FE03FBE4
:10D7B400121100FB1E55B1FBFCF309FB05F5B5FB8B
:10D7C400F0F50CFB131120460091CDE901E5654904
:10D7D400FFF756FFA2E706F00803EBB1624B2046C1
:10D7E40053F82A206149FFF74BFF0546B8F1000FB3
:10D7F40005D0424620465849FFF742FF0544BBF195
:10D80400000FABD05A4620465949FFF739FF05446B
:10D81400A4E74FF0000BE1E706F00805E6E745460C
:10D824009CE7BBF1010F069B06D1002B64D1049B3E
:10D83400002B7BD000250CE0002BF8D04D485CE099
:10D844004D48069B22464D4909F0CBFB049B002B17
:10D8540068D0DFF82C81DFF82C91049F3146102F1B
:10D86400204628BF10274FF0000BFFF71BFF5D4534
:10D8740045DC059B494620461A78FFF701FF4FF027
:10D88400010B1BF0070F03D141462046FFF7F8FEBA
:10D894005F453BD9059B4946204613F80B20FFF70B
:10D8A400EFFE0BF1010BBBF1100FEAD14FF0000BAF
:10D8B40020463549FFF7E4FE5A46059B20469A5C0C
:10D8C400A2F120015F2928BF2E223049FFF7D8FE9C
:10D8D4000BF1010BBBF1100F1DD01BF0070F03D18F
:10D8E40041462046FFF7CCFE5F455A46E5D84146FF
:10D8F4002046FFF7C5FEEBE71F485546A1E7414622
:10D904002046FFF7BDFE0BF1010BB0E7204620498E
:10D91400FFF7B6FEC5E7059B3B440593049BDB1B61
:10D9240004939AD1BAF1000F7FF41FAF204609B0D7
:10D93400BDE8F04F0AF0B4B82046054A0549FFF7A0
:10D944009FFE15E7349F0200389F02000C9A0200E4
:10D954002F9F020029A902005D9F02008CAE0020C7
:10D9640088AE0020419F0200209A0200619F0200BD
:10D97400679F0200ED7A0200BF7A0200D9F8010025
:10D98400749F02006C9F0200769F0200789F020041
:10D99400729F020042F20F7373B58B4228BF0B468D
:10D9A40005680446052168460D4A08F0C7FD064689
:10D9B400636828460B225B680A490AF063F86368C7
:10D9C4003246694628465B680AF05CF863681B22A5
:10D9D40028465B6804490AF055F802B070BD00BFE0
:10D9E4006BA60200979F02007B9F02000021012387
:10D9F400064A904206D8064A01B901231360054B32
:10DA040018607047012140085B00F2E740420F00B4
:10DA140088AE00208CAE0020F8B50D460446064FB3
:10DA24004618B44201D12846F8BD14F8011BBB685E
:10DA340001485B689847F4E72C950200014B0360AA
:10DA440000207047689A0200F0B40C4B0C4E5F6AD9
:10DA54000C4BB34203D36FF08500F0BC70475D6894
:10DA6400BD4209D31C693CB195F802C00579AC45A7
:10DA740002D12346F0BC18472433EAE7B4AE0020B1
:10DA84006CA4002048A400202DE9F04705460E466A
:10DA94001746124CDFF84880DFF84890444503D31A
:10DAA4006FF08500BDE8F0876268D9F824309A42A7
:10DAB40012D3A36983B190782979884205D13A4673
:10DAC40031462846BDE8F04718475279012A03D168
:10DAD4003A463146284698472434DFE748A40020D4
:10DAE4006CA40020B4AE00202DE9F04105460E469A
:10DAF40017460A4CDFF82880444502D36FF08500AE
:10DB040009E063690BB92434F6E73A4631462846FE
:10DB140098470028F7D1BDE8F08100BF48A4002051
:10DB24006CA4002010B504460AF025FA10F1780F11
:10DB340000D050B920460AF053F8044AD2F8C43051
:10DB440023EA00030020C2F8C43010BDB4AE0020A4
:10DB54000022024B1A605A60704700BF6FAF00206A
:10DB640070B50B4B0B4CA34201D3002070BD0022B7
:10DB7400196A1E7F0439D5B2AE4201D82433F2E7C4
:10DB8400013211F832508542F5D10120EEE700BF91
:10DB940048A400206CA4002008B509480378C3F306
:10DBA40041130A3350F823303BB100F1080200F16D
:10DBB40010019847C043C00F08BD1846FCE700BFDA
:10DBC400B4AE002004282DE9F14F04460F46DFF8D7
:10DBD400949016D001282DD1DFF88C8098F8B930B4
:10DBE40043B300F0D5FD214D4D4520D24FF0000A3E
:10DBF400D5F820B02B7F5FFA8AF6B34204D82435D7
:10DC0400F2E7FFF7A5FFE7E70BEBC60630790AF06A
:10DC1400B2F90246307909F0E3FFD8F8C430002A9B
:10DC240023EA0003C8F8C4300AF1010AE2DA002347
:10DC340088F8B9300D4D4D4508D30B4B1B6A6BB1B9
:10DC44003946204601B0BDE8F04F1847EB681BB1D8
:10DC54003A462146284698472435ECE701B0BDE80A
:10DC6400F08F00BF6CA40020B4AE002048A40020B4
:10DC740073B5C4B263060D468DF8074007D020463D
:10DC8400FFF76EFF78B10D4B93F8BA0058B12046F8
:10DC94000A4E55B102F09EFCF3691BB108200DF148
:10DCA40007019847012002B070BD02F0C5FCF3697A
:10DCB400002BF7D009200DF10701F2E7B4AE0020E4
:10DCC40073B586781E4C8DF800600379427943EA77
:10DCD4000223ADF80230C378304603F003038DF815
:10DCE400043009F07DFFD4F8C430054618420BD047
:10DCF400304600F02FFD3046FFF714FF0BF0E3F839
:10DD040010B9962008F062F8684602F035FC10F16C
:10DD1400780F03D010B1002002B070BD9DF8000050
:10DD240002F0C6FC10F1780F01D00028F3D10120D5
:10DD3400D4F8C43084F8B9002B43C4F8C430EBE7FA
:10DD4400B4AE00202DE9F047924D0446AB690E466F
:10DD54001746C3B9207800F01F00012876D00228A6
:10DD640000F0DC8000BB94F900103A680029637865
:10DD74002EDA062B0CD0082B25D0ABB95370012317
:10DD84001370022303E198470028E3D100200DE03B
:10DD94006388190A0A1F012A8C4605D9072903D862
:10DDA400DAB26B6A1C781CB96FF01500BDE8F08715
:10DDB4005D78654503D1824200F0E480013023445C
:10DDC400F0E71B78E3E095F8BA3013700123DEE046
:10DDD400052B11D0092BE7D163886E6A002B32D151
:10DDE400FFF7B6FE638885F8BA30EB69002BCDD017
:10DDF400032069499847C9E7A07802F07FFB00280F
:10DE0400C4D0D1E77378042B10D0052B11D0022B8A
:10DE140004D177796388BB4208BF012033781E445C
:10DE24003378002BEED10028BED0D9E796F80380D2
:10DE3400F4E76388BB42F1D1B8F1000FEED130466C
:10DE4400FFF73EFFEAE7FF27B846E9E795F8BA305F
:10DE5400D7F800C0002BA7D06F6AA2883B4694F87D
:10DE640004E0187800289FD05978022904D193F847
:10DE74000480F04500F292800344F2E78CF800300D
:10DE84008CF80130316081E71F4493E00B2B8BD178
:10DE940000264FF0FF08B246C14606E07B78042B0B
:10DEA4000FD0052B21D03B781F443B78002BF5D1B4
:10DEB400EB6913B1514607209847002E7FF466AFF3
:10DEC40072E797F80280A38897F803909845EAD1FF
:10DED40063889945E7D1B8F1070F1CD805EB08030F
:10DEE400BA46012683F8BB90DDE7A3884345DAD11F
:10DEF400A3784B450AD0BE78304600F02BFC304660
:10DF0400FFF710FEB0FA80F67609CCE73846FFF743
:10DF1400D7FE0646C7E7BA460026C4E794F90020B0
:10DF24006378002A18DA002B7FF43EAF24793F6827
:10DF340063060AD02046FFF713FE00283FF434AFEF
:10DF440095F8BA30002B3FF42FAF3946204602F043
:10DF540093FB00237B7014E7012B08D0032B7FF481
:10DF640023AF6388002B7FF41FAF012103E0618896
:10DF740000297FF419AFA088FFF77AFE00287FF408
:10DF840005AF11E702293B607FF41BAF5B88336068
:10DF9400FCE600BFB4AE00206EAF002094F9000090
:10DFA40063780028BFF672AF002B3FF467AF0A2BEB
:10DFB4007FF4FAAE3B78002B3FF4F6AE797804296F
:10DFC4007FF462AFB9788A427FF45EAF072A8EBFCE
:10DFD4000023521992F8BB308CF80030F6E600BFEB
:10DFE40013B5164C237DF3B9E26801AB8020A16818
:10DFF400019209F004FE019AA3681344A360E36844
:10E004009B1AE3606BB962B12369E2889A4208DD26
:10E0140094F8C82093FBF2F102FB11330BB90123EE
:10E02400237502B010BD002380201A4619462375BB
:10E0340002B0BDE8104002F065BB00BFB4AE0020E2
:10E04400002330B585B002460D460193002858D10F
:10E05400002935D108220B460DEB020109F0A4FF7B
:10E06400002804DA802002F0B5FA05B030BD2A4C4D
:10E07400029AC4E903552260039ABDF80E30626027
:10E0840004F13802A2609DF908202575002A0ADBF4
:10E09400802B04D9802002F09DFA0020E3E713B11D
:10E0A400C4E90333E1E7FFF777FD0028DAD0E2881B
:10E0B40023699A42D4BFE260E360FFF791FFD4E79B
:10E0C400154C01ABD4E90215002D04DC09F06CFFFA
:10E0D4000028CADAC6E72A4609F066FF0028D9DB19
:10E0E400019AA3681344A360E3689B1AE360002BBE
:10E0F400BBD104F13803A360FFF74EFD0028DCD147
:10E10400B0E78028B1D1044BDA68002AD5D11B7D51
:10E11400002BD2D1A9E700BFB4AE0020054B064ABC
:10E1240058629A62054A0020DA62054A1A63054A6F
:10E134009A617047B4AE002049DD01004DDA010058
:10E14400EDDA01008DDA01002DE9F3410446474D73
:10E154004FF0FF334FF0FF32454807F061F895F870
:10E16400B830002B7BD16B6A83B142482C62E861E2
:10E174006E6A02F009FC02F08FF9041E10DA3C48C2
:10E1840007F0C6F8204602B0BDE8F08100F0BEF802
:10E19400FFF7C4FF6B6A002BE7D14FF0FF34EEE7C3
:10E1A40000F018FB041EEADB7378012B5AD1F379D3
:10E1B400002B57D00026684685F8C830ADF80230E9
:10E1C4008DF804608DF8006002F0D6F9041ED6DBE9
:10E1D400802768468DF8007002F0CEF9041ECEDB6D
:10E1E4003046254902F0BCFB041EC8DB38462249F0
:10E1F40002F0B6FB041EC2DB204CDFF884804445E9
:10E204001AD3002002F054FA041EB8DBD5F8C43047
:10E21400802043F00103C5F8C43002F049FA041E1B
:10E22400ADDBD5F8C430002443F48033C5F8C430E2
:10E23400012385F8B830A2E70026276A227FF3B2CB
:10E244009A4201D82434DAE707EBC30257F83310B3
:10E25400107902F085FB01360028EFD09DE76FF0BE
:10E2640077048CE76FF0150489E700BFB4AE002093
:10E2740060A30020C9DB010045E0010048A40020A0
:10E284006CA4002030B51F4B8BB005AA03F1100518
:10E29400144618685968083303C4AB422246F7D1C0
:10E2A4001B7810222370002101A80BF022F81222FF
:10E2B400002115480BF01DF8102101A803F076FC8D
:10E2C40000281BDD0828B8BF082001AB09381A183C
:10E2D40000200D4912F8013F0AAC04EB131403F0BB
:10E2E4000F0328336B4414F8144C13F8143C013016
:10E2F40008280C704B7001F10201EBD102480BB0FD
:10E3040030BD00BFDD9F02006CBE00202DE9F04F40
:10E31400714B87B093F800B0BBF1000F03D06F4886
:10E3240007B0BDE8F08F6D4C00264FF0011AB046DF
:10E334003546B14623783BB9694B02349C42F3D14C
:10E344000123654A1370EAE76378052B1BD8DFE8DD
:10E3540003F08C03C18C1D39402304A88DF810B040
:10E36400ADF812308DF814B002F0DAF840B1082399
:10E3740004A8ADF8123002F0D3F808B1ADF812B029
:10E38400BDF81230E37123781C44D3E7E378002B03
:10E39400F9D1A3786BB108F101085FFA88F8F2E7C4
:10E3A4006B689C4207D024354E4B9D42F8D3002025
:10E3B400B6E74D4DF8E7AB68002BECD0414620465C
:10E3C4009847E8E7002DF2D000222B7F9A42EED244
:10E3D400296AA07801EBC2010B79984201D001327D
:10E3E400F3E70127E078FBB200F003008DF8140096
:10E3F400207994F805C040EA0C20ADF8120094F995
:10E404000200002826DA4FF0010C07F110000CFA84
:10E4140000F010EA0A0F24D143F080008DF81000B8
:10E4240004A8CDE90213019202F07AF8DDE9012192
:10E43400039BB0B99DF8102012F0800FA2700A71EE
:10E444004FF001021DBF1033DBB29A40BA404AEAD2
:10E45400020A98E70120B84010EA0A0F01D11846D1
:10E46400DCE70137102FBDD1B9E7032E1AD1FFF72E
:10E4740009FF074650B1FDF785FE024630B110286A
:10E48400A8BF10223946A01C0AF026FF6FF0020133
:10E494002378091BE21804EB5303D14213D5013648
:10E4A400F6B270E7002EF1D1B9F1000F3FF47FAF5F
:10E4B400A4EB090389F80230C3F3072389F8033076
:10E4C40089F80480EBE702F801BC13F8010902F8AB
:10E4D400020DE2E7A14656E76BBE0020A4A300208C
:10E4E40047A400206CA4002048A40020094B00216C
:10E4F4001A4610B51C78844204D15C6814B102EB4E
:10E50400811010BD0131042903F14003F2D1002030
:10E51400F7E700BF80AF00202DE9F34150F8283C15
:10E524000446103310F82C6C0AD1036950F8202CDF
:10E53400980736D5D2B9590715D5002344F8283C95
:10E5440054F8283C10330BD054E9077554F8148C54
:10E554000AF0B9FC00284FD021462E480AF097FC57
:10E5640002B0BDE8F08143F004032361304654F85F
:10E57400241C01AB09F043FB10B16FF01503DDE778
:10E58400019A54F8243C134444F8243C54F8203CA5
:10E594009B1A44F8203C54F81C3C134444F81C3C9B
:10E5A400CEE7304654F8241C01AB02F035F90028BC
:10E5B400E3D1019D54F8243C2B4444F8243C54F802
:10E5C400203C5B1B44F8203C54F81C3C2B4444F88E
:10E5D4001C3C002DB1D0304602F0DCF9B5FBF0F361
:10E5E40003FB1055002DA8D154F8203C002BA4D0D7
:10E5F400304602F067F9A3E744F8180CA4F11000C0
:10E6040006F008FF002DABD0424639463046A847F5
:10E61400A6E700BF68A900204B1E012B73B5064670
:10E624000D460FD8FFF762FF044668B9012D09D1E2
:10E6340001AB012230460DF1030102F0EDF8019B1C
:10E64400002BF5D102B070BD0AF03DFC04F12C01A1
:10E6540008B1012D05D1084602B0BDE87040FFF7AE
:10E664005BBF034802B0BDE870400AF010BC00BFB5
:10E6740068A900202DE9F74F0646154698460191F2
:10E6840009F006FB044600285BD1EFF3118A20232E
:10E6940083F31288BFF36F8FDFF8ACB0002200233E
:10E6A400584606F0EBFE70B9DFF8A090A70109EB1D
:10E6B4008414636813F1100F14D10193584606F0C3
:10E6C400A9FE019B06E00134042C0BF1400BE5D1BB
:10E6D4006FF00B038AF31188BFF36F8F184603B0F2
:10E6E400BDE8F08F019B2061C4E902350C9B3046E4
:10E6F40063610D9B09F80760A3616FF00F03C4F811
:10E704003C80636002F046F958B1304602F042F9A9
:10E71400B5FBF0F303FB10551DB1E36B43F00403A9
:10E72400E36318F0020F07D007F12C0108484944AD
:10E734000AF0ADFB0023CDE7304602F0C3F80346F0
:10E74400C8E76FF00F03C9E79CAF002080AF00203B
:10E7540068A9002010B5EFF31184202383F31288F5
:10E76400BFF36F8FFFF7C2FE50B14368103307D178
:10E774006FF08B0300F12C01436004480AF087FB1F
:10E7840084F31188BFF36F8F10BD00BF68A9002008
:10E79400F8B5042520270D4CEFF3118687F3128872
:10E7A400BFF36F8F6368103307D16FF08B03084892
:10E7B400636004F12C010AF06AFB86F31188BFF34D
:10E7C4006F8F013D04F14004E6D1F8BD80AF002015
:10E7D40068A9002070B50025094C0A4E3146204630
:10E7E4000AF039FB0122A4F11000114601350AF0A8
:10E7F400F6FA042D04F14004F0D1002070BD00BFEE
:10E80400ACAF00201DE501000123016981F84B3004
:10E814000B6833B191F849301BB1024808310AF052
:10E8240036BB704768A900200123016981F84A308A
:10E834000B6833B191F848301BB1024808310AF033
:10E8440026BB704768A9002070B50569EFF31186EF
:10E85400202383F31288BFF36F8FD5F8900008F05C
:10E86400EBFF044686F31188BFF36F8F30B10022AB
:10E874000023034805F1180106F094FF204670BDFB
:10E8840068A90020012370B582F8483013680D464A
:10E8940014463BB192F84A3023B10E4802F1080104
:10E8A4000AF0F5FAD4F890309A681B699A4205D1B7
:10E8B4007DB904F1180140F6CD4204E004F11801D9
:10E8C400002DF8D00022BDE870400023014806F076
:10E8D40069BF70BD68A9002070B504460E46017971
:10E8E4001548154609F0B1F910B394F9002063787E
:10E8F400002A16DB202B04D0222B0ED06FF08500CB
:10E904000AE02B681A6840F8102C9A8820F80C2C1E
:10E914009B7900F80A3C002070BD638800F8093C2C
:10E92400F9E7212BEAD10723103828603360F2E796
:10E934006FF01200F0E700BF80B00020014608B578
:10E94400034809F08FF910B1012300F8073C08BD12
:10E9540080B00020002103460C4AA0F8481010683B
:10E9640083F89C10C3F8940090889279A3F89800D7
:10E9740083F89A2083F89B104022A3F89E1083F812
:10E98400A01003F14C000AF0B4BC00BFC59902000A
:10E99400F0B5D0F88C3004465B6885B01B6A1F7DE7
:10E9A400384609F075F90646F8B994F88630E3B1AB
:10E9B4004FF48062A06F03A908F05DFF0546A0B183
:10E9C4008306A4F1180384F830600193084B08BF50
:10E9D40000F1FF35039900932A4602233846FFF7D6
:10E9E40049FE2946A06F08F062FF05B0F0BD00BFE4
:10E9F40089E80100002310B50469C4F8A8300C4B61
:10EA0400C4F8A400596804F1A80269B9C3E9002252
:10EA140004F1080007490AF01EFA04F11800064937
:10EA24000AF045FA002010BD0A605A60F0E700BF02
:10EA340080B00020BF7C020095E90100002373B57B
:10EA4400202504698DF8071084F84830EFF3118607
:10EA540085F31288BFF36F8F0122D4F890000DF173
:10EA6400070108F0E9FE86F31188BFF36F8F0128D0
:10EA74000AD00AF028FA10B994F8A1306BB9094BFE
:10EA84001A780AB901221A702122002304F118010C
:10EA9400054806F087FE02B070BD002121200AF06F
:10EAA400C6FAD3E77EBE002068A9002037B5144615
:10EAB4000A1E054620DDD4F88C0004F14C0108F050
:10EAC400BBFE012384F8493023683BB194F84B30F2
:10EAD40023B1114804F108010AF0D9F9D4F88C10D3
:10EAE4004B684A699A1ACB699B1A3F2B04D80123B5
:10EAF40084F8A03003B030BD94F89E30002BF9D0D8
:10EB0400064B4022009328460123019404F14C0152
:10EB1400FFF7B0FDEEE700BF68A90020B1EA0100ED
:10EB2400F7B50D4601461D4809F084F8044610B3B4
:10EB3400064656F8A439691E5F6805291BD8DFE824
:10EB440001F01C1A031C222610F8061C99B9012393
:10EB540000F8063C3B6A3246187BFFF7A7FF14F81F
:10EB64005C2C42B93B6A1146187D0D4B019600930B
:10EB74000223FFF77FFD03B0F0BD304603B0BDE8CC
:10EB8400F040FFF7E7BE012304F8053CF3E710F873
:10EB9400053C002BEFD00023F6E700BF80B0002037
:10EBA40089E8010037B50024084D4FF0FF334FF4D6
:10EBB400806228460649009406F0B6FD05492846B9
:10EBC40006F01AFE204603B030BD00BF68A900203D
:10EBD400C0C1002001A0020008B5044808F059FA99
:10EBE400BDE80840024808F054BA00BF0AA0020079
:10EBF4003FA002002DE9F04706460C4600AF00296D
:10EC040036D0D1E90012E9468AB06D46A3684FF0C8
:10EC1400050AA8461F48C5E90723C5E9050148F8C0
:10EC240010AF002342464FF421511B48FEF748FC25
:10EC3400D4E90312CD466369AD461848C5E90723F4
:10EC4400C5E90501C5F810A0002342464FF421513F
:10EC54001148FEF735FCCD46E3690121104A0E4800
:10EC640008F0FAFEA36901210E4A0B4808F0F4FEED
:10EC7400012E07D1EFF305830B4A31460648103BBA
:10EC840008F0EAFE2146304606F0EAF8BD46BDE843
:10EC9400F08700BF6DA002002C9902009CA0020026
:10ECA400CBA00200DAA0020008A1020030BFFFF7E7
:10ECB400FDBF00BF2DE9F04105460B4EDFF82C8067
:10ECC400324606EB0807CC1B204609490AF004FB30
:10ECD400A01942460021083C0AF00BFBC5F8A440E9
:10ECE40007F10800BDE8F081000000000400000006
:10ECF400B0990200074A936893F90E10002907DBC4
:10ED0400526993421FBF044A536843F080535360CF
:10ED1400704700BF2CBE002000ED00E070B52A4C07
:10ED240006460D4629482A4909F04CF8A36ADB0631
:10ED340047D52648274909F045F81120A36A1C073E
:10ED440004D52248244909F03DF812201E4CA36A38
:10ED5400990712D521491D4809F034F8636BA26A5A
:10ED6400120609D501211E4A184808F075FE1EB185
:10ED7400A36A23F08003A3621320134CA36ADE0763
:10ED840004D51248174909F01DF81420A36A9C06FB
:10ED940004D50E48144909F015F815200A4B9A6A4F
:10EDA400D10658BF9A6A9A6A920642BF5A6A22F4F6
:10EDB40000525A629A6A42F0FF029A6200232B7050
:10EDC40070BD1020BAE700BF00ED00E02C990200EE
:10EDD4001BA1020031A1020064A1020077A102007C
:10EDE4008FA10200A5A10200C4A1020010B5244C09
:10EDF4002449254808F0E6FFA36A99013ED5224834
:10EE0400224908F0DFFF1E20A36ADA0104D51E4858
:10EE14001F4908F0D7FF1F20194CA36ADB0204D551
:10EE240019481C4908F0CEFF0220A36A1C0304D52C
:10EE34001548194908F0C6FF2120114CA36A59034B
:10EE440004D51148154908F0BDFF2220A36A9A038E
:10EE540004D50D48124908F0B5FF2320084CA36AD5
:10EE6400DB0304D508480F4908F0ACFF2420A36A4B
:10EE74006FEA03436FEA1343A36210BD1D20C3E787
:10EE840000ED00E0F3A102002C9902000BA20200A5
:10EE94001EA2020038A2020062A2020080A20200A6
:10EEA400A5A20200BFA2020070B5294C06460D4679
:10EEB4002848294908F086FFA36AD9043CD5254887
:10EEC400264908F07FFF1720A36A1A0504D52148B4
:10EED400234908F077FF18201D4CA36A9B0512D51F
:10EEE4001C48204908F06EFFA36BA26A100409D5E0
:10EEF40001211D4A174808F0AFFD1EB1A36A23F48F
:10EF04000043A3621920124CA36A590504D5114881
:10EF1400164908F057FF1A20A36ADA050ED50D48E2
:10EF2400134908F04FFF1B20094A936A43F47F43B7
:10EF3400936200232B7070BD1620C5E7A36A9B045F
:10EF4400F2D504480B4908F03DFF1C20ECE700BF54
:10EF540000ED00E02C990200EAA2020000A30200E6
:10EF640064A1020011A302002AA302003FA302002D
:10EF74005AA30200C4A102002DE9F0478AB0694BEC
:10EF84000446D3F804A089461646002500AFCAF308
:10EF9400080885F31188BFF36F8F02F07F43B3F144
:10EFA4007F4F1ED1D3071CD4500603D4110708D4B5
:10EFB400012508E05C495D4808F004FF16F00406EA
:10EFC40000D04C4600250023FB71A8F10303092B54
:10EFD40000F28680DFE803F0077C7F7884848484F1
:10EFE40084822C46EFE75249504808F0EBFE002398
:10EFF4004C4EFB71F36A9A0705D54E494B4808F00D
:10F00400E1FE002329E0F36A002B01DA4A49F5E71F
:10F01400F36A5B00F5D54949444808F0D3FE7369A7
:10F02400A26943F480737361BFF34F8FBFF36F8F93
:10F03400736932F8022C23F480737361BFF34F8F2A
:10F04400BFF36F8F4DF602739A4228D123680121D2
:10F054003B4A364808F000FD2368FA79DAB907F12B
:10F06400080604F1200C324620686168083403C2A3
:10F0740064451646F7D17A6A002D4ED0C2F30801D2
:10F0840021B96FEA52226FEA42227A62184607F1E6
:10F094000801FFF7AFFD2837BD46BDE8F087B36A26
:10F0A400DBB223B10120F91DFFF738FE0EE0B36A8D
:10F0B40013F47F4F04D00120F91DFFF7F5FE05E09E
:10F0C400B36AB3F5803F9CD3FFF790FE0346C4E7D1
:10F0D4000020F91DE8E70020F91DEEE719498DE746
:10F0E400194A6E461AF4F87F8AB0184B18BF1346B3
:10F0F4006A461749C2E90513A8F11003D3614FF416
:10F1040000731384134B42F8103F00234FF4115142
:10F114000648FEF7D5F9B54673E722F4FF7222F0EC
:10F124000102B2E700ED00E0A0A302002C99020066
:10F13400C3A30200DAA30200FBA3020009A4020095
:10F1440028A4020044A4020087A3020072A30200C0
:10F1540068A4020004000001064B5A6942F0100240
:10F164005A615A6942F480625A615A6922F008026B
:10F174005A61704700ED00E0EFF30880EFF3098176
:10F1840001B57246FFF7F8FE01BD00BF002080F311
:10F194001488BFF36F8F002080F30A8880F30B88F4
:10F1A400104880F3088800200F49087009F0F0FA2D
:10F1B40000200E490860BFF34F8F00F02DF8202087
:10F1C40080F311880A484FF40061401880F30988DD
:10F1D400EFF314800221084380F31488BFF36F8F88
:10F1E40000F0E8F800D70020B9BE002094ED00E05C
:10F1F400C0C90020002318460649D1F89020C2F364
:10F204000722934200DB7047C1F89830C1F8A00090
:10F214000133F6E700ED00E010B572B6002484F384
:10F224001388FFF7E7FF23464FF0FF300C4A03F142
:10F2340020010133102B42F82100F8D100234FF0B4
:10F24400FF30074A03F160010133102B42F821001B
:10F25400F8D162B6BFF34F8FBFF36F8F10BD00BFFD
:10F2640000E100E0084B9B6883420BD1EFF3058378
:10F2740043B1064B5A6842F080525A605A6A22F4EB
:10F2840000425A6206F0ECBD2CBE002000ED00E006
:10F2940019498A6882F8B1E04FF030001044EFF366
:10F2A400098C80E8F01F202080F31288BFF36F8F51
:10F2B400124F4FF000664A698A603E604FF0A40422
:10F2C400141920680E4C206092F9B1E0D2F8A8001D
:10F2D4000023C2F8A83080F3118802F1300090E8CE
:10F2E400F01F8CF3098802F1000004B508F074FDE6
:10F2F400BDE80440704700002CBE002004ED00E08F
:10F3040088B000201EF0040F0CBFEFF30880EFF369
:10F314000980816911F8021C0229FFD001B57246E7
:10F3240008F045FD01BD00BF40B2002807DB012302
:10F334004109034A00F01F00834042F8213070471E
:10F3440000E100E040B200280CDB01220649430939
:10F3540000F01F008240203341F82320BFF34F8F79
:10F36400BFF36F8F704700BF00E100E0054B420917
:10F3740053F82220012300F01F0003FA00F010408C
:10F38400704700BF00E100E040B2002801F1010134
:10F39400ACBF00F16040064B4FEA4111C9B2ABBFAC
:10F3A40000F5614000F00F0080F800131954704715
:10F3B40014ED00E00B4A08B50B4B22F07F029A6073
:10F3C400BFF34F8FBFF36F8FD3F8882022F47002FE
:10F3D400C3F8882005F030FE06F084FE00F04EF8F5
:10F3E40005F06EFE00C0010000ED00E042F8203C94
:10F3F400009B0D4942F81C3C019B21F0010142F89D
:10F40400183C029B42F8081C42F8143C4FF08073ED
:10F4140042F8043C0023C0F8A8304FF43C43203A9F
:10F424000265C0F8B030704745CD010000B50C4B03
:10F4340015469860D0F8A4200A4B0E461A60D0F8FE
:10F44400943083F30B882C4686F309880020064BFE
:10F4540098472046002100220023044C204700BF87
:10F464002CBE002088B00020E77D020045CD0100BD
:10F474001022014B1A61704700ED00E000232021A7
:10F484000348C2180133452B82F80013F9D17047A1
:10F4940000E100E008B5EFF30583064A103B02EBF8
:10F4A400C30152F8330049688847BDE80840FFF7B4
:10F4B40021BC00BFB89502001FB5094C094A234678
:10F4C4000121094800F012F900230393074B01219D
:10F4D400E41A01A80193029400F012F904B010BDDB
:10F4E4000000072000A00020689A020070A40020F9
:10F4F40010B50C7A0B6804F01F0223F01F031A43A3
:10F50400CB68640923F01F03054943EA440343F02D
:10F514000103C1F89800C1F89C20C1F8A03010BDC7
:10F5240000ED00E010B50A4BD3F89030C3F3072385
:10F53400013B984208D901210346064A064808F0CF
:10F544008BFA6FF0150010BDFFF7D2FFFBE700BF89
:10F5540000ED00E07FA402001C9902002DE9F04FA9
:10F564008946144606464FF00008514D85B0C845FB
:10F5740027DAD6F804A0BAF1000F44D0BAF11F0F6D
:10F5840017D91AF01F0F14D1D6F800B01BF01F0FB3
:10F594000FD1584608F061FC07460AEB0B0001380E
:10F5A40008F05BFC874210D06FF01507414A3B46D8
:10F5B40001E04346404A0121404808F04DFA6FF00B
:10F5C4001504204605B0BDE8F08F17F1160FEDD0F5
:10F5D400BC42EBDDC5F89870D5F89C10C5F898705E
:10F5E400D5F8A03021F01F0143F01F0BD6E90032FB
:10F5F4001A44994202F1FF3A1DD1D34507D131464D
:10F60400F8B208F033FC08F101080C36AFE73146D4
:10F61400C5F89870D5F89C3022F01F0203F01F0340
:10F624001343C5F89C30E0B208F020FC10F1160F2B
:10F63400C5D0441CE7E7C5F89870D5F8A020013B75
:10F6440023F01F0302F01F021343D3453146E0B2F7
:10F65400C5F8A030E8D008F009FC10F1160FAED0C0
:10F66400C5F89870D5F89C209DF808300BF1FF3B45
:10F6740062F304038DF80830D5F8A0309DF8082013
:10F684005B0863F347128DF80820D6E9003213446F
:10F69400009323F01F035B44A3EB0A03013023F020
:10F6A4001F036946C0B20393FFF73CFFBEE700BFE8
:10F6B40000ED00E0C8A40200A5A402001C99020009
:10F6C4000522044BC3F89420BFF34F8FBFF36F8F11
:10F6D400704700BF00ED00E0BFF35F8F0022024BD4
:10F6E400C3F89420704700BF00ED00E010B5034C50
:10F6F4002278FFF733FF207010BD00BF7FBE0020CB
:10F704002DE9F74F294D8A4606464FF00008AB46CF
:10F71400274FD0451BDAD6F80490B9F1000F3FD03B
:10F7240031680846019108F098FB0199044609EBF9
:10F734000100013808F091FB84424FF014021D4B84
:10F7440008D002FB08F36FF015024BF8032003B056
:10F75400BDE8F08F14F1160F2C60F8D01978A1428F
:10F76400F5DD02FB08B0C7F89840C7F89840D7F811
:10F774009C4000F10801007B64F304000871D7F891
:10F78400A0000C79400860F347140C71D7F89C1062
:10F7940021F01F016960D7F8A01021F01F01296131
:10F7A40008F1010814350C36B3E700BF8CB0002013
:10F7B40000ED00E07FBE0020F0B54149414CD1F896
:10F7C40090302568C3F307239D4287B075D8002085
:10F7D400FFF782FF3C4BC1F8C030854216D13B4C49
:10F7E40001A82570FEF72AF900250646384FAE42D7
:10F7F40013D1002023783249D1F89020C2F3072294
:10F80400934254DBFFF75CFF00202FE0616801EBBB
:10F814000011FFF76DFE0130DFE70199280101EBCC
:10F824000513DA683A40B2F5001F21D0B2F5800F13
:10F834002BD0B2F5801F38D15A689B680958013B18
:10F8440022F01F0003440120844623F01F0340EAF2
:10F854004C10CDE902218DF8100002A920780593FF
:10F86400FFF760FE00281DDA6FF0150007B0F0BD49
:10F874005A689B680958013B22F01F0003444FF06B
:10F88400020C012023F01F03E1E75A689B68095822
:10F89400013B22F01F0003444FF0000C062023F02C
:10F8A4001F03D4E723780133237001359FE7C1F8A0
:10F8B4009830C1F8A00001339EE74FF0FF30D5E740
:10F8C40000ED00E0749A0200AAFF44007FBE00200D
:10F8D4000000F0FFF0B587B007460E46144600213D
:10F8E400102268461D4609F004FD02238DF80230FB
:10F8F400054B2A4621466846CDE90476019306F075
:10F9040049FE07B0F0BD00BFA37E020008B5024B5C
:10F914001B689847002008BDA0B00020034B044A90
:10F924001860937843F0020393707047A0B00020EE
:10F9340018A1002008B50649064821F00701C1F1C5
:10F94400005202F5E02207F0F4FA002008BD00BFDF
:10F9540087E50020A4B0002007B50DF1070003F0EF
:10F9640031FD114B98421CD14FF480620F4B10496A
:10F97400C3F8B8254FF40062C3F83C259DF807008E
:10F9840008F00FFF0B499DF8070008F005FF012060
:10F994009DF80730984003F009FD002003B05DF89E
:10F9A40004FB6FF00B00F9E70000AD0B00A0024070
:10F9B4002CA0024028A10240052370B5144D154E19
:10F9C4002C780134B4FBF3F303EB8303E41A08F05B
:10F9D4006CFE114A137823B156F82430C01A072854
:10F9E40013D90E4BD3F8141141B10021C3F81411EB
:10F9F400D3F814312C700CB9012313702C7808F04F
:10FA040054FE46F82400012070BD0020FCE700BF2E
:10FA140081BE0020B0B0002080BE00200050004015
:10FA240048B1054B054A1B68B3FBF2F35843044B3A
:10FA340043F001031847704700A2002040420F0022
:10FA4400D09902000B460121024AC2F81416002183
:10FA5400184700BF005000400149024807F0F3BDB9
:10FA64009C9A0200C4B000202DE9F047174B0546CC
:10FA7400D3F830210C46072AD3F8343121D1023B84
:10FA8400032B02D8124AD35CDBB14FF001080026E5
:10FA94004FF050290F4F0520C9F81886C7F814668F
:10FAA40008F078FE4046C7F8148608F073FEC7F8DD
:10FAB4001466C9F8186628462346BDE8F0470021B5
:10FAC40018470022034BC3F81426F4E700F007207C
:10FAD400FEA40200005000401FB5002301930393CD
:10FAE400012369460548029307F0C0FD029B9B076A
:10FAF40008BF039B05B05DF804FB00BFC4B0002041
:10FB040073B5069CC4F30726304603F045F8E5B206
:10FB14000146284608F04AFE002201200A4BA40BA5
:10FB240004F0FC041A51094BA84000938DF80420FA
:10FB340003F042FC304603F0E3F92946684603F03B
:10FB44009FFD02B070BD00BF80A002400070014064
:10FB54007FB52C4B01A90293002302A88DF80C3029
:10FB640003F086FD284B984248D103F0ABF9041EFC
:10FB74000BDA9DF8041002A803F082FD012123464C
:10FB8400224A234807F068FF35E040F60703214D79
:10FB94008DF80540AE68ADF806307468019B14B961
:10FBA4006FF05704EAE7082128461B4AA047041EC1
:10FBB400E4DB3369002BF3D001220821284698475F
:10FBC400041EDBDB01209DF80430984003F0EEFBBB
:10FBD4009DF805009DF804509DF8076008F04FFD5E
:10FBE4000146284608F0DDFD0C4BB60045F0004503
:10FBF4009D51002CC2D1204604B070BD6FF0120498
:10FC0400BCE700BF007001400000AD0B02A502007C
:10FC14004C9902004095020025FC010080A102409D
:10FC24002DE9F341144683681B690BB10022984700
:10FC3400C4F30726304602F0B7FF0546304608F005
:10FC44001EFD4FF00008E7B20146384608F0B2FD49
:10FC5400104B220E920043F80280304602F09CFFC3
:10FC64000D4A4FEA943C0CF0FC0C47F0004342F878
:10FC74000C300146384608F08FFD084B05F132027E
:10FC84000093304643460194520008F002FD02B04E
:10FC9400BDE8F08180A1024080A0024005FB010084
:10FCA4000146014809F090B894A300200149024894
:10FCB40009F0EDB808B1002040AA0020020600F0C7
:10FCC4007F0312D5082B05D1010700F00F0306D5D9
:10FCD4000E48704710F0780F12D100F00F034C203B
:10FCE40000EB43100A4B18447047082B05D1020758
:10FCF40000F00F0306D50748704710F0780FF6D0D0
:10FD040000207047044800EB431070472CB20020D9
:10FD1400E0B000204CB300204CB2002000220023AD
:10FD2400014805F045BB00BF94A3002013B5002291
:10FD340001213720FFF728FB114800F0E5FE114BA5
:10FD440098421AD10024104804F002F90F4804F034
:10FD5400BFFF4FF0FF334FF480620D490D4800940C
:10FD640005F0E2FC0C490B4805F046FD0B480C4934
:10FD740009F071F8204602B010BD6FF00400FAE7F4
:10FD8400510302000000AD0B61A70200A89A020013
:10FD9400C0C5002040AA002033A5020008B10020FD
:10FDA40049FF0100002310B50B49D1E8EF2F012AC8
:10FDB40003D1C1E8E03F0028F7D10CD151F8044C3D
:10FDC4001439204607F0CDFC783004D12046BDE834
:10FDD400104007F0A2BC10BD00B1002038B50024CB
:10FDE40064F07F00C0B2FFF769FF013408F0A9F89E
:10FDF400082CF5D100240E4DE0B2FFF75FFF036934
:10FE040003B90561013408F09CF8082C05F140059C
:10FE1400F2D1084808F095F8074BD3F87C2212B9C0
:10FE2400064AC3F87C22064808F08BF8002038BD47
:10FE340070B700202CB20020E0B0002070B3002086
:10FE44004CB3002010B5054CFFF768FF20B14168A2
:10FE5400204608F0E6FEF7E710BD00BF30A30020FF
:10FE640007B500230022144801A905F0ABF9E8B155
:10FE74000121124A124808F062F8FFF7E3FF00225A
:10FE840000230D4801A905F09DF930B101210D4A67
:10FE94000B4808F054F800200AE00423019840605D
:10FEA4000374FFF7FDFEFFF701FFF4E701984060DC
:10FEB40003B05DF804FB00BF30A300203EA50200A0
:10FEC400549902005CA5020010B50446FFF7C8FF70
:10FED40060B1002204720274FFF7E2FE044B93F84F
:10FEE40024301BB1BDE81040FFF7E0BE10BD00BFD9
:10FEF400E0B00020012807B518D0022817D060B957
:10FF0400002200230C48CDE9002345F69A12002371
:10FF140006F08EFA03B05DF804FB01210346074A9C
:10FF2400074803B05DF804EB07F096BD002003B06A
:10FF34005DF804EBFFF7C8BFF8A2002078A5020023
:10FF4400549902002DE9F0438046A04CDFF88092DA
:10FF540085B0FFF7E3FE074610B905B0BDE8F083AE
:10FF640094F825203B7C3AB9002B00F09A807968FC
:10FF7400974808F056FEECE7042B00F27181DFE8A5
:10FF840013F0900005000E0139015A0118F8043CE1
:10FF940033B9BB685B7A01218E4A8F4807F05CFD58
:10FFA4003B7BBD68032B37D8DFE803F0023D636871
:10FFB40000226E69894B32607260D3F8801431700C
:10FFC400D3F884147170D3F88814D3F88C0441EAFC
:10FFD40000217180D3F89014D3F8940441EA0021ED
:10FFE400B180D3F89814D3F89C3441EA0323F38006
:0CFFF4000823EB6030687168794B03C390
:020000022000DC
:1000000011462B68687A984796F90030002B08DB78
:10001000F38833B1A4F88C3201F0C4F8484679680B
:10002000A9E70023A4F88C32F8E76B7F002BF5D00A
:100030002B7F002BF2D000264FF0FF324FF0FF3322
:1000400069486E772E7707F091FF6B6901A90193DC
:100050006B68CDE90236687A00F0AEFD634A03466C
:10006000904204D00121624A5C4807F0F7FC5E48E8
:1000700007F07EFFD2E701212B68687A9847CDE729
:10008000AB7A6BB9EB7F5BB957484FF0FF324FF05B
:10009000FF3307F06BFF01F08BF8534807F068FF60
:1000A00002212B68E9E73B7A042BB7D8DFE803F09D
:1000B00055031F636F0000F0E9FC05460028ADD131
:1000C00000F096FC01234B49D1E8EF2F002A03D121
:1000D000C1E8E03F0028F7D1A0D141F8085C41F821
:1000E000105CE0691439636107F0C2FA96E70025F5
:1000F00065F07F00C0B2FFF7E3FD037A13B1407AE9
:1001000001F0B8F90135082DF2D194F854311BB142
:1001100094F8550101F0AEF90025E8B2FFF7D0FDE3
:10012000037A13B1407A01F0A5F90135082DF4D115
:1001300094F874321BB194F8750201F09BF9002019
:1001400000F088FC012384F825302368002B3FF45D
:1001500065AF00210220984760E7002584F825500C
:1001600001F0F0F8FFF720FE2368002B3FF456AFB4
:1001700029460420EFE7002A3FF450AF00F090FC3E
:100180002368002B3FF44AAF00210520E3E72368F2
:10019000002B3FF443AF002A3FF440AF002106207C
:1001A000D9E708F110054FF0FF334FF0FF32284632
:1001B00007F0DCFEFFF714FE284607F0D9FE58F8DA
:1001C000283C002B3FF42AAF00210120C3E700BFE9
:1001D000E0B0002030A3002093A502005499020053
:1001E00000600340E4B0002018B100200000AD0B17
:1001F000B9A5020000B1002094F8743263B1012562
:1002000084F8895284F88852FFF72CFE60B9294699
:10021000174A184807F095FE58F8283C002B3FF481
:10022000FDAE00210A2096E7134A0574057382602B
:10023000FFF738FDFFF73CFDEEE701210F4A0D48BF
:1002400007F07FFE04F02EFD01F07CF800F0C6FB05
:10025000FFF7FAFDFFF7C4FD04F01CFD084800F0AD
:1002600055FCDBE60121074A024807F0F7FBD5E61B
:10027000DFA50200549902004CB30020F3A5020050
:10028000510302000AA60200F7B5877806463846F1
:10029000FFF716FD3B060546F4781DD554B1032C37
:1002A00006D001212346274A2748009707F0E0FBA4
:1002B00003B0F0BDFFF7D6FD03460028F8D00122B9
:1002C000AC770274032202739D60FFF7EBFC03B06E
:1002D000BDE8F040FFF7ECBC54B1012CE1D1FFF7D1
:1002E000C1FD03460028E3D06C7704740473EBE788
:1002F000FFF7B8FD0028DBD0B278144B12F0800F66
:1003000002F0080111D041B1D3F8A836EB60012307
:100310000374022385600373D7E7142102F00F02F0
:1003200001FB0233D3F80836F0E711B1D3F8A83750
:10033000ECE7142102F00F0201FB0233D3F8083777
:10034000E4E700BF22A602005499020000600340C7
:100350001422F0B506468BB000210DEB020008F028
:10036000CAFF3378013B052B21D8DFE803F08B036C
:1003700014147B16032300248DF81C30FFF772FD44
:100380000346A0B100F108020474DDE9070182E828
:100390000300184626E00423EDE7B7783846FFF758
:1003A0008FFC837A054623B1013B022B54D90BB055
:1003B000F0BD3B06F4781CD54CB1032CF7D00121DD
:1003C0002346314A3148009707F052FBEFE7FFF729
:1003D00049FD03460028EAD00122AC7702740322CB
:1003E00002739D60FFF75EFC0BB0BDE8F040FFF7C5
:1003F0005FBC54B1012CE2D1FFF734FD0346002865
:10040000D5D06C7704740473EBE7FFF72BFD04463B
:100410000028CCD002230127037307748560B078CD
:1004200005F10C0107F0DEFD034620B1184A3946FC
:10043000164807F013FB174AE968B2F88C328B4272
:1004400006D95B1AA2F88C3200F0ACFE2046C9E750
:100450000023A2F88C32F9E730460BB0BDE8F0403B
:10046000FFF712BF03A800F07BFE9DF80D30052BAF
:1004700004D19DF80C3013F0600F98D0064B012486
:1004800007937BE7022479E722A602005499020031
:100490004EA60200E0B000204CB2002038B5154D49
:1004A00095F8244024BB05F1380008F007FC022031
:1004B00001F046F922460121E8613620FEF766FF89
:1004C00004F0E8FBFFF78CFC044610B9012385F823
:1004D0002430094B1B680BB1FFF7EAFB074BD3F83D
:1004E0000034DB0702D50020FFF706FD204638BDAB
:1004F0000024FBE7E0B0002094A30020007003403C
:10050000074B93F824203AB193F82530002B14BF01
:1005100000206FF0120070476FF01200704700BFAC
:10052000E0B0002008B50378027903F00F0142B96A
:1005300091B10D4A01210D4807F003FD4FF0FF3046
:1005400008BD082901D90A4AF4E7012A04D11B078A
:1005500007D4084A0221EEE713F00800F0D0064A5B
:10056000F8E70020ECE700BF6EA6020054990200F5
:100570008DA60200ACA60200C2A6020038B5134B3D
:10058000044693F82430EBB105782846FFF798FB32
:1005900088B14572237983726388436020786188CB
:1005A00010F0080F0AD14B1E0B4207D00121084A58
:1005B000084807F0C6FC6FF0150038BD07F00DFDC8
:1005C0000020FAE76FF01200F7E700BFE0B000206C
:1005D000DFA602005499020038B5154B054693F882
:1005E00024200AB393F82530F3B1FFF769FB0446E2
:1005F00010B96FF0150038BD817A01290FD007D9E5
:100600000239012907D900206369E060A361F2E79C
:1006100000F0D4FDF7E7284600F076FDF3E7054A41
:10062000054807F08EFCE4E76FF01200E3E700BF37
:10063000E0B0002007A702005499020038B50E4B25
:10064000054693F8242082B193F825306BB1FFF76B
:1006500037FB68B115F008040AD1284600F076FD92
:10066000284600F03FFF204638BD6FF01200FBE740
:100670006FF01500F8E700BFE0B0002038B50C4B74
:10068000054693F824200C4662B193F825304BB10F
:10069000FFF716FB48B144B1284600F03DFD20703D
:1006A000002038BD6FF01200FBE76FF01500F8E78F
:1006B000E0B0002070B5134E044696F82430C3B164
:1006C000FFF7FEFA0546B8B1230705D4204600F02F
:1006D0003DFD204600F006FF2B7A83B901232B72E3
:1006E00096F825300BB9002070BD204600F0C2FE00
:1006F000F9E76FF01200F7E76FF01500F4E76FF01D
:100700007700F1E7E0B000202DE9F043DFF8F48056
:100710001E4698F8243007468946154685B0002BBA
:100720006DD098F82530002B69D003060BD5FFF764
:10073000C7FA044638B1037A5BB901213B46324A15
:10074000324807F08BF96FF01504204605B0BDE87C
:10075000F0834FF0FF334FF0FF3208F1380007F01D
:1007600005FCA37F33B108F1380007F001FC6FF0FE
:100770000A04EAE7A37A05B37BB301234FF000082C
:10078000A377384601A9CDE90195CDF80C8000F09A
:1007900013FA1F4A034690422DD084F81E800EB1F2
:1007A000C6F8008001211B4A184807F057F96FF07E
:1007B0000404194807F0DCFBC7E7E27F02B1E577E4
:1007C000002BDAD100F000FD8742D6D000F0F0FC1B
:1007D000114807F0CDFB0024B7E7B8F80A309D4276
:1007E000F0D26268B5FBF2F302FB1353002BE9D1A0
:1007F0000123E377E6E706B135600024D9E76FF01F
:100800001204A2E7E0B0002029A7020054990200D8
:100810000000AD0B48A7020018B100202DE9F041FF
:100820001D46254B174693F8242080460E46002A85
:100830003FD093F82530002B3BD010F0800F0ED125
:1008400001B967B94046FFF73BFA044638B1037A6D
:1008500043B901214346194A194807F0FFF86FF0E0
:10086000150013E04FF0FF334FF0FF32154807F04B
:100870007DFBE368B8469F4228BF984646B93FB91A
:1008800005B12B600F4807F073FB0020BDE8F08135
:1008900042463046A16908F021FDA3694344A361A3
:1008A000E368A3EB0803E360002DEBD0C5F80080FC
:1008B000E8E76FF01200E9E7E0B0002029A70200A6
:1008C0005499020018B1002070B5224D064695F8E3
:1008D0002430002B3AD095F82530002B36D0030673
:1008E0000BD4FFF7EDF9044638B1037A43B901217F
:1008F0003346194A194807F0B1F86FF0150070BD7A
:100900004FF0FF334FF0FF3205F1380007F02EFBB8
:10091000E368B3B9012663692677A361637F83B176
:10092000FFF7A0FA30B905F1380007F021FB6FF0AE
:100930000B00E4E7067484600673FFF7B3F9FFF772
:10094000B7F9074807F014FB0020D8E76FF0120052
:10095000D5E700BFE0B0002029A7020054990200AB
:1009600018B1002010B5084B0C4693F824302BB179
:10097000FFF7A6F928B10460002010BD6FF0120047
:10098000FBE76FF01500F8E7E0B00020014B1860BE
:10099000704700BFE0B0002008B5074B93F8243043
:1009A00023B1FFF78DF920B1406808BD6FF0120048
:1009B000FBE76FF01500F8E7E0B00020064B10F001
:1009C000800FA3F1D80208BF1346182200F00F00D1
:1009D00002FB0030704700BF88BA00200023024AA3
:1009E0001360024A1370704768BB002086BE002067
:1009F0004FF40062114BC3F800240122C3F8002514
:100A0000D3F800241205FBD54FF40062C3F800248C
:100A10008022C3F81C250122C3F8302540F2FF12C2
:100A2000074B1A600023074A1360074A1370074AEE
:100A300013700222064B1A70704700BF006003401B
:100A400064BB002060BB002082BE002084BE00206A
:100A500086BE00200022094B10B51A70084A094BC7
:100A6000094C002808BF13463620C4F80033FEF7AF
:100A70005DFC0123C4F8043510BD00BF85BE002015
:100A8000FDFFDF01FDFFFF0100600340034B18780D
:100A9000012894BF00200120704700BF86BE0020BF
:100AA00010B54FF0FF324FF0FF33154804F0E8FC6B
:100AB000EFF31181202383F31288BFF36F8F114B63
:100AC0001B7803F0FF0483B10F4BD3F8002412F41A
:100AD00000720AD10120C3F82C05D3F82C05D3F8F5
:100AE0000004800502D5C3F82C25002481F3118869
:100AF000BFF36F8F024804F08FFC204610BD00BF8B
:100B000074A3002085BE002000600340F8B51C4B94
:100B10001C7894BB1B4A40F2FF1710600122264646
:100B20001A7064F07F0514F0080FEDB214BF394657
:100B30004021284607F051FA2846FFF73FFF0134CD
:100B4000092C867506730661EBD1002440F2FF176D
:100B5000254614F0080FE6B214BF3946402130464E
:100B600007F03BFA3046FFF729FF0134092C857561
:100B700005730561EDD10448F8BD0448FCE700BFEA
:100B800086BE002068BB00200000AD0B0500AD0B49
:100B9000084B10F0800F14BFD3F81025D3F814259C
:100BA000012300F00F018B40134214BF01200020ED
:100BB000704700BF0060034002462DE9F843EFF3A1
:100BC0001187202383F31288BFF36F8F030703D1AC
:100BD000194B1B7883422AD1184B10461C684FF0E2
:100BE0000109E44307F0F1F9154EA4B2356809FA9A
:100BF00000F82C4314EA08041BD11046FFF7DEFE70
:100C0000034680F80C9007C983E807004FF4800280
:100C10001C619C750B4B45EA08050B483560C3F811
:100C2000042187F31188BFF36F8FBDE8F88307486D
:100C3000F7E70748F5E700BF84BE002064BB00204B
:100C400060BB002000E100E00000AD0B0A00AD0B2E
:100C50000B00AD0B10F0080F074B06D0D3F8C00403
:100C600010F4803F18BF0020704700F00F0000F51F
:100C7000947053F820007047006003402DE9F04F56
:100C8000AB4BAC4FD3F8542185B0DAB10022C3F896
:100C90005421D3F80413890214D58DF80C20D3F80D
:100CA000202503A8ADF80E20D3F8C034002B14BFC4
:100CB0004FF001224FF480723B6813433B609E4B20
:100CC0001B6898479A4BD3F8604134B10022C3F8AF
:100CD0006021D3F86C44C3F86C44D3F828214AB19E
:100CE0000022C3F82821954B187807F06EF90123EC
:100CF00083401C43DFF84882924E98F8005098F9E0
:100D0000009015F0080141D1B9F1000F05F00F0373
:100D10002CDA8D4A52F8230010B342F82310142223
:100D2000534303F1804303F55833D3F80836874A19
:100D300003F0010311784B401370854804F06CFBFD
:100D40002846FFF73BFE837D032B37D1284607F06B
:100D50003CF9012303FA00F0336823EA000333600F
:100D600001254FF00609DFF8D0A15DE0794A52F87D
:100D700023000028F4D042F823101422534303F137
:100D8000804303F55833D3F80837D0E7B9F1000FA3
:100D9000674B09DBD3F85021002AE1D00022C3F8C9
:100DA0005021D3F8A837C2E7D3F82C21002AD7D096
:100DB0000022C3F82C21D3F8A836B8E7037BDBB9AF
:100DC000284607F002F9012303FA00F03368B9F16D
:100DD000000F23EA0003336001DA882DC0D1062317
:100DE0008DF80C3000238DF80F30534B8DF80E50DA
:100DF0001B6803A89847B3E7002DB1D101224C4BE3
:100E0000DA64ADE794FAA4F0B0FA80F03A6805FA33
:100E100000F31A430F283A6024EA0304326840F3CF
:100E20009D80134200F0AA80002CEBD1404BD3F8F8
:100E300000215AB1C3F80041474B03A81C703F4B37
:100E40001C70012303933C4B1B689847384BD3F825
:100E50005821002A2ED00022C3F85821D3F800448C
:100E6000C3F80044E30508D501223B4B03A81A70E0
:100E700002230393304B1B689847A50508D5002231
:100E8000354B03A81A70032303932B4B1B68984719
:100E900060050FD5304B1A7862B100221A7001221A
:100EA000234B03A8C3F808259A6504230393224B18
:100EB0001B6898471E4BD3F85C3103B3244B9B68E7
:100EC0001BB998F80030590619D00022184B03A816
:100ED000C3F85C21D3F88034184A23F07F031370E1
:100EE000336823F0011333603B6823F4803343F00D
:100EF00001033B60052303930F4B1B68984732683F
:100F00003B681A4200F0938000220023104804F04E
:100F1000B7FA002840F08B80054BD3F82C35002B16
:100F200000F0A8800A4805B0BDE8F04F04F074BA9C
:100F30000060034064BB002068BB002084BE00202A
:100F400083BE002060BB00200861034082BE0020F9
:100F500074A300203061034085BE002013407FF45D
:100F600063AF60F07F018DF80C908DF80E108DF856
:100F70000F30DAF8003003A8984755E7A0F11001C8
:100F80008DF80C908DF80E108DF80F50F1E749F0A8
:100F900080052846FFF712FD4368B0F814B00168D9
:100FA0009B4528BF9B4601F06043B3F1005F0446B8
:100FB00004D05A46514808F091F9504922686368B4
:100FC0005A442260A268A3EB0B03D20768B26360A5
:100FD00005D5BBF1000F04D10023237301E0002BE2
:100FE000FAD0012202FA09F92AEA09033B602369CF
:100FF00015F0080F5B44236188F80050404B6FD117
:1010000000284FF0140005F00F0500FB0530B5BFB8
:1010100003EB85030A35C0F80016C0F80017B5BF0A
:10102000C0F804B6C0F804B75A6043F8252005B0EC
:10103000BDE8F08F61464FF0000B70454AD1003A91
:1010400018BF0122BCF1000F46D0584544D90122F7
:1010500002FA09F223EA02033360062302218DF823
:101060000C30284BA1751B688DF80E508DF80F10B1
:1010700003A898473368D7F800A013EA0A093FF499
:1010800051AF19F0012214BF92FAA2F999FAA9F905
:10109000B9FA89F9B9F10F0F01937FF678AFA9F189
:1010A0001005EDB22846FFF789FC04462846FFF7F5
:1010B000D1FD6268B4F814E09042D4F800C0019BFE
:1010C000B8D800EB0C0B121AC4F800B06146834686
:1010D0006260B2E70022B5E768B2002A81D17BE7FF
:1010E0000028B5BFC3F8A016C3F8A017C3F8A4B66C
:1010F000C3F8A4B7B4BF5A629A6498E770B90020E5
:101100000060034068BB0020024B40F48070C3F8CD
:101110001805704700600340030713D400F00F0365
:1011200010F0800F084A0BBF03F5887303F5847332
:1011300002EB830252F8230008BF5068003818BF42
:10114000012070470020704700600340034BC3F844
:101150000C0540F48070C3F80C0570470060034034
:101160000023036043600E4BD3F880240270D3F851
:1011700084244270D3F88824D3F88C1442EA0122E4
:101180004280D3F89024D3F8941442EA012282805A
:10119000D3F89824D3F89C3442EA0323C3807047E1
:1011A000006003400122014BDA6470470060034095
:1011B0000122014B1A657047006003400122014B78
:1011C0005A65704700600340014B1878704700BFB4
:1011D00084BE0020024610B5EFF31184202383F370
:1011E0001288BFF36F8F06F0F0FE01230A4903FA5D
:1011F00000F00B6823EA00030B6012F0080101BF46
:1012000002F00F02054B02F5947243F8221084F3AA
:101210001188BFF36F8F10BD64BB002000600340D6
:10122000F7B50146EFF31185202383F31288BFF34E
:101230006F8FFFF7C3FB0646084606F0C6FE012285
:1012400011F0800F02FA00F22D4818D1036832EA3B
:1012500003040AD00846FFF7BDFF0323B37585F3E7
:101260001188BFF36F8F03B0F0BD264923EA020354
:1012700003600B68347323EA02030B60EDE70B078E
:1012800015D48029204B2FD001F00F0404F2DA345A
:101290006400C3F80048D3F80448D3F80478E4B2F3
:1012A00044F002043C43C3F80448D3F80438154F13
:1012B00004683B6864EA030C1CEA020FCFD01343B6
:1012C0003B6000233373032324EA02040622B37530
:1012D0008DF807300D4B04601B688DF804208DF8E5
:1012E000061001A89847BAE740F2B474C3F8004862
:1012F000D3F80448D3F80478E4B244F00404D1E706
:1013000060BB002064BB00200060034068BB00207D
:1013100038B50446094D4FF0FF324FF0FF332846F1
:1013200004F0AEF82046FFF77BFF284604F074F87F
:101330004FF48002024BC3F8042138BD74A300208F
:1013400000E100E0F8B54FF0FF324FF0FF332A48DC
:1013500004F096F84FF48002284B3620C3F884211D
:10136000FEF706F898B10127254E264B34681B6816
:10137000240C24041C4354BB40F2FF13224D336061
:101380003620C5F80445FDF7DFFFC5F800431F4AC6
:1013900013788BB100211C4BC3F808110121C3F84D
:1013A0000026C3F804165960D3F808110029FBD0B1
:1013B0000021C3F8081111700022134BC3F8002557
:1013C0000D4804F029F80122114B1A70F8BD94FA67
:1013D000A4F5B5FA85F528460F2DC6BFA5F1100076
:1013E000C0B240F08000030701D4FFF719FF07FAED
:1013F00005F524EA0504BEE774A3002000E100E03F
:1014000064BB002060BB00200060034082BE00205F
:1014100086BE002010B504464FF0FF324FF0FF3378
:10142000114804F02DF82046FFF7FAFE012304F0DE
:101430000F029340DB430D4A14F0800F15BFD2F822
:101440001015D2F814150B400B4014BFC2F810351C
:10145000C2F81435044803F0DFFF4FF48002044B58
:10146000C3F8042110BD00BF74A300200060034036
:1014700000E100E070B50446FFF78AFB68B901257A
:1014800004F00F0214F0800F144B05FA02F205D09D
:10149000D3F810150A43C3F8102570BDD3F81415FE
:1014A0000A43C3F81425631E062BF6D8EFF3118602
:1014B000202383F31288BFF36F8F2046FFF78AFE45
:1014C000204606F082FD064A8540136823EA05039C
:1014D000136086F31188BFF36F8FDEE7006003406F
:1014E00060BB0020030610B5044605D4FFF714FEC8
:1014F00010B12046FFF76EFE014BC3F8184510BD32
:1015000000600340084B70B5C31A0D4607499B1095
:10151000044659434022064806F083FD2B46014607
:101520002046BDE87040184780BB0020B76DDBB691
:10153000F0940200402373B50B4C0093041B0B4640
:101540000D460A49A41061430646094A094806F0B7
:1015500093FD011E05DA30462B4602B0BDE870400F
:10156000184702B070BD00BF80BB0020B76DDBB66E
:10157000E1800200F094020010B5EFF31184202303
:1015800083F31288BFF36F8F074A136823F00201B9
:10159000DB07116002D4012007F012F984F31188EF
:1015A000BFF36F8F10BD00BF20BC00202DE9F843B2
:1015B0000022012106460520FDF7E8FE114801F052
:1015C00087FF114B984219D101F092FF00244FF090
:1015D0001C090C27DFF834803569414609FB0450AB
:1015E00006F033F8002807DB012307FB04551C44F1
:1015F000042CAB67F0D10020BDE8F8836FF0040045
:10160000FAE700BF0D1702000000AD0BB09A020010
:101610001FB500220123CDE902236B46084ACDF80D
:1016200000D0CDF804D006F054FD002805DB4FF4BF
:1016300080420023684603F023FF05B05DF804FBF9
:10164000178102000C22104B014602FB00330020E0
:1016500030B4D3E91C521867EFF31180202484F3CF
:101660001288BFF36F8F9C6F04F0C00444F0020433
:101670009C6780F31188BFF36F8F1DB12B4630BC80
:101680000248184730BC704780BB0020F09402002D
:1016900010B4EFF31182202383F31288BFF36F8F0E
:1016A0001748016841F002040460C80707D482F3B8
:1016B0001188BFF36F8F012010BC01F035BF1149B5
:1016C000D1F80C04D1F80C14C907F0D5EFF3118050
:1016D00083F31288BFF36F8F0B498B6F03F0C00346
:1016E00043F002038B6780F31188BFF36F8F82F39F
:1016F0001188BFF36F8F002010BCFFF7A3BF00BF9E
:1017000020BC00200050004080BB0020092813D8D6
:10171000DFE800F005101212121212120E0C074B25
:10172000986F10F0070007D1FFF78CBF0220FBE78E
:101730000320F9E70120F7E7704700BF80BB0020D6
:10174000C3B21C20014A03FB0020704780BB00206D
:101750002DE9F041012207463449D1E8EF3FC1E8C5
:10176000E02F0028F9D133B9314932484B60CB60C2
:101770008A6005F07DFF7B1E012B28D8012F06D142
:101780002D4BD3F81C3403F00303022B1FD007F0BA
:101790009CFB0546E8B9294B1B78D3B102220646CB
:1017A000254BC3F80823244CDFF89480D4F8182480
:1017B000D4F81834D20315D503F00303022B01D05B
:1017C000012F0FD16DB386F31188BFF36F8FBDE882
:1017D000F081EFF31186202383F31288BFF36F8F1C
:1017E0000125E0E7C5B1304606F01DFBD4F81835F9
:1017F000DBB2012BDAD1D4F80421002AD6D00022A2
:10180000C4F80421D4F804210222C4F818252022A7
:10181000C8F88021A360C9E70021212007F009FC56
:10182000E4E70222044BC3F80423D0E77CBB00208A
:101830006CBB00209CBB002000500040B9BE0020C3
:1018400000E100E008B5074807F0A3F938B1064801
:10185000FEF766F80448FBF76FFA002008BD6FF04A
:101860001200FBE72C9502006D1802000A2838B51B
:101870000446074D04D1AB680D2128465B689847A4
:10188000AB6803485B68E1B29847204638BD00BFAB
:101890002C950200F0B5406801F01F04057B87B06D
:1018A00044EA45140569002D63D0B2F5001F00F12C
:1018B000100506D12146284607F013F8002007B08E
:1018C000F0BD0027B2F5800F01AE0197776039D1E6
:1018D000B3F1007F14BF052304238DF804300023E7
:1018E000CDE904630393836823FA01F111F0010148
:1018F0001AD1B2F1A07F17D104F01F03620903F1DE
:1019000080032AD0012A3AD11E4A52F82330DB073D
:101910000AD40DF1030632462146284602F01EF98C
:10192000194B98421BD002962146284603AA01F083
:10193000D1FF164B98421FD101222146284602F0C2
:101940006FF9BBE7B3F1C06F05D0B3F1007F14BFEF
:1019500001230223C1E70323BFE70D4AD5E7314640
:10196000284602F057F9094B9842DCD06FF00B0083
:10197000A5E76FF08500A2E76FF015009FE751F82B
:101980002330FFDE002884400400AD0B0000AD0BC7
:101990000025844038B545682B69B3B11035284619
:1019A00002F028F9044680B90146284602F0F0F812
:1019B000084B98420BD122462846074902F0C8F846
:1019C000224605212F20FDF7E1FC002038BD6FF0F5
:1019D0000400FBE70000AD0BDD19020042090346DD
:1019E00070B502D0012A17D070BD0D4E3269516812
:1019F0000029F9D0012503F01F030C689D40002940
:101A0000F2D08A682A4002D030464B6898472CB101
:101A1000236821461C46F2E7024EE7E72346F8E733
:101A200018950200049502002DE9F04340F20635B6
:101A30004668D00648BF0320337B02EA050558BF3D
:101A4000C2F3401087B001F01F07B5F5837F14463D
:101A500047EA43178DF8030044D00FD8062D18D05D
:101A600007D8B5B1022D3FD06FF0150007B0BDE823
:101A7000F083B5F5807FF7D101250AE040F202221C
:101A8000954233D0B5F5407F32D0B5F5007FEBD12C
:101A900002250123220303FA01F12BD57368996013
:101AA000326972BB07F01F037F0928D0012F75D15F
:101AB0003C4A02EB830284F48033D2F80012C3F371
:101AC0000043C4F3404444EA430421F4706144EA0F
