:020000021000EC
:10C00000B8CD002095DF0100D55B020081DF010083
:10C0100081DF010081DF010081DF010081DF01009C
:10C020000000000000000000000000000DE1010021
:10C0300081DF01000000000099E0010081DF0100C4
:10C040009DE201009DE201009DE201009DE20100F0
:10C050009DE201009DE201009DE201009DE20100E0
:10C060009DE201009DE201009DE201009DE20100D0
:10C070009DE201009DE201009DE201009DE20100C0
:10C080009DE201009DE201009DE201009DE20100B0
:10C090009DE201009DE201009DE201009DE20100A0
:10C0A0009DE201009DE201009DE201009DE2010090
:10C0B0009DE201009DE201009DE201009DE2010080
:10C0C0009DE201009DE201009DE201009DE2010070
:10C0D0009DE201009DE201009DE201009DE2010060
:10C0E0009DE201009DE201009DE201009DE2010050
:10C0F0009DE201009DE201009DE201009DE2010040
:10C100009DE201009DE201009DE201009DE201002F
:10C110009DE201009DE201009DE201009DE201001F
:10C120009DE201009DE201009DE201009DE201000F
:10C130009DE201009DE201009DE201009DE20100FF
:10C140009DE201009DE201009DE201009DE20100EF
:04C150009DE201006B
:10C1540053B94AB9002908BF00281CBF4FF0FF316A
:10C164004FF0FF3000F00CB8ADF1080C6DE904CECF
:10C1740000F010F8DDF804E0DDE9022304B07047B4
:10C18400704700BF034613F8012B002AFBD1181A8D
:10C19400013870472DE9F04786468C460846089ECC
:10C1A400154674461946002B40F0C1808542B2FA08
:10C1B40082F245D94AB1C2F1200300FA02FC95404B
:10C1C40094402EFA03F343EA0C0C4FEA154EA8B23E
:10C1D400230CBCFBFEF80EFB18CC08FB00F943EA69
:10C1E4000C43994528D9EB1808F1FF3704D2994537
:10C1F40002D9A8F102072B44A3EB0903A4B2B3FBB1
:10C20400FEFC0EFB1C330CFB00F044EA0344A0428A
:10C2140014D92C190CF1FF3304D2A04202D9ACF189
:10C2240002032C44241A43EA07401EB1D4400023DD
:10C2340034607360BDE8F0874746DDE76346F1E7A5
:10C2440092BB431B01214FEA154EAFB2200CB3FB46
:10C25400FEFC0EFB1C330CFB07F840EA0343984535
:10C2640061D9EB180CF1FF3004D2984502D9ACF136
:10C2740002002B44A3EB0803A4B2B3FBFEFC0EFBA9
:10C284001C330CFB07F744EA0344A7424DD92C198D
:10C294000CF1FF3304D2A74202D9ACF102032C44BF
:10C2A400E41B43EA0040C0E7C2F1200395409440F8
:10C2B40020FA03F12EFA03F34FEA154E9040AFB281
:10C2C4000343B1FBFEFC0EFB1C10190C0CFB07F81E
:10C2D40041EA0041884522D969180CF1FF3004D2A3
:10C2E400884502D9ACF102002944A1EB08019BB2B4
:10C2F400B1FBFEFC0EFB1C110CFB07F743EA0143E8
:10C304009F420ED9EB180CF1FF3104D29F4202D99F
:10C31400ACF102012B44DB1B41EA004193E7604688
:10C32400E3E76146F7E76046A4E76346B8E783427C
:10C3340006D916B9002108467CE7C6E900E0F9E70A
:10C34400B3FA83F78FB9834201D3724508D8BEEBA1
:10C35400020460EB030301209C461EB9002169E737
:10C364003846FAE7C6E9004CF8E7C7F1200CBB40B1
:10C374000EFA07F522FA0CF42EFA0CF1BA401C431B
:10C3840020FA0CF3B8404FEA144901431FFA84FE23
:10C39400B3FBF9F809FB18300B0C08FB0EFA43EA5F
:10C3A40000439A4540D9E31808F1FF3004D29A4576
:10C3B40002D9A8F102002344A3EB0A0389B2B3FB18
:10C3C400F9F809FB183308FB0EFE41EA03418E45D8
:10C3D4002CD9611808F1FF3304D28E4502D9A8F193
:10C3E4000203214443EA0040A1EB0E01A0FB0298A2
:10C3F4004145CE46434602D306D14D4504D20138C9
:10C40400B9EB020E68EB0403002EA7D0B5EB0E02C5
:10C4140061EB030101FA0CFC22FA07F3F9404CEA40
:10C424000303C6E9003199E74046C5E74346D9E727
:10C4340070B501250A224921074809F0D1FA2C4692
:10C44400064E654322462B4649213046013409F005
:10C45400C7FA0B2CF5D170BD0C79020040790200AB
:10C464007FB56A461546334B03F10806144618682F
:10C474005968083303C4B3422246F7D118681B79BC
:10C484002060237149212C4809F0AAFA032249218A
:10C494002A4809F0A5FA4421294809F0A1FA5721AC
:10C4A400284809F09DFA4521274809F099FA4921BD
:10C4B400264A274809F094FA0D222946032000F061
:10C4C4009FF9244C20460AF02DFA78B34FF4D0118A
:10C4D400214808F0D6FD002828DB4FF480311F489E
:10C4E40008F0CFFD002821DBA568AE696EB1236991
:10C4F4004FF0A0721B680E2113F4804F14BF4FF04D
:10C5040000734FF080632046B0471549154B4B60CC
:10C514004FF480438B60EB6913B101220D489847B7
:10C5240000214FF096700AF037FCF9E74FF0FF3026
:10C5340004B070BD4876020060790200827902007E
:10C5440093790200B5790200DA790200FD790200DC
:10C554000A7A0200F4710200687602007076020022
:10C5640000A9002035C40100014B1B68184700BF17
:10C57400B0A00020014B1860704700BFB0A000209D
:10C5840030B585B004460D461022002168460AF0F5
:10C594003DFD02238DF80230044B2A4621466846AD
:10C5A400019308F013FB05B030BD00BF6DC5010059
:10C5B40080B505460E461746984607F093FF034696
:10C5C4000AF09EFD0446DFF81890424649F8003010
:10C5D40039463046A84754F8090001F045FD00BF2C
:10C5E400080000002DE9F047058B04462807904613
:10C5F40011D4022905F0070540F0CC80204609F04B
:10C6040036F878B10138218B042811D8DFE800F01E
:10C61400C2106D85950001290CBF45F0100545F049
:10C624002005258388F31188BFF36F8FBDE8F08759
:10C6340001F0070AAA4500F0A5800027B9463E4646
:10C64400A368002B00F0BC8041F00801218388F32B
:10C654001188BFF36F8FA168002900F0BA800D68BC
:10C66400002900F0B680334652462046D1F80480B3
:10C67400C047002D76D02B6829461D46F0E701F00F
:10C6840007035A1F012A1BD8002221F00701062B99
:10C69400276889B2C4E9002209D13B4603E0628BD2
:10C6A400013262831B68002BF9D141F0020120465C
:10C6B400218308F0DCFF00287AD041F0200176E0E5
:10C6C400042B0AD121F0070189B22046218308F006
:10C6D400CEFF10B141F020012183218B01F0070A24
:10C6E400AA454FD00027B946AAE7236921F00701DC
:10C6F40041F00601062DD3F8009021832DD1B9F124
:10C70400000F3FD041F00801218388F31188BFF363
:10C714006F8F20463949C84729E021F00701236972
:10C7240041F0040189B2042DD3F804902183E6D0AA
:10C7340000274FF0040A3E4682E721F007012369EF
:10C7440041F0050189B2052DD3F808902183D6D094
:10C7540000274FF0050A3E4672E700274FF0060A0D
:10C764003E466DE72B4687E7B9F1000FD1D1EFF3D1
:10C774001188202383F31288BFF36F8F238B23F058
:10C7840008032383258BEA062ED525F01003238383
:10C7940005F007056669218B002EBFF670AF0023F4
:10C7A4002768C4E9003321F0070141F00101218326
:10C7B400218B4FF0000901F0070AAA457FF440AF2E
:10C7C400002F9CD041F00801218388F31188BFF326
:10C7D4006F8F002FC8D03D683946334652462046F5
:10C7E40008F071FF2F46F4E7AB067FF51BAF25F089
:10C7F4002003238305F0070500E700BFF756020076
:10C804002DE9F84F80460F4616461446DFF88C9003
:10C81400BD192D1B0CB9BDE8F88F08F1FF33032BAC
:10C824008CBF3F2119F803101D4808F0F8FE4FF0A3
:10C83400000BDFF870A05C4528D9504615F80B10A2
:10C8440008F0EDFE0BF1010BBBF1080FF3D1164814
:10C8540008F0E5FE4FF0000ADFF850B0544519D94E
:10C8640015F80A105846A1F120025F2A28BF2E218C
:10C8740008F0D5FE0AF1010ABAF1080FEED10C480E
:10C8840008F0CDFE072CC6D9083CC1E7094808F0DA
:10C89400C6FED7E7084808F0C2FEEBE7437A020079
:10C8A4002F7A0200347A02003E7A0200407A0200B3
:10C8B400918902003A7A02003C7A0200014B03603B
:10C8C4000020704778760200F0B40C4B0C4E5F6A7F
:10C8D4000C4BB34203D36FF08500F0BC70475D6826
:10C8E400BD4209D31C693CB195F802C00579AC4539
:10C8F40002D12346F0BC18472433EAE70CA90020F0
:10C904000CA40020E8A300202DE9F04705460E46BC
:10C914001746124CDFF84880DFF84890444503D3AB
:10C924006FF08500BDE8F0876268D9F824309A4238
:10C9340012D3A36983B190782979884205D13A4604
:10C9440031462846BDE8F04718475279012A03D1F9
:10C954003A463146284698472434DFE7E8A30020C6
:10C964000CA400200CA900202DE9F04105460E4638
:10C9740017460A4CDFF82880444502D36FF085003F
:10C9840009E063690BB92434F6E73A463146284690
:10C9940098470028F7D1BDE8F08100BFE8A3002044
:10C9A4000CA4002010B5044609F0E6F910F1780F44
:10C9B40000D050B9204609F020F8044AD2F8C43017
:10C9C40023EA00030020C2F8C43010BD0CA90020E3
:10C9D4000022024B1A605A60704700BFC7A90020AA
:10C9E40070B50B4B0B4CA34201D3002070BD002249
:10C9F400196A1E7F0439D5B2AE4201D82433F2E756
:10CA0400013211F832508542F5D10120EEE700BF22
:10CA1400E8A300200CA4002008B509480378C3F358
:10CA240041130A3350F823303BB100F1080200F1FE
:10CA340010019847C043C00F08BD1846FCE700BF6B
:10CA44000CA9002004282DE9F14F04460F46DFF815
:10CA5400949016D001282DD1DFF88C8098F8B93045
:10CA640043B300F0D5FD214D4D4520D24FF0000ACF
:10CA7400D5F820B02B7F5FFA8AF6B34204D8243568
:10CA8400F2E7FFF7A5FFE7E70BEBC606307909F0FD
:10CA940073F90246307908F0B0FFD8F8C430002AA0
:10CAA40023EA0003C8F8C4300AF1010AE2DA0023D9
:10CAB40088F8B9300D4D4D4508D30B4B1B6A6BB14B
:10CAC4003946204601B0BDE8F04F1847EB681BB16A
:10CAD4003A462146284698472435ECE701B0BDE89C
:10CAE400F08F00BF0CA400200CA90020E8A30020B4
:10CAF40073B5C4B263060D468DF8074007D02046CF
:10CB0400FFF76EFF78B10D4B93F8BA0058B1204689
:10CB14000A4E55B102F056FBF3691BB108200DF122
:10CB240007019847012002B070BD02F07BFBF36956
:10CB3400002BF7D009200DF10701F2E70CA9002022
:10CB440073B586781E4C8DF800600379427943EA08
:10CB54000223ADF80230C378304603F003038DF8A6
:10CB6400043008F04AFFD4F8C430054618420BD00C
:10CB7400304600F02FFD3046FFF714FF0AF06EF840
:10CB840010B9962007F06AFC684602F0F1FA10F139
:10CB9400780F03D010B1002002B070BD9DF80000E2
:10CBA40002F07CFB10F1780F01D00028F3D10120B2
:10CBB400D4F8C43084F8B9002B43C4F8C430EBE78C
:10CBC4000CA900202DE9F047924D0446AB690E46AE
:10CBD4001746C3B9207800F01F00012876D0022838
:10CBE40000F0DC8000BB94F900103A6800296378F7
:10CBF4002EDA062B0CD0082B25D0ABB953700123A9
:10CC04001370022303E198470028E3D100200DE0CC
:10CC14006388190A0A1F012A8C4605D9072903D8F3
:10CC2400DAB26B6A1C781CB96FF01500BDE8F087A6
:10CC34005D78654503D1824200F0E48001302344ED
:10CC4400F0E71B78E3E095F8BA3013700123DEE0D7
:10CC5400052B11D0092BE7D163886E6A002B32D1E2
:10CC6400FFF7B6FE638885F8BA30EB69002BCDD0A8
:10CC7400032069499847C9E7A07802F03DFA0028E3
:10CC8400C4D0D1E77378042B10D0052B11D0022B1C
:10CC940004D177796388BB4208BF012033781E44EE
:10CCA4003378002BEED10028BED0D9E796F8038064
:10CCB400F4E76388BB42F1D1B8F1000FEED13046FE
:10CCC400FFF73EFFEAE7FF27B846E9E795F8BA30F1
:10CCD400D7F800C0002BA7D06F6AA2883B4694F80F
:10CCE40004E0187800289FD05978022904D193F8D9
:10CCF4000480F04500F292800344F2E78CF800309F
:10CD04008CF80130316081E71F4493E00B2B8BD109
:10CD140000264FF0FF08B246C14606E07B78042B9C
:10CD24000FD0052B21D03B781F443B78002BF5D145
:10CD3400EB6913B1514607209847002E7FF466AF84
:10CD440072E797F80280A38897F803909845EAD190
:10CD540063889945E7D1B8F1070F1CD805EB0803A0
:10CD6400BA46012683F8BB90DDE7A3884345DAD1B0
:10CD7400A3784B450AD0BE78304600F02BFC3046F1
:10CD8400FFF710FEB0FA80F67609CCE73846FFF7D5
:10CD9400D7FE0646C7E7BA460026C4E794F9002042
:10CDA4006378002A18DA002B7FF43EAF24793F68B9
:10CDB40063060AD02046FFF713FE00283FF434AF81
:10CDC40095F8BA30002B3FF42FAF3946204602F0D5
:10CDD40049FA00237B7014E7012B08D0032B7FF45E
:10CDE40023AF6388002B7FF41FAF012103E0618828
:10CDF40000297FF419AFA088FFF77AFE00287FF49A
:10CE040005AF11E702293B607FF41BAF5B883360F9
:10CE1400FCE600BF0CA90020C6A9002094F900007C
:10CE240063780028BFF672AF002B3FF467AF0A2B7C
:10CE34007FF4FAAE3B78002B3FF4F6AE7978042900
:10CE44007FF462AFB9788A427FF45EAF072A8EBF5F
:10CE54000023521992F8BB308CF80030F6E600BF7C
:10CE640013B5164C237DF3B9E26801AB8020A168A9
:10CE7400019208F0D1FD019AA3681344A360E3680A
:10CE84009B1AE3606BB962B12369E2889A4208DDB8
:10CE940094F8C82093FBF2F102FB11330BB9012380
:10CEA400237502B010BD002380201A46194623754D
:10CEB40002B0BDE8104002F01BBA00BF0CA900206C
:10CEC400002330B585B002460D460193002858D1A1
:10CED400002935D108220B460DEB020108F065FF4D
:10CEE400002804DA802002F06DF905B030BD2A4C28
:10CEF400029AC4E903552260039ABDF80E306260B9
:10CF040004F13802A2609DF908202575002A0ADB85
:10CF1400802B04D9802002F055F90020E3E713B1F7
:10CF2400C4E90333E1E7FFF777FD0028DAD0E288AC
:10CF340023699A42D4BFE260E360FFF791FFD4E72C
:10CF4400154C01ABD4E90215002D04DC08F02DFFCB
:10CF54000028CADAC6E72A4608F027FF0028D9DBEA
:10CF6400019AA3681344A360E3689B1AE360002B4F
:10CF7400BBD104F13803A360FFF74EFD0028DCD1D8
:10CF8400B0E78028B1D1044BDA68002AD5D11B7DE3
:10CF9400002BD2D1A9E700BF0CA90020054B064AFB
:10CFA40058629A62054A0020DA62054A1A63054A01
:10CFB4009A6170470CA90020C9CB0100CDC80100BB
:10CFC4006DC901000DC901002DE9F3410446474D27
:10CFD4004FF0FF334FF0FF32454806F069FC95F8F7
:10CFE400B830002B7BD16B6A83B142482C62E86174
:10CFF4006E6A02F0B7FA02F04DF8041E10DA3C48EB
:10D0040006F0CEFC204602B0BDE8F08100F0BEF888
:10D01400FFF7C4FF6B6A002BE7D14FF0FF34EEE754
:10D0240000F018FB041EEADB7378012B5AD1F37964
:10D03400002B57D00026684685F8C830ADF802307A
:10D044008DF804608DF8006002F092F8041ED6DBBF
:10D05400802768468DF8007002F08AF8041ECEDB43
:10D064003046254902F06AFA041EC8DB38462249D4
:10D0740002F064FA041EC2DB204CDFF884804445CD
:10D084001AD3002002F00AF9041EB8DBD5F8C43024
:10D09400802043F00103C5F8C43002F0FFF8041EF9
:10D0A400ADDBD5F8C430002443F48033C5F8C43074
:10D0B400012385F8B830A2E70026276A227FF3B25D
:10D0C4009A4201D82434DAE707EBC30257F8331045
:10D0D400107902F033FA01360028EFD09DE76FF0A3
:10D0E40077048CE76FF0150489E700BF0CA90020D2
:10D0F40010A3002049CA0100C5CE0100E8A3002006
:10D104000CA4002030B51F4B8BB005AA03F1100509
:10D11400144618685968083303C4AB422246F7D151
:10D124001B7810222370002101A809F06FFF12223E
:10D134000021154809F06AFF102101A803F024FB1F
:10D1440000281BDD0828B8BF082001AB09381A18CD
:10D1540000200D4912F8013F0AAC04EB131403F04C
:10D164000F0328336B4414F8144C13F8143C0130A7
:10D1740008280C704B7001F10201EBD102480BB08E
:10D1840030BD00BF477A020029B800202DE9F04FD6
:10D19400714B87B093F800B0BBF1000F03D06F4818
:10D1A40007B0BDE8F08F6D4C00264FF0011AB04671
:10D1B4003546B14623783BB9694B02349C42F3D1DE
:10D1C4000123654A1370EAE76378052B1BD8DFE86F
:10D1D40003F08C03C18C1D39402304A88DF810B0D2
:10D1E400ADF812308DF814B001F098FF40B1082367
:10D1F40004A8ADF8123001F091FF08B1ADF812B0F7
:10D20400BDF81230E37123781C44D3E7E378002B94
:10D21400F9D1A3786BB108F101085FFA88F8F2E755
:10D224006B689C4207D024354E4B9D42F8D30020B6
:10D23400B6E74D4DF8E7AB68002BECD041462046ED
:10D244009847E8E7002DF2D000222B7F9A42EED2D5
:10D25400296AA07801EBC2010B79984201D001320E
:10D26400F3E70127E078FBB200F003008DF8140027
:10D27400207994F805C040EA0C20ADF8120094F926
:10D284000200002826DA4FF0010C07F110000CFA16
:10D2940000F010EA0A0F24D143F080008DF810004A
:10D2A40004A8CDE90213019201F038FFDDE9012160
:10D2B400039BB0B99DF8102012F0800FA2700A7180
:10D2C4004FF001021DBF1033DBB29A40BA404AEA64
:10D2D400020A98E70120B84010EA0A0F01D1184663
:10D2E400DCE70137102FBDD1B9E7032E1AD1FFF7C0
:10D2F40009FF074650B1FEF745FF024630B110283A
:10D30400A8BF10223946A01C09F073FE6FF0020179
:10D314002378091BE21804EB5303D14213D50136D9
:10D32400F6B270E7002EF1D1B9F1000F3FF47FAFF0
:10D33400A4EB090389F80230C3F3072389F8033007
:10D3440089F80480EBE702F801BC13F8010902F83C
:10D35400020DE2E7A14656E728B8002044A30020C6
:10D36400E7A300200CA40020E8A30020094B00211F
:10D374001A4610B51C78844204D15C6814B102EBDF
:10D38400811010BD0131042903F14003F2D10020C2
:10D39400F7E700BFD8A900202DE9F34150F8283C55
:10D3A4000446103310F82C6C0AD1036950F8202C71
:10D3B400980736D5D2B9590715D5002344F8283C27
:10D3C40054F8283C10330BD054E9077554F8148CE6
:10D3D40009F044FC00284FD021462E4809F022FCD5
:10D3E40002B0BDE8F08143F004032361304654F8F1
:10D3F400241C01AB08F010FB10B16FF01503DDE73E
:10D40400019A54F8243C134444F8243C54F8203C36
:10D414009B1A44F8203C54F81C3C134444F81C3C2C
:10D42400CEE7304654F8241C01AB01F0E7FF002896
:10D43400E3D1019D54F8243C2B4444F8243C54F893
:10D44400203C5B1B44F8203C54F81C3C2B4444F81F
:10D454001C3C002DB1D0304602F08AF8B5FBF0F345
:10D4640003FB1055002DA8D154F8203C002BA4D068
:10D47400304602F019F8A3E744F8180CA4F11000A0
:10D4840006F010FB002DABD0424639463046A84783
:10D49400A6E700BF10A400204B1E012B73B506465F
:10D4A4000D460FD8FFF762FF044668B9012D09D174
:10D4B40001AB012230460DF1030101F09FFF019BF6
:10D4C400002BF5D102B070BD09F0C8FB04F12C01AA
:10D4D40008B1012D05D1084602B0BDE87040FFF740
:10D4E4005BBF034802B0BDE8704009F09BBB00BFBE
:10D4F40010A400202DE9F74F0646154698460191E1
:10D5040008F0D3FA044600285BD1EFF3118A2023F4
:10D5140083F31288BFF36F8FDFF8ACB000220023CF
:10D52400584606F0F3FA70B9DFF8A090A70109EBAA
:10D534008414636813F1100F14D10193584606F054
:10D54400B1FA019B06E00134042C0BF1400BE5D148
:10D554006FF00B038AF31188BFF36F8F184603B083
:10D56400BDE8F08F019B2061C4E902350C9B304675
:10D5740063610D9B09F80760A3616FF00F03C4F8A2
:10D584003C80636001F0F4FF58B1304601F0F0FFD5
:10D59400B5FBF0F303FB10551DB1E36B43F004033B
:10D5A400E36318F0020F07D007F12C01084849443F
:10D5B40009F038FB0023CDE7304601F075FF034640
:10D5C400C8E76FF00F03C9E7F4A90020D8A9002029
:10D5D40010A4002010B5EFF31184202383F31288E4
:10D5E400BFF36F8FFFF7C2FE50B14368103307D10A
:10D5F4006FF08B0300F12C014360044809F012FB27
:10D6040084F31188BFF36F8F10BD00BF10A40020F6
:10D61400F8B5042520270D4CEFF3118687F3128803
:10D62400BFF36F8F6368103307D16FF08B03084823
:10D63400636004F12C0109F0F5FA86F31188BFF355
:10D644006F8F013D04F14004E6D1F8BDD8A9002054
:10D6540010A4002070B50025094C0A4E314620461E
:10D6640009F0C4FA0122A4F110001146013509F0B1
:10D6740081FA042D04F14004F0D1002070BD00BFF4
:10D6840004AA00209DD301000123016981F84B30D5
:10D694000B6833B191F849301BB10248083109F0E5
:10D6A400C1BA704710A400200123016981F84A30EF
:10D6B4000B6833B191F848301BB10248083109F0C6
:10D6C400B1BA704710A4002070B50569EFF3118654
:10D6D400202383F31288BFF36F8FD5F8900008F0EE
:10D6E4000EF9044686F31188BFF36F8F30B1002220
:10D6F4000023034805F1180106F09CFB204670BD89
:10D7040010A40020012370B582F8483013680D4638
:10D7140014463BB192F84A3023B10E4802F1080195
:10D7240009F080FAD4F890309A681B699A4205D1BE
:10D734007DB904F1180140F6CD4204E004F118016A
:10D74400002DF8D00022BDE870400023014806F007
:10D7540071BB70BD10A4002070B504460E4601795B
:10D764001548154608F07EF910B394F90020637843
:10D77400002A16DB202B04D0222B0ED06FF085005C
:10D784000AE02B681A6840F8102C9A8820F80C2CB0
:10D794009B7900F80A3C002070BD638800F8093CBE
:10D7A400F9E7212BEAD10723103828603360F2E728
:10D7B4006FF01200F0E700BFD8AA0020014608B5B8
:10D7C400034808F05CF910B1012300F8073C08BDD8
:10D7D400D8AA0020002103460C4AA0F8481010687B
:10D7E40083F89C10C3F8940090889279A3F8980069
:10D7F40083F89A2083F89B104022A3F89E1083F8A4
:10D80400A01003F14C0009F001BC00BF55760200E2
:10D81400F0B5D0F88C3004465B6885B01B6A1F7D78
:10D82400384608F042F90646F8B994F88630E3B170
:10D834004FF48062A06F03A908F080F80546A0B1F8
:10D844008306A4F1180384F830600193084B08BFE1
:10D8540000F1FF35039900932A4602233846FFF767
:10D8640049FE2946A06F08F085F805B0F0BD00BF59
:10D8740009D70100002310B50469C4F8A8300C4B83
:10D88400C4F8A400596804F1A80269B9C3E90022E4
:10D8940004F10800074909F0A9F904F11800064940
:10D8A40009F0D0F9002010BD0A605A60F0E700BF0B
:10D8B400D8AA0020D95A020015D80100002373B554
:10D8C400202504698DF8071084F84830EFF3118699
:10D8D40085F31288BFF36F8F0122D4F890000DF105
:10D8E400070108F00CF886F31188BFF36F8F012845
:10D8F4000AD009F0B3F910B994F8A1306BB9094B07
:10D904001A780AB901221A702122002304F118019D
:10D91400054806F08FFA02B070BD0021212009F0FD
:10D924003BFAD3E73BB8002010A4002037B51446D7
:10D934000A1E054620DDD4F88C0004F14C0107F0E2
:10D94400DEFF012384F8493023683BB194F84B305F
:10D9540023B1114804F1080109F064F9D4F88C10DA
:10D964004B684A699A1ACB699B1A3F2B04D8012346
:10D9740084F8A03003B030BD94F89E30002BF9D069
:10D98400064B4022009328460123019404F14C01E4
:10D99400FFF7B0FDEEE700BF10A4002031D901006D
:10D9A400F7B50D4601461D4808F051F8044610B37A
:10D9B400064656F8A439691E5F6805291BD8DFE8B6
:10D9C40001F01C1A031C222610F8061C99B9012325
:10D9D40000F8063C3B6A3246187BFFF7A7FF14F8B1
:10D9E4005C2C42B93B6A1146187D0D4B019600939D
:10D9F4000223FFF77FFD03B0F0BD304603B0BDE85E
:10DA0400F040FFF7E7BE012304F8053CF3E710F804
:10DA1400053C002BEFD00023F6E700BFD8AA002076
:10DA240009D7010037B50024084D4FF0FF334FF4F8
:10DA3400806228460649009406F0BEF90549284646
:10DA440006F022FA204603B030BD00BF10A4002027
:10DA540078B800206B7A020008B5044807F0DFFDAF
:10DA6400BDE80840024807F0DABD00BF747A02003E
:10DA7400A97A020037B505460C46C9B18B6814482B
:10DA84000093D1E90023452107F0AAFF63694521EA
:10DA94000093D4E903230F4807F0A2FF4521E2696C
:10DAA4000D4807F09DFF4521A2690C4807F098FF37
:10DAB400012D06D1EFF3058245210948103A07F0FC
:10DAC4008FFF2146284603B0BDE8304005F038BD3D
:10DAD400D77A02000B7B02003F7B0200537B0200DB
:10DAE400867B020030BFFFF7FDBF00BF2DE9F04188
:10DAF40005460B4EDFF82C80324606EB0807CC1B9C
:10DB04002046094909F075FAA01942460021083C4B
:10DB140009F07CFAC5F8A44007F10800BDE8F081DB
:10DB2400000000000400000040760200074A9368E9
:10DB340093F90E10002907DB526993421FBF044A70
:10DB4400536843F080535360704700BFECB7002024
:10DB540000ED00E010B5244C4521244807F040FFB7
:10DB6400A36A99013ED52248452107F039FF1E20BA
:10DB7400A36ADA0104D51F48452107F031FF1F20AD
:10DB8400194CA36ADB0204D51B48452107F028FF82
:10DB94000220A36A1C0304D51848452107F020FF7E
:10DBA4002120114CA36A590304D51548452107F0D7
:10DBB40017FF2220A36A9A0304D51248452107F0CF
:10DBC4000FFF2320084CA36ADB0304D50E4845212C
:10DBD40007F006FF2420A36A6FEA03436FEA1343A6
:10DBE400A36210BD1D20C3E700ED00E09E7B020090
:10DBF400BB7B0200D37B0200F27B0200217C02008B
:10DC0400447C02006E7C02008D7C020070B5284CBE
:10DC140006460D462748452107F0E2FEA36AD904CB
:10DC24003BD52548452107F0DBFE1720A36A1A05DA
:10DC340004D52248452107F0D3FE18201C4CA36AC2
:10DC44009B0511D51E48452107F0CAFEA26BA36AA5
:10DC5400180408D545211B4807F0C2FE1EB1A36A6B
:10DC640023F40043A3621920114CA36A590504D577
:10DC74001548452107F0B4FE1A20A36ADA050ED52B
:10DC84001248452107F0ACFE1B20094A936A43F46D
:10DC94007F43936200232B7070BD1620C6E7A36AEE
:10DCA4009B04F2D50A48452107F09AFE1C20ECE7B4
:10DCB40000ED00E0BD7C0200D87C0200EE7C020096
:10DCC400067D0200247D02003E7D02005E7D02008E
:10DCD4007B7D020070B5294C06460D462848452137
:10DCE40007F07EFEA36AD80646D52648452107F0EC
:10DCF40077FE1120A36A190704D52348452107F0AC
:10DD04006FFE12201D4CA36A9A0711D545211F48A6
:10DD140007F066FE626BA36A1B0608D545211C4802
:10DD240007F05EFE1EB1A36A23F08003A3621320F2
:10DD3400124CA36ADE0704D51648452107F050FEAD
:10DD44001420A36A9C0604D51348452107F048FE15
:10DD540015200A4B9A6AD10658BF9A6A9A6A9206A3
:10DD640042BF5A6A22F400525A629A6A42F0FF028F
:10DD74009A6200232B7070BD1020BBE700ED00E019
:10DD8400AF7D0200CA7D0200EE7C0200027E02002A
:10DD94001F7E02003A7E02007B7D02002DE9F043E3
:10DDA400634B0446D3F804900F46164600258BB007
:10DDB400C9F3080885F31188BFF36F8F02F07F431E
:10DDC400B3F17F4F1FD1D3071DD4500603D41107DD
:10DDD40008D4012508E04521564807F001FE16F055
:10DDE400040600D03C4600250026A8F103038DF864
:10DDF4000760092B00F28980DFE803F0077C807854
:10DE04008787878787842C46EEE745214A4807F0B1
:10DE1400E7FD8DF80760464EF36A9A0705D545215C
:10DE2400464807F0DDFD002329E0F36A002B02DAFF
:10DE340045214348F5E7F36A5B00F4D545214148A1
:10DE440007F0CEFD7369A26943F480737361BFF375
:10DE54004F8FBFF36F8F736932F8022C23F48073F2
:10DE64007361BFF34F8FBFF36F8F4DF602739A4206
:10DE740025D145212268344807F0B2FD23689DF876
:10DE84000720CAB902AE04F120073246206861684F
:10DE9400083403C2BC421646F7D1099A002D41D07A
:10DEA400C2F3080121B96FEA52226FEA42220992B1
:10DEB400184602A9FFF7DEFD0BB0BDE8F083B36A94
:10DEC400DBB22BB101200DF10701FFF703FF0FE0D7
:10DED400B36A13F47F4F05D001200DF10701FFF75A
:10DEE40095FE05E0B36AB3F5803F9CD3FFF732FE9D
:10DEF4000346C4E700200DF10701E6E700200DF119
:10DF04000701ECE7452111488BE7114919F4F87F23
:10DF1400104A114808BF0A46A8F11003452107F02A
:10DF24005FFD80E722F4FF7222F00102BFE700BF29
:10DF340000ED00E08C7E0200B47E0200D07E020080
:10DF4400F67E0200097F02002D7F02004E7F020050
:10DF54005E7E0200737E0200777F0200064B5A69E0
:10DF640042F010025A615A6942F480625A615A6955
:10DF740022F008025A61704700ED00E0EFF30880D8
:10DF8400EFF3098101B57246FFF708FF01BD00BF39
:10DF9400002080F31488BFF36F8F002080F30A8879
:10DFA40080F30B88104880F3088800200F4908701C
:10DFB40008F0C1FA00200E490860BFF34F8F00F04B
:10DFC4002DF8202080F311880A484FF4006140188E
:10DFD40080F30988EFF314800221084380F3148846
:10DFE400BFF36F8F00F0E8F8B8CD002076B80020BA
:10DFF40094ED00E078C00020002318460649D1F8CB
:10E004009020C2F30722934200DB7047C1F8983096
:10E01400C1F8A0000133F6E700ED00E010B572B6D8
:10E02400002484F31388FFF7E7FF23464FF0FF3003
:10E034000C4A03F120010133102B42F82100F8D1DE
:10E0440000234FF0FF30074A03F160010133102B26
:10E0540042F82100F8D162B6BFF34F8FBFF36F8F40
:10E0640010BD00BF00E100E0084B9B6883420BD168
:10E07400EFF3058343B1064B5A6842F080525A606D
:10E084005A6A22F400425A6206F032BAECB700200F
:10E0940000ED00E019498A6882F8B1E04FF03000E1
:10E0A4001044EFF3098C80E8F01F202080F31288DD
:10E0B400BFF36F8F124F4FF000664A698A603E606B
:10E0C4004FF0A404141920680E4C206092F9B1E0BA
:10E0D400D2F8A8000023C2F8A83080F3118802F116
:10E0E400300090E8F01F8CF3098802F1000004B5B9
:10E0F40007F07BFDBDE8044070470000ECB700204A
:10E1040004ED00E0E0AA00201EF0040F0CBFEFF3C2
:10E114000880EFF30980816911F8021C0229FFD0FD
:10E1240001B5724607F050FD01BD00BF40B20028A2
:10E1340007DB01234109034A00F01F00834042F832
:10E144002130704700E100E040B200280CDB0122DE
:10E154000649430900F01F008240203341F8232080
:10E16400BFF34F8FBFF36F8F704700BF00E100E034
:10E17400054B420953F82220012300F01F0003FA43
:10E1840000F01040704700BF00E100E040B20028FA
:10E1940001F10101ACBF00F16040064B4FEA4111AF
:10E1A400C9B2ABBF00F5614000F00F0080F8001366
:10E1B4001954704714ED00E00B4A08B50B4B22F0DC
:10E1C4007F029A60BFF34F8FBFF36F8FD3F888201D
:10E1D40022F47002C3F8882005F078FA06F0CAFA2F
:10E1E40000F04EF805F0B6FA00C0010000ED00E0C2
:10E1F40042F8203C009B0D4942F81C3C019B21F055
:10E20400010142F8183C029B42F8081C42F8143CF5
:10E214004FF0807342F8043C0023C0F8A8304FF458
:10E224003C43203A0265C0F8B0307047B5C50100E0
:10E2340000B50C4B15469860D0F8A4200A4B0E4646
:10E244001A60D0F8943083F30B882C4686F309883F
:10E254000020064B98472046002100220023044C4E
:10E26400204700BFECB70020E0AA0020F95B0200C1
:10E27400B5C501001022014B1A61704700ED00E0A2
:10E28400002320210348C2180133452B82F80013D0
:10E29400F9D1704700E100E008B5EFF30583064AC1
:10E2A400103B02EBC30152F8330049688847BDE8CC
:10E2B4000840FFF73BBC00BF947202001FB5094C35
:10E2C400094A23460121094800F00EF9002303936B
:10E2D400074B0121E41A01A80193029400F00EF9FE
:10E2E40004B010BD0000072000A0002078760200D2
:10E2F40010A4002010B50C7A0B6804F01F0223F060
:10E304001F031A43CB68640923F01F03054943EA3A
:10E31400440343F00103C1F89800C1F89C20C1F8FC
:10E32400A03010BD00ED00E010B50A4B0446D3F850
:10E334009030C3F30723013B984208D90246452194
:10E34400054807F04DFB6FF01504204610BDFFF79C
:10E35400D1FFFAE700ED00E0937F02002DE9F04FD2
:10E364008946144606464FF00008514D85B0C8450D
:10E3740027DAD6F804A0BAF1000F44D0BAF11F0F7F
:10E3840018D91AF01F0F15D1D6F800B01BF01F0FC3
:10E3940010D1584607F06AFC07460AEB0B00013817
:10E3A40007F064FC874210D06FF015073A46452108
:10E3B400404802E0424645213F4807F011FB6FF018
:10E3C4001504204605B0BDE8F08F17F1160FEDD007
:10E3D400BC42EBDDC5F89870D5F89C10C5F8987070
:10E3E400D5F8A03021F01F0143F01F0BD6E900320D
:10E3F4001A44994202F1FF3A1DD1D34507D131465F
:10E40400F8B207F03CFC08F101080C36AFE73146DE
:10E41400C5F89870D5F89C3022F01F0203F01F0352
:10E424001343C5F89C30E0B207F029FC10F1160F35
:10E43400C5D0441CE7E7C5F89870D5F8A020013B87
:10E4440023F01F0302F01F021343D3453146E0B209
:10E45400C5F8A030E8D007F012FC10F1160FAED0CA
:10E46400C5F89870D5F89C209DF808300BF1FF3B57
:10E4740062F304038DF80830D5F8A0309DF8082025
:10E484005B0863F347128DF80820D6E90032134481
:10E49400009323F01F035B44A3EB0A03013023F032
:10E4A4001F036946C0B20393FFF73EFFBEE700BFF8
:10E4B40000ED00E0E67F0200BE7F02000522044B6F
:10E4C400C3F89420BFF34F8FBFF36F8F704700BF23
:10E4D40000ED00E0BFF35F8F0022024BC3F89420ED
:10E4E400704700BF00ED00E010B5034C2278FFF741
:10E4F40035FF207010BD00BF3CB800202DE9F74F58
:10E50400294D8A4606464FF00008AB46274FD045B2
:10E514001BDAD6F80490B9F1000F3FD031680846F1
:10E52400019107F0A3FB0199044609EB01000138AE
:10E5340007F09CFB84424FF014021D4B08D002FBF1
:10E5440008F36FF015024BF8032003B0BDE8F08F19
:10E5540014F1160F2C60F8D01978A142F5DD02FBF6
:10E5640008B0C7F89840C7F89840D7F89C4000F125
:10E574000801007B64F304000871D7F8A0000C794B
:10E58400400860F347140C71D7F89C1021F01F0168
:10E594006960D7F8A01021F01F01296108F1010872
:10E5A40014350C36B3E700BFE4AA002000ED00E008
:10E5B4003CB80020F0B54149414CD1F89030256871
:10E5C400C3F307239D4287B075D80020FFF782FF6D
:10E5D4003C4BC1F8C030854216D13B4C01A8257094
:10E5E400FEF76CF900250646384FAE4213D10020E1
:10E5F40023783249D1F89020C2F30722934254DBA6
:10E60400FFF75CFF00202FE0616801EB0011FFF7CA
:10E6140071FE0130DFE70199280101EB0513DA6887
:10E624003A40B2F5001F21D0B2F5800F2BD0B2F5DD
:10E63400801F38D15A689B680958013B22F01F009B
:10E6440003440120844623F01F0340EA4C10CDE923
:10E6540002218DF8100002A920780593FFF764FECB
:10E6640000281DDA6FF0150007B0F0BD5A689B68EA
:10E674000958013B22F01F0003444FF0020C012013
:10E6840023F01F03E1E75A689B680958013B22F015
:10E694001F0003444FF0000C062023F01F03D4E7AF
:10E6A40023780133237001359FE7C1F89830C1F80E
:10E6B400A00001339EE74FF0FF30D5E700ED00E006
:10E6C40084760200AAFF44003CB800200000F0FF5A
:10E6D40008B5024B1B689847002008BDF8AA002023
:10E6E400034B044A1860937843F002039370704715
:10E6F400F8AA00200CA1002008B50649064821F01C
:10E704000701C1F1005202F5E02206F02EFF0020BD
:10E7140008BD00BF3FDC0020FCAA002007B50DF1B6
:10E72400070003F039FA114B98421CD14FF4806270
:10E734000F4B1049C3F8B8254FF40062C3F83C25C9
:10E744009DF8070007F000FF0B499DF8070007F04C
:10E75400F6FE01209DF80730984003F017FA0020D8
:10E7640003B05DF804FB6FF00B00F9E70000AD0B9C
:10E7740000A002402CA0024028A10240052370B54D
:10E78400144D154E2C780134B4FBF3F303EB8303DF
:10E79400E41A07F061FE114A137823B156F82430C5
:10E7A400C01A072813D90E4BD3F8141141B1002114
:10E7B400C3F81411D3F814312C700CB9012313705D
:10E7C4002C7807F049FE46F82400012070BD002093
:10E7D400FCE700BF3EB8002008AB00203DB8002095
:10E7E4000050004048B1054B054A1B68B3FBF2F3E7
:10E7F4005843044B43F0010318477047ECA1002031
:10E8040040420F00607602000B460121024AC2F822
:10E8140014160021184700BF005000400149024867
:10E8240006F074BFAC7602001CAB00202DE9F04763
:10E83400174B0546D3F830210C46072AD3F8343158
:10E8440021D1023B032B02D8124AD35CDBB14FF037
:10E85400010800264FF050290F4F0520C9F81886EB
:10E86400C7F8146607F069FE4046C7F8148607F037
:10E8740064FEC7F81466C9F8186628462346BDE83E
:10E88400F047002118470022034BC3F81426F4E78D
:10E8940000F0072021800200005000401FB5002333
:10E8A40001930393012369460548029306F041FF4F
:10E8B400029B9B0708BF039B05B05DF804FB00BFE8
:10E8C4001CAB00200146014808F049B934A30020DC
:10E8D4000149024808F0A6B960AB0020E8A4002072
:10E8E400020600F07F0312D5082B05D1010700F0C2
:10E8F4000F0306D50E48704710F0780F12D100F0C0
:10E904000F034C2000EB43100A4B18447047082BAC
:10E9140005D1020700F00F0306D50748704710F031
:10E92400780FF6D000207047044800EB431070477E
:10E9340084AC002038AB0020A4AD0020A4AC00209F
:10E9440000220023014805F07BB800BF34A3002057
:10E9540013B5002201213720FFF718FC114800F0FD
:10E96400C1FE114B98421AD10024104803F064FEF2
:10E974000F4804F021FD4FF0FF334FF480620D493E
:10E984000D48009405F018FA0C490B4805F07CFA80
:10E994000B480C4908F02AF9204602B010BD6FF06C
:10E9A4000400FAE721EC01000000AD0BAD82020087
:10E9B400B876020078BC0020E8A40020258002007C
:10E9C40060AB002069ED0100002310B50B49D1E8CC
:10E9D400EF2F012A03D1C1E8E03F0028F7D10CD181
:10E9E40051F8044C1439204606F01EFF783004D147
:10E9F4002046BDE8104006F0F3BE10BD58AB002021
:10EA040038B5002464F07F00C0B2FFF769FF013419
:10EA140007F098F9082CF5D100240E4DE0B2FFF769
:10EA24005FFF036903B90561013407F08BF9082C12
:10EA340005F14005F2D1084807F084F9074BD3F8F3
:10EA44007C2212B9064AC3F87C22064807F07AF9F8
:10EA5400002038BDC8B1002084AC002038AB0020B1
:10EA6400C8AD0020A4AD002010B5054CFFF768FF29
:10EA740020B14168204607F09FFFF7E710BD00BFB3
:10EA8400E0A2002007B500230022134801A904F0E6
:10EA9400E1FED8B14521114806F0A2FFFFF7E4FFDB
:10EAA400002200230C4801A904F0D4FE28B145211A
:10EAB4000B4806F095FF00200AE00423019840600B
:10EAC4000374FFF7FFFEFFF703FFF4E701984060CC
:10EAD40003B05DF804FB00BFE0A200203080020018
:10EAE4005380020010B50446FFF7CCFF60B100224A
:10EAF40004720274FFF7E6FE044B93F824301BB152
:10EB0400BDE81040FFF7E4BE10BD00BF38AB0020E5
:10EB1400012807B517D0022816D060B900220023B7
:10EB24000C48CDE9002345F69A12002305F0C8FFEE
:10EB340003B05DF804FB02464521074803B05DF8C5
:10EB440004EB06F04DBF002003B05DF804EBFFF7C3
:10EB5400C9BF00BFA8A20020748002002DE9F041C3
:10EB6400877806463846FFF7BBFE3B060546F47831
:10EB74001BD54CB1032C4BD03B462246BDE8F0419B
:10EB84004521244806F02CBFFFF77CFF03460028EC
:10EB94003ED00122AC770274032202739D60FFF71A
:10EBA40091FEBDE8F041FFF793BE4CB1012CE3D1D7
:10EBB400FFF768FF034658B36C7704740473EDE7FA
:10EBC400FFF760FF20B3B278134B12F0800F02F00E
:10EBD400080111D041B1D3F8A836EB6001230374C6
:10EBE400022385600373DAE7142102F00F0201FBAC
:10EBF4000233D3F80836F0E711B1D3F8A837ECE7BD
:10EC0400142102F00F0201FB0233D3F80837E4E7C2
:10EC1400BDE8F0819480020000600340F0B5064630
:10EC240089B01422002103A808F0F0F93378013BDD
:10EC3400052B21D8DFE803F08B0314147B16032380
:10EC440000248DF81430FFF71DFF0346A0B100F136
:10EC540008020474DDE9050182E80300184627E090
:10EC64000423EDE7B7783846FFF73AFE837A054682
:10EC740023B1013B022B54D909B0F0BD3B06F47813
:10EC84001DD554B1032CF7D03B46224645213148CB
:10EC940009B0BDE8F04006F0A3BEFFF7F3FE03465B
:10ECA4000028E9D00122AC770274032202739D602C
:10ECB400FFF708FE09B0BDE8F040FFF709BE54B104
:10ECC400012CE1D1FFF7DEFE03460028D4D06C7797
:10ECD40004740473EBE7FFF7D5FE04460028CBD099
:10ECE40001230374022385600373B07805F10C01DA
:10ECF40007F077F8024618B14521174806F070FE70
:10ED0400164AE968B2F88C328B4206D95B1AA2F82B
:10ED14008C3201F033F82046CAE70023A2F88C3283
:10ED2400F9E7304609B0BDE8F040FFF717BF01A886
:10ED340001F002F89DF80530052B04D19DF804304C
:10ED440013F0600F98D0064B012405937BE702244F
:10ED540079E700BF94800200C580020038AB002030
:10ED6400A4AC00202DE9F04380469F4CDFF87C9250
:10ED740085B0FFF7E5FD074610B905B0BDE8F0839F
:10ED840094F825303A7C3BB9002A00F098807968E1
:10ED9400964807F011FEECE7042A00F26B81DFE8E5
:10EDA40012F08E0005000D013501550118F8043CE0
:10EDB4002BB9BB6845215A7A8D4806F011FE3B7B7E
:10EDC400BD68032B37D8DFE803F0023D62670022F9
:10EDD4006E69884B32607260D3F880143170D3F856
:10EDE40084147170D3F88814D3F88C0441EA002198
:10EDF4007180D3F89014D3F8940441EA0021B180CF
:10EE0400D3F89814D3F89C3441EA0323F3800823FD
:10EE1400EB6030687168784B03C311462B68687ADD
:10EE2400984796F90030002B08DBF38833B1A4F837
:10EE34008C3200F0A3FF48467968AAE70023A4F8BF
:10EE44008C32F8E76B7F002BF5D02B7F002BF2D0B0
:10EE540000264FF0FF324FF0FF3368486E772E776D
:10EE640006F083FF6B6901A901936B68CDE9023653
:10EE7400687A00F08DFC624B0246984203D045212B
:10EE8400604806F0ADFD5D4806F071FFD3E701214F
:10EE94002B68687A9847CEE7AB7A6BB9EB7F5BB99E
:10EEA40056484FF0FF324FF0FF3306F05EFF00F09C
:10EEB4006BFF524806F05BFF02212B68E9E73A7AC0
:10EEC400042AB8D8DFE802F055031F636F0000F08E
:10EED400C9FB05460028AED100F076FB01234A4960
:10EEE400D1E8EF2F002A03D1C1E8E03F0028F7D191
:10EEF400A1D141F8085C41F8105CE0691439636100
:10EF040006F017FC97E7002565F07F00C0B2FFF715
:10EF1400E7FC037A13B1407A01F098F80135082D23
:10EF2400F2D194F854311BB194F8550101F08EF8E4
:10EF34000025E8B2FFF7D4FC037A13B1407A01F05C
:10EF440085F80135082DF4D194F874321BB194F886
:10EF5400750201F07BF8002000F068FB012384F8BF
:10EF640025302368002B3FF466AF00210220984728
:10EF740061E7002584F8255000F0D0FFFFF724FD59
:10EF84002368002B3FF457AF29460420EFE7002BFA
:10EF94003FF451AF00F070FB2368002B3FF44BAFFC
:10EFA40000210520E3E72268002A3FF444AF002B48
:10EFB4003FF441AF0021062090473CE708F11005DB
:10EFC4004FF0FF334FF0FF32284606F0CEFEFFF736
:10EFD40017FD284606F0CBFE58F8283C002B3FF4DA
:10EFE4002AAF00210120C2E738AB0020E0A20020B4
:10EFF400EA800200006003403CAB002070AB0020BC
:10F004000000AD0B1581020058AB002094F8743257
:10F014005BB1012584F8895284F88852FFF732FDE8
:10F0240058B94521164806F0DBFC58F8283C002B5B
:10F034003FF401AF00210A2099E7124A05740573D1
:10F044008260FFF73FFCFFF743FCEEE745210E48E3
:10F0540006F0C6FC04F098F900F060FF00F0AAFA8C
:10F06400FFF702FDFFF7CCFC04F086F9074800F037
:10F0740039FBE0E64521064806F0B2FCDBE600BFBA
:10F0840040810200A4AD00205981020021EC01005E
:10F094007581020038B5154D95F8244024BB05F15F
:10F0A400380007F0D4FC022001F036F92246012191
:10F0B400E8613620FFF76AF804F05EF9FFF7A0FC78
:10F0C400044610B9012385F82430094B1B680BB1A1
:10F0D400FFF7FEFB074BD3F80034DB0702D5002013
:10F0E400FFF716FD204638BD0024FBE738AB0020AF
:10F0F40034A3002000700340074B93F824203AB156
:10F1040093F82530002B14BF00206FF012007047D5
:10F114006FF01200704700BF38AB002008B50378C9
:10F12400027903F00F013AB991B145210C4806F078
:10F1340057FC4FF0FF3008BD082902D94521094882
:10F14400F5E7012A04D11B0708D457210648EEE746
:10F1540013F00800EFD057210448E8E70020EAE75D
:10F1640092810200B6810200DA810200F581020078
:10F1740038B5124B044693F82430E3B10578284699
:10F18400FFF7AEFB80B145722379837263884360D5
:10F194002078618810F0080F09D14B1E0B4206D06D
:10F1A4004521074806F01CFC6FF0150038BD06F039
:10F1B40013FE0020FAE76FF01200F7E738AB0020E7
:10F1C4001782020038B5154B054693F824200AB37C
:10F1D40093F82530F3B1FFF783FB044610B96FF0C1
:10F1E400150038BD837A012B0FD007D9023B012BC0
:10F1F40007D900206369E060A361F2E700F0CAFD6B
:10F20400F7E7284600F06CFDF3E74521044806F0D3
:10F21400E7FBE4E76FF01200E3E700BF38AB002040
:10F224004482020038B50E4B054693F8242082B17F
:10F2340093F825306BB1FFF753FB68B115F0080460
:10F244000AD1284600F06EFD284600F037FF20461C
:10F2540038BD6FF01200FBE76FF01500F8E700BF50
:10F2640038AB002038B50C4B054693F824200C46E7
:10F2740062B193F825304BB1FFF732FB48B144B18A
:10F28400284600F035FD2070002038BD6FF01200D4
:10F29400FBE76FF01500F8E738AB002070B5134EAC
:10F2A400044696F82430C3B1FFF71AFB0546B8B1FB
:10F2B400230705D4204600F035FD204600F0FEFE6D
:10F2C4002B7A83B901232B7296F825300BB90020D1
:10F2D40070BD204600F0BAFEF9E76FF01200F7E7C0
:10F2E4006FF01500F4E76FF07700F1E738AB00201A
:10F2F4002DE9F043DFF8F0801E4698F824300746E5
:10F304008946154685B0002B6BD098F82530002B24
:10F3140067D003060AD5FFF7E3FA044630B1037A4F
:10F3240053B93A464521314806F05AFB6FF01504AB
:10F33400204605B0BDE8F0834FF0FF334FF0FF32B5
:10F3440008F1380006F011FDA37F33B108F138004D
:10F3540006F00DFD6FF00A04EAE7A37AFDB173B37A
:10F3640001234FF00008A377384601A9CDE90195A0
:10F37400CDF80C8000F00CFA1D4B024698422CD0BC
:10F3840084F81E800EB1C6F800804521194806F0A5
:10F3940027FB6FF00404184806F0E9FCC8E7E27F95
:10F3A40002B1E577002BDBD100F0FAFCB842D7D0EC
:10F3B40000F0EAFC104806F0DAFC0024B8E7B8F8DC
:10F3C4000A30AB42F0D96268B5FBF2F302FB135387
:10F3D400002BE9D10123E377E6E706B13560002489
:10F3E400D9E76FF01204A3E738AB00206B82020068
:10F3F4000000AD0B8F82020070AB00202DE9F041BC
:10F404001D46264B174693F8242080460E46002AB4
:10F4140040D093F82530002B3CD010F0800F01D160
:10F4240021B91FB16FF01500BDE8F0814046FFF728
:10F4340057FA04460028F5D0037A2BB942464521F1
:10F44400174806F0CDFAEDE74FF0FF334FF0FF32E7
:10F45400144806F08AFCE368B8469F4228BF9846E1
:10F464003EB937B905B12B600E4806F080FC002088
:10F47400DAE742463046A16907F0BBFDA36943447D
:10F48400A361E368A3EB0803E360002DECD0C5F8A7
:10F494000080E9E76FF01200C6E700BF38AB002038
:10F4A4006B82020070AB002070B5214D064695F8C2
:10F4B4002430002B38D095F82530ABB303060AD49A
:10F4C400FFF70EFA044630B1037A3BB932464521C0
:10F4D400184806F085FA6FF0150070BD4FF0FF3341
:10F4E4004FF0FF3205F1380006F03FFCE368B3B992
:10F4F400012663692677A361637F83B1FFF7C2FAAC
:10F5040030B905F1380006F032FC6FF00B00E4E787
:10F51400067484600673FFF7D5F9FFF7D9F9064836
:10F5240006F025FC0020D8E76FF01200D5E700BFF5
:10F5340038AB00206B82020070AB002010B5084B82
:10F544000C4693F824302BB1FFF7CAF928B10460B4
:10F55400002010BD6FF01200FBE76FF01500F8E714
:10F5640038AB0020014B1860704700BF38AB002057
:10F5740008B5074B93F8243023B1FFF7B1F920B154
:10F58400406808BD6FF01200FBE76FF01500F8E764
:10F5940038AB0020064B10F0800FA3F1D80208BF4F
:10F5A4001346182200F00F0002FB0030704700BF22
:10F5B400E0B400200023024A1360024A137070472B
:10F5C400C0B5002043B800204FF40062114BC3F8CB
:10F5D40000240122C3F80025D3F800241205FBD52A
:10F5E4004FF40062C3F800248022C3F81C250122D2
:10F5F400C3F8302540F2FF12074B1A600023074A74
:10F604001360074A1370074A13700222064B1A70DC
:10F61400704700BF00600340BCB50020B8B50020AF
:10F624003FB8002041B8002043B800200022094B15
:10F6340010B51A70084A094B094C002808BF134634
:10F644003620C4F80033FEF771FD0123C4F80435F5
:10F6540010BD00BF42B80020FDFFDF01FDFFFF0128
:10F6640000600340034B1878012894BF0020012058
:10F67400704700BF43B8002010B54FF0FF324FF081
:10F68400FF33154804F042FAEFF31181202383F38A
:10F694001288BFF36F8F114B1B7803F0FF0483B103
:10F6A4000F4BD3F8002412F400720AD10120C3F8DE
:10F6B4002C05D3F82C05D3F80004800502D5C3F833
:10F6C4002C25002481F31188BFF36F8F024804F0C6
:10F6D400E9F9204610BD00BF24A3002042B8002051
:10F6E40000600340F8B51C4B1C7894BB1B4A40F2E5
:10F6F400FF171060012226461A7064F07F0514F08B
:10F70400080FEDB214BF39464021284606F064FBC9
:10F714002846FFF73FFF0134092C867506730661FE
:10F72400EBD1002440F2FF17254614F0080FE6B28F
:10F7340014BF39464021304606F04EFB3046FFF7F1
:10F7440029FF0134092C857505730561EDD1044841
:10F75400F8BD0448FCE700BF43B80020C0B5002052
:10F764000000AD0B0500AD0B084B10F0800F14BF6B
:10F77400D3F81025D3F81425012300F00F018B4092
:10F78400134214BF01200020704700BF00600340F3
:10F7940002462DE9F843EFF31187202383F31288FF
:10F7A400BFF36F8F030703D1194B1B7883422AD110
:10F7B400184B10461C684FF00109E44306F004FBA3
:10F7C400154EA4B2356809FA00F82C4314EA08046B
:10F7D4001BD11046FFF7DEFE034680F80C9007C9E4
:10F7E40083E807004FF480021C619C750B4B45EACB
:10F7F40008050B483560C3F8042187F31188BFF36B
:10F804006F8FBDE8F8830748F7E70748F5E700BFBF
:10F8140041B80020BCB50020B8B5002000E100E0EC
:10F824000000AD0B0A00AD0B0B00AD0B10F0080F80
:10F83400074B06D0D3F8C00410F4803F18BF002053
:10F84400704700F00F0000F5947053F820007047E3
:10F85400006003402DE9F04FAB4BAC4FD3F854217B
:10F8640085B0DAB10022C3F85421D3F80413890215
:10F8740014D58DF80C20D3F8202503A8ADF80E205C
:10F88400D3F8C034002B14BF4FF001224FF4807220
:10F894003B6813433B609E4B1B6898479A4BD3F8D5
:10F8A400604134B10022C3F86021D3F86C44C3F83A
:10F8B4006C44D3F828214AB10022C3F82821954B7F
:10F8C400187806F081FA012383401C43DFF848824C
:10F8D400924E98F8005098F9009015F0080141D123
:10F8E400B9F1000F05F00F032CDA8D4A52F823000A
:10F8F40010B342F823101422534303F1804303F559
:10F904005833D3F80836874A03F0010311784B4083
:10F914001370854804F0C6F82846FFF73BFE837D44
:10F92400032B37D1284606F04FFA012303FA00F0DF
:10F93400336823EA0003336001254FF00609DFF83A
:10F94400D0A15DE0794A52F823000028F4D042F8AF
:10F9540023101422534303F1804303F55833D3F89F
:10F964000837D0E7B9F1000F674B09DBD3F8502112
:10F97400002AE1D00022C3F85021D3F8A837C2E707
:10F98400D3F82C21002AD7D00022C3F82C21D3F895
:10F99400A836B8E7037BDBB9284606F015FA01233D
:10F9A40003FA00F03368B9F1000F23EA000333606F
:10F9B40001DA882DC0D106238DF80C3000238DF890
:10F9C4000F30534B8DF80E501B6803A89847B3E7CC
:10F9D400002DB1D101224C4BDA64ADE794FAA4F0C6
:10F9E400B0FA80F03A6805FA00F31A430F283A6037
:10F9F40024EA0304326840F39D80134200F0AA8095
:10FA0400002CEBD1404BD3F800215AB1C3F800418C
:10FA1400474B03A81C703F4B1C70012303933C4BC2
:10FA24001B689847384BD3F85821002A2ED000225F
:10FA3400C3F85821D3F80044C3F80044E30508D5BB
:10FA440001223B4B03A81A7002230393304B1B681B
:10FA54009847A50508D50022354B03A81A7003233F
:10FA640003932B4B1B68984760050FD5304B1A78CE
:10FA740062B100221A700122234B03A8C3F808259F
:10FA84009A6504230393224B1B6898471E4BD3F8B3
:10FA94005C3103B3244B9B681BB998F800305906BA
:10FAA40019D00022184B03A8C3F85C21D3F8803482
:10FAB400184A23F07F031370336823F00113336073
:10FAC4003B6823F4803343F001033B600523039335
:10FAD4000F4B1B68984732683B681A4200F09380CA
:10FAE40000220023104804F011F8002840F08B8015
:10FAF400054BD3F82C35002B00F0A8800A4805B03C
:10FB0400BDE8F04F03F0CEBF00600340BCB5002059
:10FB1400C0B5002041B8002040B80020B8B500208E
:10FB2400086103403FB8002024A300203061034053
:10FB340042B8002013407FF463AF60F07F018DF87A
:10FB44000C908DF80E108DF80F30DAF8003003A801
:10FB5400984755E7A0F110018DF80C908DF80E1020
:10FB64008DF80F50F1E749F080052846FFF712FDA4
:10FB74004368B0F814B001689B4528BF9B4601F068
:10FB84006043B3F1005F044604D05A46514807F07D
:10FB940030FA5049226863685A442260A268A3EB91
:10FBA4000B03D20768B2636005D5BBF1000F04D123
:10FBB4000023237301E0002BFAD0012202FA09F991
:10FBC4002AEA09033B60236915F0080F5B442361AB
:10FBD40088F80050404B6FD100284FF0140005F016
:10FBE4000F0500FB0530B5BF03EB85030A35C0F8EC
:10FBF4000016C0F80017B5BFC0F804B6C0F804B7C3
:10FC04005A6043F8252005B0BDE8F08F61464FF0F7
:10FC1400000B70454AD1003A18BF0122BCF1000F15
:10FC240046D0584544D9012202FA09F223EA0203D4
:10FC34003360062302218DF80C30284BA1751B6814
:10FC44008DF80E508DF80F1003A898473368D7F835
:10FC540000A013EA0A093FF451AF19F0012214BFBE
:10FC640092FAA2F999FAA9F9B9FA89F9B9F10F0F37
:10FC740001937FF678AFA9F11005EDB22846FFF79E
:10FC840089FC04462846FFF7D1FD6268B4F814E005
:10FC94009042D4F800C0019BB8D800EB0C0B121AA8
:10FCA400C4F800B0614683466260B2E70022B5E75B
:10FCB40068B2002A81D17BE70028B5BFC3F8A0163B
:10FCC400C3F8A017C3F8A4B6C3F8A4B7B4BF5A6264
:10FCD4009A6498E7C8B3002000600340C0B50020D0
:10FCE400024B40F48070C3F818057047006003406D
:10FCF400030713D400F00F0310F0800F084A0BBF62
:10FD040003F5887303F5847302EB830252F823002E
:10FD140008BF5068003818BF0120704700207047A2
:10FD240000600340034BC3F80C0540F48070C3F833
:10FD34000C057047006003400023036043600E4BD2
:10FD4400D3F880240270D3F884244270D3F8882432
:10FD5400D3F88C1442EA01224280D3F89024D3F8D9
:10FD6400941442EA01228280D3F89824D3F89C3474
:10FD740042EA0323C3807047006003400122014B21
:10FD8400DA647047006003400122014B1A65704732
:10FD9400006003400122014B5A6570470060034034
:10FDA400014B1878704700BF41B80020024610B5D7
:10FDB400EFF31184202383F31288BFF36F8F06F0CF
:10FDC40003F801230A4903FA00F00B6823EA00034D
:10FDD4000B6012F0080101BF02F00F02054B02F59F
:10FDE400947243F8221084F31188BFF36F8F10BD0F
:10FDF400BCB5002000600340F7B50146EFF3118560
:10FE0400202383F31288BFF36F8FFFF7C3FB0646EB
:10FE1400084605F0D9FF012211F0800F02FA00F222
:10FE24002D4818D1036832EA03040AD00846FFF7C4
:10FE3400BDFF0323B37585F31188BFF36F8F03B040
:10FE4400F0BD264923EA020303600B68347323EAF6
:10FE540002030B60EDE70B0715D48029204B2FD04C
:10FE640001F00F0404F2DA346400C3F80048D3F854
:10FE74000448D3F80478E4B244F002043C43C3F8E1
:10FE84000448D3F80438154F04683B6864EA030C4B
:10FE94001CEA020FCFD013433B60002333730323C8
:10FEA40024EA02040622B3758DF807300D4B046072
:10FEB4001B688DF804208DF8061001A89847BAE74E
:10FEC40040F2B474C3F80048D3F80448D3F8047873
:10FED400E4B244F00404D1E7B8B50020BCB5002076
:10FEE40000600340C0B5002038B50446094D4FF00A
:10FEF400FF324FF0FF33284603F008FE2046FFF799
:10FF04007BFF284603F0CEFD4FF48002024BC3F87A
:10FF1400042138BD24A3002000E100E0F8B54FF02F
:10FF2400FF324FF0FF332A4803F0F0FD4FF4800214
:10FF3400284B3620C3F88421FEF71AF998B101271B
:10FF4400254E264B34681B68240C24041C4354BBE4
:10FF540040F2FF13224D33603620C5F80445FEF706
:10FF6400F3F8C5F800431F4A13788BB100211C4BEA
:10FF7400C3F808110121C3F80026C3F80416596018
:10FF8400D3F808110029FBD00021C3F8081111701F
:10FF94000022134BC3F800250D4803F083FD012212
:10FFA400114B1A70F8BD94FAA4F5B5FA85F52846F4
:10FFB4000F2DC6BFA5F11000C0B240F080000307AA
:10FFC40001D4FFF719FF07FA05F524EA0504BEE793
:10FFD40024A3002000E100E0BCB50020B8B5002057
:10FFE400006003403FB8002043B8002010B5044629
:0CFFF4004FF0FF324FF0FF33114803F0D4
:020000022000DC
:1000000087FD2046FFF7FAFE012304F00F0293401C
:10001000DB430D4A14F0800F15BFD2F81015D2F84B
:1000200014150B400B4014BFC2F81035C2F814353C
:10003000044803F039FD4FF48002044BC3F8042157
:1000400010BD00BF24A300200060034000E100E0D9
:1000500070B50446FFF78AFB68B9012504F00F026A
:1000600014F0800F144B05FA02F205D0D3F81015E6
:100070000A43C3F8102570BDD3F814150A43C3F81A
:100080001425631E062BF6D8EFF31186202383F385
:100090001288BFF36F8F2046FFF78AFE204605F0D7
:1000A00095FE064A8540136823EA0503136086F32C
:1000B0001188BFF36F8FDEE700600340B8B5002002
:1000C000030610B5044605D4FFF714FE10B1204610
:1000D000FFF76EFE014BC3F8184510BD00600340EA
:1000E000084B70B5C31A0D4607499B100446594387
:1000F0004022064805F096FE2B4601462046BDE804
:1001000070401847D8B50020B76DDBB6E07102002B
:10011000402373B50B4C0093041B0B460D460A4954
:10012000A41061430646094A094805F0A6FE011ECF
:1001300005DA30462B4602B0BDE87040184702B0E1
:1001400070BD00BFD8B50020B76DDBB6E35E02001E
:10015000E071020010B5EFF31184202383F31288BD
:10016000BFF36F8F074A136823F00201DB071160AA
:1001700002D4012006F0EFF984F31188BFF36F8FEA
:1001800010BD00BF78B600202DE9F8430022012100
:1001900006460520FDF7FCFF114801F083FD114BD9
:1001A000984219D101F08EFD00244FF01C090C2754
:1001B000DFF834803569414609FB045005F0A8FAA0
:1001C000002807DB012307FB04551C44042CAB6704
:1001D000F0D10020BDE8F8836FF00400FAE700BF1B
:1001E000E90202000000AD0BC07602001FB500223C
:1001F0000123CDE902236B46084ACDF800D0CDF8A3
:1002000004D005F067FE002805DB4FF48042002390
:10021000684603F07DFC05B05DF804FB195F020041
:100220000C22104B014602FB0033002030B4D3E90E
:100230001C521867EFF31180202484F31288BFF357
:100240006F8F9C6F04F0C00444F002049C6780F33D
:100250001188BFF36F8F1DB12B4630BC0248184781
:1002600030BC7047D8B50020E071020010B4EFF345
:100270001182202383F31288BFF36F8F1748016820
:1002800041F002040460C80707D482F31188BFF369
:100290006F8F012010BC01F031BD1149D1F80C0461
:1002A000D1F80C14C907F0D5EFF3118083F312884D
:1002B000BFF36F8F0B498B6F03F0C00343F0020352
:1002C0008B6780F31188BFF36F8F82F31188BFF3C0
:1002D0006F8F002010BCFFF7A3BF00BF78B60020CF
:1002E00000500040D8B50020092813D8DFE800F0FE
:1002F00005101212121212120E0C074B986F10F00A
:10030000070007D1FFF78CBF0220FBE70320F9E7C6
:100310000120F7E7704700BFD8B50020C3B21C200A
:10032000014A03FB00207047D8B500202DE9F041B9
:10033000012207463449D1E8EF3FC1E8E02F002809
:10034000F9D133B9314932484B60CB608A6005F04E
:10035000F2F97B1E012B28D8012F06D12D4BD3F8A3
:100360001C3403F00303022B1FD006F079FC054672
:10037000E8B9294B1B78D3B102220646254BC3F8B6
:100380000823244CDFF89480D4F81824D4F81834C7
:10039000D20315D503F00303022B01D0012F0FD197
:1003A0006DB386F31188BFF36F8FBDE8F081EFF373
:1003B0001186202383F31288BFF36F8F0125E0E7B6
:1003C000C5B1304605F038FCD4F81835DBB2012B46
:1003D000DAD1D4F80421002AD6D00022C4F80421AE
:1003E000D4F804210222C4F818252022C8F880215C
:1003F000A360C9E70021212006F0D0FCE4E7022237
:10040000044BC3F80423D0E7D4B50020C4B50020C2
:10041000F4B500200050004076B8002000E100E074
:1004200008B5074806F080FA38B10648FEF75AF9D1
:100430000448FCF7A1F8002008BD6FF01200FBE7AC
:100440001C720200490402000A2838B50446074D10
:1004500004D1AB680D2128465B689847AB68034818
:100460005B68E1B29847204638BD00BF1C720200AD
:10047000F0B5406801F01F04057B87B044EA4514DD
:100480000569002D63D0B2F5001F00F1100506D1FB
:100490002146284606F0F0F8002007B0F0BD0027FE
:1004A000B2F5800F01AE0197776039D1B3F1007FCB
:1004B00014BF052304238DF804300023CDE9046321
:1004C0000393836823FA01F111F001011AD1B2F10B
:1004D000A07F17D104F01F03620903F180032AD023
:1004E000012A3AD11E4A52F82330DB070AD40DF113
:1004F000030632462146284601F00CFF194B98426C
:100500001BD002962146284603AA01F0BFFD164BD8
:1005100098421FD101222146284601F05DFFBBE72A
:10052000B3F1C06F05D0B3F1007F14BF01230223E4
:10053000C1E70323BFE70D4AD5E73146284601F05E
:1005400045FF094B9842DCD06FF00B00A5E76FF038
:100550008500A2E76FF015009FE751F82330FFDE1A
:10056000002884400400AD0B0000AD0B0025844042
:1005700038B545682B69B3B11035284601F016FF30
:10058000044680B90146284601F0DEFE084B984239
:100590000BD122462846074901F0B6FE2246052126
:1005A0002F20FDF7F5FD002038BD6FF00400FBE7BC
:1005B0000000AD0BB90502004209034670B502D038
:1005C000012A17D070BD0D4E326951680029F9D04B
:1005D000012503F01F030C689D400029F2D08A68B2
:1005E0002A4002D030464B6898472CB123682146F8
:1005F0001C46F2E7024EE7E72346F8E708720200DE
:10060000F47102002DE9F04340F206354668D00649
:1006100048BF0320337B02EA050558BFC2F34010F0
:1006200087B001F01F07B5F5837F144647EA4317EB
:100630008DF8030044D00FD8062D18D007D8B5B1D7
:10064000022D3FD06FF0150007B0BDE8F083B5F57F
:10065000807FF7D101250AE040F20222954233D093
:10066000B5F5407F32D0B5F5007FEBD102250123EF
:10067000220303FA01F12BD573689960326972BBCA
:1006800007F01F037F0928D0012F75D13C4A02EBE8
:10069000830284F48033D2F80012C3F30043C4F31E
:1006A000404444EA430421F4706144EA800421F0A8
:1006B0000F0144EA05230B43C2F800320020C3E7D0
:1006C0000725D4E70425D2E70525D0E70325CEE7A3
:1006D000630344BF7368D960D0E72A4AD7E710366E
:1006E000394630460DF1020201F014FE14F4403F89
:1006F00080460CD13946304605F0BCFF224B984568
:10070000DCD130469DF8021001F05AFED6E74FF0DA
:10071000000901AB3946304603AACDE90439CDE9D9
:100720000199CDF80C9001F0B1FC174B984289D19A
:1007300014F4003315D09DF8033084F48034C4F3EE
:1007400000448DF80E3039464B46304603AA8DF8EA
:100750000C508DF80D4001F055FD0B4B9842CDD05B
:1007600070E7CDE9043339460DF10303304603AA9F
:10077000039301F08BFCF0E7803352F82330FFDE67
:1007800000288440002584400000AD0B082230B5CD
:100790000C4685B005460B490DEB020005F0BAFA90
:1007A000082C28BF0824039B22461BBA0093029BF7
:1007B00069461BBA2846019306F01DFC204605B089
:1007C00030BD00BF0402FF0002780B69012A08D087
:1007D000022A08D04AB9064A1A6203F1100003F04F
:1007E00063B9044AF8E7044AF6E7044AF4E700BFAD
:1007F0000000AD0B0100AE0B0200AE0B0100AD0B13
:100800002DE9F04F87B0059303699346049343683D
:100810004FF0FF32D3F828A09B8B064603934FF08E
:10082000FF330C4605F0E0FB049B103302930027D6
:1008300000220023029803F06BF93D465F4501D387
:1008400000252DE0207A02077BD401375F4521681F
:100850000AD2830708D4237D80EA030202F0010252
:1008600003F004031A4308D025B901F06043B3F143
:10087000005F2AD04FF0000801E04FF001086368E4
:10088000DDF80CC0EA18624511D9326845210192A1
:100890002D482A46CDF800C005F0A4F86FF01B05DE
:1008A000304605F0A4FB284607B0BDE8F08FC2072C
:1008B00004D41A460AEB050006F09DFB63682B443E
:1008C0009DB2B8F1000F28D1DDB94FF00008D4F87F
:1008D0000090A588059B217A4A46009330462B4616
:1008E00000F07AF8051EDBDB4FF48042002302980B
:1008F00003F00EF940B1304600F02AF86FF004051D
:10090000CEE7A846D146E5E7049B104A1B6A93420E
:10091000F4D1237ADB0702D400250C348EE7CA45D4
:10092000FAD1254608E0A8EB02011FFA81F8E86831
:1009300019FA81F106F05FFB6A680C3D9045F2D22E
:10094000EAE76FF08505ABE71D8302000000AD0B01
:1009500070B5446823682046D3F80855D3F80C6571
:1009600002F082FA3146284602F076FD0546002163
:10097000606A05F03FFB204602F066FA034B9D4299
:1009800014BF6FF00F00002070BD00BF0000AD0B62
:1009900008B5CA0743681AD4C1F3420102290AD034
:1009A00003290CD001290ED14FF0CC721B68002016
:1009B000C3F8242508BD4FF0C8621B68F7E74FF065
:1009C0007F621B68F3E74521024805F00BF86FF0E2
:1009D0001500EFE704840200F0B50C461D461646EC
:1009E00087B04768122200210DF1060006F010FBC7
:1009F00004F001038DF80430BDF8303002958DF815
:100A00000530BB8D0496AB4208D20F482A464521DB
:100A100004F0E8FF6FF01B0007B0F0BD84F00202A5
:100A2000C2F340023846520101A902F03BFA074BDB
:100A3000984207D00B33984214BF6FF004006FF058
:100A40000F00E9E70020E7E71B8402000000AD0B80
:100A500038B5044645682B6A98470121686A05F055
:100A6000C9FA23462846AA6905F1080102F0B2F93D
:100A7000084B984207D008484521226804F0B2FF8D
:100A80006FF0040038BD0121204605F0C2FA00EAEB
:100A9000E070F7E70000AD0B67840200036803F025
:100AA0001F025B09026004D0012B034818BF00201D
:100AB00070470248704700BF0028844000258440EA
:100AC0002DE9F04F1546834640F2FF18DFF8749188
:100AD000DFF874A185B000EB8101594503D10020F6
:100AE00005B0BDE8F08FDBF80030C3F3C322082A5D
:100AF000C3F3080400F2A0801B0E043B444508BF6A
:100B00004FF0FF3419F802701E2B00F29880DFE8D6
:100B100003F0101726969696962D5A9696969696C8
:100B2000969696965D676A6D969696707685888B92
:100B30008E00601CC5F808457CD10BF1040BCCE796
:100B4000621CC5F80C45F8D0012603A80394FFF7F2
:100B5000A5FF0122039B02FA03F3C3600FE0C5F86F
:100B60001045631CE9D00026002208E0C5F80845BE
:100B7000002FF6D1631CE0D0002606273246DBF8B2
:100B80000030039403F40040002818BF002203A89B
:100B900018BF012601930092FFF780FF039C019B81
:100BA00000EB8400D0F80042C3F3412C009A3B02D2
:100BB00043EA8C03134304EA0A04234343EA46034B
:100BC000C0F80032B9E7C5F80C45D1E7C5F8604573
:100BD000661CDBF80030B0D0C3F300439BB9B3E729
:100BE000C5F86445F4E7C5F86845F1E7C5F86C4514
:100BF000EEE7C5F82445601C9FD00126B4E7C5F890
:100C00002845621C99D0012603A80394FFF746FFEC
:100C1000039B324606FA03F38360B0E7C5F830451C
:100C2000E9E7C5F83445E6E7C5F83845E3E7C5F830
:100C30003C45E6E7002688E76FF0150050E76FF0C7
:100C400085004DE78C840200F0F0FCFF38B570B1F0
:100C50004FF400450021064C0023E0FB0541054A06
:100C60002046FBF777FABDE8384006F097B838BD64
:100C70003F420F0040420F00F8B54468054605F0BA
:100C8000F4F9A06A28B92846BDE8F840002105F02B
:100C900065BA05F049FE40B9A36A0F4845211A68B4
:100CA00004F0A0FE6FF01200F8BDE38DA06A94F886
:100CB0002C1043F400320124066913F0010F33684D
:100CC00004FA01F414BF2343A343876833603B68ED
:100CD00098470028D7DAE7E7958402002DE9F84322
:100CE000456807690646E86B05F00DFB041E17DB37
:100CF000296C481C17D005F1440000F02FFB10F1BF
:100D0000130F044606D14521284804F06BFE6FF00E
:100D1000120405E0411D06D14521254804F062FE7C
:100D20002046BDE8F8834FF001086B6B9847BD681B
:100D3000D7E9023203EBC2039D4208D3384605F0DF
:100D400026FB73680024D86B05F0DDFAE8E7286815
:100D500005F0EAFD38B92A6845212B791268154853
:100D600004F040FED3E728682979EB88D0F810C05A
:100D7000DA07DCF8004054BF43F4B01383F4D01317
:100D800023F4801208FA01FEDB07D0F808904CBF6C
:100D900044EA0E0424EA0E04CCF80040D9F80030EE
:100DA0009847041EBCDB0835C2E700BFE58402009B
:100DB00015850200378502002DE9FF4105690646C9
:100DC000D0F80480A86C2B6D002835D1002B53D0AF
:100DD000B8F838406A6C9C4228BF1C46EF6CEB6C3C
:100DE00053B1296D41B107F06041B1F1005F03D00B
:100DF000082C28BF08246F6E00926A6CAC651AB18B
:100E0000AA6C002A18BF2246CDE901271BB12B6D21
:100E1000002B18BF2346002269464046039301F089
:100E2000D3FE184B984229D06FF00401304604B02D
:100E3000BDE8F04105F0CDBA696CEF6C0A46B8F830
:100E40003840ABB1834228BF03469C4228BF1C46B2
:100E50000029C4D001F06043B3F1005FBFD0082C7B
:100E600028BF0824286E224606F0C5F82A6EB6E789
:100E7000844228BF0446EBE71946D7E704B0BDE833
:100E8000F08100BF0000AD0B10B502780346002AC8
:100E90005DD10C69A26D32B9606D6FF07301BDE870
:100EA000104005F096BAE06C40B1216D31B1DB68BD
:100EB00023B1834202D0616E06F09DF8A36CA26D4F
:100EC0002BB19A4211D94521214804F08BFD236DA5
:100ED000A26D2BB19A4221D945211D4804F082FD13
:100EE000606DBDE81040FFF767BF9B1AA3647BB934
:100EF000636B04F1480208336363A36B04F13801A8
:100F0000013BA36304F1340005F0EAF96064DEE715
:100F1000636C002BDBD013446364D8E79B1A236512
:100F20007BB9E36B04F150020833E363236C04F1F3
:100F30004001013B236404F13C0005F0D1F9E06479
:100F4000CEE7E36C002BCBD01344E364C8E710BDBD
:100F5000608502002DE9F04F8FB001934368884609
:100F600002938B88074699049146046930D44FF068
:100F7000FF324FF0FF3304F1100002F0C9FDC4F856
:100F80000480D7F810A0D7F804B09AF85D30DBF8E9
:100F900008C023B1DAF80030984500F0D680B8F8E0
:100FA00004E01EF4006F1AD04521AC4804F01AFD8D
:100FB0006FF0850523689B8813F4005304D16360A8
:100FC00004F1100002F070FD28460FB0BDE8F08F6C
:100FD000A369002BCBD163689845C8D1D1E71EF037
:100FE000010F07D045213A689D4804F0FBFC6FF0E3
:100FF0001505DFE71EF0080F04D04521994804F0DD
:10100000F1FCF4E7CEF34513082B02D045219648B6
:10101000F5E7D8F800300393039A944B9A4202D82C
:1010200045219348EBE7934B9C4506D9924AD2F869
:10103000582512F0030F18BF9C4604AD0BF10C06A7
:101040000FCE0FC50FCE0FC5039B96E80300634577
:1010500028BF63469C46894B85E803009C4517D210
:10106000844B9C4514D2864B9C4511D2854B9C45A4
:101070004DD8854B9C454CD8844B9C454BD8844BD4
:101080009C454AD88349844B844A8C4588BF134683
:101090001EF0020F09930EF0040340D0002B14BF82
:1010A000032302238DF82830CEF300138DF8293066
:1010B000DBF800301EF0020FD3F80825CEF3400114
:1010C0004FEA521302F01F022FD163B3012B40F0FD
:1010D0002081734901239340CB609AF85D302BB196
:1010E000584601F029FD00238AF85D303B466D4AE1
:1010F000584604A901F0ECFC6B4B024698421FD005
:1011000045216A4804F06EFC6FF0040552E7684B15
:10111000BEE7684BBCE7684BBAE7684BB8E7003BF3
:1011200018BF0123BEE76649D4E73BB1012B40F06D
:10113000F2805B49012393408B60CEE76049F9E779
:101140000123CAF800808AF85D30012384F85C30FE
:10115000029B196C4A1C09D003F1440005F04AF9BE
:10116000743003D15721574804F03CFCB9F1000F0B
:101170006CD1C4F834900023A36304F1480204F155
:10118000380104F1340005F0ABF8019B6064002BDA
:1011900040F09C80E3630023236404F1500204F1D7
:1011A000400104F13C0005F09BF8002501212A468E
:1011B000E0642563204605F0CAF83846FFF7FCFDD9
:1011C0002A462B46A06B834240F0898000231946B3
:1011D000256CA94240F08A80934238BF13462646C8
:1011E0004FF4FA524FF0000802FB03F556F8203B8B
:1011F0004FF4004C1B684146B5FBF3F540F2E73075
:10120000C8354FF47A720023E5FB0C01FAF7A2FF10
:1012100002460B46304602F07BFC024600286CD0AA
:101220004521294804F0DEFB0298C4F8588001F0FB
:1012300083FC6FF07301384684F85D8005F0C9F8CF
:10124000304602F08BFC6FF07305B3E6D9F800303E
:101250006363002B8FD0D9F804308DE783850200BB
:10126000A2850200C9850200ED85020047E8010061
:10127000218602000024F400005000400048E801EC
:1012800000127A00FF083D007F841E003F420F00DD
:101290001FA107008FD0030048E8010090D0030091
:1012A00000288440890E02000000AD0B5786020022
:1012B00000093D0080841E0040420F0020A107006D
:1012C0000025844083860200B2860200019B1B68D1
:1012D000E363002B3FF45FAF019B5B685CE7616BEE
:1012E00001EBC301496801330A446CE7E06B00EB92
:1012F000C1004068013103446BE7256B15F1740FA1
:1013000092D0002D3FF456AE0146386905F01FF823
:1013100050E6C960FFDE00239B60FBE700F01F0280
:1013200040090DD001280DD1094B03EB8203D3F8FE
:101330000002084A024042EA8102C3F800227047D4
:10134000054BF2E70023803253F82230FFDE00BF66
:1013500000288440F0F0FCFF002584400123F0B514
:1013600087B08DF80230022300248DF804306B44DE
:1013700003930F4601AB0DF103010493054602915F
:10138000059401F023F80C4B064698420FD13946DC
:10139000284603AA00F07AFEB0420BD028469DF8FA
:1013A000031001F00DF86FF0040007B0F0BD6FF00E
:1013B0001200FAE72046F8E70000AD0B0123834056
:1013C00070B5DC430B4AD2E8EF1F01EA0405C2E81E
:1013D000E65F002EF7D14FF4803282400648C0F815
:1013E0000823BFF35F8FBFF36F8F0B4214BF012041
:1013F000002070BDECB600200050014070B40E49D2
:1014000022F07F46D1E90034D01AC31844F1000419
:10141000C1E90034A6F50013B3F5400F09D2074B1C
:101420001B681A0A1B069C19054B42F10005C3E90B
:10143000004570BC03F060BAD0A50020F0B60020D3
:10144000D8A50020D9B101230D4A8340D2E8EFCFBF
:101450004CEA030CC2E8E1CF0029F7D14FF4803306
:10146000084A8340C2F80433074BD3E8AF3FC34078
:10147000DB0742BF4FF40012044BC3F80021704752
:10148000ECB6002000500140E8B6002000E100E08A
:101490000D4B1868010A0006BFF35F8F0B4BD3F8A2
:1014A0000435181841F10001B3F5801F0AD2084B2A
:1014B000D3E90023904271EB030303D210F1807053
:1014C00041F10001704700BFF0B60020005001401C
:1014D000D8A500202DE9F04F85B016461F460446DA
:1014E0009DF840A0FFF76AFF0190FFF7D1FFB042DF
:1014F00071EB070352D23B4B301A67EB0101984264
:1015000071F100014DD2384B03EB0413D3E90223F0
:101510009F4208BF964258D04FF48038334908FAAA
:1015200004F8204626F07F4BC1F8488304F08AFF78
:101530004FF00309584604F15005AD00ADB205F176
:10154000804504F5A87305F5A8350293029A20F0AA
:101550007F4341F82230C1F84483D1F80435244A4E
:10156000C01A033820F07F4090422ED9286868B115
:10157000D1F80435A3EB0B0020F07F40B0F5000F4D
:10158000039322D9204604F05DFF039BBAF1000FBC
:1015900007D109EB030009F10109D7E7BAF1000F00
:1015A00009D06FF0150520460199FFF74BFF28463B
:1015B00005B0BDE8F08F01230E4AA340D2E8EF0F3B
:1015C0001843C2E8E10F0029F8D107490E9823011A
:1015D000C8500F9B01EB04120025C2E9026753605B
:1015E000E1E700BF01008000C0A5002000500140DD
:1015F000FDFF7F00E8B600207FB500254FF0FF30EB
:101600004FF0FF31194C1A4B0226C4F80833C4F8C6
:101610004833184BC4F80855C3E902014FF480332E
:101620004FF40012C4F80433134B0121C4F80463CF
:101630001520C3F880212A46FCF7AAFD1520FCF7E7
:1016400077FD01230D4AA360236013600C4B0D4A04
:10165000009328460023CDE90155FFF73BFF3046B4
:10166000FEF764FE284604B070BD00BF0050014084
:1016700003000F00C0A5002000E100E0ECB6002050
:10168000FD130200FFFF7F002DE9F7432E4BD3F837
:10169000042390070BD5D3F8042142B10022C3F8EC
:1016A00004212A4AD3F80431136801331360264A0F
:1016B000D2F80433D90326D5254BD3E8EF1F21F008
:1016C0000100C3E8E40F002CF7D1CB0702D4D2F815
:1016D0004031C3B100251C4CC4F84051D4F840310E
:1016E000FFF7D6FEEFF31182202383F31288BFF3B6
:1016F0006F8F184BD3E90267B042B94106D282F32B
:101700001188BFF36F8F03B0BDE8F0834FF0FF384F
:10171000D3E900104FF0FF391D60C3E902894FF48F
:101720008033C4F84833C4F84051D4F8403182F3D0
:101730001188BFF36F8F0029E5D0009032463B46F9
:1017400028468847DFE700BF00500140F0B6002080
:10175000E8B60020C0A5002030B5431C124C85B06F
:1017600005D08442A8BF0446012CB8BF0124FFF76E
:101770008FFE0E4B0C4DD3E90013401AB0F5000F4D
:101780000FD22218AA4228BF2A4600205218084920
:10179000CDE90100009143F10003FFF79BFE05B086
:1017A00030BD2A46F1E700BFFFFF7F00D0A5002033
:1017B000FD13020008B5FFF76BFE024B1B68C01A51
:1017C00008BD00BFD0A5002010B50649064804F0AA
:1017D00058FE044620B102464521044804F002F9AF
:1017E000204610BDED190200F4B60020FD8602006F
:1017F000F8B5644D0E462C6F00F00807072C51D049
:10180000132C00F09380052C40F0A8806D6D4521CD
:101810005D4804F0E7F8E9043AD545215B4804F057
:10182000E1F817242A0504D54521594804F0DAF8CF
:101830001824AB050CD54521564804F0D3F8564B77
:101840002C049A6B03D54521544804F0CBF8192495
:10185000680504D54521524804F0C4F81A24E90566
:1018600018D545214F4804F0BDF81B24F369002F1B
:1018700040F08380C3F3080222B96FEA53236FEA72
:101880004323F36131462046BDE8F840FCF7F4B845
:101890001624C7E7AA04E9D54521434804F0A2F875
:1018A0001C24E3E7EC6D4521404804F09BF86306F7
:1018B00004D54521AA6E3E4804F094F8E50705D505
:1018C00045213C4804F08EF82624CFE7A00705D533
:1018D0004521394804F086F82724C7E7610705D574
:1018E0004521364804F07EF82824BFE7220705D5B5
:1018F0004521334804F076F82924B7E7E30605D5F7
:101900004521304804F06EF82A24AFE7A50605D536
:1019100045212D4804F066F82B24A7E720062AD598
:1019200045212A4804F05EF82C249FE7ED6E4521FE
:10193000274804F057F8A90703D54521254804F0A6
:1019400051F8EA0703D54521234804F04BF86B070B
:101950008CD54521214804F045F887E72049214AE4
:10196000A4F110030F2CD8BF0A461F48452104F0EC
:1019700039F800247AE7252478E723F4FF7323F06D
:1019800001037EE7F4B60020BD7C0200D87C020093
:10199000EE7C0200067D020000ED00E0247D0200E6
:1019A0003E7D02005E7D02007B7D02003C870200DE
:1019B0005A8702006F8702008A870200AD87020003
:1019C000CD870200EF870200098802002888020004
:1019D000408802005F88020094880200C7880200E5
:1019E0005E7E0200737E0200777F020000B5104B1E
:1019F00089B05A6AD86C00929A6A20F00500019268
:101A0000DA6A694602921A6B03925A6B04929A6BD5
:101A10000592DA6B06921A6C1B6D07929B0748BF02
:101A200040F00400FFF7E4FE09B05DF804FB00BFDE
:101A3000F4B600202DE9F041A2B005460E46174647
:101A4000984605F00DF970B9114B1B785BB14FF05A
:101A5000FF324FF0FF330F4801F02CFF044618B15E
:101A60006FF0830510E00124684604F0BAF842469E
:101A700039463046289BA8470546684604F0B2F828
:101A800014B9044801F08EFF284622B0BDE8F08169
:101A900076B80020FCA20020002300B589B0CDE973
:101AA000063303AB0493042303900593A9B10B6899
:101AB00006934B6807930223111E18BF01210848A3
:101AC000CDE9002140F2F53104AA00F00BF800281E
