:020000021000EC
:10C00000B0CD00200DDC0100C1510200F9DB0100C0
:10C01000F9DB0100F9DB0100F9DB0100F9DB0100CC
:10C0200000000000000000000000000085DD0100AD
:10C03000F9DB01000000000011DD0100F9DB010067
:10C0400015DF010015DF010015DF010015DF01001C
:10C0500015DF010015DF010015DF010015DF01000C
:10C0600015DF010015DF010015DF010015DF0100FC
:10C0700015DF010015DF010015DF010015DF0100EC
:10C0800015DF010015DF010015DF010015DF0100DC
:10C0900015DF010015DF010015DF010015DF0100CC
:10C0A00015DF010015DF010015DF010015DF0100BC
:10C0B00015DF010015DF010015DF010015DF0100AC
:10C0C00015DF010015DF010015DF010015DF01009C
:10C0D00015DF010015DF010015DF010015DF01008C
:10C0E00015DF010015DF010015DF010015DF01007C
:10C0F00015DF010015DF010015DF010015DF01006C
:10C1000015DF010015DF010015DF010015DF01005B
:10C1100015DF010015DF010015DF010015DF01004B
:10C1200015DF010015DF010015DF010015DF01003B
:10C1300015DF010015DF010015DF010015DF01002B
:10C1400015DF010015DF010015DF010015DF01001B
:04C1500015DF0100F6
:10C1540053B94AB9002908BF00281CBF4FF0FF316A
:10C164004FF0FF3000F00CB8ADF1080C6DE904CECF
:10C1740000F010F8DDF804E0DDE9022304B07047B4
:10C18400704700BF034613F8012B002AFBD1181A8D
:10C19400013870472DE9F04786468C460846089ECC
:10C1A400154674461946002B40F0C1808542B2FA08
:10C1B40082F245D94AB1C2F1200300FA02FC95404B
:10C1C40094402EFA03F343EA0C0C4FEA154EA8B23E
:10C1D400230CBCFBFEF80EFB18CC08FB00F943EA69
:10C1E4000C43994528D9EB1808F1FF3704D2994537
:10C1F40002D9A8F102072B44A3EB0903A4B2B3FBB1
:10C20400FEFC0EFB1C330CFB00F044EA0344A0428A
:10C2140014D92C190CF1FF3304D2A04202D9ACF189
:10C2240002032C44241A43EA07401EB1D4400023DD
:10C2340034607360BDE8F0874746DDE76346F1E7A5
:10C2440092BB431B01214FEA154EAFB2200CB3FB46
:10C25400FEFC0EFB1C330CFB07F840EA0343984535
:10C2640061D9EB180CF1FF3004D2984502D9ACF136
:10C2740002002B44A3EB0803A4B2B3FBFEFC0EFBA9
:10C284001C330CFB07F744EA0344A7424DD92C198D
:10C294000CF1FF3304D2A74202D9ACF102032C44BF
:10C2A400E41B43EA0040C0E7C2F1200395409440F8
:10C2B40020FA03F12EFA03F34FEA154E9040AFB281
:10C2C4000343B1FBFEFC0EFB1C10190C0CFB07F81E
:10C2D40041EA0041884522D969180CF1FF3004D2A3
:10C2E400884502D9ACF102002944A1EB08019BB2B4
:10C2F400B1FBFEFC0EFB1C110CFB07F743EA0143E8
:10C304009F420ED9EB180CF1FF3104D29F4202D99F
:10C31400ACF102012B44DB1B41EA004193E7604688
:10C32400E3E76146F7E76046A4E76346B8E783427C
:10C3340006D916B9002108467CE7C6E900E0F9E70A
:10C34400B3FA83F78FB9834201D3724508D8BEEBA1
:10C35400020460EB030301209C461EB9002169E737
:10C364003846FAE7C6E9004CF8E7C7F1200CBB40B1
:10C374000EFA07F522FA0CF42EFA0CF1BA401C431B
:10C3840020FA0CF3B8404FEA144901431FFA84FE23
:10C39400B3FBF9F809FB18300B0C08FB0EFA43EA5F
:10C3A40000439A4540D9E31808F1FF3004D29A4576
:10C3B40002D9A8F102002344A3EB0A0389B2B3FB18
:10C3C400F9F809FB183308FB0EFE41EA03418E45D8
:10C3D4002CD9611808F1FF3304D28E4502D9A8F193
:10C3E4000203214443EA0040A1EB0E01A0FB0298A2
:10C3F4004145CE46434602D306D14D4504D20138C9
:10C40400B9EB020E68EB0403002EA7D0B5EB0E02C5
:10C4140061EB030101FA0CFC22FA07F3F9404CEA40
:10C424000303C6E9003199E74046C5E74346D9E727
:10C43400F8B5184D284609F07EFE044638B32A693B
:10C44400A9681368284623F4807313600B684FF4BB
:10C45400202208219847002819DB0F4F0F4EAB68A4
:10C464004FF4807128465B69984700280FDB84F0FD
:10C47400010414F0FF0414BF39463146084807F09C
:10C48400AFFE002140F6CD400AF090F8E7E7002027
:10C49400F8BD00BF086A02008C7002008F700200B1
:10C4A40093700200014B1B68184700BFB0A0002026
:10C4B400014B1860704700BFB0A0002030B585B0B4
:10C4C40004460D461022002168460AF0A9F9022309
:10C4D4008DF80230044B2A4621466846019307F042
:10C4E40091FE05B030BD00BFA9C4010080B505466A
:10C4F4000E461746984607F0FFFA03460AF00AFA72
:10C504000446DFF81890424649F800303946304670
:10C51400A84754F8090001F0E3FB00BF080000003D
:10C524002DE9F047058B04462807904611D40229CB
:10C5340005F0070540F0CC80204608F095FB78B163
:10C544000138218B042811D8DFE800F0C2106D8572
:10C55400950001290CBF45F0100545F02005258301
:10C5640088F31188BFF36F8FBDE8F08701F0070AE5
:10C57400AA4500F0A5800027B9463E46A368002BD3
:10C5840000F0BC8041F00801218388F31188BFF3D7
:10C594006F8FA168002900F0BA800D68002900F0AF
:10C5A400B680334652462046D1F80480C047002D59
:10C5B40076D02B6829461D46F0E701F007035A1F81
:10C5C400012A1BD8002221F00701062B276889B213
:10C5D400C4E9002209D13B4603E0628B0132628345
:10C5E4001B68002BF9D141F002012046218308F099
:10C5F4003BFB00287AD041F0200176E0042B0AD1DD
:10C6040021F0070189B22046218308F02DFB10B1E7
:10C6140041F020012183218B01F0070AAA454FD064
:10C624000027B946AAE7236921F0070141F0060172
:10C63400062DD3F8009021832DD1B9F1000F3FD0FE
:10C6440041F00801218388F31188BFF36F8F2046DE
:10C654003949C84729E021F00701236941F0040161
:10C6640089B2042DD3F804902183E6D000274FF03B
:10C67400040A3E4682E721F00701236941F00501DF
:10C6840089B2052DD3F808902183D6D000274FF026
:10C69400050A3E4672E700274FF0060A3E466DE75C
:10C6A4002B4687E7B9F1000FD1D1EFF3118820238E
:10C6B40083F31288BFF36F8F238B23F00803238344
:10C6C400258BEA062ED525F01003238305F00705F4
:10C6D4006669218B002EBFF670AF00232768C4E97A
:10C6E400003321F0070141F001012183218B4FF038
:10C6F400000901F0070AAA457FF440AF002F9CD03F
:10C7040041F00801218388F31188BFF36F8F002F54
:10C71400C8D03D68394633465246204608F0D0FA20
:10C724002F46F4E7AB067FF51BAF25F020032383E8
:10C7340005F0070500E700BFF14C0200014B036060
:10C7440000207047186E0200F0B40C4B0C4E5F6A68
:10C754000C4BB34203D36FF08500F0BC70475D68A7
:10C76400BD4209D31C693CB195F802C00579AC45BA
:10C7740002D12346F0BC18472433EAE700A900207D
:10C784000CA40020E8A300202DE9F04705460E463E
:10C794001746124CDFF84880DFF84890444503D32D
:10C7A4006FF08500BDE8F0876268D9F824309A42BA
:10C7B40012D3A36983B190782979884205D13A4686
:10C7C40031462846BDE8F04718475279012A03D17B
:10C7D4003A463146284698472434DFE7E8A3002048
:10C7E4000CA4002000A900202DE9F04105460E46C6
:10C7F40017460A4CDFF82880444502D36FF08500C1
:10C8040009E063690BB92434F6E73A463146284611
:10C8140098470028F7D1BDE8F08100BFE8A30020C5
:10C824000CA4002010B5044608F0B1FD10F1780FF7
:10C8340000D050B9204608F0D0FB044AD2F8C430E6
:10C8440023EA00030020C2F8C43010BD00A9002070
:10C854000022024B1A605A60704700BFBBA9002037
:10C8640070B50B4B0B4CA34201D3002070BD0022CA
:10C87400196A1E7F0439D5B2AE4201D82433F2E7D7
:10C88400013211F832508542F5D10120EEE700BFA4
:10C89400E8A300200CA4002008B509480378C3F3DA
:10C8A40041130A3350F823303BB100F1080200F180
:10C8B40010019847C043C00F08BD1846FCE700BFED
:10C8C40000A9002004282DE9F14F04460F46DFF8A3
:10C8D400949016D001282DD1DFF88C8098F8B930C7
:10C8E40043B300F0D5FD214D4D4520D24FF0000A51
:10C8F400D5F820B02B7F5FFA8AF6B34204D82435EA
:10C90400F2E7FFF7A5FFE7E70BEBC606307908F07F
:10C914003EFD0246307908F060FBD8F8C430002AA6
:10C9240023EA0003C8F8C4300AF1010AE2DA00235A
:10C9340088F8B9300D4D4D4508D30B4B1B6A6BB1CC
:10C944003946204601B0BDE8F04F1847EB681BB1EB
:10C954003A462146284698472435ECE701B0BDE81D
:10C96400F08F00BF0CA4002000A90020E8A3002041
:10C9740073B5C4B263060D468DF8074007D0204650
:10C98400FFF76EFF78B10D4B93F8BA0058B120460B
:10C994000A4E55B102F0A8F9F3691BB108200DF154
:10C9A40007019847012002B070BD02F0C5F9F36990
:10C9B400002BF7D009200DF10701F2E700A90020B0
:10C9C40073B586781E4C8DF800600379427943EA8A
:10C9D4000223ADF80230C378304603F003038DF828
:10C9E400043008F0FAFAD4F8C430054618420BD0E3
:10C9F400304600F02FFD3046FFF714FF09F03AFDF2
:10CA040010B9962007F034F8684602F049F910F19D
:10CA1400780F03D010B1002002B070BD9DF8000063
:10CA240002F0C6F910F1780F01D00028F3D10120EB
:10CA3400D4F8C43084F8B9002B43C4F8C430EBE70D
:10CA440000A900202DE9F047924D0446AB690E463B
:10CA54001746C3B9207800F01F00012876D00228B9
:10CA640000F0DC8000BB94F900103A680029637878
:10CA74002EDA062B0CD0082B25D0ABB9537001232A
:10CA84001370022303E198470028E3D100200DE04E
:10CA94006388190A0A1F012A8C4605D9072903D875
:10CAA400DAB26B6A1C781CB96FF01500BDE8F08728
:10CAB4005D78654503D1824200F0E480013023446F
:10CAC400F0E71B78E3E095F8BA3013700123DEE059
:10CAD400052B11D0092BE7D163886E6A002B32D164
:10CAE400FFF7B6FE638885F8BA30EB69002BCDD02A
:10CAF400032069499847C9E7A07802F0BFF80028E5
:10CB0400C4D0D1E77378042B10D0052B11D0022B9D
:10CB140004D177796388BB4208BF012033781E446F
:10CB24003378002BEED10028BED0D9E796F80380E5
:10CB3400F4E76388BB42F1D1B8F1000FEED130467F
:10CB4400FFF73EFFEAE7FF27B846E9E795F8BA3072
:10CB5400D7F800C0002BA7D06F6AA2883B4694F890
:10CB640004E0187800289FD05978022904D193F85A
:10CB74000480F04500F292800344F2E78CF8003020
:10CB84008CF80130316081E71F4493E00B2B8BD18B
:10CB940000264FF0FF08B246C14606E07B78042B1E
:10CBA4000FD0052B21D03B781F443B78002BF5D1C7
:10CBB400EB6913B1514607209847002E7FF466AF06
:10CBC40072E797F80280A38897F803909845EAD112
:10CBD40063889945E7D1B8F1070F1CD805EB080322
:10CBE400BA46012683F8BB90DDE7A3884345DAD132
:10CBF400A3784B450AD0BE78304600F02BFC304673
:10CC0400FFF710FEB0FA80F67609CCE73846FFF756
:10CC1400D7FE0646C7E7BA460026C4E794F90020C3
:10CC24006378002A18DA002B7FF43EAF24793F683A
:10CC340063060AD02046FFF713FE00283FF434AF02
:10CC440095F8BA30002B3FF42FAF3946204602F056
:10CC540093F800237B7014E7012B08D0032B7FF497
:10CC640023AF6388002B7FF41FAF012103E06188A9
:10CC740000297FF419AFA088FFF77AFE00287FF41B
:10CC840005AF11E702293B607FF41BAF5B8833607B
:10CC9400FCE600BF00A90020BAA9002094F9000016
:10CCA40063780028BFF672AF002B3FF467AF0A2BFE
:10CCB4007FF4FAAE3B78002B3FF4F6AE7978042982
:10CCC4007FF462AFB9788A427FF45EAF072A8EBFE1
:10CCD4000023521992F8BB308CF80030F6E600BFFE
:10CCE40013B5164C237DF3B9E26801AB8020A1682B
:10CCF400019208F081F9019AA3681344A360E368E0
:10CD04009B1AE3606BB962B12369E2889A4208DD39
:10CD140094F8C82093FBF2F102FB11330BB9012301
:10CD2400237502B010BD002380201A4619462375CE
:10CD340002B0BDE8104002F065B800BF00A90020B1
:10CD4400002330B585B002460D460193002858D122
:10CD5400002935D108220B460DEB020108F030FB07
:10CD6400002804DA802001F0BFFF05B030BD2A4C52
:10CD7400029AC4E903552260039ABDF80E3062603A
:10CD840004F13802A2609DF908202575002A0ADB07
:10CD9400802B04D9802001F0A7FF0020E3E713B122
:10CDA400C4E90333E1E7FFF777FD0028DAD0E2882E
:10CDB40023699A42D4BFE260E360FFF791FFD4E7AE
:10CDC400154C01ABD4E90215002D04DC08F0F8FA87
:10CDD4000028CADAC6E72A4608F0F2FA0028D9DBA6
:10CDE400019AA3681344A360E3689B1AE360002BD1
:10CDF400BBD104F13803A360FFF74EFD0028DCD15A
:10CE0400B0E78028B1D1044BDA68002AD5D11B7D64
:10CE1400002BD2D1A9E700BF00A90020054B064A88
:10CE240058629A62054A0020DA62054A1A63054A82
:10CE34009A61704700A9002049CA01004DC701004A
:10CE4400EDC701008DC701002DE9F3410446474DAC
:10CE54004FF0FF334FF0FF32454806F033F895F8B2
:10CE6400B830002B7BD16B6A83B142482C62E861F5
:10CE74006E6A02F0E1F801F0CFFE041E10DA3C48BD
:10CE840006F098F8204602B0BDE8F08100F0BEF844
:10CE9400FFF7C4FF6B6A002BE7D14FF0FF34EEE7D6
:10CEA40000F018FB041EEADB7378012B5AD1F379E6
:10CEB400002B57D00026684685F8C830ADF80230FC
:10CEC4008DF804608DF8006001F0EAFE041ED6DBE4
:10CED400802768468DF8007001F0E2FE041ECEDB68
:10CEE4003046254902F094F8041EC8DB384622492E
:10CEF40002F08EF8041EC2DB204CDFF88480444527
:10CF04001AD3002001F054FF041EB8DBD5F8C43056
:10CF1400802043F00103C5F8C43001F049FF041E2A
:10CF2400ADDBD5F8C430002443F48033C5F8C430F5
:10CF3400012385F8B830A2E70026276A227FF3B2DE
:10CF44009A4201D82434DAE707EBC30257F83310C6
:10CF5400107902F05DF801360028EFD09DE76FF0FC
:10CF640077048CE76FF0150489E700BF00A900205F
:10CF740010A30020C9C8010045CD0100E8A300208A
:10CF84000CA4002030B51F4B8BB005AA03F110058B
:10CF9400144618685968083303C4AB422246F7D1D3
:10CFA4001B7810222370002101A809F039FC1222F9
:10CFB4000021154809F034FC102101A803F04EF9B2
:10CFC40000281BDD0828B8BF082001AB09381A184F
:10CFD40000200D4912F8013F0AAC04EB131403F0CE
:10CFE4000F0328336B4414F8144C13F8143C013029
:10CFF40008280C704B7001F10201EBD102480BB010
:10D0040030BD00BFA27002001DB800202DE9F04F12
:10D01400714B87B093F800B0BBF1000F03D06F4899
:10D0240007B0BDE8F08F6D4C00264FF0011AB046F2
:10D034003546B14623783BB9694B02349C42F3D15F
:10D044000123654A1370EAE76378052B1BD8DFE8F0
:10D0540003F08C03C18C1D39402304A88DF810B053
:10D06400ADF812308DF814B008F07CF940B1082303
:10D0740004A8ADF8123008F075F908B1ADF812B093
:10D08400BDF81230E37123781C44D3E7E378002B16
:10D09400F9D1A3786BB108F101085FFA88F8F2E7D7
:10D0A4006B689C4207D024354E4B9D42F8D3002038
:10D0B400B6E74D4DF8E7AB68002BECD0414620466F
:10D0C4009847E8E7002DF2D000222B7F9A42EED257
:10D0D400296AA07801EBC2010B79984201D0013290
:10D0E400F3E70127E078FBB200F003008DF81400A9
:10D0F400207994F805C040EA0C20ADF8120094F9A8
:10D104000200002826DA4FF0010C07F110000CFA97
:10D1140000F010EA0A0F24D143F080008DF81000CB
:10D1240004A8CDE90213019208F01CF9DDE90121FC
:10D13400039BB0B99DF8102012F0800FA2700A7101
:10D144004FF001021DBF1033DBB29A40BA404AEAE5
:10D15400020A98E70120B84010EA0A0F01D11846E4
:10D16400DCE70137102FBDD1B9E7032E1AD1FFF741
:10D1740009FF074650B1FFF705F8024630B1102801
:10D18400A8BF10223946A01C09F03DFB6FF0020134
:10D194002378091BE21804EB5303D14213D501365B
:10D1A400F6B270E7002EF1D1B9F1000F3FF47FAF72
:10D1B400A4EB090389F80230C3F3072389F8033089
:10D1C40089F80480EBE702F801BC13F8010902F8BE
:10D1D400020DE2E7A14656E71CB8002044A3002054
:10D1E400E7A300200CA40020E8A30020094B0021A1
:10D1F4001A4610B51C78844204D15C6814B102EB61
:10D20400811010BD0131042903F14003F2D1002043
:10D21400F7E700BFCCA900202DE9F34150F8283CE2
:10D224000446103310F82C6C0AD1036950F8202CF2
:10D23400980736D5D2B9590715D5002344F8283CA8
:10D2440054F8283C10330BD054E9077554F8148C67
:10D2540009F010F900284FD021462E4809F0EEF8C5
:10D2640002B0BDE8F08143F004032361304654F872
:10D27400241C01AB07F0C0FE10B16FF01503DDE70D
:10D28400019A54F8243C134444F8243C54F8203CB8
:10D294009B1A44F8203C54F81C3C134444F81C3CAE
:10D2A400CEE7304654F8241C01AB01F027FE0028D9
:10D2B400E3D1019D54F8243C2B4444F8243C54F815
:10D2C400203C5B1B44F8203C54F81C3C2B4444F8A1
:10D2D4001C3C002DB1D0304601F0B4FEB5FBF0F398
:10D2E40003FB1055002DA8D154F8203C002BA4D0EA
:10D2F400304601F04BFEA3E744F8180CA4F11000EB
:10D3040005F0DAFE002DABD0424639463046A84738
:10D31400A6E700BF10A400204B1E012B73B50646E0
:10D324000D460FD8FFF762FF044668B9012D09D1F5
:10D3340001AB012230460DF1030101F0DFFD019B39
:10D34400002BF5D102B070BD09F094F804F12C0162
:10D3540008B1012D05D1084602B0BDE87040FFF7C1
:10D364005BBF034802B0BDE8704009F067B800BF76
:10D3740010A400202DE9F74F064615469846019162
:10D3840007F083FE044600285BD1EFF3118A2023C3
:10D3940083F31288BFF36F8FDFF8ACB00022002351
:10D3A400584605F0BDFE70B9DFF8A090A70109EB5F
:10D3B4008414636813F1100F14D10193584605F0D7
:10D3C4007BFE019B06E00134042C0BF1400BE5D1FC
:10D3D4006FF00B038AF31188BFF36F8F184603B005
:10D3E400BDE8F08F019B2061C4E902350C9B3046F7
:10D3F40063610D9B09F80760A3616FF00F03C4F824
:10D404003C80636001F01EFE58B1304601F01AFE04
:10D41400B5FBF0F303FB10551DB1E36B43F00403BC
:10D42400E36318F0020F07D007F12C0108484944C0
:10D4340009F004F80023CDE7304601F0A7FD0346C8
:10D44400C8E76FF00F03C9E7E8A90020CCA90020C2
:10D4540010A4002010B5EFF31184202383F3128865
:10D46400BFF36F8FFFF7C2FE50B14368103307D18B
:10D474006FF08B0300F12C014360044808F0DEFFD9
:10D4840084F31188BFF36F8F10BD00BF10A4002078
:10D49400F8B5042520270D4CEFF3118687F3128885
:10D4A400BFF36F8F6368103307D16FF08B030848A5
:10D4B400636004F12C0108F0C1FF86F31188BFF307
:10D4C4006F8F013D04F14004E6D1F8BDCCA90020E2
:10D4D40010A4002070B50025094C0A4E31462046A0
:10D4E40008F090FF0122A4F110001146013508F064
:10D4F4004DFF042D04F14004F0D1002070BD00BFA5
:10D50400F8A900201DD201000123016981F84B30E4
:10D514000B6833B191F849301BB10248083108F067
:10D524008DBF704710A400200123016981F84A309F
:10D534000B6833B191F848301BB10248083108F048
:10D544007DBF704710A4002070B50569EFF3118604
:10D55400202383F31288BFF36F8FD5F8900007F070
:10D56400CBFC044686F31188BFF36F8F30B10022E1
:10D574000023034805F1180105F066FF204670BD3D
:10D5840010A40020012370B582F8483013680D46BA
:10D5940014463BB192F84A3023B10E4802F1080117
:10D5A40008F04CFFD4F890301A699B689A4205D170
:10D5B4007DB904F1180140F6CD4204E004F11801EC
:10D5C400002DF8D00022BDE870400023014805F08A
:10D5D4003BBF70BD10A4002070B504460E4601790F
:10D5E4001548154607F02EFD10B394F90020637812
:10D5F400002A16DB202B04D0222B0ED06FF08500DE
:10D604000AE02B681A6840F8102C9A8820F80C2C31
:10D614009B7900F80A3C002070BD638800F8093C3F
:10D62400F9E7212BEAD10723103828603360F2E7A9
:10D634006FF01200F0E700BFCCAA0020014608B545
:10D64400034807F00CFD10B1012300F8073C08BDA6
:10D65400CCAA0020002103460C4AA0F84810106808
:10D6640083F89C10C3F8940090889279A3F89800EA
:10D6740083F89A2083F89B104022A3F89E1083F825
:10D68400A01003F14C0009F0CBB800BF086E0200F3
:10D69400F0B5D0F88C3004465B6885B01B6A1F7DFA
:10D6A400384607F0F2FC0646F8B994F88630E3B140
:10D6B4004FF48062A06F03A907F03DFC0546A0B1BA
:10D6C4008306A4F1180384F830600193084B08BF63
:10D6D40000F1FF35039900932A4602233846FFF7E9
:10D6E40049FE2946A06F07F042FC05B0F0BD00BF1B
:10D6F40089D50100002310B50469C4F8A8300C4B87
:10D70400C4F8A400596804F1A80269B9C3E9002265
:10D7140004F10800074908F075FE04F118000649F1
:10D7240008F09CFE002010BD0A605A60F0E700BFBC
:10D73400CCAA0020B950020095D60100002373B58D
:10D74400202504698DF8071084F84830EFF311861A
:10D7540085F31288BFF36F8F0122D4F890000DF186
:10D76400070107F0C9FB86F31188BFF36F8F012807
:10D774000AD008F07FFE10B994F8A1306BB9094BB8
:10D784001A780AB901221A702122002304F118011F
:10D79400054805F059FE02B070BD0021212008F0B3
:10D7A40005FFD3E72FB8002010A4002037B5144696
:10D7B4000A1E054620DDD4F88C0004F14C0107F064
:10D7C4009BFB012384F8493023683BB194F84B3028
:10D7D40023B1114804F1080108F030FED4F88C108C
:10D7E4004B684A699A1ACB699B1A3F2B04D80123C8
:10D7F40084F8A03003B030BD94F89E30002BF9D0EB
:10D80400064B4022009328460123019404F14C0165
:10D81400FFF7B0FDEEE700BF10A40020B1D7010070
:10D82400F7B50D4601461D4807F001FC044610B348
:10D83400064656F8A439691E5F6805291BD8DFE837
:10D8440001F01C1A031C222610F8061C99B90123A6
:10D8540000F8063C3B6A3246187BFFF7A7FF14F832
:10D864005C2C42B93B6A1146187D0D4B019600931E
:10D874000223FFF77FFD03B0F0BD304603B0BDE8DF
:10D88400F040FFF7E7BE012304F8053CF3E710F886
:10D89400053C002BEFD00023F6E700BFCCAA002004
:10D8A40089D5010037B50024084D4FF0FF334FF4FC
:10D8B400806228460649009405F088FD05492846FB
:10D8C40005F0ECFD204603B030BD00BF10A40020DD
:10D8D40070B80020C670020008B5044807F09CF92F
:10D8E400BDE80840024807F097B900BFCF700200B6
:10D8F4000471020030BFFFF7FDBF00BF2DE9F04106
:10D9040005460B4EDFF82C80324606EB0807CC1B8D
:10D914002046094908F077FFA01942460021083C37
:10D9240008F07EFFC5F8A44007F10800BDE8F081C7
:10D934000000000004000000F46D0200074A936830
:10D9440093F90E10002907DB526993421FBF044A62
:10D95400536843F080535360704700BFE0B7002022
:10D9640000ED00E0154B9A6A12F0007F9A6A14BF2A
:10D974001E201D2012F0807F9A6A18BF1F2012F407
:10D98400801F9A6A18BF022012F4002F9A6A18BFE7
:10D99400212012F4802F9A6A18BF222012F4003F2B
:10D9A4009A6A18BF232012F4803F9A6A18BF242071
:10D9B4006FEA02426FEA12429A62704700ED00E099
:10D9C40010B5194B0246986A9C6A10F4805F14BF24
:10D9D4001720162014F4006F9C6A18BF1820A405A1
:10D9E40009D5986B986A000404D51AB19A6A22F48E
:10D9F40000429A6219200C4B9A6A12F4806F9A6A58
:10DA040018BF1A20D2050CD49B6A13F4005F18BF08
:10DA14001C20054A936A43F47F43936200230B70EE
:10DA240010BD1B20F5E700BF00ED00E010B51C4B56
:10DA34000246986A9C6A10F0100F14BF112010203F
:10DA440014F0080F9C6A18BF1220A40709D5586B5C
:10DA5400986A000604D51AB19A6A22F080029A6282
:10DA640013200F4B9A6A12F0010F9A6A18BF142000
:10DA740012F0200F9A6A18BF1520D40658BF9B6A6B
:10DA8400074B9A6A920642BF5A6A22F400525A62BB
:10DA94009A6A42F0FF029A6200230B7010BD00BF25
:10DAA40000ED00E0F0B54A4B04465B6800258BB0FE
:10DAB400C3F3080385F31188BFF36F8F02F07F402F
:10DAC400B0F17F4F16D1D60714D4550603D41007EE
:10DAD40004D4012504E012F0040200D00C46002511
:10DAE4000022033B8DF80720032B05D8DFE803F061
:10DAF4002462665F2C46F3E700239DF80720CAB929
:10DB040002AE04F12007324620686168083403C27B
:10DB1400BC421646F7D1099A002D53D0C2F308012E
:10DB240021B96FEA52226FEA42220992184602A9E9
:10DB340007F03AFB0BB0F0BD254BDA6A9107DBD452
:10DB4400DA6A002AD8DBDA6A5200D5D55A69A169A3
:10DB540042F480725A61BFF34F8FBFF36F8F5A69DB
:10DB640031F8021C22F480725A61BFF34F8FBFF365
:10DB74006F8F4DF60272914201D12368BDE79A6A14
:10DB8400D2B232B101200DF10701FFF74FFF034676
:10DB9400B3E79A6A12F47F4F05D001200DF1070113
:10DBA400FFF70EFFF3E79B6AB3F5803FA4D3FFF7BB
:10DBB400D9FEECE700200DF10701E6E700200DF1A6
:10DBC4000701EDE722F4FF7222F00102ADE700BF86
:10DBD40000ED00E0064B5A6942F010025A615A699E
:10DBE40042F480625A615A6922F008025A6170470D
:10DBF40000ED00E0EFF30880EFF3098101B5724610
:10DC0400FFF750FF01BD00BF002080F31488BFF36D
:10DC14006F8F002080F30A8880F30B88104880F30C
:10DC2400088800200F49087008F08EF800200E497B
:10DC34000860BFF34F8F00F02DF8202080F3118887
:10DC44000A484FF40061401880F30988EFF3148008
:10DC54000221084380F31488BFF36F8F00F0E8F8C3
:10DC6400B0CD00206AB8002094ED00E070C0002020
:10DC7400002318460649D1F89020C2F307229342A4
:10DC840000DB7047C1F89830C1F8A0000133F6E713
:10DC940000ED00E010B572B6002484F31388FFF79A
:10DCA400E7FF23464FF0FF300C4A03F12001013314
:10DCB400102B42F82100F8D100234FF0FF30074A1F
:10DCC40003F160010133102B42F82100F8D162B650
:10DCD400BFF34F8FBFF36F8F10BD00BF00E100E0B3
:10DCE400084B9B6883420BD1EFF3058343B1064B8A
:10DCF4005A6842F080525A605A6A22F400425A62C8
:10DD040005F000BFE0B7002000ED00E019498A6883
:10DD140082F8B1E04FF030001044EFF3098C80E852
:10DD2400F01F202080F31288BFF36F8F124F4FF043
:10DD340000664A698A603E604FF0A40414192068A2
:10DD44000E4C206092F9B1E0D2F8A8000023C2F88A
:10DD5400A83080F3118802F1300090E8F01F8CF3B2
:10DD6400098802F1000004B507F035FABDE8044063
:10DD740070470000E0B7002004ED00E0D4AA0020C2
:10DD84001EF0040F0CBFEFF30880EFF309808169E4
:10DD940011F8021C0229FFD001B5724607F00AFAF5
:10DDA40001BD00BF40B2002807DB01234109034A3B
:10DDB40000F01F00834042F82130704700E100E08A
:10DDC40040B200280CDB01220649430900F01F0081
:10DDD4008240203341F82320BFF34F8FBFF36F8F6E
:10DDE400704700BF00E100E0054B420953F82220D0
:10DDF400012300F01F0003FA00F01040704700BF39
:10DE040000E100E040B2002801F10101ACBF00F1E3
:10DE14006040064B4FEA4111C9B2ABBF00F5614007
:10DE240000F00F0080F800131954704714ED00E05F
:10DE34000B4A08B50B4B22F07F029A60BFF34F8F59
:10DE4400BFF36F8FD3F8882022F47002C3F88820C0
:10DE540004F046FF05F098FF00F04EF804F084FF4C
:10DE640000C0010000ED00E042F8203C009B0D4999
:10DE740042F81C3C019B21F0010142F8183C029B32
:10DE840042F8081C42F8143C4FF0807342F8043CFA
:10DE94000023C0F8A8304FF43C43203A0265C0F890
:10DEA400B0307047F1C4010000B50C4B15469860C2
:10DEB400D0F8A4200A4B0E461A60D0F8943083F3AD
:10DEC4000B882C4686F309880020064B9847204689
:10DED400002100220023044C204700BFE0B70020AB
:10DEE400D4AA0020E5510200F1C401001022014B24
:10DEF4001A61704700ED00E0002320210348C21896
:10DF04000133452B82F80013F9D1704700E100E09A
:10DF140008B5EFF30583064A103B02EBC30152F840
:10DF2400330049688847BDE80840FFF707BD00BFD4
:10DF3400A86A02001FB5094C094A23460121094871
:10DF440000F0FAF800230393074B0121E41A01A817
:10DF54000193029400F0FAF804B010BD0000072009
:10DF640000A00020186E020010A4002010B50C7A46
:10DF74000B6804F01F0223F01F031A43CB686409E3
:10DF840023F01F03054943EA440343F00103C1F8A6
:10DF94009800C1F89C20C1F8A03010BD00ED00E04D
:10DFA40010B5074BD3F89030C3F30723013B9842D5
:10DFB40002D8FFF7DBFF10BD6FF01500FBE700BFD1
:10DFC40000ED00E02DE9F04F0F46144606464FF0F1
:10DFD40000084D4D85B0B84580F29280D6F8049083
:10DFE400B9F1000F36D0B9F11F0F40F2878019F054
:10DFF4001F0F40F08380D6F800A01AF01F0F7DD1C8
:10E00400504607F029F9834609EB0A00013807F066
:10E0140023F9834572D11BF1160F6FD05C456DDD7A
:10E02400C5F898B0D5F89C10C5F898B0D5F8A030CC
:10E0340021F01F0143F01F0AD6E900321A44994225
:10E0440002F1FF391ED1CA4508D131465FFA8BF07F
:10E0540007F00BF908F101080C36BCE73146C5F8A6
:10E0640098B0D5F89C3022F01F0203F01F0313432D
:10E07400C5F89C30E0B207F0F8F810F1160F3DD067
:10E08400441CE7E7C5F898B0D5F8A020013B23F07D
:10E094001F0302F01F021343CA453146E0B2C5F81C
:10E0A400A030E8D007F0E1F810F1160F26D0C5F83B
:10E0B40098B0D5F89C209DF808300AF1FF3A62F335
:10E0C40004038DF80830D5F8A0309DF808205B08CB
:10E0D40063F347128DF80820D6E900321344009305
:10E0E40023F01F035344A3EB0903013023F01F0360
:10E0F4006946C0B20393FFF753FFBEE76FF0150400
:10E10400204605B0BDE8F08F00ED00E00522044B89
:10E11400C3F89420BFF34F8FBFF36F8F704700BFD6
:10E1240000ED00E0BFF35F8F0022024BC3F89420A0
:10E13400704700BF00ED00E010B5034C2278FFF7F4
:10E1440041FF207010BD00BF30B800202DE9F74F0B
:10E15400294D8A4606464FF00008AB46274FD04566
:10E164001BDAD6F80490B9F1000F3FD031680846A5
:10E17400019107F071F80199044609EB0100013897
:10E1840007F06AF884424FF014021D4B08D002FBDA
:10E1940008F36FF015024BF8032003B0BDE8F08FCD
:10E1A40014F1160F2C60F8D01978A142F5DD02FBAA
:10E1B40008B0C7F89840C7F89840D7F89C4000F1D9
:10E1C4000801007B64F304000871D7F8A0000C79FF
:10E1D400400860F347140C71D7F89C1021F01F011C
:10E1E4006960D7F8A01021F01F01296108F1010826
:10E1F40014350C36B3E700BFD8AA002000ED00E0C8
:10E2040030B80020F0B54149414CD1F89030256830
:10E21400C3F307239D4287B075D80020FFF782FF20
:10E224003C4BC1F8C030854216D13B4C01A8257047
:10E23400FEF784FA00250646384FAE4213D100207B
:10E2440023783249D1F89020C2F30722934254DB59
:10E25400FFF75CFF00202FE0616801EB0011FFF77E
:10E2640085FE0130DFE70199280101EB0513DA6827
:10E274003A40B2F5001F21D0B2F5800F2BD0B2F591
:10E28400801F38D15A689B680958013B22F01F004F
:10E2940003440120844623F01F0340EA4C10CDE9D7
:10E2A40002218DF8100002A920780593FFF778FE6B
:10E2B40000281DDA6FF0150007B0F0BD5A689B689E
:10E2C4000958013B22F01F0003444FF0020C0120C7
:10E2D40023F01F03E1E75A689B680958013B22F0C9
:10E2E4001F0003444FF0000C062023F01F03D4E763
:10E2F40023780133237001359FE7C1F89830C1F8C2
:10E30400A00001339EE74FF0FF30D5E700ED00E0B9
:10E31400246E0200AAFF440030B800200000F0FF81
:10E3240008B5024B1B689847002008BDECAA0020E2
:10E33400034B044A1860937843F0020393707047C8
:10E34400ECAA00200CA1002008B50649064821F0DB
:10E354000701C1F1005202F5E02206F003FC00209F
:10E3640008BD00BF37DC0020F0AA002007B50DF17E
:10E37400070002F05DFF114B98421CD14FF48062FC
:10E384000F4B1049C3F8B8254FF40062C3F83C257D
:10E394009DF8070007F0E1FC0B499DF8070007F022
:10E3A400D7FC01209DF80730984002F03BFF002085
:10E3B40003B05DF804FB6FF00B00F9E70000AD0B50
:10E3C40000A002402CA0024028A10240052370B501
:10E3D400144D154E2C780134B4FBF3F303EB830393
:10E3E400E41A07F042FC114A137823B156F824309A
:10E3F400C01A072813D90E4BD3F8141141B10021C8
:10E40400C3F81411D3F814312C700CB90123137010
:10E414002C7807F02AFC46F82400012070BD002067
:10E42400FCE700BF32B80020FCAA002031B800206D
:10E434000050004048B1054B054A1B68B3FBF2F39A
:10E444005843044B43F0010318477047ECA10020E4
:10E4540040420F00106E02000B460121024AC2F82E
:10E4640014160021184700BF00500040014902481B
:10E4740006F049BC506E020010AB00202DE9F047B5
:10E48400174B0546D3F830210C46072AD3F834310C
:10E4940021D1023B032B02D8124AD35CDBB14FF0EB
:10E4A400010800264FF050290F4F0520C9F818869F
:10E4B400C7F8146607F04AFC4046C7F8148607F00C
:10E4C40045FCC7F81466C9F8186628462346BDE813
:10E4D400F047002118470022034BC3F81426F4E741
:10E4E40000F0072041710200005000401FB50023D6
:10E4F40001930393012369460548029306F016FC31
:10E50400029B9B0708BF039B05B05DF804FB00BF9B
:10E5140010AB00200146014807F02DBF34A30020B2
:10E524000149024807F08ABF54AB0020E8A4002048
:10E53400020600F07F0312D5082B05D1010700F075
:10E544000F0306D50E48704710F0780F12D100F073
:10E554000F034C2000EB43100A4B18447047082B60
:10E5640005D1020700F00F0306D50748704710F0E5
:10E57400780FF6D000207047044800EB4310704732
:10E5840078AC00202CAB002098AD002098AC002083
:10E5940000220023014804F05DBD00BF34A3002025
:10E5A40013B5002201213720FFF72CFC114800F09D
:10E5B40003FE114B98421AD10024104803F088FB43
:10E5C4000F4804F045FA4FF0FF334FF480620D49D1
:10E5D4000D48009404F0FAFE0C490B4804F05EFF69
:10E5E4000B480C4907F00EFF204602B010BD6FF037
:10E5F4000400FAE729E801000000AD0B50710200A5
:10E604005C6E020070BC0020E8A40020457102008A
:10E6140054AB002045E90100002310B50B49D1E8B3
:10E62400EF2F012A03D1C1E8E03F0028F7D10CD134
:10E6340051F8044C1439204606F0F3FB783004D129
:10E644002046BDE8104006F0C8BB10BD4CAB00200E
:10E6540038B5002464F07F00C0B2FFF769FF0134CD
:10E6640006F066FE082CF5D100240E4DE0B2FFF74B
:10E674005FFF036903B90561013406F059FE082CF4
:10E6840005F14005F2D1084806F052FE074BD3F8D5
:10E694007C2212B9064AC3F87C22064806F048FEDA
:10E6A400002038BDBCB1002078AC00202CAB002089
:10E6B400BCAD002098AD002010B5054CFFF768FFF5
:10E6C40020B14168204607F083FDF7E710BD00BF85
:10E6D400E0A2002007B5002300220E4801A904F09F
:10E6E400C3FB90B1FFF7E8FF00220023094801A90A
:10E6F40004F0BAFB38B90423019840600374FFF7AF
:10E7040009FFFFF70DFF002001E00198406003B00E
:10E714005DF804FBE0A2002010B50446FFF7DAFF21
:10E7240060B1002204720274FFF7F4FE044B93F804
:10E7340024301BB1BDE81040FFF7F2BE10BD00BF8E
:10E744002CAB0020012807B50FD002280ED048B901
:10E75400002200230848CDE9002345F69A1200233D
:10E7640005F0B8FC03B05DF804FB002003B05DF8CD
:10E7740004EBFFF7D1BF00BFA8A20020F8B587784B
:10E7840006463846FFF7D4FE3B060446F57812D514
:10E79400002D43D1FFF79EFF034600283ED00122FF
:10E7A400A5770274032202739C60FFF7B3FEBDE8F1
:10E7B400F840FFF7B5BE4DB1012D2FD1FFF78AFF09
:10E7C400034658B3657705740573EDE7FFF782FFD9
:10E7D40020B3B278124B12F0800F02F0080111D06E
:10E7E40041B1D3F8A836E3600123037402238460A3
:10E7F4000373DAE7142102F00F0201FB0233D3F8AA
:10E804000836F0E711B1D3F8A837ECE7142102F089
:10E814000F0201FB0233D3F80837E4E7F8BD00BF69
:10E8240000600340F0B5064689B01422002103A815
:10E8340007F0F6FF3378013B052B21D8DFE803F01E
:10E844007A0314146A16032300248DF81430FFF796
:10E8540041FF0346A0B100F108020474DDE905019B
:10E8640082E8030018461DE00423EDE7B778384634
:10E87400FFF75EFE837A044623B1013B022B43D9A2
:10E8840009B0F0BD3B06F57813D5002DF8D1FFF79C
:10E8940021FF03460028F3D00122A5770274032246
:10E8A40002739C60FFF736FE09B0BDE8F040FFF745
:10E8B40037BE55B1012DE3D1FFF70CFF0346002805
:10E8C400DED0657705740573EBE7FFF703FF0746B2
:10E8D4000028D5D00123037402238460037304F158
:10E8E4000C01B07806F088FD134AE168B2F88C3266
:10E8F4008B4206D95B1AA2F88C3200F0A9FF384685
:10E90400D0E7A2F88C52FAE7304609B0BDE8F040EF
:10E91400FFF734BF01A800F079FF9DF80530052BFF
:10E9240004D19DF8043013F0600FA9D0034B0124E7
:10E9340005938CE702248AE72CAB002098AC0020D6
:10E944002DE9F0438046AC4CDFF8B09285B0FFF778
:10E954001FFE074610B905B0BDE8F08394F82530D2
:10E964003A7C3BB9002A00F086807968A34807F016
:10E974002FFCECE7042A42D8DFE812F07D00050002
:10E98400FC0012012D013B7BBD68032B37D8DFE867
:10E9940003F0023D5A5F00226E69994B3260726047
:10E9A400D3F880143170D3F884147170D3F88814B8
:10E9B400D3F88C0441EA00217180D3F89014D3F881
:10E9C400940441EA0021B180D3F89814D3F89C341C
:10E9D40041EA0323F3800823EB6030687168894BB4
:10E9E40003C311462B68687A984796F90030002BC8
:10E9F40008DBF38833B1A4F88C3200F029FF4846D1
:10EA04007968B4E70023A4F88C32F8E76B7F002B15
:10EA1400F5D02B7F002BF2D000264FF0FF326E771B
:10EA24004FF0FF3378482E7706F095FC6B6901A907
:10EA340001936B68CDE90236687A00F013FC7248E2
:10EA440006F08BFCDBE701212B68687A9847D6E750
:10EA5400AB7A6BB9EB7F5BB96B484FF0FF324FF089
:10EA6400FF3306F078FC00F0F9FE674806F075FC09
:10EA740002212B68E9E73A7A042AC0D8DFE802F0D9
:10EA840055031F636F0000F057FB05460028B6D1FD
:10EA940000F004FB01235D49D1E8EF2F002A03D1E4
:10EAA400C1E8E03F0028F7D1A9D141F8085C41F85A
:10EAB400105CE0691439636106F038F99FE70025BA
:10EAC40065F07F00C0B2FFF733FD037A13B1407ADB
:10EAD40001F026F80135082DF2D194F854311BB118
:10EAE40094F8550101F01CF80025E8B2FFF720FD69
:10EAF400037A13B1407A01F013F80135082DF4D1EB
:10EB040094F874321BB194F8750201F009F80020EE
:10EB140000F0F6FA012384F825302368002B3FF433
:10EB24006EAF00210220984769E7002584F825503C
:10EB340000F05EFFFFF770FD2368002B3FF45FAF2A
:10EB440029460420EFE7002B3FF459AF00F0FEFA0A
:10EB54002368002B3FF453AF00210520E3E722682C
:10EB6400002A3FF44CAF002B3FF449AF00210620AC
:10EB7400904744E708F110054FF0FF334FF0FF32A0
:10EB8400284606F0E8FBFFF763FD284606F0E5FBA0
:10EB940058F8283C002B3FF432AF00210120C2E793
:10EBA40094F874327BB1012584F8895284F8885230
:10EBB400FFF790FD38B1164A057405738260FFF7BC
:10EBC400A9FCFFF7ADFC58F8283C002B3FF417AF25
:10EBD40000210A20A7E703F023FF00F009FF00F05B
:10EBE40053FAFFF769FDFFF733FD03F011FF0948FE
:10EBF40000F0E2FA03E700BF2CAB0020E0A2002003
:10EC04000060034030AB002064AB00204CAB00201C
:10EC140098AD002029E8010038B5154D95F8244039
:10EC240024BB05F1380007F01EFB022001F0DEF8DA
:10EC340022460121E8613620FFF7E4F803F0E8FEFC
:10EC4400FFF706FD044610B9012385F82430094B6B
:10EC54001B680BB1FFF764FC074BD3F80034DB07E8
:10EC640002D50020FFF76EFD204638BD0024FBE7E7
:10EC74002CAB002034A3002000700340074B93F812
:10EC840024203AB193F82530002B14BF00206FF0F4
:10EC9400120070476FF01200704700BF2CAB0020C9
:10ECA40038B5104B044693F82430C3B10578284690
:10ECB400FFF73EFC10B96FF0150038BD457223799B
:10ECC4008372638843602078618810F0080F02D152
:10ECD4004B1E0B42EFD106F08AFB0020EDE76FF0EC
:10ECE4001200EAE72CAB002038B5124B054693F826
:10ECF4002420CAB193F82530B3B1FFF719FC0446B8
:10ED0400A8B1837A012B12D007D9023B012B07D972
:10ED140000206369E060A36138BD00F0A5FDF7E75A
:10ED2400284600F047FDF3E76FF01200F4E76FF0B8
:10ED34001500F1E72CAB002038B50E4B054693F8CF
:10ED4400242082B193F825306BB1FFF7F1FB68B151
:10ED540015F008040AD1284600F04EFD284600F0BC
:10ED640017FF204638BD6FF01200FBE76FF0150067
:10ED7400F8E700BF2CAB002038B50C4B054693F8E0
:10ED840024200C4662B193F825304BB1FFF7D0FB39
:10ED940048B144B1284600F015FD2070002038BD6C
:10EDA4006FF01200FBE76FF01500F8E72CAB0020C2
:10EDB40070B5134E044696F82430C3B1FFF7B8FB80
:10EDC4000546B8B1230705D4204600F015FD2046BA
:10EDD40000F0DEFE2B7A83B901232B7296F82530DE
:10EDE4000BB9002070BD204600F09AFEF9E76FF0E1
:10EDF4001200F7E76FF01500F4E76FF07700F1E722
:10EE04002CAB00202DE9F043DFF8E4801E4698F88F
:10EE1400243007468946154685B0002B61D098F802
:10EE24002530002B5DD003065ED5FFF781FB044639
:10EE3400002859D0037A002B56D04FF0FF334FF0FF
:10EE4400FF3208F1380006F086FAA37F4BB108F1CF
:10EE5400380006F082FA6FF00A04204605B0BDE8D7
:10EE6400F083A37AC5B13BB301234FF00008A37725
:10EE7400384601A9CDE90195CDF80C8000F0F2F9EE
:10EE84001C4B984229D084F81E801EBB6FF00404EA
:10EE9400194806F062FAE0E7E27F02B1E577002B59
:10EEA400E2D100F0E7FC8742DED000F0D7FC124844
:10EEB40006F053FA0024D0E7B8F80A30AB42F0D990
:10EEC4006268B5FBF2F302FB1353002BE9D1012373
:10EED400E377E6E7C6F80080D8E706B1356000249A
:10EEE400D6E76FF01204B8E76FF01504B5E700BF7A
:10EEF4002CAB00200000AD0B64AB00202DE9F041E9
:10EF04001D46204B174693F824200E46002A33D082
:10EF140093F8253083B3030631D401B97FBBFFF7DF
:10EF240007FB044658B3037A4BB34FF0FF334FF05B
:10EF3400FF32154806F00FFAE368BB42984628BF33
:10EF4400B84646B93FB905B12B600F4806F005FA3B
:10EF54000020BDE8F08142463046A16907F053FC29
:10EF6400A3694344A361E368A3EB0803E360002DB2
:10EF7400EBD0C5F80080E8E76FF01200E9E76FF026
:10EF84001500E6E72CAB002064AB002070B51E4DE5
:10EF9400034695F8242082B395F825206AB31B060E
:10EFA4002ED4FFF7C5FA044650B3037A43B34FF0A7
:10EFB400FF334FF0FF3205F1380006F0CCF9E36877
:10EFC400B3B9012663692677A361637F83B1FFF731
:10EFD40081FB30B905F1380006F0BFF96FF00B0082
:10EFE40070BD067484600673FFF794FAFFF798FA0D
:10EFF400064806F0B2F90020F2E76FF01200EFE7DE
:10F004006FF01500ECE700BF2CAB002064AB0020D0
:10F0140010B5084B0C4693F824302BB1FFF788FA4F
:10F0240028B10460002010BD6FF01200FBE76FF000
:10F034001500F8E72CAB0020014B1860704700BFA7
:10F044002CAB002008B5074B93F8243023B1FFF70D
:10F054006FFA20B1406808BD6FF01200FBE76FF053
:10F064001500F8E72CAB0020064B10F0800FA3F13D
:10F07400D80208BF1346182200F00F0002FB00302C
:10F08400704700BFD4B400200023024A1360024A30
:10F0940013707047B4B5002037B800204FF40062F5
:10F0A400114BC3F800240122C3F80025D3F800242F
:10F0B4001205FBD54FF40062C3F800248022C3F884
:10F0C4001C250122C3F8302540F2FF12074B1A60B9
:10F0D4000023074A1360074A1370074A1370022279
:10F0E400064B1A70704700BF00600340B0B50020A3
:10F0F400ACB5002033B8002035B8002037B8002064
:10F104000022094B10B51A70084A094B094C002813
:10F1140008BF13463620C4F80033FEF743FE01232C
:10F12400C4F8043510BD00BF36B80020FDFFDF0170
:10F13400FDFFFF0100600340034B1878012894BFD2
:10F1440000200120704700BF37B8002010B54FF0F1
:10F15400FF324FF0FF33154803F0E2FFEFF3118164
:10F16400202383F31288BFF36F8F114B1B7803F0B6
:10F17400FF0483B10F4BD3F8002412F400720AD1B8
:10F184000120C3F82C05D3F82C05D3F8000480051E
:10F1940002D5C3F82C25002481F31188BFF36F8FA7
:10F1A400024803F089FF204610BD00BF24A30020BD
:10F1B40036B8002000600340F8B51C4B1C7894BBA3
:10F1C4001B4A40F2FF171060012226461A7064F0B1
:10F1D4007F0514F0080FEDB214BF394640212846CC
:10F1E40006F005F92846FFF73FFF0134092C867520
:10F1F40006730661EBD1002440F2FF17254614F094
:10F20400080FE6B214BF39464021304606F0EFF845
:10F214003046FFF729FF0134092C85750573056114
:10F22400EDD10448F8BD0448FCE700BF37B800201E
:10F23400B4B500200000AD0B0500AD0B084B10F079
:10F24400800F14BFD3F81025D3F81425012300F040
:10F254000F018B40134214BF01200020704700BFF0
:10F264000060034002462DE9F843EFF311872023A1
:10F2740083F31288BFF36F8F030703D1194B1B78F5
:10F2840083422AD1184B10461C684FF00109E4430D
:10F2940006F0A5F8154EA4B2356809FA00F82C4317
:10F2A40014EA08041BD11046FFF7DEFE034680F87B
:10F2B4000C9007C983E807004FF480021C619C7519
:10F2C4000B4B45EA08050B483560C3F8042187F366
:10F2D4001188BFF36F8FBDE8F8830748F7E7074845
:10F2E400F5E700BF35B80020B0B50020ACB500206C
:10F2F40000E100E00000AD0B0A00AD0B0B00AD0B0C
:10F3040010F0080F074B06D0D3F8C00410F4803F68
:10F3140018BF0020704700F00F0000F5947053F8F8
:10F3240020007047006003402DE9F04FAB4BAC4F19
:10F33400D3F8542185B0DAB10022C3F85421D3F8AC
:10F344000413890214D58DF80C20D3F8202503A8C2
:10F35400ADF80E20D3F8C034002B14BF4FF00122B7
:10F364004FF480723B6813433B609E4B1B68984785
:10F374009A4BD3F8604134B10022C3F86021D3F82A
:10F384006C44C3F86C44D3F828214AB10022C3F872
:10F394002821954B187806F022F8012383401C435A
:10F3A400DFF84882924E98F8005098F9009015F0D2
:10F3B400080141D1B9F1000F05F00F032CDA8D4A91
:10F3C40052F8230010B342F823101422534303F1DC
:10F3D400804303F55833D3F80836874A03F0010312
:10F3E40011784B401370854803F066FE2846FFF7FA
:10F3F4003BFE837D032B37D1284605F0F0FF012324
:10F4040003FA00F0336823EA0003336001254FF068
:10F414000609DFF8D0A15DE0794A52F823000028FC
:10F42400F4D042F823101422534303F1804303F52C
:10F434005833D3F80837D0E7B9F1000F674B09DB2D
:10F44400D3F85021002AE1D00022C3F85021D3F888
:10F45400A837C2E7D3F82C21002AD7D00022C3F85A
:10F464002C21D3F8A836B8E7037BDBB9284605F08E
:10F47400B6FF012303FA00F03368B9F1000F23EA61
:10F484000003336001DA882DC0D106238DF80C30D7
:10F4940000238DF80F30534B8DF80E501B6803A8D2
:10F4A4009847B3E7002DB1D101224C4BDA64ADE7A4
:10F4B40094FAA4F0B0FA80F03A6805FA00F31A431B
:10F4C4000F283A6024EA0304326840F39D80134213
:10F4D40000F0AA80002CEBD1404BD3F800215AB1A4
:10F4E400C3F80041474B03A81C703F4B1C70012319
:10F4F40003933C4B1B689847384BD3F85821002A98
:10F504002ED00022C3F85821D3F80044C3F8004495
:10F51400E30508D501223B4B03A81A700223039389
:10F52400304B1B689847A50508D50022354B03A826
:10F534001A70032303932B4B1B68984760050FD560
:10F54400304B1A7862B100221A700122234B03A8AF
:10F55400C3F808259A6504230393224B1B68984734
:10F564001E4BD3F85C3103B3244B9B681BB998F84A
:10F574000030590619D00022184B03A8C3F85C21A7
:10F58400D3F88034184A23F07F031370336823F0D0
:10F59400011333603B6823F4803343F001033B6081
:10F5A400052303930F4B1B68984732683B681A4244
:10F5B40000F0938000220023104803F0B1FD0028DE
:10F5C40040F08B80054BD3F82C35002B00F0A8803D
:10F5D4000A4805B0BDE8F04F03F06EBD006003407B
:10F5E400B0B50020B4B5002035B8002034B80020F0
:10F5F400ACB500200861034033B8002024A30020E8
:10F604003061034036B8002013407FF463AF60F0EC
:10F614007F018DF80C908DF80E108DF80F30DAF80C
:10F62400003003A8984755E7A0F110018DF80C901D
:10F634008DF80E108DF80F50F1E749F0800528463B
:10F64400FFF712FD4368B0F814B001689B4528BF6A
:10F654009B4601F06043B3F1005F044604D05A4670
:10F66400514807F0D0F85049226863685A44226030
:10F67400A268A3EB0B03D20768B2636005D5BBF1A4
:10F68400000F04D10023237301E0002BFAD00122E0
:10F6940002FA09F92AEA09033B60236915F0080F05
:10F6A4005B44236188F80050404B6FD100284FF031
:10F6B400140005F00F0500FB0530B5BF03EB85030F
:10F6C4000A35C0F80016C0F80017B5BFC0F804B674
:10F6D400C0F804B75A6043F8252005B0BDE8F08FA0
:10F6E40061464FF0000B70454AD1003A18BF012221
:10F6F400BCF1000F46D0584544D9012202FA09F260
:10F7040023EA02033360062302218DF80C30284BD0
:10F71400A1751B688DF80E508DF80F1003A898473B
:10F724003368D7F800A013EA0A093FF451AF19F07F
:10F73400012214BF92FAA2F999FAA9F9B9FA89F93E
:10F74400B9F10F0F01937FF678AFA9F11005EDB26F
:10F754002846FFF789FC04462846FFF7D1FD626876
:10F76400B4F814E09042D4F800C0019BB8D800EB80
:10F774000C0B121AC4F800B0614683466260B2E70B
:10F784000022B5E768B2002A81D17BE70028B5BF23
:10F79400C3F8A016C3F8A017C3F8A4B6C3F8A4B757
:10F7A400B4BF5A629A6498E7BCB300200060034077
:10F7B400B4B50020024B40F48070C3F818057047BC
:10F7C40000600340030713D400F00F0310F0800F10
:10F7D400084A0BBF03F5887303F5847302EB8302B5
:10F7E40052F8230008BF5068003818BF0120704742
:10F7F4000020704700600340034BC3F80C0540F43D
:10F804008070C3F80C057047006003400023036058
:10F8140043600E4BD3F880240270D3F884244270E2
:10F82400D3F88824D3F88C1442EA01224280D3F816
:10F834009024D3F8941442EA01228280D3F89824C5
:10F84400D3F89C3442EA0323C3807047006003402A
:10F854000122014BDA647047006003400122014B2E
:10F864001A657047006003400122014B5A657047D6
:10F8740000600340014B1878704700BF35B8002082
:10F88400024610B5EFF31184202383F31288BFF3EB
:10F894006F8F05F0A4FD01230A4903FA00F00B68F9
:10F8A40023EA00030B6012F0080101BF02F00F020B
:10F8B400054B02F5947243F8221084F31188BFF3C8
:10F8C4006F8F10BDB0B5002000600340F7B501464E
:10F8D400EFF31185202383F31288BFF36F8FFFF7B3
:10F8E400C3FB0646084605F07AFD012211F0800F9D
:10F8F40002FA00F22D4818D1036832EA03040AD050
:10F904000846FFF7BDFF0323B37585F31188BFF3E2
:10F914006F8F03B0F0BD264923EA020303600B682E
:10F92400347323EA02030B60EDE70B0715D4802937
:10F93400204B2FD001F00F0404F2DA346400C3F832
:10F944000048D3F80448D3F80478E4B244F002043D
:10F954003C43C3F80448D3F80438154F04683B68A3
:10F9640064EA030C1CEA020FCFD013433B6000236C
:10F974003373032324EA02040622B3758DF8073097
:10F984000D4B04601B688DF804208DF8061001A847
:10F994009847BAE740F2B474C3F80048D3F804486F
:10F9A400D3F80478E4B244F00404D1E7ACB5002001
:10F9B400B0B5002000600340B4B5002038B504465B
:10F9C400094D4FF0FF324FF0FF33284603F0A8FBF8
:10F9D4002046FFF77BFF284603F06EFB4FF48002BE
:10F9E400024BC3F8042138BD24A3002000E100E049
:10F9F400F8B54FF0FF324FF0FF332A4803F090FB85
:10FA04004FF48002284B3620C3F88421FEF7ECF92A
:10FA140098B10127254E264B34681B68240C240416
:10FA24001C4354BB40F2FF13224D33603620C5F80B
:10FA34000445FEF7C5F9C5F800431F4A13788BB196
:10FA440000211C4BC3F808110121C3F80026C3F898
:10FA540004165960D3F808110029FBD00021C3F81B
:10FA6400081111700022134BC3F800250D4803F050
:10FA740023FB0122114B1A70F8BD94FAA4F5B5FAD0
:10FA840085F528460F2DC6BFA5F11000C0B240F081
:10FA94008000030701D4FFF719FF07FA05F524EAEC
:10FAA4000504BEE724A3002000E100E0B0B5002077
:10FAB400ACB500200060034033B8002037B8002004
:10FAC40010B504464FF0FF324FF0FF33114803F0F6
:10FAD40027FB2046FFF7FAFE012304F00F029340B0
:10FAE400DB430D4A14F0800F15BFD2F81015D2F87D
:10FAF40014150B400B4014BFC2F81035C2F814356E
:10FB0400044803F0D9FA4FF48002044BC3F80421EB
:10FB140010BD00BF24A300200060034000E100E00A
:10FB240070B50446FFF78AFB68B9012504F00F029B
:10FB340014F0800F144B05FA02F205D0D3F8101517
:10FB44000A43C3F8102570BDD3F814150A43C3F84B
:10FB54001425631E062BF6D8EFF31186202383F3B6
:10FB64001288BFF36F8F2046FFF78AFE204605F008
:10FB740036FC064A8540136823EA0503136086F3BE
:10FB84001188BFF36F8FDEE700600340ACB500203F
:10FB9400030610B5044605D4FFF714FE10B1204641
:10FBA400FFF76EFE014BC3F8184510BD006003401B
:10FBB400084B70B5C31A0D4607499B1004465943B8
:10FBC4004022064805F037FC2B4601462046BDE896
:10FBD40070401847CCB50020B76DDBB6F46902005D
:10FBE400402373B50B4C0093041B0B460D460A4986
:10FBF400A41061430646094A094805F048FC011E61
:10FC040005DA30462B4602B0BDE87040184702B012
:10FC140070BD00BFCCB50020B76DDBB6FD5402004B
:10FC2400F469020010B5EFF31184202383F31288E2
:10FC3400BFF36F8F074A136823F00201DB071160DB
:10FC440002D4012006F08EF884F31188BFF36F8F7D
:10FC540010BD00BF6CB600202DE9F843002201213D
:10FC640006460520FEF7CEF8114801F065FB114B5E
:10FC7400984219D101F070FB00244FF01C090C27A5
:10FC8400DFF834803569414609FB045005F03BF840
:10FC9400002807DB012307FB04551C44042CAB6735
:10FCA400F0D10020BDE8F8836FF00400FAE700BF4C
:10FCB400BDFD01000000AD0B646E02001FB5002203
:10FCC4000123CDE902236B46084ACDF800D0CDF8D4
:10FCD40004D005F00AFC002805DB4FF48042002321
:10FCE400684603F01DFA05B05DF804FB33550200C5
:10FCF4000C22104B014602FB0033002030B4D3E940
:10FD04001C521867EFF31180202484F31288BFF388
:10FD14006F8F9C6F04F0C00444F002049C6780F36E
:10FD24001188BFF36F8F1DB12B4630BC02481847B2
:10FD340030BC7047CCB50020F469020010B4EFF376
:10FD44001182202383F31288BFF36F8F1748016851
:10FD540041F002040460C80707D482F31188BFF39A
:10FD64006F8F012010BC01F013BB1149D1F80C04B2
:10FD7400D1F80C14C907F0D5EFF3118083F312887E
:10FD8400BFF36F8F0B498B6F03F0C00343F0020383
:10FD94008B6780F31188BFF36F8F82F31188BFF3F1
:10FDA4006F8F002010BCFFF7A3BF00BF6CB600200C
:10FDB40000500040CCB50020092813D8DFE800F03B
:10FDC40005101212121212120E0C074B986F10F03B
:10FDD400070007D1FFF78CBF0220FBE70320F9E7F8
:10FDE4000120F7E7704700BFCCB50020C3B21C2048
:10FDF400014A03FB00207047CCB500202DE9F041F7
:10FE0400012207463449D1E8EF3FC1E8E02F00283A
:10FE1400F9D133B9314932484B60CB608A6004F080
:10FE240085FF7B1E012B28D8012F06D12D4BD3F83B
:10FE34001C3403F00303022B1FD006F01BFB054602
:10FE4400E8B9294B1B78D3B102220646254BC3F8E7
:10FE54000823244CDFF89480D4F81824D4F81834F8
:10FE6400D20315D503F00303022B01D0012F0FD1C8
:10FE74006DB386F31188BFF36F8FBDE8F081EFF3A4
:10FE84001186202383F31288BFF36F8F0125E0E7E7
:10FE9400C5B1304605F0C4F9D4F81835DBB2012BEE
:10FEA400DAD1D4F80421002AD6D00022C4F80421DF
:10FEB400D4F804210222C4F818252022C8F880218D
:10FEC400A360C9E70021212006F070FBE4E70222C9
:10FED400044BC3F80423D0E7C8B50020B8B500200C
:10FEE400E8B50020005000406AB8002000E100E0BE
:10FEF40008B5074806F01FF938B10648FEF718FAA6
:10FF04000448FCF7D5FA002008BD6FF01200FBE7A7
:10FF1400306A02001DFF01000A2838B50446074D67
:10FF240004D1AB680D2128465B689847AB68034849
:10FF34005B68E1B29847204638BD00BF306A0200D2
:10FF4400F0B5406801F01F04057B87B044EA45140E
:10FF54000569002D63D0B2F5001F00F1100506D12C
:10FF64002146284605F08FFF002007B0F0BD00278A
:10FF7400B2F5800F01AE0197776039D1B3F1007FFC
:10FF840014BF052304238DF804300023CDE9046352
:10FF94000393836823FA01F111F001011AD1B2F13C
:10FFA400A07F17D104F01F03620903F180032AD054
:10FFB400012A3AD11E4A52F82330DB070AD40DF144
:10FFC400030632462146284601F0EEFC194B9842BE
:10FFD4001BD002962146284603AA01F0A1FB164B2A
:10FFE40098421FD101222146284601F03FFDBBE77C
:0CFFF400B3F1C06F05D0B3F1007F14BF63
:020000022000DC
:1000000001230223C1E70323BFE70D4AD5E73146A9
:10001000284601F027FD094B9842DCD06FF00B0019
:10002000A5E76FF08500A2E76FF015009FE751F894
:100030002330FFDE002884400400AD0B0000AD0B30
:100040000025844038B545682B69B3B11035284682
:1000500001F0F8FC044680B90146284601F0C0FCD6
:10006000084B98420BD122462846074901F098FCDC
:10007000224605212F20FDF7C7FE002038BD6FF076
:100080000400FBE70000AD0B8D00020042090346AF
:1000900070B502D0012A17D070BD0D4E326951687B
:1000A0000029F9D0012503F01F030C689D400029A9
:1000B000F2D08A682A4002D030464B6898472CB16B
:1000C000236821461C46F2E7024EE7E72346F8E79D
:1000D0001C6A0200086A02002DE9F04340F206356E
:1000E0004668D00648BF0320337B02EA050558BFA7
:1000F000C2F3401087B001F01F07B5F5837F1446A7
:1001000047EA43178DF8030044D00FD8062D18D0C6
:1001100007D8B5B1022D3FD06FF0150007B0BDE88C
:10012000F083B5F5807FF7D101250AE040F2022285
:10013000954233D0B5F5407F32D0B5F5007FEBD195
:1001400002250123220303FA01F12BD5736899607C
:10015000326972BB07F01F037F0928D0012F75D1C8
:100160003C4A02EB830284F48033D2F80012C3F3DA
:100170000043C4F3404444EA430421F4706144EA78
:10018000800421F00F0144EA05230B43C2F800323A
:100190000020C3E70725D4E70425D2E70525D0E7EB
:1001A0000325CEE7630344BF7368D960D0E72A4ACA
:1001B000D7E71036394630460DF1020201F0F6FB62
:1001C00014F4403F80460CD13946304605F05BFEC2
:1001D000224B9845DCD130469DF8021001F03CFCE2
:1001E000D6E74FF0000901AB3946304603AACDE906
:1001F0000439CDE90199CDF80C9001F093FA174B31
:10020000984289D114F4003315D09DF8033084F45A
:100210008034C4F300448DF80E3039464B463046E6
:1002200003AA8DF80C508DF80D4001F037FB0B4BF5
:100230009842CDD070E7CDE9043339460DF1030380
:10024000304603AA039301F06DFAF0E7803352F8C9
:100250002330FFDE00288440002584400000AD0BE1
:10026000082230B50C4685B005460B490DEB02005F
:1002700005F046F8082C28BF0824039B22461BBA29
:100280000093029B69461BBA2846019306F0BDFA0B
:10029000204605B030BD00BF0402FF0002780B69A4
:1002A000012A08D0022A08D04AB9064A1A6203F184
:1002B000100002F003BF044AF8E7044AF6E7044AD4
:1002C000F4E700BF0000AD0B0100AE0B0200AE0B67
:1002D0000100AD0B2DE9F04F87B004934368D0F8CF
:1002E00010B0D3F828809B8B174603934FF0FF3252
:1002F0004FF0FF3305460C4605F083F90BF1100370
:1003000002930026002300220BF1100002F00AFFE6
:100310003346BE4201D300234DE0207A010776D454
:100320000136BE4221680BD2820709D4227D80EAC1
:10033000020C0CF0010C02F004025CEA020C08D082
:1003400023B901F06042B2F1005F1AD04FF000090A
:1003500001E04FF001096268DDF80CE003EB020CEC
:10036000F44557D8C00705D408EB0300059306F001
:100370004CFA059B62681A4493B2B9F1000F2FD171
:1003800013BB4FF00009D4F800A0A388049A217A87
:1003900028460092524600F063F8031E0BDB4FF430
:1003A00080420023029802F0BDFE80B1284600F092
:1003B00037F86FF004032846029305F025F9029BF5
:1003C000184607B0BDE8F08F9946C246DEE7DBF875
:1003D0002030124A9342ECD1237ADB0702D4002367
:1003E0000C3496E7C245FAD1A24609E0A9EB020116
:1003F0001FFA81F9DAF80C0018FA81F106F005FA13
:10040000DAF80420AAF10C0A9145EFD2E7E76FF081
:100410008503D0E76FF01B03CDE700BF0000AD0BF5
:1004200070B5446823682046D3F80855D3F80C65A6
:1004300002F066F83146284602F05AFB05460021D4
:10044000606A05F0E4F8204602F04AF8034B9D424A
:1004500014BF6FF00F00002070BD00BF0000AD0B97
:10046000F0B50C461D46164687B04768122200219B
:100470000DF1060006F0D6F904F001038DF8043002
:10048000BDF8303002958DF80530BB8D0496AB4237
:1004900014D384F00202C2F340023846520101A98B
:1004A00002F04CF8084B98420BD00B33984214BF23
:1004B0006FF004006FF00F0007B0F0BD6FF01B008D
:1004C000FAE70020F8E700BF0000AD0B38B504469E
:1004D00045682B6A98470121686A05F098F8234619
:1004E0002846AA6905F1080101F0C0FF064B9842B1
:1004F00006D10121204605F0B6F800EAE07038BDCB
:100500006FF00400FBE700BF0000AD0B036803F0D1
:100510001F025B09026004D0012B034818BF0020B2
:1005200070470248704700BF00288440002584407F
:100530002DE9F04F1546834640F2FF18DFF874911D
:10054000DFF874A185B000EB8101594503D100208B
:1005500005B0BDE8F08FDBF80030C3F3C322082AF2
:10056000C3F3080400F2A0801B0E043B444508BFFF
:100570004FF0FF3419F802701E2B00F29880DFE86C
:1005800003F0101726969696962D5A96969696965E
:10059000969696965D676A6D969696707685888B28
:1005A0008E00601CC5F808457CD10BF1040BCCE72C
:1005B000621CC5F80C45F8D0012603A80394FFF788
:1005C000A5FF0122039B02FA03F3C3600FE0C5F805
:1005D0001045631CE9D00026002208E0C5F8084554
:1005E000002FF6D1631CE0D0002606273246DBF848
:1005F0000030039403F40040002818BF002203A831
:1006000018BF012601930092FFF780FF039C019B16
:1006100000EB8400D0F80042C3F3412C009A3B0267
:1006200043EA8C03134304EA0A04234343EA4603E0
:10063000C0F80032B9E7C5F80C45D1E7C5F8604508
:10064000661CDBF80030B0D0C3F300439BB9B3E7BE
:10065000C5F86445F4E7C5F86845F1E7C5F86C45A9
:10066000EEE7C5F82445601C9FD00126B4E7C5F825
:100670002845621C99D0012603A80394FFF746FF82
:10068000039B324606FA03F38360B0E7C5F83045B2
:10069000E9E7C5F83445E6E7C5F83845E3E7C5F8C6
:1006A0003C45E6E7002688E76FF0150050E76FF05D
:1006B00085004DE77D710200F0F0FCFF38B570B1A8
:1006C0004FF400450021064C0023E0FB0541054A9C
:1006D0002046FBF73FFDBDE8384005F069BF38BD57
:1006E0003F420F0040420F002DE9FF4105690646D9
:1006F000D0F80480A86C2B6D002835D1002B53D086
:10070000B8F838406A6C9C4228BF1C46EF6CEB6C12
:1007100053B1296D41B107F06041B1F1005F03D0E1
:10072000082C28BF08246F6E00926A6CAC651AB161
:10073000AA6C002A18BF2246CDE901271BB12B6DF8
:10074000002B18BF2346002269464046039301F060
:1007500087FD184B984229D06FF00401304604B051
:10076000BDE8F04105F0E5B9696CEF6C0A46B8F8F0
:100770003840ABB1834228BF03469C4228BF1C4689
:100780000029C4D001F06043B3F1005FBFD0082C52
:1007900028BF0824286E224606F037F82A6EB6E7EE
:1007A000844228BF0446EBE71946D7E704B0BDE80A
:1007B000F08100BF0000AD0B2DE9F04F8FB0019329
:1007C0004368884602938B880746990491460469DA
:1007D0002CD44FF0FF324FF0FF3304F1100002F041
:1007E000A1FCC4F80480D7F810A0D7F804B09AF898
:1007F0005D30DBF808C023B1DAF80030984500F02E
:10080000BA80B8F804E01EF4006F16D06FF08505CA
:1008100023689B8813F4005304D1636004F1100033
:1008200002F04CFC28460FB0BDE8F08FA369002B06
:10083000CFD163689845CCD1D5E71EF0090F02D01F
:100840006FF01505E4E7CEF34513082BF8D1D8F87F
:1008500000300393039A994B9A42F1D9984B9C45E7
:1008600006D9984AD2F8582512F0030F18BF9C46B3
:1008700004AD0BF10C060FCE0FC50FCE0FC5039BB9
:1008800096E80300634528BF63469C468E4B85E887
:1008900003009C4517D28A4B9C4514D28B4B9C4538
:1008A00011D28B4B9C4548D88A4B9C4547D88A4BE4
:1008B0009C4546D8894B9C4545D88949894B8A4AED
:1008C0008C4588BF13461EF0020F09930EF00403F7
:1008D0003BD0002B14BF032302238DF82830CEF326
:1008E00000138DF82930DBF800301EF0020FD3F82A
:1008F0000825CEF340014FEA521302F01F022AD11D
:100900003BB3012B40F0D480784901239340CB6066
:100910009AF85D302BB1584601F05AFC00238AF852
:100920005D303B465846724A04A901F01DFC714BEC
:1009300098421BD06FF004056AE76F4BC3E76F4B1B
:10094000C1E76F4BBFE76F4BBDE7003B18BF01230B
:10095000C3E76D49D9E73BB1012B40F0AB80634958
:10096000012393408B60D3E76749F9E70123CAF875
:1009700000808AF85D30012384F85C30029B196C9A
:100980004A1C03D003F1440005F03DF9B9F1000F12
:1009900068D1C4F834900023A36304F1480204F141
:1009A000380104F1340004F0EFFF019B6064002B78
:1009B00060D1E3630023236404F1500204F1400199
:1009C00004F13C0004F0E0FF002501212A46E06428
:1009D0002563204605F00FF83846FFF785FE2A46C6
:1009E0002B46A06B83424DD100231946256CA942AA
:1009F0004FD1934238BF134626464FF4FA524FF078
:100A0000000802FB03F556F8203B4FF4004C1B682E
:100A10004146B5FBF3F540F2E730C8354FF47A7242
:100A20000023E5FB0C01FBF795FB02460B46304625
:100A300002F078FB024618B9256B15F1740F2FD11F
:100A40000298C4F8588001F0C3FB6FF07301384678
:100A500084F85D8005F06DF8304602F089FB6FF098
:100A60007305D5E6D9F800306363002B93D0D9F82D
:100A7000043091E7019B1B68E363002B9AD0019B34
:100A80005B6898E7616B01EBC301496801330A4475
:100A9000A8E7E06B00EBC100406801310344A6E722
:100AA000002D3FF4B5AE0146386904F0A4FFAFE66F
:100AB000C960FFDE00239B60FBE700BF47E8010041
:100AC0000024F400005000400048E80100127A00C1
:100AD000FF083D007F841E003F420F001FA107005A
:100AE0008FD0030048E8010090D003000028844024
:100AF000555B02000000AD0B00093D0080841E0024
:100B000040420F0020A107000025844000F01F0292
:100B100040090DD001280DD1094B03EB8203D3F816
:100B20000002084A024042EA8102C3F800227047EC
:100B3000054BF2E70023803253F82230FFDE00BF7E
:100B400000288440F0F0FCFF002584400123F0B52C
:100B500087B08DF80230022300248DF804306B44F6
:100B600003930F4601AB0DF1030104930546029177
:100B7000059400F077FF0C4B064698420FD139469A
:100B8000284603AA00F0CEFDB0420BD028469DF8BF
:100B9000031000F061FF6FF0040007B0F0BD6FF0CC
:100BA0001200FAE72046F8E70000AD0B012383406E
:100BB00070B5DC430B4AD2E8EF1F01EA0405C2E836
:100BC000E65F002EF7D14FF4803282400648C0F82D
:100BD0000823BFF35F8FBFF36F8F0B4214BF012059
:100BE000002070BDE0B600200050014070B40E49F6
:100BF00022F07F46D1E90034D01AC31844F1000432
:100C0000C1E90034A6F50013B3F5400F09D2074B34
:100C10001B681A0A1B069C19054B42F10005C3E923
:100C2000004570BC03F072B9D0A50020E4B60020E6
:100C3000D8A50020D9B101230D4A8340D2E8EFCFD7
:100C40004CEA030CC2E8E1CF0029F7D14FF480331E
:100C5000084A8340C2F80433074BD3E8AF3FC34090
:100C6000DB0742BF4FF40012044BC3F8002170476A
:100C7000E0B6002000500140DCB6002000E100E0BA
:100C80000D4B1868010A0006BFF35F8F0B4BD3F8BA
:100C90000435181841F10001B3F5801F0AD2084B42
:100CA000D3E90023904271EB030303D210F180706B
:100CB00041F10001704700BFE4B600200050014040
:100CC000D8A500202DE9F04F85B016461F460446F2
:100CD0009DF840A0FFF76AFF0190FFF7D1FFB042F7
:100CE00071EB070352D23B4B301A67EB010198427C
:100CF00071F100014DD2384B03EB0413D3E9022309
:100D00009F4208BF964258D04FF48038334908FAC2
:100D100004F8204626F07F4BC1F8488304F09BFF7F
:100D20004FF00309584604F15005AD00ADB205F18E
:100D3000804504F5A87305F5A8350293029A20F0C2
:100D40007F4341F82230C1F84483D1F80435244A66
:100D5000C01A033820F07F4090422ED9286868B12D
:100D6000D1F80435A3EB0B0020F07F40B0F5000F65
:100D7000039322D9204604F06EFF039BBAF1000FC3
:100D800007D109EB030009F10109D7E7BAF1000F18
:100D900009D06FF0150520460199FFF74BFF284653
:100DA00005B0BDE8F08F01230E4AA340D2E8EF0F53
:100DB0001843C2E8E10F0029F8D107490E98230132
:100DC000C8500F9B01EB04120025C2E90267536073
:100DD000E1E700BF01008000C0A5002000500140F5
:100DE000FDFF7F00DCB600207FB500254FF0FF300F
:100DF0004FF0FF31194C1A4B0226C4F80833C4F8DF
:100E00004833184BC4F80855C3E902014FF4803346
:100E10004FF40012C4F80433134B0121C4F80463E7
:100E20001520C3F880212A46FCF7EEFF1520FCF7B9
:100E3000BBFF01230D4AA360236013600C4B0D4AD6
:100E4000009328460023CDE90155FFF73BFF3046CC
:100E5000FEF7D6FF284604B070BD00BF0050014029
:100E600003000F00C0A5002000E100E0E0B6002074
:100E7000ED0B0200FFFF7F002DE9F7432E4BD3F867
:100E8000042390070BD5D3F8042142B10022C3F804
:100E900004212A4AD3F80431136801331360264A27
:100EA000D2F80433D90326D5254BD3E8EF1F21F020
:100EB0000100C3E8E40F002CF7D1CB0702D4D2F82D
:100EC0004031C3B100251C4CC4F84051D4F8403126
:100ED000FFF7D6FEEFF31182202383F31288BFF3CE
:100EE0006F8F184BD3E90267B042B94106D282F343
:100EF0001188BFF36F8F03B0BDE8F0834FF0FF3868
:100F0000D3E900104FF0FF391D60C3E902894FF4A7
:100F10008033C4F84833C4F84051D4F8403182F3E8
:100F20001188BFF36F8F0029E5D0009032463B4611
:100F300028468847DFE700BF00500140E4B60020A4
:100F4000DCB60020C0A5002030B5431C124C85B093
:100F500005D08442A8BF0446012CB8BF0124FFF786
:100F60008FFE0E4B0C4DD3E90013401AB0F5000F65
:100F70000FD22218AA4228BF2A4600205218084938
:100F8000CDE90100009143F10003FFF79BFE05B09E
:100F900030BD2A46F1E700BFFFFF7F00D0A500204B
:100FA000ED0B020008B5FFF76BFE024B1B68C01A81
:100FB00008BD00BFD0A500200149024804F06ABE68
:100FC00085100200E8B600202C4A00F00800136FDC
:100FD000072B2BD0132B1CD0052B3AD1526D12F4BA
:100FE000805F14BF1723162312F4006F18BF182355
:100FF00012F4007F1EBF224B9B6B192312F4806FEB
:1010000018BF1A2312F4807F25D112F4005F18BF95
:101010001C23CA6968BBC2F3080020B96FEA5222D8
:101020006FEA4222CA61184604F0C0B8D36DDA07ED
:1010300013D49A0713D45A0713D41A0713D4DA0611
:1010400013D49A0613D413F0800F14BF2C23252336
:10105000DFE70023DDE71B23DBE72623D9E7272390
:10106000D7E72823D5E72923D3E72A23D1E72B2362
:10107000CFE722F4FF7222F00102D3E7E8B60020A6
:1010800000ED00E000B5104B89B05A6AD86C0092B0
:101090009A6A20F005000192DA6A694602921A6B98
:1010A00003925A6B04929A6B0592DA6B06921A6C51
:1010B0001B6D07929B0748BF40F00400FFF784FFB9
:1010C00009B05DF804FB00BFE8B600202DE9F0414F
:1010D000A2B005460E461746984605F0CDF970B900
:1010E000114B1B785BB14FF0FF324FF0FF330F48CD
:1010F00001F0EAFE044618B16FF0830510E0012408
:10110000684604F064F8424639463046289BA847B2
:101110000546684604F05CF814B9044801F04CFF39
:10112000284622B0BDE8F0816AB80020FCA2002069
:10113000002300B589B0CDE9063303AB0493042343
:1011400003900593A9B10B6806934B68079302239C
:10115000111E18BF01210848CDE9002140F2F531E8
:1011600004AA00F00BF80028B8BF012009B05DF810
:1011700004FB0123ECE700BF0501004010B4B1F50A
:10118000004F029C0ED2042B0CD8042C0AD8240445
:1011900044EA0364134644EA0102014610BC0348D2
:1011A000FFF794BF6FF0800010BC7047217C0100F6
:1011B00030B50468ACB1B4FA84F30122C3F11F0363
:1011C000DBB29A4024EA0202D0E8EF5FA54204D1E4
:1011D000C0E8EC2FBCF1000FF6D1EAD102480B7049
:1011E00030BD0248FCE700BF0000AD0B0200AD0BB4
:1011F00010B50368CB40DB0710D401238B40026895
:1012000043EA0201D0E8EF4F944204D1C0E8EC1F5A
:10121000BCF1000FF6D1F2D1014810BD0148FCE746
:101220000000AD0B0400AD0B014BC3F80405704783
:10123000007001400146014800F052B9F0A10020C1
:101240000328F7B5064631D8384B394933F8100032
:101250000025C1F80803012142F21074354B364ACB
:1012600033F81630925D03F1804302F1804203F5BA
:10127000A04302F5A04211601D608E421B682C4FF6
:101280008DF8071008BF0DF10705022E32D0032E8E
:1012900040D0012E1CD0D7F8183403F480333DB968
:1012A00023B1012004F054FD013CF0D103B0F0BDA6
:1012B000D7F8182402F003022A70002BF6D09DF80C
:1012C00007000128F2D104F043FD013CDDD1EDE738
:1012D000D7F80C3403F480333DB9002BE6D001205D
:1012E00004F036FD013CF3D1E0E7D7F80C2402F01E
:1012F0000102E1E7D7F85C3403F480333DB9002BF9
:10130000D4D0012004F024FD013CF3D1CEE7D7F87E
:101310005C24ECE7D7F85434DB03C7D5002DCED1DD
:10132000012004F015FD013CF4D1BFE784700200F8
:10133000005000407C700200BB710200044B1A791F
:1013400022B9012218601A7102487047024870479A
:101350005CB700200000AD0B0C00AD0B08B50A4BCC
:101360001B6833B10520FCF741FD10B90520FCF7DF
:101370001BFD0123054AC2F81835C2F81435C2F81E
:101380008035034A137008BD5CB700200050004050
:1013900068B8002010B5032846D8DFE800F01B022B
:1013A000565000224FF480730121002003F1804346
:1013B00003F5A04318601C68012402F1804202F585
:1013C000A0421460274A1268002A44D0264BC3F872
:1013D000041329E0244BD3F81814D3F81824C903B4
:1013E00011D502F00303022B05D0012B02D00020FF
:1013F000FFF726FF01231C4A0221C2F818350822F4
:101400004FF48273D1E7D3F81424D207F2D5D3F87E
:101410001C2402F00302013A012AE8D8114A12689A
:101420001AB10222C3F8042310BDD3F80421002A04
:10143000FBD00022C3F80421D3F80431F4E71822CA
:101440004FF490734FF48071AFE720224FF4927302
:101450004FF40071A9E71A68002AFCD018601B68D5
:10146000E2E700BF5CB7002000500040F8B501265D
:10147000194C1A4FD4F8045305B9F8BDB5FA85F0E4
:10148000C0F11F00830003F580739BB203F180431A
:1014900003F5A04306FA00F2196892B225EA0205A4
:1014A0000029E9D00021022A19601B68C4F808232A
:1014B0000DD1D4F81834D4F8183403F00303012BF9
:1014C00005D1C4F81825C4F80423A360D4E73B6809
:1014D000C0B29847D0E700BF005000405CB7002082
:1014E0000079024B03EB0010FFF762BEF8A1002069
:1014F000036803F01F025B09026004D0012B03485C
:1015000018BF002070470248704700BF0028844081
:1015100000258440034A4309D35C00F01F001844AF
:10152000C0B27047BF71020070B50546FFF7F2FF09
:101530000C4C083034F810300E46DA0508D5C3F3E9
:10154000432304EBC302284654F8333052689847CB
:10155000A3682BB131462846E268BDE870401847C1
:1015600070BD00BF08A2002008B5FFF7D3FF034BF2
:10157000083033F81000400B08BD00BF08A200205F
:1015800008B5FFF7C7FF034B083033F81000C0F36E
:10159000400008BD08A2002008B5FFF7BBFF034BC1
:1015A000083033F81000C0F3401008BD08A2002036
:1015B000034611F0010010B5CCB20BD1A207C4F361
:1015C00040000DD5074A106A58601062003818BFF5
:1015D000012005E004490A6A1A600A62002AEDD077
:1015E00010BD00BF002884400025844010B5FFF7DF
:1015F00091FF124A083032F81030D9051CD5C3F3D8
:10160000432123F4F85322F81030002002F10E0495
:1016100034F8023F13F4807F03D0C3F3432399428D
:101620000AD001303028F3D1002342F83130044889
:10163000BDE81040FFF7DCBD10BD00BF08A20020D0
:1016400080A20020F0B5054600200126044607468A
:101650008C420BD1114BD3F87C2132B10022C3F85C
:101660007C21D3F87C3140F00040F0BDE3B29B0018
:1016700003F580729B0806FA03F31D420BD002F1BA
:10168000804202F53C32D2F800C0BCF1000F02D01B
:101690001760126818430134DAE700BF00F0024017
:1016A000F7B506460846FFF735FF1A4F00F1080563
:1016B00037F815300C46DB072AD5304604F0BFFB5F
:1016C0002046FFF769FF58B12046FFF74DFF002283
:1016D000316800B201EB8003C3F81025C3F8102570
:1016E0002046FFF783FF002301A827F81530019457
:1016F000FFF7FEFE019B00EB8300D0F80022064BB3
:10170000134043F00203C0F80032044803B0F0BDB8
:101710000348FBE708A20020F0F0FCFF0000AD0B3F
:101720000400AD0B2DE9F0431646804685B008460F
:10173000FFF7F0FE0D463168044609B32846FFF76F
:101740001FFF18B12846FFF727FF10BB00230DF13C
:101750000F02CDE900338DF80E308DF80F3028469A
:101760000B460DF10E0104F001FB484A04F108019B
:1017700032F8113023F0020343F0010322F8113054
:1017800073687BB328461F785968FFF7F9FE10B1DC
:10179000E9B13F4829E03D4A04F1080032F8103031
:1017A00023F02003DB04DB0C22F8103079B1032F87
:1017B000EFD87168D1F804E0D8F800109EF800C0A6
:1017C00001EB8C01A7B9C1F81075C1F810752F4A4B
:1017D00004F1080132F8113023F01C0343EA8703B7
:1017E00022F81130B3683BBB2A4805B0BDE8F0834E
:1017F000D1F810E543EA4C332EF0030EC1F810E5A2
:10180000D8F8001043F0200301EB8C0EDEF8101521
:1018100022F8103021F44F3121F44071CEF8101528
:101820002902DEF8108501F47C5141EA074141EAC2
:101830000801CEF81015CAE72846D3E90067FFF77C
:10184000D5FE002ED0D0114DD5E90023964203D10C
:101850009F4201D1002209E00F480DF10F01FFF76F
:10186000A7FC0C4B9842C0D19DF80F2005EBC2039A
:1018700008345F6035F8143045F8326043EA42239B
:1018800043F4807325F81430AEE700BF08A20020AF
:101890000400AD0B0000AD0B80A200202DE9F04349
:1018A0000C46804685B0204611461D46FFF732FEA5
:1018B000064629B32046FFF763FE18B92046FFF716
:1018C0006BFE18BB334F06F1080937F8193013F0D7
:1018D0001C0F02D04B78012B18D001238DF80F304C
:1018E00000234A1CCDE9001320468B1C0DF10F018B
:1018F00004F03CFA37F8193043F0030327F81930A5
:10190000002D44D02046FFF73BFE18B9224805B011
:10191000BDE8F083002295F800C0D8F800301D4FD4
:1019200003EB8C03C3F81025C3F8102506F1080259
:1019300037F812104FEA8C0E21F02001C904C90CAF
:1019400027F812106E7816B3D8F80000AD787044FE
:10195000D0F81035360423F4991323F4F853C0F863
:101960001035230203F47C5306F440362D05D0F8DD
:1019700010E5334305F480152B4341EA4C3143EA2B
:101980000E0341F02001C0F8103527F8121003486B
:10199000BDE700BF08A200200400AD0B0000AD0BA6
:1019A000014BC3E90212704708A2002010B5084697
:1019B0001446FFF7F1FD50B10846FFF7ABFD054BAC
:1019C000083033F8103004485B0B237010BD034817
:1019D000FCE700BF08A200200000AD0B0400AD0B27
:1019E00070B5154D064695F880401CBB2146602217
:1019F00005F1100004F016FF214630682E6F8E426C
:101A00000ED10023C0F87C31D0F87C3140F3073090
:101A1000FCF7CAF90123094885F88030AB6770BD2F
:101A2000CBB29B0003F580727C2B04BF845083589B
:101A30000131E4E70248F2E708A200200000AD0B04
:101A40000C00AD0B034B93F88000003818BF012049
:101A5000704700BF08A200200148FFF7C9BB00BFC4
:101A60007CA200200148FFF7A3BB00BF7CA200209E
:101A700073B503681646D3F804230546002AA8BFA9
:101A80004FF000420846A8BFC3F804230C46FFF7F6
:101A900083FD00B30846FFF773FD0146D8B9204621
:101AA000FFF762FD04B2A4000346286804F58072C3
:101AB0008150296882582144D1F8102542F0010252
:101AC000C1F810252EB10122296802FA03F3C1F8EA
