:020000040000FA
:1000000080A205207D41000019BD0000694100006B
:100010006941000069410000694100006941000038
:10002000000000000000000000000000A5420000E9
:1000300069410000000000004D42000069410000DD
:100040001D4400001D4400001D4400001D4400002C
:100050001D4400001D4400001D4400001D4400001C
:100060001D4400001D4400001D4400001D4400000C
:100070001D4400001D4400001D4400001D440000FC
:100080001D4400001D4400001D4400001D440000EC
:100090001D4400001D4400001D4400001D440000DC
:1000A0001D4400001D4400001D4400001D440000CC
:1000B0001D4400001D4400001D4400001D440000BC
:1000C0001D4400001D4400001D4400001D440000AC
:1000D0001D4400001D4400001D4400001D4400009C
:1000E0001D4400001D4400001D4400001D4400008C
:1000F0001D4400001D4400001D4400001D4400007C
:100100001D4400001D4400001D4400001D4400006B
:100110001D4400001D4400001D4400001D4400005B
:100120001D4400001D4400001D4400001D4400004B
:100130001D4400001D4400001D4400001D4400003B
:100140001D4400001D4400001D4400001D4400002B
:100150001D44000053B94AB9002908BF00281CBF3C
:100160004FF0FF314FF0FF3000F00CB8ADF1080C4C
:100170006DE904CE00F008F8DDF804E0DDE90223C3
:1001800004B07047704700BF2DE9F04786468C46A3
:100190000846089E154674461946002B40F0C1805B
:1001A0008542B2FA82F245D94AB1C2F1200300FA7F
:1001B00002FC954094402EFA03F343EA0C0C4FEAFC
:1001C000154EA8B2230CBCFBFEF80EFB18CC08FBA6
:1001D00000F943EA0C43994528D9EB1808F1FF3799
:1001E00004D2994502D9A8F102072B44A3EB0903D5
:1001F000A4B2B3FBFEFC0EFB1C330CFB00F044EA84
:100200000344A04214D92C190CF1FF3304D2A042AC
:1002100002D9ACF102032C44241A43EA07401EB170
:10022000D440002334607360BDE8F0874746DDE7C3
:100230006346F1E792BB431B01214FEA154EAFB273
:10024000200CB3FBFEFC0EFB1C330CFB07F840EA52
:100250000343984561D9EB180CF1FF3004D298455F
:1002600002D9ACF102002B44A3EB0803A4B2B3FB08
:10027000FEFC0EFB1C330CFB07F744EA0344A742C9
:100280004DD92C190CF1FF3304D2A74202D9ACF19D
:1002900002032C44E41B43EA0040C0E7C2F1200300
:1002A0009540944020FA03F12EFA03F34FEA154EDD
:1002B0009040AFB20343B1FBFEFC0EFB1C10190CC7
:1002C0000CFB07F841EA0041884522D969180CF176
:1002D000FF3004D2884502D9ACF102002944A1EBD9
:1002E00008019BB2B1FBFEFC0EFB1C110CFB07F7D7
:1002F00043EA01439F420ED9EB180CF1FF3104D2BF
:100300009F4202D9ACF102012B44DB1B41EA0041C0
:1003100093E76046E3E76146F7E76046A4E7634694
:10032000B8E7834206D916B9002108467CE7C6E93A
:1003300000E0F9E7B3FA83F78FB9834201D372453E
:1003400008D8BEEB020460EB030301209C461EB9F3
:10035000002169E73846FAE7C6E9004CF8E7C7F13B
:10036000200CBB400EFA07F522FA0CF42EFA0CF121
:10037000BA401C4320FA0CF3B8404FEA1449014339
:100380001FFA84FEB3FBF9F809FB18300B0C08FBCD
:100390000EFA43EA00439A4540D9E31808F1FF30CA
:1003A00004D29A4502D9A8F102002344A3EB0A0320
:1003B00089B2B3FBF9F809FB183308FB0EFE41EADA
:1003C00003418E452CD9611808F1FF3304D28E45C4
:1003D00002D9A8F10203214443EA0040A1EB0E0137
:1003E000A0FB02984145CE46434602D306D14D4577
:1003F00004D20138B9EB020E68EB0403002EA7D03B
:10040000B5EB0E0261EB030101FA0CFC22FA07F3D3
:10041000F9404CEA0303C6E9003199E74046C5E7D5
:100420004346D9E7F0B53B4B3B4A85B0C2F80036AE
:10043000C2F80436C2F80836C2F80C36C2F81036D4
:10044000C2F81436C2F81836C2F81C3602F58052CB
:10045000C2F80036C2F80436C2F80836C2F80C36C4
:10046000C2F81036C2F81436C2F81836C2F81C3674
:1004700000F098F800F056F858B14FF05023D3F838
:1004800000340BB1DB0704D502F0FAFF234803F078
:10049000A7FC00F03FFB054601A800F09FFF0446C3
:1004A000284600F047FB1E4B1B68A34201D00AF010
:1004B00012FC4FF48031002006F0C2FD044600B16A
:1004C000FEE706F0A3FE69469DF808000AF0CFFAA1
:1004D000009B039D1D44019B1E8906F099FDAF19E9
:1004E00001F0DCFF01F02AF801F076F800F0F8FFE7
:1004F00001F012F884F30B8884F30A88AB5983F374
:10050000088884F31488BFF36F8FBFF36F8F7B6805
:100510009847FEE73546526E0080015058ED0000C6
:10052000BC20002073B50F4C20460DF0F9FDB8B18A
:100530002569A6682B680D2143F400532B602046E3
:100540003368094A98472046736801A9984720B93B
:100550002B6801985840C0F34030003818BF012084
:1005600002B070BD38E900001100010021B101297D
:1005700006D06FF015007047044B53F830007047F9
:10058000024B03EBC0035868704700BF60ED0000EA
:1005900004289ABF024B18566FF01500704700BF31
:1005A00014F200004FF4C051014807F083BB00BFB4
:1005B000D24601202DE9F04706460F4690461C46DC
:1005C000124DDFF84CA0554511D30A2120460DF0FD
:1005D0008EFD022220460F490DF07CFD08212046A9
:1005E0000DF06BFD0A2120460DF089FD0BE055F85A
:1005F000049BB9F1000FE6D0234642463946304607
:10060000C8470828DFD00020BDE8F08780FA000046
:1006100084FA000019F2000037B51D4683883F2B8D
:100620002ED1037803F00703022B29D1C4793CBBF8
:100630000D2001A901F026FC00281FDB01982146AE
:1006400082680BF01FF9044601980BF0F0F8003CAB
:1006500018BF01240A2128460DF049FD022209494C
:1006600028460DF037FD214628460DF026FD0A21CB
:1006700028460DF044FD204603B030BD0124E9E7D3
:100680000824F8E719F200002DE9F04F9B46F7B077
:10069000864B0746DDE9818936A80E4614461D685B
:1006A0000DF01EF8002136A807F03CFCB8F1000F51
:1006B00007D0B9F1000F04DD4A46414636A80DF0D7
:1006C00018F84FF0000833897289D6F80CA013444B
:1006D0009A44C24566D80CA936A80DF049F836A848
:1006E0000DF002F8839B23B1202218460CA90BF0D1
:1006F0008CFB00232246009331464FF6FF7306A879
:100700000AF0D6F9804600285CD1214638460B9E77
:100710000AF086FA864255D84FF0FF36DFF890A1EE
:10072000DFF890910DF1120304AA05A906A80AF0BA
:100730000DFA002846DB40F0AF80059906A80AF0C4
:1007400051FA50B94FF6FF71BDF812005A4A32F80B
:10075000023B8B4236D09842F9D1BDF81270102F6F
:100760003AD0202F74D0012FDCD1BDF81030202BCF
:1007700028D82046059936AA0BF05AF8064608BB39
:100780009DF810B0BBF1200F09D8D9F800304B4FBD
:100790000393039B1CA89E423DDB0CF0A5FF4FF08A
:1007A000FF36BFE7809BAAEB0809994528BF994609
:1007B0005A464B46414620460BF03AF828B136A837
:1007C0000CF092FF394B1D6869E04A46594636A83D
:1007D0000CF08FFFC8447CE7BDF81070202FF1D1DA
:1007E0003B462046059936AA0BF022F80028E9D1AD
:1007F00000F090F93A46804636A90CA800F072F94C
:100800000746404600F096F9DAF80030BB42D9D1ED
:100810004FF0010886E70CF063FF00211CA807F0E9
:1008200081FB7A681CA8126857F8081B0CF061FF5E
:1008300014A91CA80CF09CFF5A4636A914A80BF06A
:10084000BDFA18B91CA80CF04FFF6BE70136A0E702
:10085000731C3FF467AFD9F80030B3429FDDBDF899
:100860001030B3F5807FADD12046059936AA0AF045
:10087000DFFF0028A6D100F04DF9F6B283463946D5
:10088000BDF8103036AA00960CA800F0B9F805465D
:10089000584600F04FF982E7B8F1000F92D000F00F
:1008A00041F9284677B0BDE8F08F00BFB82000209E
:1008B000BC20002070ED0000C0F1000074ED0000CD
:1008C0002DE9F047894619464B4BADF5AE6D1E68D4
:1008D000DDF89035B3F5807F40F08680202A40F027
:1008E00083805CAA07F0D6FA044600287CD19DF8E4
:1008F0006F32BC2B78D10DF19008DF27454601906F
:100900000AA80CF0EDFE00210AA807F00BFB20223C
:100910000DF24F210AA80CF0ECFE04220AA80DEB00
:1009200002010CF0E6FE02A90AA80CF021FF202F1C
:10093000BA46A8BF4FF0200A9DF807304046013361
:10094000524602A9A7EB0A078DF807300BF05DFAB3
:10095000002FD044D4DC0AA80CF0C6FEAC462946D1
:10096000DF225CAB087813F8017B013A80EA0700CC
:1009700001F8010BF6D12B7803F07F032B701CF8E4
:10098000017B8FBB0134BE2CF9D195F8BE30012B11
:100990002AD10AA80CF0A4FE39460AA807F0C2FA28
:1009A000082216490AA80CF0A4FE494620220AA8EB
:1009B0000CF09FFE20220DF24F110AA80CF099FEB8
:1009C00002A90AA80CF0D4FE0AA80CF08DFE00F0D3
:1009D000A1F8202204460DF24F2102A800F082F86F
:1009E0000646204600F0A6F800F09CF830460DF5CB
:1009F000AE6DBDE8F08700BFB82000201CF20000FB
:100A00002DE9F04F1F46A3B0344B804604A89DF853
:100A1000B0501E68894692460CF01BFE0922012147
:100A200004A807F0F9F92E4B03AA53F8354003EB5D
:100A3000C5035B6802941B6802A81C44214630234E
:100A40000BF0F2FE00283FD1DDE9023213449C4254
:100A50003AD1214606AA02A80BF0FAFE002833D1AB
:100A60000DF1200B5A46214602A80BF0F1FE054677
:100A700050BB06A80CF09AFA029B05909C4223D129
:100A80002B462A46CDE9005B06A904A80CF09EFD82
:100A9000D0B904A807F0D8F9B0B906A80CF086FAC6
:100AA000059004A80CF0DFFD87420DD100F032F86C
:100AB000534604464A464146009704A8FFF700FF04
:100AC0000646204600F036F804A80CF0CEFD00F0F3
:100AD00029F8304623B0BDE8F08F00BFB8200020D1
:100AE00074ED000070B5094B04461D680023934265
:100AF00005D1074B1D6800F015F8284670BDE65C6F
:100B0000C85C8642F7D10133F1E700BFB82000206E
:100B1000BC200020024B1868421C1A60704700BFBE
:100B200000280020024A1368013B1360704700BF91
:100B300000280020034B1B68834201D00AF0CBB889
:100B4000704700BF00280020034637B54FF400620D
:100B5000084693F8B84013490192620051F82250B8
:100B6000A8420ED1582101FB043201FB0434526A21
:100B7000283401A90AF0CEFE08B9019B236003B016
:100B800030BD013251F82220904208D1582101FB9A
:100B9000043201FB0433126D03F15404E9E7012030
:100BA000EDE700BF7CED000070B590F8B850104E36
:100BB0006D0056F825100446FFF7C6FF98B90135B9
:100BC00056F825102046FFF7BFFF054668B95822A2
:100BD00094F8B83002FB0343186A0AF06BFEC4F8BD
:100BE000B400284670BD0125FBE70925F9E700BFE1
:100BF0007CED00002DE9F04F4FF02C0858250446FD
:100C000008FB01F890F8B8A089B005FB0A830344FB
:100C10001E6A0F4630460AF054FE94F8B83015FBB1
:100C2000038525446B1E033513F8012F824242D100
:100C3000AB42F9D1464B1D6833E0464B1D68464B2D
:100C40001B68AB4207D0002FF4D000213046B268B9
:100C50000AF018FEEEE7582294F8B8305343E21831
:100C6000D16C8E421DD1D2F82080002207922C2216
:100C700002FB0733234419890423304607AA194489
:100C80000AF0D6FD0028D5D194F8B830012B0ED04B
:100C90003BB9D8E90123134407999142D5D399422E
:100CA000D3D8FFF73FFF284609B0BDE8F08F4FF0DB
:100CB00082732A4AF0E758232C2203FB0AF302FB33
:100CC0000733E2181169C806B4D4E058244B98429F
:100CD000B3D1D06813891B18AFD25289D218ACD2C5
:100CE000B3689A42A9D240F60C6311EA0309A4D171
:100CF000FFF710FF3946834694F8B80006F090FAE3
:100D000005465846FFF716FF164A1268954296D1D7
:100D1000FFF700FF0590FFF7FDFE58230AFB038154
:100D20004FF4807383463246009321440E4B204695
:100D3000CDE90299CDF80490FFF7A6FC0546584688
:100D4000FFF7F8FEFFF7EEFE0598FFF7F3FE76E7F4
:100D5000B4200020B8200020BC2000200088000122
:100D60003DB8F396B0200020D25E01202DE9F84F67
:100D7000884691469A460026DFF88CB0234D244CD5
:100D80000B9B9E4201D300200FE00B9B40469F1B14
:100D9000B7F5806F28BF4FF480671B4A3B4606EBD0
:100DA0000A010AF045FD10B10120BDE8F88F0A994B
:100DB0003B465A46484671180AF04FFD0028F3D1C9
:100DC000144BC5F800463E44C5F80446C5F808462D
:100DD000C5F80C46C5F81046C5F81446C5F81846BF
:100DE000C5F81C46C3F80046C3F80446C3F80846D5
:100DF000C3F80C46C3F81046C3F81446C3F81846A7
:100E0000C3F81C46BCE700BF042800200080015046
:100E10003546526E009001502DE9F04F00260446F1
:100E20000D46B0465827DFF8389295B0012E84F869
:100E3000B8601DD900268B4F17F8011B01290CD172
:100E40003046FFF793FB0EA9C0B201F01BF8014634
:100E500018B90E9882680AF015FD002E00F0F38094
:100E6000B8F1000F00F0638100232C275826F2E030
:100E7000A31993F8B91000295CD107FB064209EBCE
:100E80008633536203F5004330461365FFF76EFB6C
:100E900094F8B810C0B207FB0141203100F0F2FF16
:100EA00008B109F018FF01213046FFF75FFB94F805
:100EB000B810C0B207FB01414C3100F0E3FF08B1AC
:100EC00009F009FF2046FFF76FFE58BB00212046BE
:100ED00009F032FFF8B9204609F0B1FF002808DD1B
:100EE000012194F8B820604B03F8321003EBC203E1
:100EF0005860204609F05FFF68B10AA809F045FF75
:100F000009F04CFF064658BB94F8B830BBB9002135
:100F1000204609F011FF012294F8B830234483F8E9
:100F2000B02007E0012294F8B8309042234483F8BF
:100F3000B020CBD194F8B8600136F6B276E794F8D9
:100F4000B020042A04BF012284F8B020012BDED097
:100F500094F8B130042BDAD1012384F8B130D6E70C
:100F60009DF82F30012B55D1582294F8B83002FB50
:100F700003430022D96A0E923C4AD86C91422BD18D
:100F8000998E04230EAA19440AF052FCF8B14FF0CE
:100F9000050B94F8B820224482F8B0B094F8B83029
:100FA0006BB1E21892F8B020012AC3D0042A0CD009
:100FB00094F8B020042A02D1012284F8B0202344FE
:100FC00093F8B030023B022BB4D8B046B2E702210E
:100FD00094F8B830234AD15494F8B80006F0D0F908
:100FE000821E022A8346D4D8FFF794FD0121039084
:100FF0002046FFF7FFFD82460398FFF79BFD1C4A42
:1010000012689245C5D01B4B1B689A45BFD14FF063
:10101000010BBEE7FFF77EFD012183462046FFF767
:10102000E9FD82465846FFF785FD114B1B689A453E
:1010300018BF052294F8B83008BF9DF82F2023442C
:1010400083F8B020AAE70126F6E6E21892F8B91074
:1010500091B10133DBB2012B84F8B830F5D966E0E9
:10106000042C0020D25F0120042C01203DB8F3960F
:10107000BC200020B420002092F8B0100EA801F08F
:10108000FB01013918BF0121794306FB031203FB61
:10109000061101232244D2F82080214400934246C5
:1010A000402309F005FD00287CD100230DF1160234
:1010B00006A90EA809F04AFD002838DB6FD1BDF85B
:1010C00016300C2B70D14046069907AA0AF0B0FBE7
:1010D00068BB9DF81C30012B29D8E21892F8B0208B
:1010E0007343023A022A8CBF0022012207FB02331B
:1010F0002344197D9DF820209142D6D80AD3597DEA
:101100009DF821209142D0D804D3DA8ABDF822304C
:101110009A42CAD294F8B830234493F8B020012AF6
:101120003BD0023A012A02D8012283F8B0200027DE
:101130004FF0FF094FF05808012F84F8B87038D9E4
:101140000023DFF88882A24EA24F0E93012B84F871
:10115000B83040F2F1800E9B022B01D009F0BBFDAC
:1011600094F8B930002B40F02981582684F8B83023
:1011700006FB0343186A09F080FC287194F8B83024
:1011800006FB03431B6A5B68AB6094F8B83003FB53
:1011900006462E608E4B1D68EAE00422C5E794F8EF
:1011A000B83056E70328C2D140F20113A4F8B0309A
:1011B000BDE7E21992F8B960002E40F0B6800AA8A7
:1011C00009F0E3FD92F8B030042B8DF82F3006D8EB
:1011D000012B06D800F0A08082F8B0909CE0052B8F
:1011E000F8E708FB074319463846DA6C2C310BF058
:1011F0005DFA0128074640F08F8001460EAA20467E
:101200000E9609F010FD94F8B8A006A908FB0A4351
:101210001B6A07EB4A07187800F034FE6E4B4FF05C
:10122000580B13F82700374607A900F02BFE94F857
:10123000B83008FB0343D3F828A0BA4517D094F878
:10124000B83031460BFB03435B6A069803EBC703D8
:101250005A6803920AF016FB039A0E9B16449E42AC
:1012600068D3D4F8B460B3FBF6F306FB0366D4F896
:10127000B40009F0C5FC582394F8B82003FB0242DF
:10128000536A926A1968013A03EBC20300225F684D
:101290009C463A449042A3F10803F8D8DCF80030A9
:1012A0000698591A0AF0EEFADDE9062100232046D5
:1012B00001960093FFF75AFD70BB069805F0EAFF10
:1012C00050BB582794F8B800324607FB0043196A10
:1012D0000BF0FAF90146F8B994F8B830079807FB13
:1012E00003431B6D5A680AF0CDFA94F8B83007FB37
:1012F0000343D3E91423013B52F8331002EBC3003C
:1013000013684268C91A07980AF0BCFA06980AF0EE
:101310008EFA07980AF08BFA94F8B830234493F8C1
:10132000B030FF2B01D109F0D6FC94F8B87001372A
:10133000FFB201E7013780E7234493F8B9208DF825
:101340001C209DF81C2002F0FF013AB10E9B0133D6
:101350000E9394F8B8300133DBB2F7E693F8B0306F
:10136000012B13D0204609F0E7FC78B1D8F80050E3
:10137000102200210AA80AF053FD204609F0BEFC05
:10138000FFF7D0FB284615B0BDE8F08FFFF7C2FB92
:10139000002182462046FFF72DFC81465046FFF78C
:1013A000C9FB33684B45E1D1D8F800209A42DDD023
:1013B0003A689A42CAD1D9E70123D6E694F8BA30FE
:1013C000002BF9D0022384F8B830E3E6B8200020DF
:1013D000BC200020B42000207CED000070B50B4E36
:1013E0000446BC22002130460AF01AFDFFF792FBAA
:1013F000214605463046FFF70FFD04462846FFF715
:1014000099FBFFF78FFB204670BD00BF142C012015
:101410002DE9F8432E4F3B7833BB3C7A24BB2D4D4E
:10142000DFF8B480012C85F8B84015D8582606FBA3
:10143000045208EB843300215362204603F5004335
:101440001365FFF793F895F8B810C0B206FB015189
:10145000203100F017FD50B11E4809F04FFCBC22AE
:1014600000211C480AF0DCFC1948BDE8F883012182
:101470002046FFF77BF895F8B810C0B206FB015183
:101480004C3100F0FFFC0028E6D195F8B860DFF899
:101490004C907600284659F82610FFF755FB88B97E
:1014A000013659F826100B48FFF74EFB50B9094892
:1014B00009F0C5FC0028C1BF012307F8343007EB51
:1014C000C404606095F8B8400134E4B2AAE700BFF4
:1014D000042C0120142C0120042C00207CED0000A1
:1014E000BFF36F8F72B600234FF0FF30094A03F14C
:1014F00020010133102B42F82100F8D100234FF0D6
:10150000FF30044A03F160010133102B42F821003F
:10151000F8D1704700E100E0002318460649D1F8F1
:101520009020C2F30722934200DB7047C1F8983045
:10153000C1F8A0000133F6E700ED00E02DE9F84323
:101540004FF0FF3501274FF00008204BDFF8809067
:101550005F60C3F84853C3F8085303F580535F60D6
:10156000C3F84853C3F8085359F8044B002644F312
:101570000730C4F8085302F0B5FE80226760C4F853
:101580004C61D4F84C31C4F81061D4F81031C4F86F
:1015900044613146D4F84431A018C4F800650AF01B
:1015A0003FFC8022314604F5C0700AF039FCB8F1E6
:1015B000000F08D0074BC3F808554FF05023C3F86D
:1015C0000853BDE8F8834FF00108CDE70040015013
:1015D00090ED0000007001504FF4EC220021014812
:1015E0000AF01EBC00A000202DE9F04F82464FF00B
:1015F00000098DB01D46531E01910393039B58783B
:101600005C1C252819D100204FF0FF381E464446A7
:1016100003460236029031780396392955D81F299E
:1016200014D8002900F0EF8101992520D0470199B5
:101630003078D04709F10209E0E7002800F0E381A3
:101640000199D04709F101090394D7E7A1F12002DC
:10165000192AE9D801A757F822F000BFC5160000E3
:101660002916000029160000C516000029160000E2
:101670004517000029160000291600002916000051
:101680002916000091170000C51600002916000059
:10169000A517000051170000291600005F17000071
:1016A0007F1700007F1700007F1700007F170000E2
:1016B0007F1700007F1700007F1700007F170000D2
:1016C0007F17000008460136A5E7582900F0EB8097
:1016D000A1F16302D7B2172FA6D8172AA4D801A761
:1016E00057F822F04D190000CB1700002916000012
:1016F0002916000029160000AB170000CB170000C8
:101700002916000029160000AB170000291600005A
:101710002916000029160000811800002916000073
:10172000291600002119000029160000CB1700001F
:101730002916000029160000811800002916000053
:10174000AB17000025200199D04709F1010955E7A1
:10175000029A4FF0000802F0FE020292B3E7002C5A
:101760000DDAB8F1000F0DDA029A002A00F0438179
:101770000A2224EAE47402FB0414303CA3E7B8F123
:10178000000FF5DB0A2202FB0812A2F130089AE7EB
:10179000B8F1000F55F8042B80F22F81002A80F257
:1017A0002E815442022202928DE7682903D1682BD0
:1017B00006D1482387E76C2902D16C2B00F02181E8
:1017C000002B7FF431AF0B467DE77A2B06D17529CC
:1017D00055F8046B14D14FF0000B0CE06C2BF6D0D5
:1017E0004C2BF4D1073525F00703752903F10805C3
:1017F000D3E9006B06D120283BD1854F013C09E09D
:101800004FEAE67BBBF1000FF5DA7642814F6BEBD6
:101810004B0B013C0DF12D0305930023049330463F
:1018200059460A220023FEF795FC059BB446303248
:1018300003F8012D5A460593049BBCF10A0F8B4611
:1018400072F1000203F1FF3106460491E7D2C3F1C1
:10185000010B30330DEB0306B8F1000FA6F10406BF
:101860006DDA029BD9077DD4A8EB0B03A4EB0B0424
:1018700013E02B280ABF684F684F04F1FF34C9E713
:1018800070290FD155F8042B0023FAB96FF0040327
:101890004FF0050B614F624E053C029A920770D4DF
:1018A000A04666E078216C2B03D1002355F8042B69
:1018B00008E04C2BF9D1073525F007031D465B687E
:1018C00055F8082B232825D1880621D5554F023CF1
:1018D000002601F06001A1F1390B0DF12D0E02F08F
:1018E0000F01092988BF594430310EF8011D102A13
:1018F0004FEA121141EA03714FEA131C73F100031E
:1019000006F1FF3008D2C6F1010B06F13003A1E762
:10191000454FDCE7414FDBE706460A466346DEE714
:1019200055F8046B30460AF042FAB8F1000F8346CE
:1019300002DB4045A8BFC3464FF00008374FA8EB75
:101940000B03002B92DDA4EB0804A6E755F8043B3B
:101950004FF0010B8DF81830304F4FF0FF33013C42
:1019600006AE9AE7A046EAE7029320200199D04705
:10197000029BB8F10108F7D524EAE472013C9144D6
:10198000A41AB84606E0049302920199D047029A3D
:10199000049B9046424612F8010B0028F3D11A46E8
:1019A000013A15D5002BACBFC7EB03077F425B465E
:1019B000013B15D5BBF1000FA8BF5F4426464F443D
:1019C000013E14D5002CA8BF3F1907EB080915E606
:1019D0000493029230200199D047049B029ADFE7DA
:1019E0000293019916F8010BD047029BE0E7019999
:1019F0002020D047E4E70122D5E6904663E614466E
:101A000061E64C235FE648460DB0BDE8F08F00BFAD
:101A100034F3000032F3000036F3000085F40000D8
:101A20003EF3000038F300003BF300002DE9F043E3
:101A3000079D15B91560002012E00324B5FBF4F4EE
:101A400004EB4407BD4218BF0134B4F1804F09D202
:101A5000A40001348C4200D838B96FF00B00146038
:101A6000BDE8F0834FF0FF34F7E704460021DFF8CC
:101A7000B4E0B94203F1030C04F104062BD3A942EC
:101A8000274623D201F1010CAC451F7828BF002363
:101A900024494FEAA70E38BF5B7811F80EE0AC4539
:101AA00084F800E001EB131E2EBF3D239B0003F0E2
:101AB0003C034FEA071738BFCB5C07F030071EF82E
:101AC0000770A3703D2367703746E3700023381A10
:101AD00010603B70AFE71CF8034C1CF8023C4FEA67
:101AE000A4091EF8099024011CF8018C04F03004AC
:101AF00006F8049C0EEB131919F804409B0006F835
:101B0000034C03F03C030EEB9814E35C08F03F0831
:101B100006F8023C1EF80830344606F8013C033152
:101B20006346A6E7C4F300002DE9F04300273C46D6
:101B30003D46DDF81CE0DFF8288175451FD3E4BB86
:101B400000201460BDE8F0830136764533D013F8E9
:101B500006C0BCF1200FF7D0AEEB0609B9F1010FBA
:101B6000A6EB05050DD0BCF10D0F0AD103EB06095C
:101B700099F80190B9F10A0F6ED1751CDDE72E4678
:101B8000E3E7BCF10A0FF8D02DB9BCF13D0F05D148
:101B90000137022F0DD96FF01500D3E71CF0800F2D
:101BA000F9D118F80C507F2DF5D03F2D01D8002F1A
:101BB000F1D10134E1E73546C1E74FF0060C04F0FE
:101BC0000706E4080CFB06F60CFB04F40736E41BDE
:101BD00004EBD60470B18C420CD8002701460326D2
:101BE0003C46DFF87CE0DFF87C801D449D4205D157
:101BF0000C1AA5E76FF00B001460A3E713F8019B24
:101C0000A9F10A0C5FFA8CFCBCF1160F04D848FA53
:101C10000CFC1CF0010FE9D01EF809C00134BCF126
:101C2000400F08BF013E0CF03F0C042C4CEA871714
:101C3000DCD17EB13C0C012E0C7002D101310024AC
:101C4000D4E7022E4FEA17244C7016BF8F70023172
:101C50000331F4E73446C9E7002DA2D09BE700BF6B
:101C600044F30000F6FFBFFF2DE9F047058B044663
:101C70002807904611D4022905F0070540F0CC80D2
:101C8000204609F01BFC78B10138218B042811D8BB
:101C9000DFE800F0C2106D85950001290CBF45F00A
:101CA000100545F02005258388F31188BFF36F8F59
:101CB000BDE8F08701F0070AAA4500F0A5800027DB
:101CC000B9463E46A368002B00F0BC8041F00801F5
:101CD000218388F31188BFF36F8FA168002900F07A
:101CE000BA800D68002900F0B6803346524620467F
:101CF000D1F80480C047002D76D02B6829461D46B8
:101D0000F0E701F007035A1F012A1BD8002221F037
:101D10000701062B276889B2C4E9002209D13B4696
:101D200003E0628B013262831B68002BF9D141F022
:101D300002012046218309F0C1FB00287AD041F03E
:101D4000200176E0042B0AD121F0070189B2204658
:101D5000218309F0B3FB10B141F020012183218BD5
:101D600001F0070AAA454FD00027B946AAE7236920
:101D700021F0070141F00601062DD3F800902183E0
:101D80002DD1B9F1000F3FD041F00801218388F334
:101D90001188BFF36F8F20463949C84729E021F0E9
:101DA0000701236941F0040189B2042DD3F804909E
:101DB0002183E6D000274FF0040A3E4682E721F057
:101DC0000701236941F0050189B2052DD3F8089078
:101DD0002183D6D000274FF0050A3E4672E7002740
:101DE0004FF0060A3E466DE72B4687E7B9F1000F34
:101DF000D1D1EFF31188202383F31288BFF36F8FC3
:101E0000238B23F008032383258BEA062ED525F0A8
:101E10001003238305F007056669218B002EBFF6AA
:101E200070AF00232768C4E9003321F0070141F0B7
:101E300001012183218B4FF0000901F0070AAA4517
:101E40007FF440AF002F9CD041F00801218388F33C
:101E50001188BFF36F8F002FC8D03D6839463346D5
:101E60005246204609F056FB2F46F4E7AB067FF5B5
:101E70001BAF25F02003238305F0070500E700BF13
:101E800041B5000070B5104B0D461C68B4B10F4B46
:101E9000196800238B4202DB6FF0010070BD2246FF
:101EA00012F8106B864202D014460133F2E7E06864
:101EB0000CF036F928B100202C60EFE76FF00C0031
:101EC000ECE76FF01200E9E71821002098ED000020
:101ED00010B5436888B0029383680C46CDE903329D
:101EE00000230A68C068CDE90623054901AA0593C5
:101EF0000AF0EBF8079808B9059B236008B010BDFD
:101F0000D1B80000F0B40C4B0C4E5F6A0C4BB342DE
:101F100003D36FF08500F0BC70475D68BD4209D304
:101F20001C693CB195F802C00579AC4502D1234645
:101F3000F0BC18472433EAE7D02C0120A824002065
:101F4000842400202DE9F04705460E461746124C22
:101F5000DFF84880DFF84890444503D36FF08500F0
:101F6000BDE8F0876268D9F824309A4212D3A36999
:101F700083B190782979884205D13A46314628467E
:101F8000BDE8F04718475279012A03D13A46314655
:101F9000284698472434DFE784240020A824002022
:101FA000D02C01202DE9F04105460E4617460A4C7B
:101FB000DFF82880444502D36FF0850009E06369AB
:101FC0000BB92434F6E73A463146284698470028AC
:101FD000F7D1BDE8F08100BF84240020A8240020B0
:101FE00010B5044609F069FF10F1780F00D050B920
:101FF000204609F0A8FC044AD2F8C43023EA0003C2
:102000000020C2F8C43010BDD02C012008220021CD
:10201000014809F005BF00BF8B2D012070B50B4BA7
:102020000B4CA34201D3002070BD0022196A1E7F11
:102030000439D5B2AE4201D82433F2E7013211F8A7
:1020400032508542F5D10120EEE700BF8424002004
:10205000A824002008B509480378C3F341130A33C4
:1020600050F823303BB100F1080200F1100198470D
:10207000C043C00F08BD1846FCE700BFD02C0120AC
:1020800004282DE9F14F04460F46DFF8949016D04E
:1020900001282DD1DFF88C8098F8B93043B300F0D7
:1020A0000DFE214D4D4520D24FF0000AD5F820B04D
:1020B0002B7F5FFA8AF6B34204D82435F2E7FFF7A4
:1020C000A5FFE7E70BEBC606307909F0F6FE0246FE
:1020D000307909F038FCD8F8C430002A23EA00032C
:1020E000C8F8C4300AF1010AE2DA002388F8B930EE
:1020F0000D4D4D4508D30B4B1B6A6BB1394620463D
:1021000001B0BDE8F04F1847EB681BB13A462146D5
:10211000284698472435ECE701B0BDE8F08F00BFB2
:10212000A8240020D02C01208424002073B5C4B240
:1021300063060D468DF8074007D02046FFF76EFF77
:1021400078B10D4B93F8BA0058B120460A4E55B1FC
:1021500002F0ACFEF3691BB108200DF107019847AE
:10216000012002B070BD02F0C9FEF369002BF7D068
:1021700009200DF10701F2E7D02C012073B5867814
:102180001E4C8DF800600379427943EA0223ADF8D2
:102190000230C378304603F003038DF8043009F0B1
:1021A000D2FBD4F8C430054618420BD0304600F0BC
:1021B00067FD3046FFF714FF0CF05DF910B996206B
:1021C00007F0BAFF684602F04DFE10F1780F03D019
:1021D00010B1002002B070BD9DF8000002F0CAFEF0
:1021E00010F1780F01D00028F3D10120D4F8C430C9
:1021F00084F8B9002B43C4F8C430EBE7D02C01209D
:102200002DE9F047924D0446AB690E461746C3B917
:10221000207800F01F00012876D0022800F0DC8032
:1022200000BB94F900103A68002963782EDA062B77
:102230000CD0082B25D0ABB95370012313700223A7
:1022400003E198470028E3D100200DE06388190AD4
:102250000A1F012A8C4605D9072903D8DAB26B6A0E
:102260001C781CB96FF01500BDE8F0875D786545F6
:1022700003D1824200F0E48001302344F0E71B7870
:10228000E3E095F8BA3013700123DEE0052B11D09E
:10229000092BE7D163886E6A002B32D1FFF7B6FEB7
:1022A000638885F8BA30EB69002BCDD003206949EB
:1022B0009847C9E7A07802F0C3FD0028C4D0D1E751
:1022C0007378042B10D0052B11D0022B04D1777911
:1022D0006388BB4208BF012033781E443378002B4B
:1022E000EED10028BED0D9E796F80380F4E76388E2
:1022F000BB42F1D1B8F1000FEED13046FFF73EFFFF
:10230000EAE7FF27B846E9E795F8BA30D7F800C002
:10231000002BA7D06F6AA2883B4694F804E0187897
:1023200000289FD05978022904D193F80480F04501
:1023300000F292800344F2E78CF800308CF8013010
:10234000316081E71F4493E00B2B8BD100264FF0C7
:10235000FF08B246C14606E07B78042B0FD0052B60
:1023600021D03B781F443B78002BF5D1EB6913B1AA
:10237000514607209847002E7FF466AF72E797F822
:102380000280A38897F803909845EAD1638899451D
:10239000E7D1B8F1070F1CD805EB0803BA460126B0
:1023A00083F8BB90DDE7A3884345DAD1A3784B459A
:1023B0000AD0BE78304600F063FC3046FFF710FECE
:1023C000B0FA80F67609CCE73846FFF7D7FE064626
:1023D000C7E7BA460026C4E794F900206378002ACC
:1023E00018DA002B7FF43EAF24793F6863060AD0E9
:1023F0002046FFF713FE00283FF434AF95F8BA30BB
:10240000002B3FF42FAF3946204602F097FD002302
:102410007B7014E7012B08D0032B7FF423AF638874
:10242000002B7FF41FAF012103E0618800297FF4B6
:1024300019AFA088FFF77AFE00287FF405AF11E7F7
:1024400002293B607FF41BAF5B883360FCE600BF72
:10245000D02C01208A2D012094F9000063780028F7
:10246000BFF672AF002B3FF467AF0A2B7FF4FAAED2
:102470003B78002B3FF4F6AE797804297FF462AF05
:10248000B9788A427FF45EAF072A8EBF00235219C3
:1024900092F8BB308CF80030F6E600BF70B5164DF0
:1024A00095F8B830FBB102F0ABFC002822DB00F05D
:1024B00005FC0024D5F8C430E6B2E340DA0714D4B2
:1024C000D5F8C43004F11002D340DB0705D546F03F
:1024D0008000FFF785FD00280CDB0134102CE9D1CA
:1024E000002385F8B830002004E03046FFF778FD7F
:1024F0000028E5DA70BD00BFD02C012013B5164CC2
:10250000237DF3B9E26801AB8020A168019209F054
:1025100029FA019AA3681344A360E3689B1AE36055
:102520006BB962B12369E2889A4208DD94F8C82049
:1025300093FBF2F102FB11330BB90123237502B0B7
:1025400010BD002380201A461946237502B0BDE84D
:10255000104002F039BD00BFD02C0120002330B55F
:1025600085B002460D460193002858D1002935D187
:1025700008220B460DEB020109F0B8FC002804DA32
:10258000802002F093FC05B030BD2A4C029AC4E9C9
:1025900003552260039ABDF80E30626004F13802E0
:1025A000A2609DF908202575002A0ADB802B04D93A
:1025B000802002F07BFC0020E3E713B1C4E9033381
:1025C000E1E7FFF747FD0028DAD0E28823699A4265
:1025D000D4BFE260E360FFF791FFD4E7154C01AB95
:1025E000D4E90215002D04DC09F080FC0028CADAC9
:1025F000C6E72A4609F07AFC0028D9DB019AA368CD
:102600001344A360E3689B1AE360002BBBD104F181
:102610003803A360FFF71EFD0028DCD1B0E7802857
:10262000B1D1044BDA68002AD5D11B7D002BD2D161
:10263000A9E700BFD02C0120054B064A58629A62D8
:10264000054A0020DA62054A1A63054A9A61704712
:10265000D02C012001220000051F0000A51F000052
:10266000451F00002DE9F3410446474D4FF0FF336D
:102670004FF0FF32454807F073F895F8B830002B5B
:102680007BD16B6A83B142482C62E8616E6A02F0CA
:10269000B5FD02F083FB041E10DA3C4807F0D8F8C1
:1026A000204602B0BDE8F08100F0BEF8FFF7C4FF9D
:1026B0006B6A002BE7D14FF0FF34EEE700F020FB10
:1026C000041EEADB7378012B5AD1F379002B57D023
:1026D0000026684685F8C830ADF802308DF80460F1
:1026E0008DF8006002F0BEFB041ED6DB8027684632
:1026F0008DF8007002F0B6FB041ECEDB3046254993
:1027000002F068FD041EC8DB3846224902F062FD73
:10271000041EC2DB204CDFF8848044451AD300201D
:1027200002F028FC041EB8DBD5F8C430802043F04A
:102730000103C5F8C43002F01DFC041EADDBD5F862
:10274000C430002443F48033C5F8C430012385F835
:10275000B830A2E70026276A227FF3B29A4201D856
:102760002434DAE707EBC30257F83310107902F08C
:1027700031FD01360028EFD09DE76FF077048CE73C
:102780006FF0150489E700BFD02C01206C230020D6
:10279000812000005D25000084240020A824002062
:1027A00030B51F4B8BB005AA03F11005144618680D
:1027B0005968083303C4AB422246F7D11B78102274
:1027C0002370002101A809F02BFB122200211548DB
:1027D00009F026FB102101A809F0A5FD00281BDD4A
:1027E0000828B8BF082001AB09381A1800200D4985
:1027F00012F8013F0AAC04EB131403F00F03283363
:102800006B4414F8144C13F8143C013008280C7075
:102810004B7001F10201EBD102480BB030BD00BF9B
:1028200004F40000D55F01202DE9F04F744B87B010
:1028300093F800B0BBF1000F03D0724807B0BDE8B9
:10284000F08F704C00264FF0011AB0463546B14665
:1028500023783BB96C4B02349C42F3D10123684A84
:102860001370EAE76378052B1BD8DFE803F08C03CD
:10287000C68C1D39402304A88DF810B0ADF8123075
:102880008DF814B009F004FB40B1082304A8ADF89A
:10289000123009F0FDFA08B1ADF812B0BDF81230EF
:1028A000E37123781C44D3E7E378002BF9D1A378B4
:1028B00063B108F101085FFA88F8F2E76A689442A8
:1028C00007D024359D42F9D30020B7E74F4D504B38
:1028D000F8E7AB68002BECD0414620469847E8E784
:1028E000002DF1D000222B7F9A42EDD2296AA078E8
:1028F00001EBC2010B79984201D00132F3E70127C5
:10290000E078FBB200F003008DF81400207994F811
:1029100005C040EA0C20ADF8120094F9020000282E
:1029200026DA4FF0010C07F110000CFA00F010EA63
:102930000A0F24D143F080008DF8100004A8CDE9DF
:102940000213019209F0A4FADDE90121039BB0B959
:102950009DF8102012F0800FA2700A714FF0010252
:102960001DBF1033DBB29A40BA404AEA020A98E728
:102970000120B84010EA0A0F01D11846DCE7013700
:10298000102FBDD1B9E7032E1FD1FFF709FF07466E
:1029900078B109F00CFA019058B11E4809F007FA15
:1029A000019B02469842A8BF1A463946A01C09F06E
:1029B0002CFA6FF002012378091BE21804EB530391
:1029C000D14213D50136F6B26BE7002EF1D1B9F141
:1029D000000F3FF479AFA4EB090389F80230C3F389
:1029E000072389F8033089F80480EBE702F801BC7B
:1029F00013F8010902F8020DE2E7A14651E700BF12
:102A0000D45F0120A0230020812400208424002002
:102A1000A824002004F40000094B00211A4610B538
:102A20001C78844204D15C6814B102EB811010BDA3
:102A30000131042903F14003F2D10020F7E700BF80
:102A40009C2D01202DE9F34150F8283C0446103319
:102A500010F82C6C0AD1036950F8202C980736D551
:102A6000D2B9590715D5002344F8283C54F8283C1E
:102A700010330BD054E9077554F8148C0BF0FBFCA1
:102A800000284FD021462E480BF0D9FC02B0BDE8FB
:102A9000F08143F004032361304654F8241C01AB59
:102AA00008F060FF10B16FF01503DDE7019A54F8EC
:102AB000243C134444F8243C54F8203C9B1A44F82A
:102AC000203C54F81C3C134444F81C3CCEE73046F0
:102AD00054F8241C01AB02F0F3FA0028E3D1019D65
:102AE00054F8243C2B4444F8243C54F8203C5B1B11
:102AF00044F8203C54F81C3C2B4444F81C3C002D6A
:102B0000B1D0304602F080FBB5FBF0F303FB10556B
:102B1000002DA8D154F8203C002BA4D0304602F060
:102B200017FBA3E744F8180CA4F1100006F012FFFD
:102B3000002DABD0424639463046A847A6E700BF35
:102B4000A82400204B1E012B73B506460D460FD856
:102B5000FFF762FF044668B9012D09D101AB0122DC
:102B600030460DF1030102F0ABFA019B002BF5D1C9
:102B700002B070BD0BF07FFC04F12C0108B1012DF7
:102B800005D1084602B0BDE87040FFF75BBF0348BF
:102B900002B0BDE870400BF052BC00BFA82400207A
:102BA0002DE9F74F064615469846019108F020FF9B
:102BB000044600285BD1EFF3118A202383F31288A7
:102BC000BFF36F8FDFF8ACB000220023584606F049
:102BD000F5FE70B9DFF8A090A70109EB84146368D3
:102BE00013F1100F14D10193584606F0B3FE019B68
:102BF00006E00134042C0BF1400BE5D16FF00B0320
:102C00008AF31188BFF36F8F184603B0BDE8F08FC9
:102C1000019B2061C4E902350C9B304663610D9B2A
:102C200009F80760A3616FF00F03C4F83C8063608C
:102C300002F0EAFA58B1304602F0E6FAB5FBF0F3DA
:102C400003FB10551DB1E36B43F00403E36318F07D
:102C5000020F07D007F12C01084849440BF0EFFBA5
:102C60000023CDE7304602F073FA0346C8E76FF061
:102C70000F03C9E7B82D01209C2D0120A8240020B6
:102C800010B5EFF31184202383F31288BFF36F8F05
:102C9000FFF7C2FE50B14368103307D16FF08B03CA
:102CA00000F12C01436004480BF0C9FB84F3118848
:102CB000BFF36F8F10BD00BFA8240020F8B5042516
:102CC00020270D4CEFF3118687F31288BFF36F8F27
:102CD0006368103307D16FF08B030848636004F119
:102CE0002C010BF0ACFB86F31188BFF36F8F013D15
:102CF00004F14004E6D1F8BD9C2D0120A824002059
:102D000070B50025094C0A4E314620460BF07BFB7E
:102D10000122A4F11000114601350BF038FB042DFF
:102D200004F14004F0D1002070BD00BFC82D012087
:102D3000452A00000123016981F84B300B6833B14B
:102D400091F849301BB1024808310BF078BB70474D
:102D5000A82400200123016981F84A300B6833B1AF
:102D600091F848301BB1024808310BF068BB70473E
:102D7000A824002070B50569EFF31186202383F3A2
:102D80001288BFF36F8FD5F8900008F0DFFC04467F
:102D900086F31188BFF36F8F30B100220023034800
:102DA00005F1180106F068FF204670BDA824002038
:102DB000012370B582F8483013680D4614463BB1C4
:102DC00092F84A3023B10E4802F108010BF037FBAC
:102DD000D4F890301A699B689A4205D17DB904F104
:102DE000180140F6CD4204E004F11801002DF8D09E
:102DF0000022BDE870400023014806F03DBF70BDD1
:102E0000A824002070B504460E46017912481546E4
:102E100008F0CBFDE8B194F900206378002A11DBBB
:102E2000202B04D0222B09D06FF0850005E007226B
:102E30002968103808F0E9FF002070BD638800F8A9
:102E4000093CF9E7212BEFD10723103828603360C4
:102E5000F2E76FF01200F0E79C2E0120014608B562
:102E6000034808F0AFFD10B1012300F8073C08BD8E
:102E70009C2E0120002103460C4AA0F8481010683F
:102E800083F89C10C3F8940090889279A3F8980076
:102E900083F89A2083F89B104022A3F89E1083F8B1
:102EA000A01003F14C0008F0BBBF00BF48ED0000CC
:102EB000F0B5D0F88C3004465B6885B01B6A1F7D86
:102EC000384608F095FD0646F8B994F88630E3B127
:102ED0004FF48062A06F03A908F057FC0546A0B12B
:102EE0008306A4F1180384F830600193084B08BFEF
:102EF00000F1FF35039900932A4602233846FFF775
:102F00004FFE2946A06F08F05CFC05B0F0BD00BF85
:102F1000B12D0000002310B50469C4F8A8300C4B93
:102F2000C4F8A400596804F1A80269B9C3E90022F1
:102F300004F1080007490BF066FA04F1180006498D
:102F40000BF08DFA002010BD0A605A60F0E700BF58
:102F50009C2E01201BBA0000B12E000030B54FF4AA
:102F600000334268056942F2A10085B0CDE9010352
:102F7000002385F89D30106AADF80C100A22007904
:102F800001A908F0EFFC054C95F89D3023B901200C
:102F90000BF0C1F8013CF7D105B030BDA1860100AE
:102FA000002373B5202504698DF8071084F8483094
:102FB000EFF3118685F31288BFF36F8F0122D4F8E7
:102FC00090000DF1070108F0C1FB86F31188BFF3F3
:102FD0006F8F01280AD00BF04EFA10B994F8A13087
:102FE0006BB9094B1A780AB901221A702122002301
:102FF00004F11801054806F03FFE02B070BD002143
:1030000021200BF0EDFAD3E7E75F0120A824002090
:1030100037B514460A1E054620DDD4F88C0004F1AD
:103020004C0108F093FB012384F8493023683BB13D
:1030300094F84B3023B1114804F108010BF0FFF96B
:10304000D4F88C104B684A699A1ACB699B1A3F2BAB
:1030500004D8012384F8A03003B030BD94F89E302A
:10306000002BF9D0064B40220093284601230194FF
:1030700004F14C01FFF794FDEEE700BFA824002007
:1030800011300000F7B50D4601461D4808F082FCDE
:10309000044610B3064656F8A439691E5F68052930
:1030A0001BD8DFE801F01C1A031C222610F8061CAE
:1030B00099B9012300F8063C3B6A3246187BFFF7BA
:1030C000A7FF14F85C2C42B93B6A1146187D0D4BE2
:1030D000019600930223FFF763FD03B0F0BD304675
:1030E00003B0BDE8F040FFF7C5BE012304F8053C7E
:1030F000F3E710F8053C002BEFD00023F6E700BF04
:103100009C2E0120B12D000037B50024084D4FF052
:10311000FF334FF4806228460649009406F06EFDA6
:10312000054928460BF0ADF9204603B030BD00BF7D
:10313000A82400204069052028F40000014807F079
:1031400053BB00BF8CEE000038B5044618B90F4BD6
:103150000F485B6898476168B1F5683F10D0B1F5DA
:10316000680F0DD00B4DA9420AD011F46861206898
:1031700007D0014608480BF02EF800232360656055
:1031800038BD142208F04CFEF9E700BF1C220020D5
:1031900031F400002C5F5CA9A433012008B560B3B2
:1031A0004368B3F5683F0ED0B3F5680F18D0144AE2
:1031B000934220D000684FF0FF324FF0FF3306F00B
:1031C000CFFA58B115E001220368D3E8EF1F0029B8
:1031D00003D1C3E8E02F0028F7D10AD1002008BDB1
:1031E0000368084A1B7803F5807352F82330002BDC
:1031F000F4D00548F3E70548F1E76FF4E040EEE767
:103200002C5F5CA900000350E98FFFFFEA8FFFFFEE
:1032100008B520B34368B3F5683F09D0B3F5680F2C
:1032200013D0114A93421DD0006806F011FB14E040
:1032300000220368D3E8EF1F012903D1C3E8E02F80
:103240000028F7D109D0094808BD00210368084AC1
:103250001B7803F5807342F823100020F4E76FF425
:10326000E040F1E70348EFE72C5F5CA9E98FFFFF3F
:1032700000000350EA8FFFFF10B5044618B91D4B3C
:103280001D485B6898476368B3F5683F2FD0B3F576
:10329000680F2CD0194A934219D1236803BB4FF011
:1032A000FF324FF0FF332146154806F02BFA08B9DC
:1032B00023681BB90F4B13485B6898471422002101
:1032C000206808F0ADFD4FF46863636008E0B3F573
:1032D000683F0DD83A2B03D040F6BA629342DED154
:1032E00020680AF0C2FF636843F03A03636010BDD0
:1032F000054AF3E71C22002031F400002C5F5CA992
:10330000A433012057F400003A00003A08B50649FA
:103310004023142205480AF050FFBDE80840044944
:10332000044807F0D3BA00BFA42E0120A433012023
:1033300094EE0000A8EE0000F7B5224E30688368D6
:10334000DB6B03B1984730688368DB6A002B31D1AF
:103350001D4C1E4D306883681B69002B2DD0012247
:103360000DF107019847012827D1236843B92B683D
:103370001BB369681A688B422A6008BF6A602360C1
:10338000134A9DF8070011887F2904D823684F1C31
:103390000B44178018720A28DCD10020236811889A
:1033A000186059600B494D684DB9C1E90033108070
:1033B0002060CEE798470028CAD103B0F0BD2B604B
:1033C0004B60F4E718380120C0330120D0330120CE
:1033D000D0460120C833012010B5044B04461868BC
:1033E0008368E1B25B689847204610BD1838012019
:1033F000F8B5054616460846EFF31187202383F3F8
:103400001288BFF36F8F1B490B684BB11A4C62686F
:103410009A4205D000221A60626862B9C4E900339A
:10342000164A136853B987F31188BFF36F8F184694
:103430000B603360F8BD13606360F1E7D2F804C03D
:103440001C686345146008BF546087F31188BFF39C
:103450006F8F5C680B60A042D8BF00F1FF3403F1AE
:1034600008012246284608F0D0FC0023601C2B559A
:103470000123DEE7C4330120D0330120C83301200B
:10348000002337B51C462349234AC1E90033C2E96A
:103490000033224A4868146088B9C1E90022013328
:1034A000082B02F18802F5D11D4D1E4828600AF054
:1034B00037FE38B94FF0FF34204603B030BD02600C
:1034C0004A60ECE70020FFF7CDF804460028F1D170
:1034D0002868836823B11B6C13B1224612499847B0
:1034E00028688368DB6A0BB1984748B1286883680D
:1034F0001B69002BFAD001220DF107019847F4E770
:1035000000220A4B28681A8083681B6A002BD3D0DC
:103510009847D1E7D0330120C8330120D8330120A8
:103520001838012060E9000039330000D04601203E
:1035300041F204432DE9F043ADF54F7DADF808307D
:1035400040F606130025ADF80C30DFF81091444B1F
:10355000D9F800101B68434E4D70A3EB06080B789A
:1035600028465A1C62F302030B7098FA98F34B80BA
:103570008B8808225BBA8B8007F0AFFC314642464D
:10358000ADF8100007F0A9FC02271FFA88F440BA32
:1035900004F10A035BBA0222ADF810000DF112012A
:1035A00006A8ADF8123008F030FC0822D9F8001057
:1035B0000DF11A00ADF8127008F027FCBDF81200EA
:1035C00006AB083080B231464246ADF812001844CE
:1035D00008F01BFCBDF812303A461C44A0B22C4641
:1035E00006ABADF8120004A9184408F00EFCBDF8B3
:1035F000123040F2C9113B449BB2ADF81230009337
:1036000005AA06AB5BA8FEF711FA059B164E174FED
:10361000ADF81230BDF81230A34203DC0DF54F7D3A
:10362000BDE8F083336802215B68A4B903A898471A
:10363000BDF8125033682D1B7C2DA8BF7C255BAADA
:10364000101929465B6898473368012138465B6842
:103650002C449847DEE702A8E9E700BF7C38012048
:1036600034380120E85F01208038012084F4000014
:103670002DE9F04F4FF0FF34D5B00B46059406947A
:103680000794012100240DF128080246C8E90044EE
:1036900030A80091CDE901440421089409940AF06E
:1036A00036FA4022214620A808F0BAFB8E4B0321AF
:1036B0001C93052304221D938C4B06AFCDE91E37C6
:1036C0008B4B8C4821938C4B05ADCDE923388B4B2C
:1036D00007AE26938A4BCDE92B01CDE92836CDE9FB
:1036E0002D35279109AB1CA930A8229208F0B8FA11
:1036F00020B303240A2183480AF0F9FC82490222FC
:1037000080480AF0E7FC21467E480AF0CCFC4CB920
:10371000784903227B480AF0DDFC7C4B7948196824
:103720000AF0CBFC0A2177480AF0E9FCFFF700FF1A
:10373000089808F07CF855B0BDE8F08F2B68D8E900
:1037400000985A1CD5D0B9F1000FD2D0DFF8C0A133
:1037500033B93A68B2F1FF3F18BF1346CAF80030D8
:10376000DAF80000FCF714FF08A9C0B2FEF78AFBE4
:1037700004460028BDD12B68644D002B48D1089F1A
:1037800028603846D7F808B007F03FFA614A01468A
:10379000384607F074F908B10124ABE733685B459C
:1037A000A7D85D4A14605D4A13602A685A4E4244A5
:1037B00031680898013A08F034FA0028306098DB44
:1037C000089808F077F8B8FBF0F303FB1086DFF8F1
:1037D0004CB12B68A8EB06079844DBF8003008983A
:1037E000984538BF002608F065F8012806D90898E2
:1037F00008F060F8013819EA000F51D13B464A46FB
:103800002968089808F029F800287FF472AF2DE0A5
:103810002A6893427FF46EAF404A43441268934251
:10382000C3D966E7B845089828BFB84608F049F8F4
:10383000402201460CA808F0F3FA424649460CA87B
:1038400008F0E3FA4346296808980CAA08F005F83E
:1038500008B104464EE72B68C14443442B60A7EBF4
:103860000807089808F026F8B842DBD9DEB92B68BB
:10387000DBF8002033443B4493422B607FF43AAFA3
:10388000244B08981A68114608F0CBF9002883DB0E
:10389000DBF800200899DAF8000008F01BFFD8E7F1
:1038A0004FF04008DDE7089808F00BF808220146C1
:1038B0000CA808F0B5FA324609EB07010CA808F08D
:1038C000A4FADDF820802968404607EB010907F0DB
:1038D000F1FF494603460CAA404607F0BEFF002808
:1038E0007FF407AFC3E700BF86F40000FDDD0000F2
:1038F0008CF4000095F4000007DE000091F4000055
:1039000003DE00003438012019F200002C380120B9
:103910003038012024380120203801201C380120B3
:1039200038B505460A4C0A2120460AF0E0FB02227F
:10393000204608490AF0CEFB294620460AF0B3FB90
:1039400020460A210AF0DBFBBDE83840FFF7F0BD56
:103950003438012019F20000F0B50C68164F85B01C
:1039600002380D46C4F580610090144B381903AA43
:103970000131FEF7D9F80446D0B92B68039A1344F5
:10398000022B2B6011D93E88023B76BAB6B29E421A
:103990000BD13246B91C07F0A0FA30B9022E04D977
:1039A0002B689A1E2A60FC540124204605B0F0BD05
:1039B0004FF0FF34F9E700BF316101203465012089
:1039C000002307B502210093044A4FF4A47304486E
:1039D0000AF097FB03B05DF804FB00BFE85F01202D
:1039E000343801202DE9F04F072904469FB040F2FA
:1039F000D580037813F0050F40F0D0804388A1F103
:103A000008055BBA9BB2AB42C0F0C880AD4B00F179
:103A10000807186083885BBA8380FFF7D1FFA68808
:103A2000012E40F0AA81E379012B00F0BA80062B29
:103A300000F0BE80002B40F0A681247814F007042B
:103A400040F0A1813146A0480AF051FB06229F496F
:103A50009D480AF03FFB05219B480AF044FBDFF834
:103A60007082DFF8709200269B4F00E001263146FD
:103A70002046D8F80050FCF779FD05A9C0B2FEF742
:103A800001FA8246002836D13146204606AA08F0BF
:103A9000DEFD012805D120235146059806AA07F02E
:103AA000C7FE069B4B4520D1FDF734F831468246D0
:103AB000204603F0B5FB05465046FDF73BF8874B23
:103AC0001B689D4211D1FDF725F840238246002056
:103AD000059A009306A90EABCDE902000190FCF710
:103AE000D3FD05465046FDF725F83B680598AB42E7
:103AF00007D007F09CFE002EB8D0002C44D13446ED
:103B0000B1E707F094FE14216F480AF0F0FA05229D
:103B100073496D480AF0DEFA21466B480AF0CDFA87
:103B20000422704968480AF0D5FA314666480AF01E
:103B3000C4FA07226C4964480AF0CCFABDF82E306A
:103B4000402101939DF82D30684A00930EA89DF8FE
:103B50002C3000F075FC0C9B4BB1421E3E2A06D85F
:103B60000EADC0F14001624A284400F069FC0EA885
:103B700008F01DF90EA9024653480AF0ABFA1421C9
:103B800051480AF0BCFAB6E705214F480AF0B3FAEB
:103B900001214D480AF0B3FAFFF7CAFC1FB0BDE897
:103BA000F08F294638461FB0BDE8F04FFFF760BDE3
:103BB00023785B0702D00820FFF7B2FEFDF728FC50
:103BC0000121074640480AF092FA06223F493E4842
:103BD0000AF080FA02213C480AF085FA0025DFF855
:103BE0001491042138480AF082FA002847D00522AF
:103BF0003B4935480AF06EFA002840D02946324841
:103C00000AF05BFA00283AD005223B492E480AF018
:103C100061FAA0B302212C480AF065FA78B30026B5
:103C2000294CDFF8C0A0DFF8D4B022E004225146CE
:103C300020460AF04FFA10B3314620460AF03DFA0A
:103C4000E8B131462846FCF791FC0EA9C0B2FEF758
:103C500019F98046C8B10222494620460AF03AFACC
:103C600068B1414620460AF01EFA40B1002E63D1E9
:103C70000126032120460AF03AFA0028D6D1FFF7A0
:103C80009FFE0220FFF74CFE86E70422594620469D
:103C90000AF020FA90B10E9B204699680AF00DFABE
:103CA00060B10F22204616490AF014FA30B106EB33
:103CB0004501204601310AF000FA18BB0E9807F0C2
:103CC000B6FDDCE77C3801203438012099F400008F
:103CD000B82000203DB8F396BC200020B020002082
:103CE00086F40000A0F40000A5F40000ADF400008C
:103CF000B9F4000019F20000BDF40000DDF400008A
:103D0000C3F400000E9807F092FD032120460AF04C
:103D1000F6F90028B3D0002EAAD002212E480AF0CE
:103D2000EAF90028ABD017F8353043B904212A4806
:103D30000AF0E5F90028A2D08DB9012551E70E223D
:103D4000264925480AF0C6F9002898D03B1D53F8AB
:103D5000351021480AF0B1F90028E7D18FE7022198
:103D60001D480AF0C8F9002889D001211A480AF034
:103D7000C6F900287FF410AF81E7F6B9E379012B8B
:103D800007D0052B07D008201FB0BDE8F04FFFF784
:103D9000C7BD3046F8E7304608F0A3FC01280AD03A
:103DA0003046FFF7BDFD4FF4005000210AF018FC2B
:103DB000012007F057FB0A20E6E72A46394620464D
:103DC000054BFCF7F7FB00287FF4E8AE1FB0BDE819
:103DD000F04FFFF7ADBB00BF34380120D3F4000033
:103DE00001232DE9F34100250646DFF8C080304C61
:103DF00088F800302F4B304F0095186098F800304D
:103E000013B902B0BDE8F0812C4BC5F58061C3F851
:103E10000046C3F80446C3F80846C3F80C46C3F886
:103E20001046C3F81446C3F81846C3F81C4603F5F9
:103E30008053C3F80046C3F80446C3F80846C3F8E5
:103E40000C46C3F81046C3F81446C3F81846C3F826
:103E50001C46336801AA0131781998470028019B54
:103E600001DC002BCAD005442BB940F201439D422E
:103E7000C4D10025C2E73B78062B09D17B78092BFA
:103E80000BD1002300936946A81EFFF765FD04E0EF
:103E9000042B02D17B78142BF5D00128E9D10099AD
:103EA00007480239FFF79EFDE3E700BF30610120BC
:103EB0003546526E80380120326501200080015065
:103EC0003361012030BFFFF7FDBF00BF074A936891
:103ED00093F90E10002907DB526993421FBF044A71
:103EE000536843F080535360704700BFCC440120B7
:103EF00000ED00E0154B9A6A12F0007F9A6A14BF39
:103F00001E201D2012F0807F9A6A18BF1F2012F415
:103F1000801F9A6A18BF022012F4002F9A6A18BFF5
:103F2000212012F4802F9A6A18BF222012F4003F39
:103F30009A6A18BF232012F4803F9A6A18BF24207F
:103F40006FEA02426FEA12429A62704700ED00E0A7
:103F500010B5184B0246986A9C6A10F4805F14BF33
:103F60001720162014F4006F9C6A18BF1820A405AF
:103F700008D5986A000404D51AB19A6A22F400425E
:103F80009A6219200B4B9A6A12F4806F9A6A18BFD2
:103F90001A20D2050CD49B6A13F4005F18BF1C20B2
:103FA000044A936A43F47F43936200230B7010BD6D
:103FB0001B20F5E700ED00E010B51C4B0246986AA7
:103FC0009C6A10F0100F14BF1120102014F0080F7D
:103FD0009C6A18BF1220A40709D5586B986A00067E
:103FE00004D51AB19A6A22F080029A6213200F4B0C
:103FF0009A6A12F0010F9A6A18BF142012F0200F6B
:104000009A6A18BF1520D40658BF9B6A074B9A6A54
:10401000920642BF5A6A22F400525A629A6A42F0E9
:10402000FF029A6200230B7010BD00BF00ED00E09C
:1040300070B5444B06465B6800258AB0C3F308039D
:1040400085F31188BFF36F8F02F07F40B0F17F4F8F
:1040500011D102F00C0008280DD010074CBF0E46FD
:1040600001250022033B8DF80720032B05D8DFE84C
:1040700003F01E5C60592E46F3E700249DF80730DC
:104080009BB92022314602A807F0BFFE099B002DF4
:1040900053D0C3F3080222B96FEA53236FEA4323D4
:1040A0000993204602A907F02DFE0AB070BD254BEA
:1040B000DA6A9107E1D4DA6A002ADEDBDA6A5200B2
:1040C000DBD55A69B16942F480725A61BFF34F8FF0
:1040D000BFF36F8F5A6931F8021C22F480725A6163
:1040E000BFF34F8FBFF36F8F4DF60272914209D02D
:1040F0009A6AD2B242B101200DF10701FFF75CFFCD
:104100000446BBE73468B9E79A6A12F47F4F05D0DA
:1041100001200DF10701FFF71BFFF1E79B6AB3F5E3
:10412000803FAAD3FFF7E6FEEAE700200DF1070182
:10413000E4E700200DF10701EDE723F4FF7323F01E
:104140000103ADE700ED00E0064B5A6942F01002B2
:104150005A615A6942F480625A615A6922F008022F
:104160005A61704700ED00E0EFF30880EFF309813A
:1041700001B57246FFF75CFF01BD00BF002080F370
:104180001488BFF36F8F002080F30A8880F30B88B8
:104190000F4880F3088803F09DFF00200D49086058
:1041A000BFF34F8F00F01AF8202080F311880A48DF
:1041B0004FF40061401880F30988EFF31480022166
:1041C000084380F31488BFF36F8F00F0C3F800003A
:1041D00080A2052094ED00E04071052072B6002316
:1041E00083F313884FF0FF300C4A03F120010133B1
:1041F000102B42F82100F8D100234FF0FF30074A7E
:1042000003F160010133102B42F82100F8D162B6AE
:10421000BFF34F8FBFF36F8F704700BF00E100E027
:10422000084B9B6883420BD1EFF3058343B1064BE8
:104230005A6842F080525A605A6A22F400425A6226
:1042400005F0C4BFCC44012000ED00E013498A68AA
:104250004FF030001044EFF3098C80E8F01F20206D
:1042600080F31288BFF36F8F0D4F4FF000664A69DD
:104270008A603E60106F0023136780F3118802F19B
:10428000300090E8F01F8CF3098802F1000004B5BB
:1042900007F04DFDBDE8044070470000CC4401200C
:1042A00004ED00E01EF0040F0CBFEFF30880EFF305
:1042B0000980816911F8021C0229FFD001B57246FC
:1042C00007F026FD01BD00BF40B2002807DB012337
:1042D0004109034A00F01F00834042F82130704733
:1042E00000E100E040B200280CDB0122064943094E
:1042F00000F01F008240203341F82320BFF34F8F8E
:10430000BFF36F8F704700BF00E100E0054B42092B
:1043100053F82220012300F01F0003FA00F01040A0
:10432000704700BF00E100E040B2002801F1010148
:10433000ACBF00F16040064B4FEA4111C9B2ABBFC0
:1043400000F5614000F00F0080F800131954704729
:1043500014ED00E00B4A08B50B4B22F07F029A6087
:10436000BFF34F8FBFF36F8FD3F8882022F4700212
:10437000C3F8882005F00AF905F0BCFF00F042F808
:1043800005F044F90000000000ED00E042F8203C98
:10439000009B0B4942F81C3C019B21F0010142F8B3
:1043A000183C029B42F8081C42F8143C4FF0807302
:1043B00042F8043C0023203A02650367704700BFBF
:1043C00051B4000000B5094B0E4698601546036EC7
:1043D00083F30B882C4686F309880020044B98470A
:1043E0002046002100220023024C2047CC4401201B
:1043F00037BD000051B400001022014B1A61704714
:1044000000ED00E0002320210348C2180133452BB2
:1044100082F80013F9D1704700E100E008B5EFF32E
:104420000583064A103B02EBC30152F8330049688A
:104430008847BDE80840FFF749BD00BFD8E9000044
:104440000CB410B586B009B90DF10B000024CDE90C
:10445000040109AB089A009404A905480393FDF7E9
:10446000C3F8049B1C7006B0BDE8104002B0704752
:1044700033BE000000F01F0240090DD001280DD10D
:10448000094B03EB8203D3F8002222F0E04242EA18
:104490000171C3F800127047044BF2E70023803229
:1044A00053F82230FFDE00BF0028845000258450DE
:1044B00038B50124134B144DC3F8004502230321E2
:1044C000C5F8D0360020FFF7D5FF20460321FFF7BF
:1044D000D1FFC5F804472146C5F804492B20C5F88B
:1044E000004BFFF7C7FF21462C20FFF7C3FF2146F3
:1044F0002A20FFF7BFFF21461E20FFF7BBFF002049
:1045000038BD00BF001000500040005007B50DF14D
:10451000070003F003FF114B98421CD14FF4806257
:104520000F4B1049C3F8B8254FF40062C3F83C257F
:104530009DF8070009F0C5F90B499DF8070009F03F
:10454000BBF901209DF80730984003F0E1FE002000
:1045500003B05DF804FB6FF00B00F9E70000AD0B52
:1045600000A002502CA0025028A10250052370B5D3
:10457000144D154E2C780134B4FBF3F303EB830395
:10458000E41A08F060F8114A137823B156F8243081
:10459000C01A072814D94FF05023D3F8141141B191
:1045A0000021C3F81411D3F814312C700CB9012375
:1045B00013702C7808F047F846F82400012070BDED
:1045C0000020FCE734690120843801203369012090
:1045D00048B1054B054A1B68B3FBF2F35843044B43
:1045E00043F00103184770477421002040420F0038
:1045F00050ED00000149024806F0AFBFB8EE0000E0
:10460000983801204FF47F032DE9F041D3F8302191
:104610000646072A0D46D3F8343120D1023B032B3E
:1046200002D8124AD35CD3B14FF050244FF00108A6
:1046300000270520C4F81886C4F8147609F03AF962
:104640004046C4F8148609F035F9C4F81476C4F865
:10465000187630462B46BDE8F041002118474FF050
:1046600050230022C3F81426F3E700BFE2F4000051
:10467000BFF34F8F0549064BCA6802F4E06213434B
:10468000CB60BFF34F8F00BFFDE700BF00ED00E040
:104690000400FA050146014809F06EBE902300208F
:1046A0000149024809F0CBBEDC380120402500203A
:1046B000020600F07F0312D5082B05D1010700F098
:1046C0000F0306D50E48704710F0780F12D100F096
:1046D0000F034C2000EB43100A4B18447047082B83
:1046E00005D1020700F00F0306D50748704710F008
:1046F000780FF6D000207047044800EB4310704755
:10470000003A0120B4380120203B0120203A01204A
:1047100000220023014805F0EBB800BF90230020E1
:1047200013B5002201213720FFF7FEFD114800F0EC
:1047300025FE114B98421AD10024104804F0F0F9DC
:104740000F4804F027FE4FF0FF334FF480620D490D
:104750000D48009405F052FA0C490B4809F091FEFF
:104760000B480C4909F04FFE204602B010BD6FF017
:104770000400FAE7A54900000000AD0BF1F40000C9
:10478000C4EE0000406D052040250020E6F4000046
:10479000DC380120C14A0000002310B50B49D1E8E4
:1047A000EF2F012A03D1C1E8E03F0028F7D10CD157
:1047B00051F8044C1439204606F05DFF783004D1DE
:1047C0002046BDE8104006F032BF10BDD4380120AD
:1047D00038B5002464F07F00C0B2FFF769FF0134F0
:1047E00007F03CFB082CF5D100240E4DE0B2FFF79A
:1047F0005FFF036903B90561013407F02FFB082C43
:1048000005F14005F2D1084807F028FB074BD3F823
:104810007C2212B9064AC3F87C22064807F01EFB28
:10482000002038BD443F0120003A0120B438012067
:10483000443B0120203B012010B5054CFFF768FFE9
:1048400020B14168204609F0C6FCF7E710BD00BF63
:104850000023002007B5002300220E4801A904F020
:1048600051FF90B1FFF7E8FF00220023094801A99A
:1048700004F048FF38B90423019840600374FFF73F
:1048800009FFFFF70DFF002001E00198406003B031
:104890005DF804FB0023002010B50446FFF7DAFFA3
:1048A00060B1002204720274FFF7F4FE044B93F827
:1048B00024301BB1BDE81040FFF7F2BE10BD00BFB1
:1048C000B4380120012807B50FD002280ED048B90E
:1048D000002200230848CDE9002345F69A12002360
:1048E00005F0ACFE03B05DF804FB002003B05DF8FA
:1048F00004EBFFF7D1BF00BF90220020F8B5877806
:1049000006463846FFF7D4FE3B060446F57812D536
:10491000002D43D1FFF79EFF034600283ED0012221
:10492000A5770274032202739C60FFF7B3FEBDE813
:10493000F840FFF7B5BE4DB1012D2FD1FFF78AFF2B
:10494000034658B3657705740573EDE7FFF782FFFB
:1049500020B3B278124B12F0800F02F0080111D090
:1049600041B1D3F8A836E3600123037402238460C5
:104970000373DAE7142102F00F0201FB0233D3F8CC
:104980000836F0E711B1D3F8A837ECE7142102F0AC
:104990000F0201FB0233D3F80837E4E7F8BD00BF8C
:1049A00000600350F0B5064689B01422002103A828
:1049B00007F036FA3378013B052B21D8DFE803F006
:1049C0007A0314146A16032300248DF81430FFF7B9
:1049D00041FF0346A0B100F108020474DDE90501BE
:1049E00082E8030018461DE00423EDE7B778384657
:1049F000FFF75EFE837A044623B1013B022B43D9C5
:104A000009B0F0BD3B06F57813D5002DF8D1FFF7BE
:104A100021FF03460028F3D00122A5770274032268
:104A200002739C60FFF736FE09B0BDE8F040FFF767
:104A300037BE55B1012DE3D1FFF70CFF0346002827
:104A4000DED0657705740573EBE7FFF703FF0746D4
:104A50000028D5D00123037402238460037304F17A
:104A60000C01B07807F05EFA134AE168B2F88C32B4
:104A70008B4206D95B1AA2F88C3200F0C7FF384689
:104A8000D0E7A2F88C52FAE7304609B0BDE8F04012
:104A9000FFF734BF01A800F093FF9DF80530052B08
:104AA00004D19DF8043013F0600FA9D0034B01240A
:104AB00005938CE702248AE7B4380120203A0120CC
:104AC0002DE9F0438046A54CDFF8949285B0FFF7BE
:104AD0001FFE064610B905B0BDE8F08394F82530F6
:104AE000327C3BB9002A00F0888071689C4809F04C
:104AF00072FBECE7042A44D8DFE812F07F000500DF
:104B0000FE0014013E01337BB568032B39D8DFE882
:104B100003F0023F5C616F6908220021384607F00C
:104B20007FF9904B9048D3F880243A70D3F88424CE
:104B30007A70D3F88824D3F88C1442EA01227A8060
:104B4000D3F89024D3F8941442EA0122BA80D3F81F
:104B50009824D3F89C34394642EA03230822FB8088
:104B6000EA6007F052F92B680021687A984797F9B4
:104B70000030002B08DBFB8833B1A4F88C3200F046
:104B800045FF48467168B2E70023A4F88C32F8E785
:104B90006B7F002BF5D02B7F002BF2D000274FF03E
:104BA000FF326F774FF0FF3370482F7707F069F9C6
:104BB0006B6901A901936B68CDE90237687A00F04F
:104BC00033FC6A4807F05FF9DBE701212B68687A5C
:104BD0009847D6E7AB7A6BB9EB7F5BB963484FF088
:104BE000FF324FF0FF3307F04CF900F015FF5F483C
:104BF00007F049F902212B68E9E7327A042AC0D884
:104C0000DFE802F055031F636F0000F077FB0546F5
:104C10000028B6D100F024FB01235549D1E8EF2F3D
:104C2000002A03D1C1E8E03F0028F7D1A9D141F81B
:104C3000085C41F8105CE0691439636106F0A0FC7F
:104C40009FE7002565F07F00C0B2FFF731FD037AD2
:104C500013B1407A01F042F80135082DF2D194F8F1
:104C600054311BB194F8550101F038F80025E8B231
:104C7000FFF71EFD037A13B1407A01F02FF80135DA
:104C8000082DF4D194F874321BB194F8750201F038
:104C900025F8002000F016FB012384F82530236856
:104CA000002B3FF46EAF00210220984769E70025F2
:104CB00084F8255000F07AFFFFF76EFD2368002B83
:104CC0003FF45FAF29460420EFE7002B3FF459AFD4
:104CD00000F01EFB2368002B3FF453AF002105209A
:104CE000E3E72268002A3FF44CAF002B3FF449AFC2
:104CF00000210620904744E708F110054FF0FF33EC
:104D00004FF0FF32284607F0BCF8FFF761FD284658
:104D100007F0B9F858F8283C002B3FF432AF0021D7
:104D20000120C2E794F874327BB1012584F88952DE
:104D300084F88852FFF78EFD38B10E4A057405736A
:104D40008260FFF7A7FCFFF7ABFC58F8283C002B6C
:104D50003FF417AF00210A20A7E700BFB4380120B5
:104D60000023002000600350B8380120EC380120F7
:104D7000D4380120203B012004F0F4FA00F016FFA3
:104D800000F064FAFFF758FDFFF722FD04F0E2FAA5
:104D9000014800F0F3FAF4E6A549000038B5154DD6
:104DA00095F8244024BB05F1380009F05EFA022092
:104DB00001F0F8F822460121E8613620FFF7B4FA45
:104DC00004F0C8FAFFF704FD044610B9012385F882
:104DD0002430094B1B680BB1FFF762FC074BD3F87B
:104DE0000034DB0702D50020FFF76CFD204638BDFC
:104DF0000024FBE7B438012090230020007003500A
:104E000010B54FF0FF324FF0FF330B4807F039F881
:104E1000FFF712FD00F072FA08B100F0C7FE00249F
:104E2000FFF7BAFC04F09EFA044880F824403830BA
:104E300007F029F8204610BDEC380120B4380120D5
:104E4000074B93F824203AB193F82530002B14BF78
:104E500000206FF0120070476FF01200704700BF23
:104E6000B438012038B5104B044693F82430C3B150
:104E700005782846FFF71CFC10B96FF0150038BD07
:104E8000457223798372638843602078618810F0CB
:104E9000080F02D14B1E0B42EFD107F03EF8002065
:104EA000EDE76FF01200EAE7B438012038B5124B95
:104EB000054693F82420CAB193F82530B3B1FFF723
:104EC000F7FB0446A8B1837A012B12D007D9023B25
:104ED000012B07D900206369E060A36138BD00F0B1
:104EE000A1FDF7E7284600F03FFDF3E76FF0120061
:104EF000F4E76FF01500F1E7B438012038B50E4B38
:104F0000054693F8242082B193F825306BB1FFF762
:104F1000CFFB68B115F008040AD1284600F046FD21
:104F2000284600F013FF204638BD6FF01200FBE763
:104F30006FF01500F8E700BFB438012038B50C4B0E
:104F4000054693F824200C4662B193F825304BB106
:104F5000FFF7AEFB48B144B1284600F00DFD2070CC
:104F6000002038BD6FF01200FBE76FF01500F8E786
:104F7000B438012070B5134E044696F82430C3B1FE
:104F8000FFF796FB0546B8B1230705D4204600F08D
:104F90000DFD204600F0DAFE2B7A83B901232B7237
:104FA00096F825300BB9002070BD204600F096FE23
:104FB000F9E76FF01200F7E76FF01500F4E76FF014
:104FC0007700F1E7B43801202DE9F043DFF8E48001
:104FD0001E4698F8243007468946154685B0002BB2
:104FE00061D098F82530002B5DD003065ED5FFF721
:104FF0005FFB0446002859D0037A002B56D04FF0AF
:10500000FF334FF0FF3208F1380006F03AFFA37F7C
:105010004BB108F1380006F036FF6FF00A04204665
:1050200005B0BDE8F083A37AC5B13BB301234FF0CF
:105030000008A377384601A9CDE90195CDF80C8089
:1050400000F0F2F91C4B984229D084F81E801EBB58
:105050006FF00404194806F016FFE0E7E27F02B1A2
:10506000E577002BE2D100F0E3FC8742DED000F0D0
:10507000D3FC124806F007FF0024D0E7B8F80A3046
:10508000AB42F0D96268B5FBF2F302FB1353002B7D
:10509000E9D10123E377E6E7C6F80080D8E706B157
:1050A00035600024D6E76FF01204B8E76FF01504FE
:1050B000B5E700BFB43801200000AD0BEC3801208B
:1050C0002DE9F0411D46204B174693F824200E464B
:1050D000002A33D093F8253083B3030631D401B9C5
:1050E0007FBBFFF7E5FA044658B3037A4BB34FF0A2
:1050F000FF334FF0FF32154806F0C3FEE368BB42B2
:10510000984628BFB84646B93FB905B12B600F484D
:1051100006F0B9FE0020BDE8F08142463046A169A4
:1051200006F073FEA3694344A361E368A3EB08039D
:10513000E360002DEBD0C5F80080E8E76FF01200C7
:10514000E9E76FF01500E6E7B4380120EC380120FC
:1051500070B51E4D034695F8242082B395F825209E
:105160006AB31B062ED4FFF7A3FA044650B3037AA2
:1051700043B34FF0FF334FF0FF3205F1380006F034
:1051800080FEE368B3B9012663692677A361637F74
:1051900083B1FFF75FFB30B905F1380006F073FE0D
:1051A0006FF00B0070BD067484600673FFF772FA2F
:1051B000FFF776FA064806F066FE0020F2E76FF089
:1051C0001200EFE76FF01500ECE700BFB4380120E4
:1051D000EC38012010B5084B0C4693F824302BB165
:1051E000FFF766FA28B10460002010BD6FF01200CE
:1051F000FBE76FF01500F8E7B4380120014B1860A9
:10520000704700BFB438012008B5074B93F824302D
:1052100023B1FFF74DFA20B1406808BD6FF01200CE
:10522000FBE76FF01500F8E7B4380120064B10F0EB
:10523000800FA3F1D80208BF1346182200F00F0018
:1052400002FB0030704700BF5C4201200023024A8D
:105250001360024A137070473C43012039690120F2
:105260004FF40062114BC3F800240122C3F800255B
:10527000D3F800241205FBD54FF40062C3F80024D4
:105280008022C3F81C250122C3F8302540F2FF120A
:10529000074B1A600023074A1360074A1370074A36
:1052A00013700222064B1A70704700BF0060035053
:1052B000384301203443012035690120376901203A
:1052C000396901200022094B10B51A70084A094BB0
:1052D000094C002808BF13463620C4F80033FEF7F7
:1052E000F3FF0123C4F8043510BD00BF3869012065
:1052F000FDFFDF01FDFFFF0100600350034B187845
:10530000012894BF00200120704700BF39690120A7
:1053100010B54FF0FF324FF0FF33154804F04EFB4D
:10532000EFF31181202383F31288BFF36F8F114BAA
:105330001B7803F0FF0483B10F4BD3F8002412F461
:1053400000720AD10120C3F82C05D3F82C05D3F83C
:105350000004800502D5C3F82C25002481F31188B0
:10536000BFF36F8F024804F0F5FA204610BD00BF6E
:10537000802300203869012000600350F8B51C4BE1
:105380001C7894BB1B4A40F2FF171060012226468E
:105390001A7064F07F0514F0080FEDB214BF39469F
:1053A0004021284606F0B9FD2846FFF73FFF0134AB
:1053B000092C867506730661EBD1002440F2FF17B5
:1053C000254614F0080FE6B214BF39464021304696
:1053D00006F0A3FD3046FFF729FF0134092C85753F
:1053E00005730561EDD10448F8BD0448FCE700BF32
:1053F000396901203C4301200000AD0B0500AD0BD5
:10540000084B10F0800F14BFD3F81025D3F81425E3
:10541000012300F00F018B40134214BF0120002034
:10542000704700BF0060035002462DE9F843EFF3D8
:105430001187202383F31288BFF36F8F030703D1F3
:10544000194B1B7883422AD1184B10461C684FF029
:105450000109E44306F059FD154EA4B2356809FA76
:1054600000F82C4314EA08041BD11046FFF7DEFEB7
:10547000034680F80C9007C983E807004FF48002C8
:105480001C619C750B4B45EA08050B483560C3F859
:10549000042187F31188BFF36F8FBDE8F8830748B5
:1054A000F7E70748F5E700BF3769012038430120D7
:1054B0003443012000E100E00000AD0B0A00AD0B19
:1054C0000B00AD0B10F0080F074B06D0D3F8C0044B
:1054D00010F4803F18BF0020704700F00F0000F567
:1054E000947053F820007047006003502DE9F74F87
:1054F000AA4BAB4ED3F85421DAB10022C3F85421A1
:10550000D3F80413890214D58DF80420D3F820258C
:1055100001A8ADF80620D3F8C034002B14BF4FF01B
:1055200001224FF480723368134333609D4B1B6834
:1055300098479A4BD3F8604134B10022C3F86021F8
:10554000D3F86C44C3F86C44D3F828214AB1002244
:10555000C3F82821944B187806F0D7FC0123834028
:105560001C43DFF84882924F98F8005098F9009059
:1055700015F0080141D1B9F1000F05F00F032CDA45
:105580008C4A52F8230010B342F8231014225343DC
:1055900003F1A04303F55833D3F80836864A03F0E5
:1055A000010311784B401370844804F0D3F9284666
:1055B000FFF73CFE837D032B37D1284606F0A5FC80
:1055C000012303FA00F03B6823EA00033B60012556
:1055D0004FF00609DFF8CCA15DE0794A52F82300CC
:1055E0000028F4D042F823101422534303F1A043BF
:1055F00003F55833D3F80837D0E7B9F1000F674BFC
:1056000009DBD3F85021002AE1D00022C3F8502151
:10561000D3F8A837C2E7D3F82C21002AD7D000222C
:10562000C3F82C21D3F8A836B8E7037BDBB92846AA
:1056300006F06BFC012303FA00F03B68B9F1000FA0
:1056400023EA00033B6001DA882DC0D106238DF8E0
:10565000043000238DF80730524B8DF806501B683C
:1056600001A89847B3E7002DB1D101224B4BDA6472
:10567000ADE794FAA4F0B0FA80F0326805FA00F3CE
:105680001A430F28326024EA03043A6840F39C80EE
:10569000134200F0A980002CEBD1404BD3F800213D
:1056A0005AB1C3F80041474B01A81C703E4B1C7017
:1056B000012301933B4B1B689847384BD3F8582183
:1056C000002A2ED00022C3F85821D3F80044C3F892
:1056D0000044E30508D501223A4B01A81A700223C1
:1056E0000193304B1B689847A50508D50022354B20
:1056F00001A81A70032301932A4B1B689847600581
:105700000FD5304B1A7862B100221A700122234B58
:1057100001A8C3F808259A6504230193214B1B684F
:1057200098471E4BD3F85C3103B3244B9B681BB9DD
:1057300098F80030590619D00022184B01A8C3F878
:105740005C21D3F88034184A23F07F0313703B6840
:1057500023F001133B60336823F4803343F00103EB
:105760003360052301930F4B1B6898473A683368F1
:105770001A4200F0E18000220023104804F01EF9D4
:10578000002840F0D980054BD3F82C35002B7BD076
:105790000A4803B0BDE8F04F04F0DCB800600350E5
:1057A000384301203C43012037690120366901203C
:1057B0003443012008610350356901208023002013
:1057C000306103503869012013407FF464AF60F00A
:1057D0007F018DF804908DF806108DF80730DAF807
:1057E000003001A8984756E7A0F110018DF8049009
:1057F0008DF806108DF80750F1E749F0800528462E
:10580000FFF714FD4368B0F814A001689A4528BF5B
:105810009A4601F06043B3F1005F044604D052465B
:105820004E4806F0F2FA4D492268636852442260FD
:10583000A268A3EB0A03D20768B2636053D5BAF13A
:10584000000F52D1002323734FE011464FF0000A9E
:10585000604545D1003B18BF0123002A42D0504586
:1058600040D9012303FA09F32BEA03033B60062323
:1058700002228DF804303A4BA2751B688DF8065051
:105880008DF8072001A89847D7F800B033681BEAC5
:1058900003093FF47DAF19F0012314BF93FAA3F974
:1058A00099FAA9F9B9FA89F9B9F10F0FA5D9A9F1AE
:1058B0001005EDB22846FFF7B9FC04462846FFF76D
:1058C00001FE6368B4F814C098422268BDD81B1A60
:1058D00000EB020E114682466360C4F800E0B7E7B1
:1058E0000023BAE768B2002BACD00122336802FA79
:1058F00009F923EA09033360236915F0080F5344BB
:10590000236188F80050174B19D100284FF014007C
:1059100005F00F0500FB0530B5BF03EB85030A3525
:10592000C0F80016C0F80017B5BFC0F804A6C0F84C
:1059300004A75A6043F8252003B0BDE8F08F002883
:10594000B5BFC3F8A016C3F8A017C3F8A4A6C3F840
:10595000A4A7B4BF5A629A64EEE700BF4441012095
:105960003C43012000600350024B40F48070C3F8B8
:105970001805704700600350030713D400F00F03AD
:1059800010F0800F084A0BBF03F5887303F584738A
:1059900002EB830252F8230008BF5068003818BF9A
:1059A000012070470020704700600350034BC3F88C
:1059B0000C0540F48070C3F80C057047006003507C
:1059C00010B504460822002106F02AFA0E4BD3F83F
:1059D00080242270D3F884246270D3F88824D3F80A
:1059E0008C1442EA01226280D3F89024D3F89414F4
:1059F00042EA0122A280D3F89824D3F89C3442EAE8
:105A00000323E38010BD00BF006003500122014B5F
:105A1000DA647047006003500122014B1A65704739
:105A2000006003500122014B5A657047006003502B
:105A3000014B1878704700BF37690120024610B546
:105A4000EFF31184202383F31288BFF36F8F06F0E6
:105A50005CFA01230A4903FA00F00B6823EA000309
:105A60000B6012F0080101BF02F00F02054B02F5B6
:105A7000947243F8221084F31188BFF36F8F10BD26
:105A80003843012000600350F7B50146EFF311855C
:105A9000202383F31288BFF36F8FFFF7C7FB0646FF
:105AA000084606F032FA012211F0800F02FA00F2E5
:105AB0002D4818D1036832EA03040AD00846FFF7DC
:105AC000BDFF0323B37585F31188BFF36F8F03B058
:105AD000F0BD264923EA020303600B68347323EA0E
