:020000040001F9
:10020000F82B0020B108010085090100F547010025
:1002100015480100354801007548010055480100A6
:10022000000000000000000000000000891A01002A
:100230008509010000000000850901008509010011
:100240008509010085090100000000001F2301004D
:10025000000000008509010000000000000000000F
:100260008509010085090100850901008509010052
:100270008509010085090100850901008509010042
:100280008509010085090100000000000000000050
:100290008509010085090100000000000000000040
:1002A0008509010085090100850901008509010012
:1002B0008509010085090100850901008509010002
:1002C00085090100850901008509010085090100F2
:1002D0008509010000000000850901000000000000
:1002E0008509010000000000850901008509010061
:1002F00000000000850901000000000085090100E0
:10030000000000000000000000000000850901005E
:100310008509010000000000850901008509010030
:10032000000000008509010000000000000000003E
:1003300000000000000000000000000000000000BD
:1003400000000000000000000000000000000000AD
:100350008509010000015F5F02000000FE0B000044
:10036000191B0100800600000000000000000000D2
:100370000000000000000000000000000100FFC3BA
:10038000000000C4003200200000000001015F5F97
:10039000030100001F010000D10601000000000061
:1003A000000000000100000001000000000000004B
:1003B000000000000000000000000000000000003D
:1003C0000000000070000000604C01008000000090
:1003D000000F0000010000001105010001015F5F36
:1003E000040100001F0100003F08010000000000A0
:1003F00000000000000000000100000000000000FC
:1004000000000000000000000000000000000000EC
:10041000000000006B4C01004000000005070000D8
:08042000010000002B070100A0
:1004400038B50025054C29462046D4F80024C4F8C8
:10045000045404F042FAC4F8005438BD202C0020A3
:1004600037B511460022CDE9002242680346402AF2
:10047000046845D1228D150A032D17D0012D37D0E0
:1004800022482468D0F80404AA1ECDE90040082AB6
:1004900039D8DFE802F0050B0F14191E23283000AD
:1004A0006A46184600F037F903B030BD184600F030
:1004B00020F9F9E76A46184600F01EF9F4E76A46A3
:1004C000184600F013F9EFE76A46184600F017F9EE
:1004D000EAE76A46184600F015F9E5E76A46184665
:1004E00000F013F9E0E76A46184600F011F9DBE77F
:1004F00000F014F9D8E76A46184600F013F9D3E77C
:100500006FF08000D0E76FF08500CDE7202C002051
:100510002DE9F04F05680446A3B0002D40F0B180EE
:100520002022294602A804F0D8F912AF2022294639
:100530000AA804F0D2F940222946384604F0CDF941
:10054000E26904F11C039846B2B10426E26A04F1A0
:100550002C03EAB10425EEB96FF08306304623B0D0
:10056000BDE8F08F002EF1D053F8041D3246013E55
:100570000029F7D01646E9E70326F5E7002DEAD073
:1005800053F8041D2A46013D0029F7D01546E2E73D
:100590000325F5E740233A460021606804F0DAF9C4
:1005A0004028D9D1CDE902700127DFF8DCA00DF198
:1005B000080904F1100BBE421FD10AAF38460021D2
:1005C000314A08EB8509D2F80034C84533D109B166
:1005D000C2F80034A3683146C2F8043402A82B469E
:1005E0000AAAFFF73DFF4FF000080646454507F110
:1005F00008073DD1FFF724FFB0E75BF8043F1A1D61
:1006000021D8DAF80004D91C21F00301C0F580627A
:10061000914218D8014400EB0A02CAF8001460683D
:100620003946019204F096F9019AC9F80C00013795
:1006300049F8082FBFE758F804EF1EF1040F07D957
:1006400009B1C2F80034FFF7FBFE6FF08C0685E7B6
:100650000EF1030C2CF0030CC3F5806AD44500F1B5
:100660000800EDD8D11840E9021E63440121ACE72F
:10067000414657E90223606804F081F908F1010856
:10068000B4E76FF0850669E7202C002008B5282222
:100690000021024804F021F9002008BD2830002084
:1006A00010B5044C0F222046034904F0F1F820460F
:1006B00010BD00BF513000204208010008B50121E3
:1006C000024802F007F9002008BD00BF50300020AA
:1006D00008B5FFF7DBFF40B9FFF7E2FFFFF7EEFFDA
:1006E00018B9BDE8084002F07FB908BD6FF0850079
:1006F00070476FF0850070476FF0850070476FF0AE
:10070000850070476FF0850070476FF08500704777
:100710006FF0850070476FF085007047D1E90001E8
:1007200002F026B96FF085007047F0B50368054602
:10073000B3F57D7FA7B007D040F2F532934207D0E2
:100740006FF0850027B0F0BD00F07AFC0020F9E7DB
:1007500000243C22214607A8CDE90244CDE9044407
:10076000069404F0BAF83C22214617A8169404F027
:10077000B4F8EA69019405F11C0302B30426EA6A9D
:1007800005F12C033AB30424731E012B52D8012C1B
:1007900050D80423002168680DEB030204F0DAF856
:1007A00004281AD06FF08000CCE7002EE7D053F871
:1007B000041D3246013E0029F7D01646DFE7032626
:1007C000F5E7002CE0D053F8041D2246013C002937
:1007D000F7D01446D8E70324F5E7022E16D16E6948
:1007E000402E29D806AF33463A460121686804F006
:1007F000B1F88642D6D1CDE9027602A944B92246A3
:10080000019800F01AFD044620469BE70021F5E719
:100810002B6A402BC6D816AACDE90423019804AA56
:1008200000F00BFDDDE9042304460021686804F0B4
:10083000A6F8E9E7012085E76FF0890082E700204C
:1008400070474D62656420544C5320332E362E324F
:100850000000000000000000000000000000000098
:10086000A81C000001000000E9240100C1240100CF
:10087000407C0100803000203C000000407C0100F2
:10088000202C002000000000407C0100002C0020F3
:100890000000000070310020AF050000202C002077
:1008A00018010000002C00200800000001F06CBBC3
:1008B00008B572B6002383F31488BFF36F8F83F3F8
:1008C0000A8883F30B88BFF35F8F254B5A6A22F4A3
:1008D00080325A62D3F8942022F00102C3F89420A7
:1008E000BFF34F8FBFF36F8F1E4A9A6000F058F826
:1008F0001D4B83F309881D4B83F30A8883F30B8810
:100900001B4B15A1D1E90001C3E9000100F0C2F8B9
:10091000184B19498B4212D30020184B18498B42AF
:1009200018D301F0F5FD186850F82240586840F8D7
:100930002240013298688242F5D30C33EAE7002264
:10094000F8E71C6844F8220001325C68A242F8D340
:100950000833E4E70022F8E7A5EDF5FEA5EDF5FE86
:1009600000ED00E000020100F82B00200024002030
:10097000F82B002070080100940801009408010081
:10098000AC080100EFF30880EFF309812DE9F00FC7
:100990006B46724600F096F908B0FFF787FFFEE756
:1009A00038B572B6002383F3138883F311884FF0B0
:1009B000FF30274A03F120010133102B42F82100B8
:1009C000F8D100234FF0FF34214A03F160010133D5
:1009D000102B42F82140F8D1012200251D4B294659
:1009E0005A60C3F84843C3F8084303F580535A607C
:1009F000C3F84843C3F80843A3F55043C3F8005570
:100A00008022C3F80843144803F067FF2946802278
:100A1000124803F062FF124B2946C3F800558022AA
:100A2000C3F808430F4803F058FF802229460E48B8
:100A300003F053FF0D4BC3F808454FF05023C3F8A4
:100A4000084362B6BFF34F8FBFF36F8F38BD00BF4F
:100A500000E100E0004001508080005080810050A3
:100A60000090005080900050809100500070015024
:100A70004FF47F03D3F83021D3F83431072A05D15E
:100A8000023B032B02D8024AD05C7047002070471B
:100A9000622301007D4A08B5D2F8D03043F002034A
:100AA000C2F8D030FFF7E4FF58B1794BD3F8202AD1
:100AB0003AB90D21C3F8201A0121C3F81C19C3F853
:100AC0001C290022D30003F57F03D3F80013013162
:100AD00007D0D3F800130132D3F80433202A0B6077
:100AE000F0D1FFF7C5FF002840F0B980FFF7C0FF45
:100AF00040B1684B684AC3F830254FF050230122BB
:100B0000C3F858254FF47F03D3F83021D3F834319C
:100B1000072A09D1023B032B06D8604AD35C1BB1DC
:100B200000225F4BC3F84C25FFF7A2FF50B14FF0F6
:100B30005023D3F80024D00742BF0022C3F8142169
:100B4000C3F818214FF47F03D3F83021D3F83431A0
:100B5000072A09D14FF05023D3F80024D10744BF0E
:100B60006FF00102C3F80024FFF782FF18B165227D
:100B7000474BC3F80C274FF47F03D3F83021D3F849
:100B80003431072A16D1464BD3F82034002B11DA22
:100B90004FF050230322C3F8182501229A60D3F89E
:100BA0000421002AFBD00022C3F804210122DA60CC
:100BB000C3F818254FF47F03D3F83021D3F834312C
:100BC000072A23D1023B032B02D8364AD35CEBB170
:100BD0007E222F4B2F49C3F80C27C3F83C297F23D3
:100BE000314AC2F818310023C1F8043EC1F8083E6A
:100BF00001F54821C1F81031C2F82431C2F82C3176
:100C000002F5FF1202F58052C2F8A032274B9A6A11
:100C1000D2072CD501211F4AC2F80415D2F80014BE
:100C20000029FBD09A6A22F001029A62194BD3F88C
:100C30000024002AFBD00022C3F80425D3F80024A6
:100C4000002AFBD0BFF34F8F1049194BCA6802F43A
:100C5000E0621343CB60BFF34F8F00BFFDE7292253
:100C60000B4BC3F80C270322C3F83C273EE7074988
:100C7000D1F88C2042F44062C1F88C2019680D4AEA
:100C8000C2F84415DB69C2F84C3508BD00ED00E040
:100C900000400050009003504400EFBE5E2301006E
:100CA000002003505A230100002000500080FF0064
:100CB0000400FA05006000507C22014903F0E8BD01
:100CC0009C38002038B51D46234B244C5B68C3F389
:100CD00008032360EFF3038363655306C4E901202F
:100CE000E1602DD502F00C020C2A08BF084601462F
:100CF000206120221A4803F0CBFD25B1202229468D
:100D0000184803F0C5FD144B9A6AA265D96AE165DB
:100D1000986B206602F400406066586BA06602F093
:100D20008000E0669A62D962D3F8E4202267D3F8A3
:100D3000E810616702F04001A167C3F8E42038BD04
:100D4000EFF39483990704D5130702D5EFF3898055
:100D5000CDE7EFF38880CAE700ED00E09C38002083
:100D6000B0380020D0380020003A18BF01220039E6
:100D700018BF012103688900074841EA420118634E
:100D800059605A6842F001025A60BFF34F8FBFF3B7
:100D90006F8F0020704700BF04AAFF000722024B9C
:100DA000C3F80423704700BF00300050084BD3F84D
:100DB0000801D3F80021003818BF012080000AB1D3
:100DC00040F00100D3F804310BB140F0020070474D
:100DD000003000500022074BC3F80021D3F8001167
:100DE000C3F80421D3F80411C3F80821D3F808315B
:100DF000704700BF00300050002317200C49032B20
:100E000003F1010201D81346F9E703F5C073402A44
:100E100041F823001346F2D100231720044A03F5BA
:100E2000E0710133402B42F82100F8D1704700BF38
:100E30000030005010B59DF80840800B43EA0423B1
:100E4000064C890B43EA0213884200D910BDC2B296
:100E500002F5C07244F822300130F5E7003000504E
:100E600010B59DF8084000F1604043EA042301F109
:100E70006041074C400B490B43EA0213884200D9FA
:100E800010BDC2B202F5E07244F822300130F5E73D
:100E900000300050C0F30D03C3F58043B3FA83F371
:100EA000C3F11B03064AC0F38730DBB240F4807005
:100EB00043F48073C2F80005C2F80435704700BFE0
:100EC000003000504303014818447047FF1FF81FCB
:100ED000054BC0F30730090241F0300100F5007006
:100EE00043F82010704700BF00300050044BC0F39F
:100EF0000730090200F5007043F82010704700BF6A
:100F00000030005008B5FFF751FF014B186008BDD5
:100F1000603F00200C22014903F0BABC603F002072
:100F200008B501F0E3F968B901F0BEFD58B9074A08
:100F3000D36823F008031B041B0C43F0BF6343F486
:100F40000033D36008BD45F22350FBE700ED00E01D
:100F5000024B1860024B002019607047703F002060
:100F60006C3F00201FB5274C426923685A62826992
:100F70009A62C269DA62026A1A63426A5A63826AD0
:100F80009A63C26ADA63026B1A64426B5A60826BBC
:100F90009A60C26BDA60026C1A61426C5A61826CB0
:100FA0009A61C26CDA61026D1A62826D5A65C26D15
:100FB0009A65026FDA65026E1A66826E5A66426F31
:100FC0009A66EFF388825A64EFF389829A644268E2
:100FD000DA64EFF394821A65026801A81A67FFF7D2
:100FE00099FF2368019ADA6601221A70064B1C6881
:100FF00064086400204621462246234603F02DFD66
:1010000004B010BD703F00206C3F002000B5A1B0BF
:1010100001A8FFF751FE029B63B15B060AD4019B56
:1010200023F00203052B05D1044B1B6813B101A863
:10103000FFF798FF21B05DF804FB00BF6C3F002074
:10104000BFF34F8F0549064BCA6802F4E0621343B1
:10105000CB60BFF34F8F00BFFDE700BF00ED00E0A6
:101060000400FA05F8B543680C2B26D14B68042B15
:1010700023D14FF0FF3304680E6821683360E1B17B
:10108000A268D2B10623012001F082F8A8B96168F4
:101090000B4BD3E9005CA9420AD3A26865448F18C0
:1010A000AF4205D8206803F0F3FB00203060F8BDA4
:1010B0000130062803F10803EBD10220F7E700BF57
:1010C00068230100436870B50C2B32D14B68042BA8
:1010D0002FD14FF0FF3306680C683068236050BB97
:1010E0007268550903D0012D1CD14FF6FF7302F031
:1010F0001F02D340D90719D5B168072916D88B2309
:10110000CB40DB0712D57DB1012D16D10D4B03EB82
:101110008203D3F8002222F0E04242EA0172C3F8CF
:1011200000220023236070BD074BF0E74FF0FF3330
:10113000F8E70220F7E70320F5E70023803253F8B1
:101140002230FFDE00288450002584504B6830B5E3
:1011500013F01F052DD102680C681068C0F307203A
:10116000844226D25068556094600C7C23F01F03A3
:1011700004F001041C438B7CDB0003F018031C43C8
:101180004B7C5B0003F006032343D3608B68013B79
:1011900023F01F04CB685B0003F00E03234343F0EE
:1011A000010313615060BFF34F8FBFF36F8F284669
:1011B00030BD0120FCE7036800205A68C9B25860BE
:1011C0009960D86018615A60704770B50546002470
:1011D00003681E68C6F30726B44201D1002070BD23
:1011E00021462846FFF7E7FF0134F5E78003704703
:1011F000800300F57F503F307047002070473F204C
:1012000070474FF48040704700F57F40C030400386
:101210007047402070477F2070474FF40050704760
:101220000020704708B5FFF7F1FE72B620BFFDE75A
:1012300000207047002070477047034670B508468D
:101240001146042B3AD8DFE803F003070B390F00EF
:10125000BDE87040FFF706BFBDE8704000F030B851
:10126000BDE87040FFF72EBF4368082B01D0022075
:1012700070BD4C68042CFAD14FF0FF3305680E683E
:10128000296833600029F2D06B68002BEFD0262349
:101290007422012000F07CFF0028E8D1224623239D
:1012A0000120696800F074FF04460028DFD1D5E909
:1012B0000001FFF74DFE30602046D9E70320D7E755
:1012C00043680C2B01D0022070474B68042BFAD1E5
:1012D0000B6801210268196011680131F3D1022104
:1012E000906819600028EED11860704708B5114B5E
:1012F00083F30A88104800F0E4FFC0B9FFF710FE3E
:10130000A8B9FFF78DFF90B9FFF792FF58B9FFF723
:1013100093FF00F03CFF00F0DFFD00F0E9FB00F080
:10132000B3F8002008BDFFF785FF0028EFD000F0DC
:101330002BFEF2E7002400201839002030B5094CBC
:10134000024661680023084640B105686D68954211
:1013500005D11BB1826860609A60816030BD034630
:101360008068F1E79C39002038B504462AB10B6843
:101370009B68DB0512D5002038BD0B4B1D680DB9ED
:1013800000F002FE00222B68996934338A4203D0B0
:1013900053F8040FA04204D19142ECD16FF0FC004D
:1013A000EAE70132F2E700BFA439002070B5044635
:1013B0000E461546002130220C3003F08EFA064B03
:1013C00020461B68A6606360656100F0C4FE0023D0
:1013D0002061236070BD00BFA4390020034B186852
:1013E00010B1006800B14068704700BFA439002008
:1013F000064B10B51C680CB900F0C6FD23689B684D
:1014000013F4406F14BF0120002010BDA439002048
:101410002DE9F843904607460C46FFF7E9FF0246E0
:1014200024B96FF080042046BDE8F8836300F8D546
:10143000144B04F01F0153F82150002DF1D02B68FC
:1014400029465868FFF790FFB0B9C4F30721284632
:1014500000F09CFD04460028E3D1EFF3108972B63A
:1014600000F086FE064689F3108840B142462946C0
:10147000FFF79CFF3E60D6E76FF08104D3E76FF083
:101480008204D0E71C3900202DE9F04100F06FFE06
:101490000023134E134F73607B6000F0E9FADFF80E
:1014A0004880304600F022F80446A0B13946802337
:1014B000424600F0A1F80546204600F0ACFD206849
:1014C000211D00F041FB08B100F05EFD29462046D9
:1014D00000F07AFAE5E7BDE8F04100F08BBA00BF12
:1014E000A83900209C3900201C390020F8B5054699
:1014F00008B900F049FD3B4E346814F1310F6ED845
:10150000394B196804F130038B4268D2E369A26950
:1015100003EB83030E321344226A02EB42021344AC
:10152000626AC2EBC20213449B00E31801D29942E3
:1015300001D200F029FD23682C4A1B0C1B049342A6
:1015400001D000F021FD2388B3F5817F01D300F0A5
:101550001BFD6368002B01DA00F016FDD4E90A23B5
:101560009A4201DD00F010FDA36813F4406F22D110
:101570001F4A176807F1200313601E4A126893423E
:1015800001D900F001FDE369A26903EB83030E3288
:101590001344226A3C6002EB42021344626AC2EBCB
:1015A000C2021344326802EB83026B683260FB6153
:1015B0006F603846F8BD6F68002FD9D03B689A68D5
:1015C00012F4406F09D0E16A9A6A914205DBA26A7F
:1015D000DB6A9A4201DC00F0D7FCFF69ECE70027E8
:1015E000E7E700BF88300020A023010000005F5F14
:1015F000843000209C2301002DE9F74F0F469046D0
:101600000646009300B109B900F0BEFCD6F800A070
:10161000DAF818200AF1380303EB820BDAF81C40E1
:10162000204B1D6854B10C2202FB04541C601E4B5D
:101630001B689C4201D900F0A7FC2C4625464FF0C0
:101640000009DAF81C204A4500D91CB9002003B073
:10165000BDE8F08F142303FB09B20023C5E900267F
:101660009268AB60930516D5B8F1000F02D0009BCD
:10167000802B03D0019200F087FC019A12F0E00F5A
:10168000D0B202D158F820201AB1019000F07CFCB1
:10169000019848F820507A6809F10109AA607D6034
:1016A0000C35CEE780300020982301002DE9F04F63
:1016B00093B000935E4B0746D3F800B00BB2002BFB
:1016C0000D461646C1F30269C1F3024A04DA6FF00F
:1016D000800013B0BDE8F08F8B42C36001D10020C1
:1016E000F7E709EB0A03042BF1D8CC0F64014FEAAA
:1016F000C90831464246DBF8040044F0020300F01A
:1017000047FD01460028E2D1202202A803F0E5F8B7
:101710004246314602A84FEACA0603F0B9F83246FB
:101720000099DBF8040044F0060300F031FD804628
:101730000028CCD1014620220AA803F0CEF8324678
:1017400000990AA802AE03F0A3F8334608F1010895
:10175000C14514D91A46C4460DE0D2F808E0D16854
:1017600018687144884203D2596808448645AED34C
:101770000CF1010C0832CC45EFD10833E6E715F047
:10178000006F18BF20241022002107F11C0003F075
:10179000A4F807F118081022002107F12C0003F02B
:1017A0009CF808EB890944F00203C84512D1202CAB
:1017B00027D1002D02DBC5F3C0456C0107F12805D8
:1017C0000AAE05EB8A0A44F0060455451BD1009B7E
:1017D000FB6784E77268DBF8040056F8081B019386
:1017E00000F0D6FC00287FF472AF56F8042C019B61
:1017F00048F8042F56F8082CC8F83000C8F8202004
:10180000D3E70024DAE77268234656F8081BDBF8B2
:10181000040000F0BDFC00287FF459AF56F8043CEA
:1018200045F8043F56F8083C28642B63CDE700BF19
:10183000A43900202DE9F0411F461A4B0D461646EB
:10184000D3F8008000F0B4FB044608B900F09CFB1C
:10185000E368002B01DA00F097FB032D01D900F0BB
:1018600093FB04EB8504E569E36CED1A16D00623BF
:101870003A463146D8F8040000F08AFC08B100F07E
:1018800083FBBD4228BF3D46E36CE16B2A46194409
:10189000304602F0FDFFE36C2B44E3642846BDE8CC
:1018A000F08100BFA43900202DE9F0411D461A4BFC
:1018B0000F461646D3F8008000F07AFB044608B9BC
:1018C00000F062FBE368002B01DA00F05DFB032F00
:1018D00001D900F059FB04EB8704E36AE26E9B1A1E
:1018E000AB4201D200F050FB02232A463146D8F821
:1018F000040000F04DFC08B100F046FBE36EE06D23
:101900002A463146184402F0C3FFE36E00202B4400
:10191000E366BDE8F08100BFA43900202DE9F04165
:1019200005464FF001080E4E0E4B37685C681CB937
:1019300028463760BDE8F0812268936813F4007090
:101940000CD16369012B09D0D368346023B1984767
:10195000002801DA00F018FBC4F81480E469E6E717
:10196000A4390020A839002038B5044610B96FF01A
:10197000800038BD8368002BF9D01A68002AF6D0A1
:101980005D68002DF3D00B4BA86168691D6020B91C
:101990002B68DB6853B901236B61A36804F10C0069
:1019A0001B681B69984701232360E2E798470028DA
:1019B000F1DADCE7A43900204268024B08461A60DD
:1019C000704700BFA43900200022036810B5C0E9A9
:1019D00005229A68044612F4406F07D0120503D519
:1019E000D3E90A0100F034F8014B1C6010BD00BFC0
:1019F000A439002038B5124B1B681C68A36813F487
:101A0000406F01D100F0C0FA00F058F9226B236951
:101A10000C49134423F00703A3F1080543E902111D
:101A200085F30988073222F0070282F30B88BFF39F
:101A30006F8F054BE268054900F083FC002038BD3C
:101A4000A4390020A5EDF5FEF82B00201D1901009A
:101A5000014BC3E900017047B0390020034BD3E9C3
:101A600000308342C8BF0020704700BFB03900205B
:101A700008B500F017F9034B986000F019F980F3EE
:101A8000888808BD00ED02E0EFF308807146EFF3AF
:101A90000982EFF30B830CB406B400F03DFA8646DE
:101AA000009900F0080001F00801401A02DC12DB86
:101AB00004B070471EF020031CBF2DE9F00FBDF1EC
:101AC000080D0A4C254626462746A046A146A246B2
:101AD000A34630B4704704B030BC1EF020031CBFD6
:101AE0001DF1080DBDE8F00F04B07047A5EDF5FE3F
:101AF000084BDA6882F07F4282F47F0242F480422F
:101B0000DA6000221A765A76DA76DA77602283F87B
:101B10002220704700ED00E0009A0A4B9A420FD154
:101B20000122904301460246034604460546064606
:101B30000746804681468246834684468646044759
:101B4000FEE70000A5EDF5FE2DE9F041044618B9C9
:101B500043F6DA30BDE8F0810029F9D0836800252A
:101B600013F4406F14BF012300234FF0140843F017
:101B700002030F4E0B6000F13807236AAB4201D815
:101B80000020E7E7A369E26907EB830308FB023360
:101B90000C226A4399188968090707D59B58B342F4
:101BA000D6D1306810B10121FFF792F90135E4E791
:101BB0009030002070B5324C86B03248FFF705FBFC
:101BC000236801255A1C01932F4B2260DA681B6998
:101BD0004FF44076039300232A4801A9029204950A
:101BE000ADF814608DF81630FFF7B0FA18B143F66F
:101BF000DA3006B070BD23688DF816005A1C0193C8
:101C0000224B20480293224B01A9CDE903352260E3
:101C1000ADF81460FFF79AFA0028E8D123688DF830
:101C200016005A1C01931B4B164802931A4B01A92C
:101C3000CDE903352260ADF81460FFF787FA00287C
:101C4000D5D123688DF816005A1C0193134B0D480B
:101C50000293134B01A903930223049340F201134F
:101C60002260ADF81430FFF771FA04460028BED1A7
:101C70002A4629460348FFF777F82046B9E700BF10
:101C8000B83900208C3000204C2401008024010051
:101C9000A04C01006008010060080100002C002039
:101CA000202C0020014B1868704700BF4C24010015
:101CB000014B1B68186870474C240100014B1B68DE
:101CC000586870474C24010008B5FFF71BF9FFF76F
:101CD00081F80A4B5A68103AD3B2120609D401218E
:101CE0005A0903F01F03994002F16003044A42F8C5
:101CF0002310BDE8084000F047B900BF00ED00E048
:101D000000E100E0054B03EB8000D0F8003223F047
:101D1000E04343F04053C0F8003270470025845040
:101D20000020034BD8765A6A42F470225A627047F8
:101D300000ED00E00349044BCA68002092B213434F
:101D4000CB60704700ED00E00800FA05074A084B39
:101D500011680020C3F84415D269C3F84C2502224B
:101D6000C3F84025C3F84825704700BF0080FF0036
:101D70000060005000224FF0FF30094B02F1A0013B
:101D80000132102A43F82100F8D1D3F88022002034
:101D900022F00802C3F88022D3F88032704700BFD7
:101DA00000E100E008B5FEF7F9FF0822024BC3F896
:101DB00080211A60002008BD00E100E0064BD3F846
:101DC000D02022F00102C3F8D020D3F8D02042F076
:101DD0000202C3F8D020704700ED00E037B50124BF
:101DE000FFF70AF81D4D224605234FF481301C49A8
:101DF0000094FFF71FF8224607234FF020201949CF
:101E00000094FFF72DF8D5E9010107230022009483
:101E1000FFF710F807230022134914480094FFF736
:101E20001FF82969E8680139FFF734F80623002212
:101E30000F494FF470200094FEF7FCFFFFF7F8F90C
:101E4000002814BF0623042300224FF00050094944
:101E50000094FFF705F8002003B030BD4C240100CA
:101E6000FFBF0100FF9F0020FFFF072000A0002010
:101E7000FFFF0F00FF1F002038B50024134D002185
:101E800055F8040B0134FFF731F82A2CF7D1002163
:101E900001240F4A0846C2F88014C2F88444C2F8EC
:101EA000C014C2F8C444C2F8C814C2F8CC44FFF746
:101EB00029FF2046FFF726FF064B0846C3F80045DA
:101EC0004FF48073C2F8403438BD00BFA423010032
:101ED00000300050001000500122014B1A60704782
:101EE000BC39002010B50446094B22891868616886
:101EF0000623406800F04CF928B9064B1B68012BFB
:101F000001D1FFF76BFA6FF08603236010BD00BFAD
:101F1000A4390020BC39002001F00C0370B50C2B53
:101F20000CBF154605464A060C4619D58B0658BF08
:101F30002835AB6913F8026C84F00803C3F3C003BF
:101F4000C6F38012934201D000F01EF816F0A00FE5
:101F500002D14EB1032E10D06FF083032B600AE044
:101F600000F012F82026E7E7FFF78EFA0446014654
:101F7000044800F0E2F9204670BD2846FFF7B2FFA2
:101F8000F9E700BFF82B0020FFF74CB903689A6807
:101F9000DB6812F4806F05D18B422CBF00206FF0FC
:101FA000FA0070478B420CBF00206FF0FA007047B8
:101FB00010B500F0D3F8044600F0E1F850B9FFF78F
:101FC0000DFAA3685B681B685B68834218BF002436
:101FD000204610BD0024FBE738B5054648B1FFF7A1
:101FE0003DFDB5EBD07F044601D0FFF7CDFF204685
:101FF00038BDFFF7F3F9F4E7002310B500F128022C
:1020000052F8041F19B1C16F146C19444C600833A5
:10201000202BF5D110BD70478230012808B506D8B5
:10202000FFF7E6F918B9BDE80840FFF7ADBF08BDF6
:10203000F8B506460D46FFF7BBFF044608B9FFF7A3
:10204000A3FFA7680FB9FFF79FFFE368991C20D093
:102050005A1C21D1A5B315F1820F13D1022323609D
:10206000EFF3108672B629462046FFF7A5FC054619
:1020700086F310882368022B24D1204600F081F8D3
:102080002846F8BD15F1830FEAD0FFF77DFF002544
:10209000E6E702232360FAE7002BF6DB2046FFF792
:1020A000ABFF3B689B689B0501D50223236015F1BC
:1020B000810FD5D16369002BD2DBFFF765FFCFE736
:1020C0003546F4E700232360DAE708B5FFF7AAF8FE
:1020D0006FF0830008BD2DE9F3410E461746984680
:1020E0000546FFF785F9FFF777FF2946024601A865
:1020F000FFF78EF9044660B943463A4631460198E7
:10210000FFF7D4FA044640B16B0002D5019800F005
:1021100038F8204602B0BDE8F0810198FFF724FCB2
:102120000446F6E740F20110704770B50546FFF728
:102130005FF906462846FFF701F9044608B9002072
:1021400070BD014632462846FFF70EF90028F6D149
:102150002368D868F4E74FF480507047B0F5805F8B
:1021600003D1EFF30B808038704700207047704731
:10217000EFF30B8000F1800383F30B88704700209E
:102180007047EFF30B83803B83F30B8870477047F6
:102190002DE9F0410F461546002A5BD0002900F0DA
:1021A0008D8003F00602062A57D09A0740F18680F8
:1021B00008249B0648BF44F01204860758BF44F029
:1021C0000404C00709D5EFF39483D9074CBF44F04A
:1021D000040424F0040444F012042246294638463C
:1021E00002F064FAB0BB47E800F205EB0708110EF5
:1021F000120208F1FF3646E800F34FEA13605AD5A1
:102200001B0258D5884256D047E800F546E800F64C
:10221000FEF7F3FF2D0E85424FEA166628D3FEF730
:10222000EEFF864224D82846FEF7E2FF2246C7F199
:1022300001010144384602F039FAE0B30135AE42FB
:102240000DD83046FEF7D2FF2246A8EB000102F07F
:102250002DFA80B30020BDE8F0810124A9E72846CB
:10226000FEF7C4FF0746FEF7CCFF22460146E1E732
:10227000FEF7CFFF85421ED3FEF7CDFF86421AD868
:102280002846FEF71FFE2246C7F1010101443846E9
:1022900002F00CFA78B10135AE4203D83046FEF7B1
:1022A000B3FFD1E72846FEF7AFFF0746FEF7B5FFBD
:1022B00022460146EBE76FF07F00CCE74CF2DA20D4
:1022C000C9E710B50446FFF779FDFFF787FD10B1A8
:1022D00043F6DA3010BDFFF7CFFD0028F8D1FFF745
:1022E00069FC0028F4D102232360F3E708B5FFF767
:1022F00017FD10B143F6DA3008BDFFF71BFD0028CB
:10230000F8D1FFF723FD0028F4D162B6FFF732FDC4
:102310000028EFD1FFF746FD0028EDD0EAE7EFF304
:102320000880EFF309812DE9F00F6B467246FEF746
:10233000C9FC08B0FFF7C8FCFEE704460D46A546F9
:10234000284783F3088896460222EFF31483134349
:1023500083F31488BFF36F8F084700000001010169
:102360000000010000000000000001000002000069
:102370000002FF002C0000005004FF0010000000CD
:102380003001FF0008000000200CFF0004000000E6
:102390000081FF0000030000E8310020D031002060
:1023A0002804010000000050004000500050005080
:1023B000008000500090005000B0005000C000505D
:1023C00000A0005000E0005000F00050000001505C
:1023D00000100150004001500050015000700150A9
:1023E000008001500090015000A0015000B0015049
:1023F00000C0015000D0015000E0015000F0015039
:102400000000025000100250002002500030025024
:1024100000400250006002500080025000A00250B4
:1024200000B0025000D002500000035000300350B2
:1024300000400350006003500070035000900350B0
:1024400000258450002884500010085000C001006E
:1024500000C00100FFFF0E00007C010000800100B1
:0824600000000F00FFFF0F0058
:102480000348044B834202D0034B03B11847704703
:102490007031002070310020000000000548064B1C
:1024A0001B1AD90F01EBA301491002D0034B03B152
:1024B0001847704770310020703100200000000084
:1024C00010B5064C237843B9FFF7DAFF044B13B17C
:1024D0000448AFF300800123237010BD8038002032
:1024E00000000000804C010008B5044B1BB10449FA
:1024F0000448AFF30080BDE80840CFE700000000CB
:1025000084380020804C0100A3F5803A704700BF5A
:10251000174B002B08BF134B9D46FFF7F5FF00211B
:102520008B460F461348144A121A02F0D6F90E4B86
:10253000002B00D098470D4B002B00D0984700206F
:10254000002104000D000D48002802D00C48AFF314
:10255000008002F023F920002900FEF7C7FE02F0F8
:1025600009F900BF000008000000000000000000A2
:10257000F82B0020703100202C48002000000000C3
:1025800000000000009A074B9A4208D110B502F0F3
:10259000C7F902F029F906BC96460C46744702F0CA
:1025A00003FA0000A5EDF5FE009A074B9A4208D108
:1025B00010B502F0C1F902F017F906BC96460C46B8
:1025C000744702F0F1F90000A5EDF5FE0CB4029A93
:1025D000084B9A420CD14FF0004319430CBC10B584
:1025E00000F022F802F000F906BC96460C4674474B
:1025F00002F0DAF9A5EDF5FE009A044B9A4202D1F9
:1026000003490868744702F0CFF90000A5EDF5FE14
:10261000E04A0100009A034B9A4200D1744702F04D
:10262000C3F90000A5EDF5FE2DE9F84304460D467B
:1026300016461F46EFF30583C3F308030BB1FFF7FC
:10264000A3FCDFF834903B46204632462946D9F8B1
:102650000080FFF740FDD9F800300446984506D0C9
:102660009B6901461869BDE8F843FFF7E1BCFFF735
:10267000D3FC2046BDE8F883A439002001680E4A47
:102680000346914215D1C169A2F11022A2F1EF12C5
:1026900091420ED18268012A0BD8C26812B1016939
:1026A0008A4206D0586928B19B691B1A5842584182
:1026B00070470120704700BF55AA00FF0D4B70B551
:1026C0009E68A6B13046FFF7D9FF044678B9F36893
:1026D0006BB935690DB9204670BD2846FFF7CEFFAE
:1026E00028B9EB68B34202D12E462D69F2E70124E6
:1026F000F1E700BFC03900202DE9F041394E3468C0
:10270000F368D4B1B468C4B1002861D000295FD0A7
:1027100001FB00F5B5FBF0F0884259D1291D57D8CF
:10272000AA070DD025F0030204321C4603E06168BD
:1027300091424FD2A469002CF9D12046BDE8F08126
:102740002A46F2E7891A232904F12007D4E9050C67
:102750001AD80123A360A0B1C0F818C0A36903B1BF
:1027600058610023C4E905333369DB0702D5FFF75D
:10277000A5FFA0BB2A46002138463C4602F0ADF832
:10278000DBE7C6F80CC0E9E702F1200804EB080318
:102790002039C3E9011E2169DFF84CE0DC601961D2
:1027A00044F808E0AEF1102EAEF1EF1EC3F81CE0C5
:1027B00001B1CB60C3E9050C40B18361996901B1F6
:1027C0004B6101212361C4E90121CAE7F360F5E708
:1027D0000024B2E7D4F808E0BEF1000FB2D0012027
:1027E00001F0C8FFC039002055AA00FFF8B5054622
:1027F00000283AD0364E3368002B36D0B268002A13
:1028000033D0834203D872681344984202D3012024
:1028100001F0B0FFA0F120042046FFF72FFF0028B1
:10282000F5D155F8183C012BF1D145F8180C55E9B4
:102830000570DFB1BB68CBB955F81C2C7B68203222
:1028400013447B60386100B1C7602022002120461C
:1028500002F043F8386908B183682BB333699B07EA
:1028600003D5FFF72BFF0028D1D1F8BD40B3836813
:1028700033BB426863681344203363600369D4E95F
:102880000521236192B9B9B9426981696261A16187
:10289000A2B19461A26902B1546103B1DC6020224B
:1028A000002102F01AF8D9E73C46E2E79161A169FC
:1028B0000029E9D04A61E7E7F160F8E7F460E9E769
:1028C000F36845F8083C03B15C61F460C6E700BFFB
:1028D000C039002038B50D461422002104461248A4
:1028E00001F0FBFF1149124800F02CF8232D1AD9F2
:1028F00014F003031FBF043DED18C3F10403E418F3
:102900002A460021204601F0E8FF074B094AC3E9A7
:1029100000459C602260A2F11022203DA2F1EF123E
:102920006560E261DC6038BDC0390020ED27010040
:10293000F926010055AA00FF014B1B68184700BF8C
:1029400098300020024B1860024B0020196070473D
:102950009C3000209830002010B50A46044619B17A
:10296000024B00211B68984710BD00BFA03000201B
:10297000074B0A465978022906D11978072903D14D
:102980000146181D02F056B86FF08800704700BF6E
:10299000D439002010B5124C2378590744BF23F0D6
:1029A0000403237023789A0705D500F063F8237891
:1029B00023F002032370637813B10A4802F04BF846
:1029C0000023042107486370FFF7C6FF2378DB0765
:1029D00005D502F02CF8237823F00103237010BDF5
:1029E000D4390020D839002038B51C4D6A782B78AE
:1029F000022A01D1072B12D0D80713D52B789907BB
:102A000007D400F02FF82B78044643F002032B7014
:102A100088B96A782B788AB12B785A0719D500249F
:102A2000204638BD02F001F82B78044643F001033C
:102A30002B700028E2D0FFF7ADFFF1E7DB07EBD505
:102A4000074801F0F5FF022304466B700028F2D11D
:102A5000E2E743F004032B70E1E700BFD439002024
:102A6000D83900200122024B002083F880257047CE
:102A7000DC3900202DE9F0410A4C002526464FF0B4
:102A8000010803272046C4F820802777013501F08C
:102A9000AFFF202D04F12C04F4D1002386F88035FB
:102AA000BDE8F081DC39002010B50C4C236813B16F
:102AB0000B4B1B682BB900F093FC30B90122084B7B
:102AC0001A6001232360002010BD0138072801D9B6
:102AD000044810BD044B53F8200010BD783F00207F
:102AE000743F0020FE8FFFFFE44A0100144B2DE9E4
:102AF000F043002814BF04461C46124F236883B0DD
:102B0000BB4219D016460D4620464FF4147104F10D
:102B1000040900F047F804F58E78484600F0CEF836
:102B2000404600F019FA2B464A46404606490096B0
:102B300000F034FB08B92760002003B0BDE8F08343
:102B40007C3F0020A5BCC95A412D010070B50D4C39
:102B50001D46002814BF064626460B4B306882B03F
:102B600098420DD106F58E70002633460096144625
:102B700000F03EFB002818BF34462C6002B070BD48
:102B80000248FBE77C3F0020A5BCC95AE88FFFFF45
:102B900038B131B1002201440346013081421A703C
:102BA000FAD1704738B131B10022014403460130F7
:102BB00088421A70FAD170472DE9F043202B1D4648
:102BC0000646884691468BB026D8DBB202AF8DF818
:102BD0000480B04658F8041B8DF8053021B94046F2
:102BE00001F026F9044640B9012302224046336031
:102BF00001A901F031F9044638B138462021FFF728
:102C0000D1FF20460BB0BDE8F0832A464946404636
:102C100001F022F90446F0E702AF194610460023FE
:102C20003A4601F09FFA04460028E6D12023B9462F
:102C30001D46CCE72DE9F041D0F8F830A6B0002BC6
:102C4000D8BF02AE31DD05460027D0F80C4102AEF8
:102C5000A4F101089022D5F8FC403146D0F80001DB
:102C600001AB0197B8FA88F8A0474FEA5818044614
:102C700020B9019B53B9B8F1000F16D0304690210E
:102C8000FFF790FF204626B0BDE8F08101463246AE
:102C90002846FFF791FF58B9D5F80431019A13443B
:102CA000C5F80431B8F1000FE8D16FF03C04E5E756
:102CB0000446204626B0BDE8F08100BF70B500256F
:102CC0000446142204F588762946C0F8F850FC30F2
:102CD00001F003FE08222946304601F0FEFD144BA8
:102CE00030461B689847204640F8045B01F086F8A0
:102CF000104B30461B689847C8B9D4F8F830AB423F
:102D00000FDC03EB830204EB82022021C2F80001F6
:102D10000120C2E9421008490133C2F8FC10C4F88E
:102D2000F830064B3046BDE870401B68184770BD50
:102D3000C0300020BC300020F93C0100B830002039
:102D40002DE9F047202A88B07AD83F4B00F58879E2
:102D500004461B6848461746884698470546F8B912
:102D600040F20116D4F8F830002B65D02046FFF76A
:102D700061FF054638B9D4F8F830002B14DC013E69
:102D8000F2D16FF03B056E4620213046FFF70AFF77
:102D90002E4B48461B689847002818BF6FF01D054A
:102DA000284608B0BDE8F087D4E94132934203D306
:102DB000D4F80C21012A02D0013ED7D1E1E71F2B24
:102DC000FAD96E4601462022304604F1040A01F089
:102DD00084FD3146504601F069F805460028D3D1FC
:102DE000504601F01FF8504601F008F829465046B9
:102DF00001F01EF805460028C6D150462022314673
:102E000001F02AF805460028BED1034632462021AB
:102E1000304601F0A7F905460028B5D1D4F8F830BE
:102E20003A46002BC8BF002340463146C8BFC4F80D
:102E3000043101F02DFDA7E76FF03F056E46A3E7D3
:102E40006FF03B05ACE700BFBC300020B83000207D
:102E500070B590B000287AD03E4C0D464022362105
:102E60000646204601F039FD40225C21A01801F001
:102E700034FD2B1DA34203D904F144039D4252D3D8
:102E80002B682268534023602B68226C53402364D4
:102E90006B686268534063606B68626C5340636444
:102EA000AB68A2685340A360AB68A26C5340A364B4
:102EB000EB68E2685340E360EB68E26C5340E36424
:102EC0002B69226953402361226D2B69534023658E
:102ED00062696B69534063616B69626D53406365FE
:102EE000AB69A2695340A361AB69A26D5340A3656E
:102EF000EB69E2695340E361EB69E26D5340E365DE
:102F00000021304600F094FF044628B940223046A4
:102F1000104900F0A1FF044640216846FFF742FE39
:102F2000204610B070BD631E04F13F01013D1F3407
:102F300015F8010F13F8012F42401A7011F8012FF4
:102F40002878A34282EA00020A70F1D1D8E76FF034
:102F50007304E5E7CC41002010B54FF49A720021CC
:102F6000044601F0BAFC42F21072044BC4F820216E
:102F700004F596701B68BDE810401847C03000206B
:102F80002DE9F04F04468846914695B0002900F09F
:102F9000A780002A0CBF0126022600238DF80C30E2
:102FA000002C00F09F80DFF844A104AF0AF1400B31
:102FB0000021204600F03CFF034648B1384620215E
:102FC0000193FFF7EFFD019B184615B0BDE8F08FA8
:102FD00040225146204600F03FFF03460028EDD135
:102FE00004F1F40520222946204600F035FF03466F
:102FF0000028E3D10122204603A900F02DFF03465B
:103000000028DBD1022E62D020460CA900F04EFF32
:1030100003460028D2D10146204600F009FF0346AE
:103020000028CBD140225946204600F015FF034628
:103030000028C3D1202220460CA900F00DFF034632
:103040000028BBD13946204600F030FF0346002857
:10305000B4D139462046FFF7FBFE03460028ADD128
:1030600020222946204600F0F7FE03460028A5D17D
:1030700020460CA900F01AFF034600289ED1014605
:10308000204600F0D5FE0346002897D1402259463D
:10309000204600F0E1FE034600288FD12022204682
:1030A0000CA900F0D9FE0346002887D12946204606
:1030B00000F0FCFE0346002880D19DF80C20013270
:1030C000D2B2B2428DF80C20FFF472AF76E74A46D6
:1030D0004146204600F0C0FE0346002894D06DE72C
:1030E00001265AE76FF0730304AF67E7CC41002075
:1030F0002DE9F0410446884615461F46D0F81801D0
:10310000E0B013B100EB40004008B5F5807F3ED839
:103110002844B0F5C07F3AD84FF4C0720021684609
:1031200001F0DBFB6946D4F82431D4F81821D4F837
:103130002801984770BBD4F8186157B1D4E94930D9
:1031400072080DEB0601984720BBD4F8183106EB46
:103150005306B8F1000F00D08DB9324669462046BB
:10316000FFF70EFF054610B90123C4F814313146AC
:103170006846FFF717FD284660B0BDE8F0810DEB0B
:10318000060041462A462E4401F082FBE5E76FF037
:103190000405F0E76FF00805EDE700BF2DE9F04703
:1031A000044604F1F4050F4691461E46DDF82080E2
:1031B00000F024FE29462046FFF74AFE08B1BDE88C
:1031C000F08728462022012101F087FBD4F818312E
:1031D000C4F82471C4F8289113B92023C4F8183115
:1031E000424631462046BDE8F0470123FFF780BF45
:1031F000B2F5806F00F295802DE9F04F89B09A46C4
:10320000129BB3F5807F00F29080D0F824311646EF
:1032100004460F464BB3D0F81C31012B05D0D0F833
:103220001421D0F820319A421FDD51460023204658
:10323000129AFFF75DFF014698B900231293002E02
:103240005ED0DFF8EC9009F1400B0021204600F041
:10325000EFFD202E3546014628BF202504F1F40855
:1032600090B1084609B0BDE8F08FBAF1000FE6D082
:10327000129B002BE1D051461A462046FFF780FEF4
:1032800001460028DBD0ECE749464022204600F00A
:10329000E3FD01460028E4D141462022204600F00B
:1032A000DBFD01460028DCD16946204600F0FEFD2A
:1032B00001460028D5D1204600F0BAFD014600287D
:1032C000CFD159464022204600F0C6FD01460028D5
:1032D000C7D169462022204600F0BEFD01460028E5
:1032E000BFD14146204600F0E1FD01460028B8D19B
:1032F00038462A46414601F0CBFA761B2F44A4D12A
:1033000051462046129AFFF73BFE01460028A8D1FD
:103310000846D4F814310133C4F8143109B0BDE8BB
:10332000F08F6FF00201084670476FF0040198E7D4
:10333000CC410020002130B58DB0282202A8019197
:1033400001F0CBFA02A800F035FF044610B1204688
:103350000DB030BD1B4D4FF0FF31286800F032F941
:1033600060BB194BD3F8340E10F0010017D100F0F8
:1033700059F9F8B9154A02A901A800F0AFFC0446B2
:10338000012000F04FF988B9286800F023F90028DF
:10339000DDD00F4800F0ACF920460DB030BD2868F4
:1033A000052400F017F90028D1D0F2E7094800F011
:1033B0009FF9E9E7084800F09BF9DBE7074800F0D0
:1033C00097F9CEE7A4300020006084504C420020E2
:1033D0005C4B01003C4B01001C4B0100044B010005
:1033E00030B583B000F036F878B900F055F890B9F0
:1033F000144BC3F80C0AFFF79DFF0446F8B9124DB1
:103400002B6863B1204603B030BD032400F072F88E
:10341000204603B030BD0424204603B030BD024630
:103420000146FFF763FB50B96822084901ABFFF77B
:103430008DFB20B92046064B2B6003B030BD052420
:10344000E0E700BF005084506C440020704400202E
:103450005AEA5A5A00207047430504D54FF0FF320C
:10346000034BC3F80821024BC3F8080A704700BF9A
:1034700000508450014BC3F8040A70470050845038
:1034800008B100F071B84FF47500704708B100F052
:103490004FB84FF47500704710B5114800F07EF832
:1034A00000B110BD0F4800F079F80028F9D10E4C9A
:1034B000204600F073F80028F3D10C4B0C481C6038
:1034C00000F06CF801460028EBD100F02DF804461E
:1034D00008B1204610BD00F087F82046FAE700BF8B
:1034E000B4300020B0300020AC300020A4300020E8
:1034F000A830002008B5084800F05AF8074800F046
:1035000057F8074800F054F8064800F051F8BDE8B5
:10351000084000F00BB800BFB4300020B0300020ED
:10352000AC300020A830002000207047704700BF5A
:1035300010B402460B4C01E0134207D1D4F8003A14
:1035400013F48070F8D0012042F4807229B1054B49
:10355000D3F804410C60C3F80841024BC3F8082AB1
:1035600010BC7047005084500246084901E01A42DE
:1035700007D1D1F8003A13F48070F8D0012042F45A
:103580008072024BC3F8082A704700BF0050845075
:1035900001F07FBA0A46002101F09FB908B5034B3C
:1035A00002681B6810689847002008BDE0300020C2
:1035B00008B5034B02685B6810689847002008BD97
:1035C000E0300020024B02689B681068184700BF7B
:1035D000E030002008B5034B0268DB6810689847AC
:1035E000002008BDE030002070B5094C094D20696D
:1035F000AB68984718B1084B08485B6898470021AA
:10360000074AEB6811602069BDE87040184700BFA9
:10361000CC300020E0300020C4300020744B01008A
:10362000D8440020F8B51A4D1A4E0446B2682869ED
:103630009047E8B9184F3B684CB1A3B1012B19D0A2
:10364000013B3B602869F36898470020F8BD43B907
:103650000121124AC2F800151149D1F81029002A97
:10366000FBD101333B60F368286998470020F8BD1F
:103670000C48F8BD0A4AD2F81039002BFBD1074A92
:103680006FF07E40C2F80035FFF7F4FE3B68D7E7E5
:10369000CC300020E0300020D8440020004084508E
:1036A00000508450E98FFFFF014B1B68184700BF93
:1036B000E0300020014B9B68184700BFE03000203D
:1036C000014BDB68184700BFE0300020BFF34F8F8D
:1036D0000549064BCA6802F4E0621343CB60BFF3AE
:1036E0004F8F00BFFDE700BF00ED00E00400FA05CA
:1036F00030B44FF0FE3200250B4B0C4C0C4949689E
:10370000C3F80024C3F80424C3F80824C3F80C2425
:10371000C3F81024C3F81424C3F81824C3F81C24D5
:10372000C4F8005530BC0847005084500040845015
:10373000C430002010B5044650B1636813F0685FD0
:1037400005D0064A934202D000236260236010BD78
:10375000034B04485B689847EFE700BF2C5F5CA908
:10376000C4300020944B0100C8B143680D4A934215
:1037700013D013F0685F0ED0012350E8002F1946D4
:1037800040E8001C9CF0000FF7D1012AF5D0BFF3F0
:103790005F8F0020704704487047044870476FF4FB
:1037A000E04070472C5F5CA9E98FFFFFEA8FFFFFC5
:1037B000034680B1426809498A420AD012F0685F24
:1037C00005D0BFF35F8F002210461A60704704488F
:1037D0007047044870476FF4E04070472C5F5CA965
:1037E000E98FFFFFEA8FFFFF10B5044620B10023E9
:1037F000034A2360626010BD0248FFF779FFF6E7D5
:103800003A00003ABC4B01002DE9F041002873D08A
:103810000C46002970D01D46002B6DD007461AB10A
:10382000012200232A6003602B68002B5FD0294609
:10383000204600F079FD804600285AD121462868AC
:1038400000F058FD8046002853D12868082867D02A
:10385000042867D0A0F10200B0FA80F040090121ED
:10386000314EC6F8C411C6F84011C6F8C411636AD7
:10387000C6F83031D6F830219342F6D10023C6F88D
:103880002C314FF0FF33C6F808316FF01B03C6F838
:103890000031C6F80C01D6F8040A40F48060FFF746
:1038A000E9FD0A23C6F83831069B012B29D023698C
:1038B0001E4AA2FB03231B09626A404602FB03F374
:1038C00003EB4303184ADB039B09C2F8D8310123F9
:1038D000C2F82C313B682A6823F07F4343EA026335
:1038E0003B602A6843EA02233B60BDE8F081DFF8D1
:1038F00040804046BDE8F081DFF838804046BDE8B2
:10390000F0814FF47F03D3F80C2C013206D0D3F8AA
:103910000C3C064AA2FB03231B09CDE71623CBE789
:1039200003209CE702209AE700508450ABAAAAAA81
:10393000310CF100350CF10058B34B1EB3F5047F88
:1039400027D230B54FF0000ECD00744671464B09BA
:1039500001F01F0C50F82330BCF11F0F23FA0CF3B9
:1039600006D003F0010319B901211C468E46EEE78B
:103970009C4201F1010106D01C464FF0010EA94204
:10398000E5D1002030BD0EF1010E9645F7D1024879
:1039900030BD0148704700BF360CF100C0B32DE9BF
:1039A000F0434C1EB4F5047F1DD2E3B1DAB100251B
:1039B0002E46A8462C46CF0003F1FF394FEA541C8F
:1039C00004F01F0E50F82C10BEF11F0F21FA0EFC50
:1039D0000CD00CF0010C4CB90126E04634463546BB
:1039E000ECE7964216D90C48BDE8F083AB420BD009
:1039F000C44508BF0136A945F3D001350134BC42A6
:103A0000DCD10020BDE8F0830125E0462E46F5E735
:103A1000014870471D46F1E7370CF1002DE9F04FE2
:103A20008FB08246DDE919460D46002E6ED1096938
:103A300004911C60002318990B60002A00F0288173
:103A4000994B6A6AD3F83811D3F830319A4269D168
:103A50000A2967D19AF80330069304F10803059305
:103A60000423049A0393914B8F4CA3FB023B4FEA30
:103A70009B0B0BEB4B0BA2EB4B0B189B049E1E609E
:103A8000002E00F0E580002700F05EFC0797BAF1F9
:103A9000000F00F0D0804FF00109DDF81480002DF8
:103AA00000F0C980069B002B3ED0284606A900F0F6
:103AB0003BFC00283AD07E4B984220D0069B082B36
:103AC00000F0E08000225B000693294606AB5046DA
:103AD0000092FFF799FE774B984200F0CF8070B9C3
:103AE000DAF80020130A03F47F03134323F07F4323
:103AF000CAF80030039B013B0393BED10020039022
:103B000000F022FC03980FB0BDE8F08F4FF47F0166
:103B1000D1F80C0C01300CBF4FF40471D1F80C1C1F
:103B2000049186E76448EAE76248C4E729460698B4
:103B300000F0E0FB0028BED1069B082B00F0A4801B
:103B4000042B00F0A380A3F10203B3FA83F35B0913
:103B5000C4F8C491C4F84091C4F8C4916A6AC4F826
:103B60003021D4F830118A42F6D10022C4F82C2139
:103B70004FF0FF32C4F808216FF01B02C4F8002197
:103B8000C4F80C31D4F8040A40F48060FFF772FCEA
:103B90000A23C4F838312B69444AA2FB0313696A2B
:103BA0001B0901FB03F303EB4303DB039B09C4F88D
:103BB000D831C4F82C910698DAF8003023F07F4110
:103BC000030243EA00630B43CAF8003007A800F081
:103BD00081FB079B354A03F01A0303437FF46EAF62
:103BE000A2FB0632D4F81431B7EB920F0893D4F845
:103BF00018310993D4F81C310A93D4F820310B936F
:103C0000D4F824310C93D4F828310D9302D1BBF1B0
:103C1000000F12D14046182208A9183EFFF7B8FC41
:103C200008F1180801379EB100F08EFB00230793BE
:103C3000002D7FF437AF21483DE740465A4608A99A
:103C4000A6EB0B06FFF7A4FCD8440137002EEBD1FE
:103C5000049F059E6A6939463046FFF76DFEAA69E2
:103C600040B94FF4806339463046FFF797FE00288D
:103C70003FF444AF0023189A13601CE72B6A002B13
:103C80003FF43DAF0E483AE7032361E702235FE7C5
:103C9000012229465046009606ABFFF7B5FD0028E5
:103CA0003FF4DBAE2BE700BF00508450ABAAAAAABA
:103CB000020CF100310CF100300CF100350CF10078
:103CC000320CF10010B4DDE9013401940024DDF878
:103CD0000CC0CDE902C410BCFFF7A0BE30B515463C
:103CE000012487B005AB00930022CDE9015404AB59
:103CF000FFF794FE07B030BDF0B587B0002967D05C
:103D00001E46002B64D01446002A61D0324F0D4667
:103D100038684FF0FF31FFF755FC00283DD12F4B9D
:103D2000D3F8340E10F0010015D04FF0FF354FF4EA
:103D300008712B48FEF72CFF04212A48FEF728FFC4
:103D400029482821FEF724FF3868FFF743FC40BBD1
:103D5000284607B0F0BDFFF765FC002834D12248A3
:103D600000F028FA70B91E4A0346029205AA019291
:103D700004AA039000921C4902461A48FFF7A2FFCA
:103D80000346A0B14FF0FF350120FFF74BFC0028A0
:103D9000CDD01648FFF7ACFCC9E71548FFF7A8FCE3
:103DA000BDE71448FFF7A4FC284607B0F0BD28463D
:103DB0001D46059B22469C4228BF1A460499326044
:103DC0000831FFF7E5FBDFE70B48FFF791FCC6E79B
:103DD0004FF0FF35BCE700BFA430002000608450E6
:103DE00018450020EC440020F04400203C4B01002A
:103DF000044B0100E04B01001C4B010010B50446D0
:103E000028B12046BDE81040F421FFF7C3BB0448A9
:103E1000FFF76EFC2046BDE81040F421FFF7BABB67
:103E2000F84B010010B1F421FEF7B2BE704700BF9D
:103E300008B521B1012908D06FF0360008BD012175
:103E400000F058F80028F7D108BD022100F052F820
:103E50000028F9D0F0E700BF30B505468818B0F566
:103E6000801F0B461446A1B001D8802A0CD9B3F5A7
:103E7000801F17D922461946284600F07DF80446CF
:103E800084B9204621B030BD6846FFF781FB224649
:103E90006946284600F070F8802104466846FFF71E
:103EA00079FBEDE76FF03604EBE700BF70B5E8B1E2
:103EB0000E46D9B1044600F031F80546B0B9236882
:103EC000012B0BD0022B01D0284670BD1C2230469E
:103ED00004F10801FFF75CFB284670BD2022304644
:103EE00004F10801FFF754FB284670BD6FF036055A
:103EF000EAE700BF78B138B50D46F0210446FFF778
:103F000049FB402320462560E36500F061FA003854
:103F100018BF012038BD0120704700BFF0B5056E05
:103F2000A5B0044604AEE5B900230127019330464D
:103F30006760294602AA009300F018FA10B1012028
:103F400025B0F0BD2A46204602A900F069FA0028F3
:103F5000F5D1204600F06CFB0028F0D1206625B09A
:103F6000F0BD802D2A46304628BF802204F164012E
:103F7000FFF70EFB256ED7E7002800F0AE802DE995
:103F8000F04F1446A5B0002A3DD00F46002949D075
:103F9000B2F5803F0546006E20D34FF6FF7805F15D
:103FA000640AEB6D1A1AB2FBF3F103FB1122002A2B
:103FB00065D18342B9464FF6FF7672D0B6FBF3FB6C
:103FC00003FB0BFBBBF1000F30D1002E45D1A4F554
:103FD0007F44FF3CB4F5803F4744E2D2EA6D161AB5
:103FE000B6FBF2F302FB1366A64228BF2646002E5C
:103FF00075D1824200F08D80B4FBF2F602FB06F62A
:104000002EB9002C79D1002025B0BDE8F08F002317
:1040100031463846CDE9003302AA00F0A7F900285E
:1040200000F09580012025B0BDE8F08F00235946AF
:104030004846CDE9003302AA00F098F90028F1D1F2
:104040005A46284602A900F0EBF90028EAD1A6EB6F
:104050000B06286ED944002EB9D019304946324695
:1040600005EB8000FFF794FAA4F57F44286EFF3C2F
:104070003044B4F5803F4744286692D2AEE74245CB
:1040800028BF4246164639465044FFF781FA286E4B
:10409000EB6D3044834207EB06092866A8EB060661
:1040A0008CD1802B28BF802351461A4604A8FFF7E5
:1040B0006FFA0023E96D02AACDE9003304A800F0ED
:1040C00055F90028AED12846EA6D02A900F0A8F9FA
:1040D0000028A7D1EB6D286670E70120704705F135
:1040E0006403394632461844FFF752FA286EEA6DE7
:1040F0003044A41B374428667BE72B6E22461933D5
:1041000005EB83003946FFF743FA2B6E23442B66F9
:1041100079E7802A28BF802205F1640104A8FFF70F
:1041200037FA0023E96D04A8CDE9003302AA00F0B4
:104130001DF900287FF476AF2846EA6D02A900F049
:104140006FF900287FF46EAFEA6D286654E73246B7
:10415000284602A900F064F900287FF463AF3744D1
:10416000A41B4EE7F8B51C460546114816460F46F7
:10417000FFF744FE21460E48FFF75AFE044620B1E1
:104180000B48FFF74FFE2046F8BD3A46294608483F
:10419000FFF762FE04460028F2D131460448FFF7DB
:1041A00085FE04460248FFF73DFE2046F8BD00BFED
:1041B000384700201C2370B582B001A90546019341
:1041C00000F032F8044638B9019B1C2B07D0144C80
:1041D0001C212846FFF7DEF9204602B070BDD5E964
:1041E0000112131E18BF0123003918BF0121012637
:1041F00028689B00EA6843EA4103002818BF43F09F
:104200000103EE612AB9C5E90834002BE4D1054C5D
:10421000DEE7204643F00803C5E9083402B070BD6C
:10422000370CF0000E0CF000034618B111B10A680B
:104230001C2A01D0012070474FF47F02D2F8101CD5
:1042400001310CBF40F2DC51D2F8101C4FF47F0258
:104250000160D2F8141C01310CBF40F2DC51D2F8DD
:10426000141C4FF47F024160D2F8181C01310CBFBE
:1042700040F63401D2F8181C4FF47F028160D2F866
:104280001C1C01310CBF40F63401D2F81C1C4FF449
:104290007F02C160D2F8001C01310CBF9021D2F81E
:1042A000001C4FF47F020161D2F8041C01310CBFE5
:1042B0005121D2F8041C4FF47F024161D2F8081C4E
:1042C000002001310CBF40F23732D2F8082C9A613D
:1042D000704700BF014608B54FF48060FFF7D6F87D
:1042E0000022034BC3F8C821C3F82C2108BD00BF2E
:1042F000005084500138072805D8DFE800F0100E80
:10430000040A0404040607487047CB6800204B6287
:1043100070478B6800204B6270474B68F6E70B686C
:10432000F4E700BF310CF1000B6802E0082B0B60D2
:1043300006D8026A13424FEA4303F7D000207047C1
:1043400000487047310CF100002310B5064C4FF4C3
:104350008060C4F82C31C4F8C431FFF77DF84FF009
:10436000FF33C4F8083110BD005084502DE9F041EE
:10437000002482B015461E4601220DF107030746B0
:10438000DDF824808DF8074000F08CF9D0B99DF855
:10439000073004462F602B71B8F1000F0ED04EB1DC
:1043A0000246089930460DF1070300F07BF948B941
:1043B0009DF80730C8F8006088F80430204602B045
:1043C000BDE8F0814FF47504204602B0BDE8F081ED
:1043D000D8B108B50368012B04D0022B0FD043B12C
:1043E0000B4808BD20220B490830FFF7D1F8002008
:1043F00008BD142208490830FFF7CAF8F7E7202261
:1044000006490830FFF7C4F8F1E74FF4730070472E
:104410000100F300084C0100484C0100284C010049
:104420002DE9F047002900F0EB800446002800F059
:10443000EB80036888469146002B00F0B580013B75
:10444000012B00F2C9804FF0FF3171484FF0020A92
:10445000FFF7B8F8002840F0B1800020FFF7E2F83D
:104460000746002840F0B4806A4DD5F81069002E48
:10447000FBD14FF0FF30FEF7EFFFD5F8040A20F430
:104480000060FEF7F7FF01230722C5F81838C5F8CA
:104490002038C5F80029C5F8C437C5F8A466A36C50
:1044A000C5F8CC37E36CC5F8D037C5F8C0A723688A
:1044B0005BB1013B012B18D8636AC5F85C36236AEF
:1044C000C5F85836E369C5F85436A269514BC3F8AC
:1044D00050266269C3F84C262269C3F84826E26870
:1044E000C3F84426A268C3F84026B9F1000F56D09D
:1044F00063684FF40060012B04BF464AC2F884365B
:1045000098F80430D8F80010424A5B0003F0020328
:10451000C2F80C3BC2F8281CC2F82C9CFEF7B0FF76
:104520000746236863B1013B012B19D8394BD3F8F7
:104530005C266262D3F858262262D3F85436E361CF
:10454000344BD3F85026A261D3F84C266261D3F8DD
:1045500048262261D3F84426E260D3F84036A360AF
:10456000002201212B4BD3F8CC07A064D3F8D0074D
:10457000E064C3F8C417C3F88426C3F8C827C3F897
:104580001828C3F82028AFBB0120FFF74BF868BB01
:104590001F48FFF71FF818BB3846BDE8F087042214
:1045A0001C4BC3F8C827BCE74FF0FF3118484FF049
:1045B000010AFFF707F800283FF44FAF1648FFF74E
:1045C00097F80020FFF72EF8074600283FF44CAF7D
:1045D0001248FFF78DF847E7114F3846BDE8F087DE
:1045E0001048FFF785F83846BDE8F0870E48FFF71A
:1045F0007FF8CDE7102104F10800FEF7CBFFC3E7F9
:104600000A4F3846BDE8F0874FF47307C4E700BF90
:10461000B430002000508450044B01001C4B0100BA
:104620000100F3005C4B01003C4B01000300F30070
:10463000A0B3034670B4D0E90240D3E9041226BA0D
:1046400005BA0CBA10BAC3E90440D3E90612986A55
:1046500009BAC3E9026512BA996100BAD3E90841FF
:1046600025BA0CBAC3E90725D3E90B12C3E90940FF
:1046700009BAD86B12BAD962D3E90D4125BAC3E998
:104680000C250CBA00BAD3E9101209BA12BAC3E960
:104690000E40196400205A6470BC70474FF47300D8
:1046A000704700BF00201870704700BF431810B556
:1046B00001D21F2A01D9002010BD013902F01403D4
:1046C0000144102B80EA01043CD009DC8BB1042B9F
:1046D000F1D11F2C40E840F315D941E840F10EE03C
:1046E000142BE8D11F2C40E8C0F30CD941E8C0F1ED
:1046F00005E01F2C40E800F305D941E800F11C4615
:104700000B468C42D7D122F01402013A0A2AD2D8A1
:1047100001A151F822F000BF674701006147010085
:1047200053470100B7460100B7460100B7460100F4
:10473000B74601006D470100674701005B47010074
:10474000534701001F2C40E880F3DCD941E880F199
:10475000D5E713F4001FAFD1ADE713F4801FFAE7DC
:104760005B02A9D5A7E713F4002FF4E713F4802F19
:10477000F1E700BF08B5074B044613B10021AFF3C2
:104780000080054B1868836A03B19847204600F003
:1047900029F800BF000000005C4C010070B50D4D11
:1047A00000260D4C641BA410A64209D10B4D002617
:1047B0000B4C00F089F9641BA410A64205D170BD12
:1047C00055F8043B01369847EEE755F8043B0136AF
:1047D0009847F2E7680801006808010068080100CE
:1047E0006C080100FEE700BF002383F300887047D8
:1047F000FDF7CABBEFF30880EFF309812DE9F00F55
:104800006B467246FCF75EFA08B0FFF7F1FFFEE771
:10481000FDF7BABBEFF30880EFF309812DE9F00F44
:104820006B467246FCF74EFA08B0FFF7F1FFFEE761
:10483000FDF7AABBEFF30880EFF309812DE9F00F34
:104840006B467246FCF73EFA08B0FFF7F1FFFEE751
:10485000FDF79ABBEFF30880EFF309812DE9F00F24
:104860006B467246FCF72EFA08B0FFF7F1FFFEE741
:10487000FDF78ABBEFF30880EFF309812DE9F00F14
:104880006B467246FCF71EFA08B0FFF7F1FFFEE731
:1048900070B504463AB141EA040313F003030CD1A6
:1048A000D518032D0FD822F003031C44194400230C
:1048B00002F0030293420CD170BD11F8013B013AA2
:1048C00004F8013BE6E7CD1A2E68E51A2E60043B9A
:1048D000E6E75D5CE5540133ECE7F0B5044662B908
:1048E00022F00303234402F003021A44934214D13A
:1048F000F0BD04F8011B013AF1E7A307F9D1154611
:104900000B0443EA01630B4343EA01231619032D09
:10491000E6D9771B3B60043DF9E703F8011BE5E7A7
:1049200008B5EFF30583C3F308030BB1FDF72CFBC8
:10493000BDE80840FDF7F6BB10B50446EFF305836C
:10494000C3F308030BB1FDF71FFB2046BDE8104081
:10495000FDF7EBBB2DE9F04104460D4616461F4618
:10496000EFF30583C3F308030BB1FDF70DFB3B46E3
:10497000324629462046BDE8F041FCF75BBF2DE9F1
:10498000F04104460D4616461F46EFF30583C3F378
:1049900008030BB1FDF7F8FA3B463246294620469C
:1049A000BDE8F041FCF780BF08B5EFF30583C3F322
:1049B00008030BB1FDF7E8FABDE80840FDF785BB39
:1049C00000207047704710B5044608B1FDF7C4FFDA
:1049D0002046BDE81040FDF7AFBF10B50446406A61
:1049E00010B1A16AFFF7EFFF0020C4E9090010BD74
:1049F00038B50546FFF7F1FF2B7F0446012B0ED09B
:104A0000023B012B0ED82B6A012B18BF6FF09604C6
:104A10002C2200212846FFF760FF204638BD2B6A74
:104A2000002BF2E76FF09604F2E700207047704722
:104A30000020704713B5002001AB1446FEF786F83E
:104A400030B9019BA34218BF6FF0930002B010BDB4
:104A50006FF09200FAE7002070472DE9E04F2746FB
:104A6000A046A146A246A346A446A2B02DEC000A49
:104A700084F3008825462646A447EFF3148515F0F5
:104A8000080F18BFB0EE400A3DEC000A22B0BDE8A6
:104A9000E08F884210B501EB020402D9844223461C
:104AA00007D8431EA14208D011F8012B03F8012FAB
:104AB000F8E7024401468A4200D110BD13F8014DC7
:104AC00002F8014DF7E70000F8B500BFF8BC08BCDC
:104AD0009E467047F8B500BFF8BC08BC9E467047BC
:104AE0007AFFFFFFFF8FFFFFFF8FFFFFFE8FFFFFAC
:104AF000FE8FFFFFFD8FFFFFFC8FFFFFFC8FFFFF8F
:104B0000FB8FFFFF4661696C20746F2061637175D4
:104B1000697265206D757465780A00004661696C7C
:104B200020746F20696E63726561736520504D203B
:104B3000636F756E7465720A000000004661696CEF
:104B400020746F20646563726561736520504D2029
:104B5000636F756E7465720A000000004661696CCF
:104B600020746F2072656C65617365206D75746566
:104B7000780A0000436F756C64206E6F74206C6F50
:104B8000636B20706F7765722073617665206D7539
:104B9000746578006D757465785F6672656520630D
:104BA000616C6C65642077697468204E554C4C20AC
:104BB000706172616D6574657200000043616E27FB
:104BC0007420696E697469616C697A65206D7574A9
:104BD00065782C20776173204E554C4C0D0A0000EF
:104BE0004661696C20746F20756E6C6F636B206D0D
:104BF000757465780A0000000A6374782069732070
:104C00004E554C4C0A00000067E6096A85AE67BB4A
:104C100072F36E3C3AF54FA57F520E518C68059B9E
:104C2000ABD9831F19CDE05BD89E05C107D57C3673
:104C300017DD703039590EF7310BC0FF1115586868
:104C4000A78FF964A44FFABE0123456789ABCDEF66
:104C5000FEDCBA9876543210F0E1D2C31031002055
:104C600054464D5F43525950544F0054464D5F5087
:104C70004C4154464F524D5F5345525649434500AF
:104C80000000000000000000000000000000000024
:104C90000000000000000000000000000000000014
:107C00007FE97FE9FAF7BEBC7FE97FE9FAF7CCBCF0
:107C10007FE97FE9FAF7FEBC7FE97FE9FAF7ECBC80
:107C20007FE97FE9FAF7D2BC000000000000000005
:107C30000000000000000000000000000000000044
:107C4000D0310020703100205403010090ED00E09D
:107C5000001008507F160850C5490100C1490100B5
:107C6000DB480100AC300020DC300020D4300020A4
:107C7000D0300020CC300020C1360100B5360100E4
:107C8000A936010000000000CD36010008310020B7
:107C900000310020F830002000000000F03000200B
:107CA000E93701003537010069370100B1370100BC
:107CB000DC4400203A00003AE04400203A00003A58
:107CC000E44400203A00003AE84400203A00003A38
:107CD00000000000000000000000000000000000A4
:107CE0000000000000000000000000000000000094
:107CF0000000000000000000000000000000000084
:107D00000000000000000000000000000000000073
:107D10000000000000000000000000000000000063
:107D20000000000000000000000000000000000053
:10C00000B0CD0020CDDC0100895F0200B9DC010069
:10C01000B9DC0100B9DC0100B9DC0100B9DC0100C8
:10C0200000000000000000000000000045DE0100EC
:10C03000B9DC010000000000D1DD0100B9DC010025
:10C04000D5DF0100D5DF0100D5DF0100D5DF01001C
:10C05000D5DF0100D5DF0100D5DF0100D5DF01000C
:10C06000D5DF0100D5DF0100D5DF0100D5DF0100FC
:10C07000D5DF0100D5DF0100D5DF0100D5DF0100EC
:10C08000D5DF0100D5DF0100D5DF0100D5DF0100DC
:10C09000D5DF0100D5DF0100D5DF0100D5DF0100CC
:10C0A000D5DF0100D5DF0100D5DF0100D5DF0100BC
:10C0B000D5DF0100D5DF0100D5DF0100D5DF0100AC
:10C0C000D5DF0100D5DF0100D5DF0100D5DF01009C
:10C0D000D5DF0100D5DF0100D5DF0100D5DF01008C
:10C0E000D5DF0100D5DF0100D5DF0100D5DF01007C
:10C0F000D5DF0100D5DF0100D5DF0100D5DF01006C
:10C10000D5DF0100D5DF0100D5DF0100D5DF01005B
:10C11000D5DF0100D5DF0100D5DF0100D5DF01004B
:10C12000D5DF0100D5DF0100D5DF0100D5DF01003B
:10C13000D5DF0100D5DF0100D5DF0100D5DF01002B
:10C14000D5DF0100D5DF0100D5DF0100D5DF01001B
:10C15000D5DF010053B94AB9002908BF00281CBF28
:10C160004FF0FF314FF0FF3000F00CB8ADF1080C8C
:10C170006DE904CE00F010F8DDF804E0DDE90223FB
:10C1800004B07047704700BF034613F8012B002A24
:10C19000FBD1181A013870472DE9F04786468C46C6
:10C1A0000846089E154674461946002B40F0C1808B
:10C1B0008542B2FA82F245D94AB1C2F1200300FAAF
:10C1C00002FC954094402EFA03F343EA0C0C4FEA2C
:10C1D000154EA8B2230CBCFBFEF80EFB18CC08FBD6
:10C1E00000F943EA0C43994528D9EB1808F1FF37C9
:10C1F00004D2994502D9A8F102072B44A3EB090305
:10C20000A4B2B3FBFEFC0EFB1C330CFB00F044EAB3
:10C210000344A04214D92C190CF1FF3304D2A042DC
:10C2200002D9ACF102032C44241A43EA07401EB1A0
:10C23000D440002334607360BDE8F0874746DDE7F3
:10C240006346F1E792BB431B01214FEA154EAFB2A3
:10C25000200CB3FBFEFC0EFB1C330CFB07F840EA82
:10C260000343984561D9EB180CF1FF3004D298458F
:10C2700002D9ACF102002B44A3EB0803A4B2B3FB38
:10C28000FEFC0EFB1C330CFB07F744EA0344A742F9
:10C290004DD92C190CF1FF3304D2A74202D9ACF1CD
:10C2A00002032C44E41B43EA0040C0E7C2F1200330
:10C2B0009540944020FA03F12EFA03F34FEA154E0D
:10C2C0009040AFB20343B1FBFEFC0EFB1C10190CF7
:10C2D0000CFB07F841EA0041884522D969180CF1A6
:10C2E000FF3004D2884502D9ACF102002944A1EB09
:10C2F00008019BB2B1FBFEFC0EFB1C110CFB07F707
:10C3000043EA01439F420ED9EB180CF1FF3104D2EE
:10C310009F4202D9ACF102012B44DB1B41EA0041F0
:10C3200093E76046E3E76146F7E76046A4E76346C4
:10C33000B8E7834206D916B9002108467CE7C6E96A
:10C3400000E0F9E7B3FA83F78FB9834201D372456E
:10C3500008D8BEEB020460EB030301209C461EB923
:10C36000002169E73846FAE7C6E9004CF8E7C7F16B
:10C37000200CBB400EFA07F522FA0CF42EFA0CF151
:10C38000BA401C4320FA0CF3B8404FEA1449014369
:10C390001FFA84FEB3FBF9F809FB18300B0C08FBFD
:10C3A0000EFA43EA00439A4540D9E31808F1FF30FA
:10C3B00004D29A4502D9A8F102002344A3EB0A0350
:10C3C00089B2B3FBF9F809FB183308FB0EFE41EA0A
:10C3D00003418E452CD9611808F1FF3304D28E45F4
:10C3E00002D9A8F10203214443EA0040A1EB0E0167
:10C3F000A0FB02984145CE46434602D306D14D45A7
:10C4000004D20138B9EB020E68EB0403002EA7D06A
:10C41000B5EB0E0261EB030101FA0CFC22FA07F303
:10C42000F9404CEA0303C6E9003199E74046C5E705
:10C430004346D9E71FB50223019002938DF80C30D3
:10C4400007489DF80C30826843F002038DF80C30E9
:10C4500094683823012201A9A04704B010BD00BF91
:10C46000C47A02002DE9F0438DB0374C20460AF023
:10C4700048FD00285ED042F6412302A8ADF80830FE
:10C48000FFF7D8FF20B141223821304809F0AAFA3D
:10C4900041F2420303A8ADF80C30FFF7CBFF20B107
:10C4A00042223821294809F09DFA274FDFF8A08061
:10C4B000284E00230493ADF814308DF8203004ABDF
:10C4C000099306230DF10702502506920A930122D3
:10C4D00007238DF8075007928DF82C309DF82C30EB
:10C4E000A26843F002038DF82C30D2F8089038236C
:10C4F0000222384606A9C84720B12A4638214046BC
:10C5000009F070FA304609F06DFABDF810101248C3
:10C5100009F068FABDF81210104809F063FABDF886
:10C5200014100F4809F05EFA00214FF400400AF0A1
:10C5300023FFBEE721680B4809F054FA4FF0FF30A3
:10C540000DB0BDE8F08300BFC47A02005B84020036
:10C5500094840200CC840200ED840200FD84020079
:10C560000F85020040840200014B1B68184700BF82
:10C57000B0A00020014B1860704700BFB0A00020A1
:10C5800030B585B004460D461022002168460BF0F8
:10C590002DF802238DF80230044B2A4621466846C6
:10C5A000019307F019FF05B030BD00BF69C5010058
:10C5B00080B505460E461746984607F0FFFA034633
:10C5C0000BF0EAF90446DFF81890424649F80030CB
:10C5D00039463046A84754F8090001F0E3FB00BF94
:10C5E000080000002DE9F047058B04462807904617
:10C5F00011D4022905F0070540F0CC80204609F04F
:10C6000019FA78B10138218B042811D8DFE800F03D
:10C61000C2106D85950001290CBF45F0100545F04D
:10C620002005258388F31188BFF36F8FBDE8F0875D
:10C6300001F0070AAA4500F0A5800027B9463E464A
:10C64000A368002B00F0BC8041F00801218388F32F
:10C650001188BFF36F8FA168002900F0BA800D68C0
:10C66000002900F0B680334652462046D1F80480B7
:10C67000C047002D76D02B6829461D46F0E701F013
:10C6800007035A1F012A1BD8002221F00701062B9D
:10C69000276889B2C4E9002209D13B4603E0628BD6
:10C6A000013262831B68002BF9D141F00201204660
:10C6B000218309F0BFF900287AD041F0200176E00B
:10C6C000042B0AD121F0070189B22046218309F009
:10C6D000B1F910B141F020012183218B01F0070A4B
:10C6E000AA454FD00027B946AAE7236921F00701E0
:10C6F00041F00601062DD3F8009021832DD1B9F128
:10C70000000F3FD041F00801218388F31188BFF367
:10C710006F8F20463949C84729E021F00701236976
:10C7200041F0040189B2042DD3F804902183E6D0AE
:10C7300000274FF0040A3E4682E721F007012369F3
:10C7400041F0050189B2052DD3F808902183D6D098
:10C7500000274FF0050A3E4672E700274FF0060A11
:10C760003E466DE72B4687E7B9F1000FD1D1EFF3D5
:10C770001188202383F31288BFF36F8F238B23F05C
:10C7800008032383258BEA062ED525F01003238387
:10C7900005F007056669218B002EBFF670AF0023F8
:10C7A0002768C4E9003321F0070141F0010121832A
:10C7B000218B4FF0000901F0070AAA457FF440AF32
:10C7C000002F9CD041F00801218388F31188BFF32A
:10C7D0006F8F002FC8D03D683946334652462046F9
:10C7E00009F054F92F46F4E7AB067FF51BAF25F0AF
:10C7F0002003238305F0070500E700BFB95A0200B4
:10C80000014B03600020704728810200F0B40C4BFC
:10C810000C4E5F6A0C4BB34203D36FF08500F0BC43
:10C8200070475D68BD4209D31C693CB195F802C0F0
:10C830000579AC4502D12346F0BC18472433EAE71A
:10C8400000A900200CA40020E8A300202DE9F04757
:10C8500005460E461746124CDFF84880DFF8489030
:10C86000444503D36FF08500BDE8F0876268D9F8CE
:10C8700024309A4212D3A36983B1907829798842EF
:10C8800005D13A4631462846BDE8F0471847527967
:10C89000012A03D13A463146284698472434DFE737
:10C8A000E8A300200CA4002000A900202DE9F041FD
:10C8B00005460E4617460A4CDFF82880444502D349
:10C8C0006FF0850009E063690BB92434F6E73A4656
:10C8D0003146284698470028F7D1BDE8F08100BFCF
:10C8E000E8A300200CA4002010B5044609F035FC94
:10C8F00010F1780F00D050B9204609F054FA044ADC
:10C90000D2F8C43023EA00030020C2F8C43010BDBE
:10C9100000A900200022024B1A605A60704700BF35
:10C92000BBA9002070B50B4B0B4CA34201D30020D8
:10C9300070BD0022196A1E7F0439D5B2AE4201D8FB
:10C940002433F2E7013211F832508542F5D101204B
:10C95000EEE700BFE8A300200CA4002008B50948BA
:10C960000378C3F341130A3350F823303BB100F18D
:10C97000080200F110019847C043C00F08BD1846D7
:10C98000FCE700BF00A9002004282DE9F14F044670
:10C990000F46DFF8949016D001282DD1DFF88C8057
:10C9A00098F8B93043B300F0D5FD214D4D4520D264
:10C9B0004FF0000AD5F820B02B7F5FFA8AF6B34219
:10C9C00004D82435F2E7FFF7A5FFE7E70BEBC6062F
:10C9D000307909F0C2FB0246307909F0E4F9D8F861
:10C9E000C430002A23EA0003C8F8C4300AF1010A5F
:10C9F000E2DA002388F8B9300D4D4D4508D30B4BD2
:10CA00001B6A6BB13946204601B0BDE8F04F1847AC
:10CA1000EB681BB13A462146284698472435ECE797
:10CA200001B0BDE8F08F00BF0CA4002000A90020D9
:10CA3000E8A3002073B5C4B263060D468DF8074025
:10CA400007D02046FFF76EFF78B10D4B93F8BA0080
:10CA500058B120460A4E55B102F0A8F9F3691BB14E
:10CA600008200DF107019847012002B070BD02F0C7
:10CA7000C5F9F369002BF7D009200DF10701F2E7A2
:10CA800000A9002073B586781E4C8DF800600379EC
:10CA9000427943EA0223ADF80230C378304603F00E
:10CAA00003038DF8043009F07EF9D4F8C43005464C
:10CAB00018420BD0304600F02FFD3046FFF714FF30
:10CAC0000AF0BEFB10B9962007F034F8684602F071
:10CAD00049F910F1780F03D010B1002002B070BDF9
:10CAE0009DF8000002F0C6F910F1780F01D000287F
:10CAF000F3D10120D4F8C43084F8B9002B43C4F832
:10CB0000C430EBE700A900202DE9F047924D044620
:10CB1000AB690E461746C3B9207800F01F00012804
:10CB200076D0022800F0DC8000BB94F900103A684F
:10CB3000002963782EDA062B0CD0082B25D0ABB950
:10CB4000537001231370022303E198470028E3D1B7
:10CB500000200DE06388190A0A1F012A8C4605D9B6
:10CB6000072903D8DAB26B6A1C781CB96FF015007C
:10CB7000BDE8F0875D78654503D1824200F0E4802E
:10CB800001302344F0E71B78E3E095F8BA301370E6
:10CB90000123DEE0052B11D0092BE7D163886E6AF3
:10CBA000002B32D1FFF7B6FE638885F8BA30EB6907
:10CBB000002BCDD0032069499847C9E7A07802F03F
:10CBC000BFF80028C4D0D1E77378042B10D0052B10
:10CBD00011D0022B04D177796388BB4208BF0120B2
:10CBE00033781E443378002BEED10028BED0D9E72D
:10CBF00096F80380F4E76388BB42F1D1B8F1000FE7
:10CC0000EED13046FFF73EFFEAE7FF27B846E9E7F7
:10CC100095F8BA30D7F800C0002BA7D06F6AA28869
:10CC20003B4694F804E0187800289FD059780229F0
:10CC300004D193F80480F04500F292800344F2E7B7
:10CC40008CF800308CF80130316081E71F4493E0AC
:10CC50000B2B8BD100264FF0FF08B246C14606E0F1
:10CC60007B78042B0FD0052B21D03B781F443B78D9
:10CC7000002BF5D1EB6913B1514607209847002EE0
:10CC80007FF466AF72E797F80280A38897F8039065
:10CC90009845EAD163889945E7D1B8F1070F1CD8C8
:10CCA00005EB0803BA46012683F8BB90DDE7A388AD
:10CCB0004345DAD1A3784B450AD0BE78304600F020
:10CCC0002BFC3046FFF710FEB0FA80F67609CCE771
:10CCD0003846FFF7D7FE0646C7E7BA460026C4E740
:10CCE00094F900206378002A18DA002B7FF43EAF15
:10CCF00024793F6863060AD02046FFF713FE002818
:10CD00003FF434AF95F8BA30002B3FF42FAF3946DB
:10CD1000204602F093F800237B7014E7012B08D023
:10CD2000032B7FF423AF6388002B7FF41FAF012117
:10CD300003E0618800297FF419AFA088FFF77AFE2D
:10CD400000287FF405AF11E702293B607FF41BAF99
:10CD50005B883360FCE600BF00A90020BAA9002070
:10CD600094F9000063780028BFF672AF002B3FF4FF
:10CD700067AF0A2B7FF4FAAE3B78002B3FF4F6AE98
:10CD8000797804297FF462AFB9788A427FF45EAF84
:10CD9000072A8EBF0023521992F8BB308CF800305E
:10CDA000F6E600BF13B5164C237DF3B9E26801AB7C
:10CDB0008020A168019209F005F8019AA368134444
:10CDC000A360E3689B1AE3606BB962B12369E288F0
:10CDD0009A4208DD94F8C82093FBF2F102FB11336C
:10CDE0000BB90123237502B010BD002380201A4621
:10CDF0001946237502B0BDE8104002F065B800BFC7
:10CE000000A90020002330B585B002460D460193ED
:10CE1000002858D1002935D108220B460DEB02011C
:10CE200009F0B4F9002804DA802001F0BFFF05B052
:10CE300030BD2A4C029AC4E903552260039ABDF81A
:10CE40000E30626004F13802A2609DF90820257559
:10CE5000002A0ADB802B04D9802001F0A7FF0020E4
:10CE6000E3E713B1C4E90333E1E7FFF777FD0028F7
:10CE7000DAD0E28823699A42D4BFE260E360FFF728
:10CE800091FFD4E7154C01ABD4E90215002D04DC69
:10CE900009F07CF90028CADAC6E72A4609F076F9D3
:10CEA0000028D9DB019AA3681344A360E3689B1AA6
:10CEB000E360002BBBD104F13803A360FFF74EFD04
:10CEC0000028DCD1B0E78028B1D1044BDA68002A11
:10CED000D5D11B7D002BD2D1A9E700BF00A900202E
:10CEE000054B064A58629A62054A0020DA62054AF2
:10CEF0001A63054A9A61704700A9002009CB010016
:10CF00000DC80100ADC801004DC801002DE9F34175
:10CF10000446474D4FF0FF334FF0FF32454806F0CF
:10CF200033F895F8B830002B7BD16B6A83B1424857
