:020000040100F9
:1088000078100021D18F000171C40001BD8F0001DB
:10881000BD8F0001BD8F0001BD8F00010000000071
:108820000000000000000000000000003591000181
:10883000BD8F000100000000CD900001BD8F000140
:1088400085920001859200018592000185920001C8
:1088500085920001859200018592000185920001B8
:1088600085920001859200018592000185920001A8
:108870008592000185920001859200018592000198
:108880008592000185920001859200018592000188
:108890008592000185920001859200018592000178
:1088A0008592000185920001859200018592000168
:1088B0008592000185920001000000000000000088
:1088C00000000000000000000000000000000000A8
:1088D0000000000000000000000000000000000098
:1088E0000000000000000000000000000000000088
:1088F0000000000000000000000000000000000078
:108900000000000000000000000000000000000067
:108910000000000000000000000000000000000057
:108920000000000000000000000000000000000047
:108930000000000000000000000000000000000037
:108940000000000000000000000000000000000027
:108950000000000000000000000000000000000017
:108960000000000000000000000000000000000007
:1089700000000000000000000000000000000000F7
:1089800000000000000000000000000000000000E7
:1089900000000000000000000000000000000000D7
:1089A00000000000000000000000000000000000C7
:1089B00000000000000000000000000000000000B7
:1089C00000000000000000000000000000000000A7
:1089D0000000000000000000000000000000000097
:1089E0000000000000000000000000000000000087
:1089F0000000000000000000000000000000000077
:108A0000DEE61E284CBBCE8F023500003C00000085
:108A100000480000010000000088000100880001FB
:108A2000FFFF0291000000000000000000000000B5
:0C8A30000000000000000000000000003A
:108A3C00014B1B68184700BF0000002130B585B002
:108A4C0004460D4610220021684604F02BF8022340
:108A5C008DF80230044B2A4621466846019303F0F8
:108A6C00D3F805B030BD00BF3D8A000180B5054686
:108A7C000E461746984602F07DFE034604F08CF82D
:108A8C000446DFF81890424649F800303946304623
:108A9C00A84754F8090000F0FDFA00BF08000000D8
:108AAC002DE9F047058B04462807904611D402297E
:108ABC0005F0070540F0CC80204603F0F1FB78B1BF
:108ACC000138218B042811D8DFE800F0C2106D8525
:108ADC00950001290CBF45F0100545F020052583B4
:108AEC0088F31188BFF36F8FBDE8F08701F0070A98
:108AFC00AA4500F0A5800027B9463E46A368002B86
:108B0C0000F0BC8041F00801218388F31188BFF389
:108B1C006F8FA168002900F0BA800D68002900F061
:108B2C00B680334652462046D1F80480C047002D0B
:108B3C0076D02B6829461D46F0E701F007035A1F33
:108B4C00012A1BD8002221F00701062B276889B2C5
:108B5C00C4E9002209D13B4603E0628B01326283F7
:108B6C001B68002BF9D141F002012046218303F050
:108B7C0097FB00287AD041F0200176E0042B0AD133
:108B8C0021F0070189B22046218303F089FB10B143
:108B9C0041F020012183218B01F0070AAA454FD017
:108BAC000027B946AAE7236921F0070141F0060125
:108BBC00062DD3F8009021832DD1B9F1000F3FD0B1
:108BCC0041F00801218388F31188BFF36F8F204691
:108BDC003949C84729E021F00701236941F0040114
:108BEC0089B2042DD3F804902183E6D000274FF0EE
:108BFC00040A3E4682E721F00701236941F0050192
:108C0C0089B2052DD3F808902183D6D000274FF0D8
:108C1C00050A3E4672E700274FF0060A3E466DE70E
:108C2C002B4687E7B9F1000FD1D1EFF31188202340
:108C3C0083F31288BFF36F8F238B23F008032383F6
:108C4C00258BEA062ED525F01003238305F00705A6
:108C5C006669218B002EBFF670AF00232768C4E92C
:108C6C00003321F0070141F001012183218B4FF0EA
:108C7C00000901F0070AAA457FF440AF002F9CD0F1
:108C8C0041F00801218388F31188BFF36F8F002F07
:108C9C00C8D03D68394633465246204603F02CFB7B
:108CAC002F46F4E7AB067FF51BAF25F0200323839B
:108CBC0005F0070500E700BF31C30001014B03605D
:108CCC000020704788CD000108B5044803F0DBFA9A
:108CDC00BDE80840024803F0D6BA00BF20CE000120
:108CEC0055CE000130BFFFF7FDBF00BF2DE9F041AD
:108CFC0005460B4EDFF82C80324606EB0807CC1BE2
:108D0C002046094903F0C1FEA01942460021083C47
:108D1C0003F0C8FE2C6707F10800BDE8F08100BF26
:108D2C0000000000040000005CCD0001074A9368BD
:108D3C0093F90E10002907DB526993421FBF044AB6
:108D4C00536843F080535360704700BF3C030021CD
:108D5C0000ED00E0154B9A6A12F0007F9A6A14BF7E
:108D6C001E201D2012F0807F9A6A18BF1F2012F45B
:108D7C00801F9A6A18BF022012F4002F9A6A18BF3B
:108D8C00212012F4802F9A6A18BF222012F4003F7F
:108D9C009A6A18BF232012F4803F9A6A18BF2420C5
:108DAC006FEA02426FEA12429A62704700ED00E0ED
:108DBC0010B5164B9A6A9C6A12F4805F14BF172286
:108DCC00162214F4006F9C6A18BF1822A40509D54A
:108DDC009A6B9A6A120404D518B19A6A22F400426A
:108DEC009A621922094B986A10F4806F986A18BF1E
:108DFC001A2210F4807F986A40F47F4098624FF0FA
:108E0C0000030CBF10461B200B7010BD00ED00E0E2
:108E1C0010B5154B0246986A9C6A10F0100F14BFDF
:108E2C001120102014F0080F9C6A18BF1220A40700
:108E3C0009D5586B986A000604D51AB19A6A22F0C3
:108E4C0080029A621320084B9A6A12F0010F9A6AF8
:108E5C0018BF1420D20658BF9A6A9A6A42F0FF02D1
:108E6C009A6200230B7010BD00ED00E0F0B5474B8B
:108E7C0004465B6800258BB0C3F3080385F31188A7
:108E8C00BFF36F8F02F07F40B0F17F4F11D102F032
:108E9C000C0008280DD010074CBF0C4601250022F1
:108EAC00033B8DF80720032B05D8DFE803F0246281
:108EBC00665F2C46F3E700239DF80720CAB902AE83
:108ECC0004F12007324620686168083403C2BC42B2
:108EDC001646F7D1099A002D53D0C2F3080121B9D7
:108EEC006FEA52226FEA42220992184602A903F055
:108EFC00AFFA0BB0F0BD254BDA6A9107DBD4DA6A16
:108F0C00002AD8DBDA6A5200D5D55A69A16942F435
:108F1C0080725A61BFF34F8FBFF36F8F5A6931F86C
:108F2C00021C22F480725A61BFF34F8FBFF36F8F14
:108F3C004DF60272914209D09A6AD2B242B1012026
:108F4C000DF10701FFF764FF0346B5E72368B3E7AC
:108F5C009A6A12F47F4F05D001200DF10701FFF73B
:108F6C0027FFF1E79B6AB3F5803FA4D3FFF7F2FE2E
:108F7C00EAE700200DF10701E4E700200DF10701FD
:108F8C00EDE722F4FF7222F00102ADE700ED00E004
:108F9C00064B5A6942F010025A615A6942F48062D7
:108FAC005A615A6922F008025A61704700ED00E0DC
:108FBC00EFF30880EFF3098101B57246FFF756FF16
:108FCC0001BD00BF002080F31488BFF36F8F002019
:108FDC0080F30A8880F30B880F4880F3088801F02F
:108FEC0013FA00200D490860BFF34F8F00F02CF8E6
:108FFC00202080F311880A484FF40061401880F358
:10900C000988EFF314800221084380F31488BFF31E
:10901C006F8F00F0CDF800007810002194ED00E087
:10902C0078030021002318460649D1F89020C2F39A
:10903C000722934200DB7047C1F89830C1F8A000BA
:10904C000133F6E700ED00E010B572B6002484F3AE
:10905C001388FFF7E7FF23464FF0FF300C4A03F16C
:10906C0020010133102B42F82100F8D100234FF0DE
:10907C00FF30074A03F160010133102B42F8210045
:10908C00F8D162B6BFF34F8FBFF36F8F10BD00BF27
:10909C0000E100E0084B9B6883420BD1EFF30583A2
:1090AC0043B1064B5A6842F080525A605A6A22F415
:1090BC0000425A6202F064BB3C03002100ED00E068
:1090CC0016498A684FF030001044EFF3098C80E8A1
:1090DC00F01F202080F31288BFF36F8F104F4FF0DA
:1090EC0000664A698A603E604FF07004141920686B
:1090FC000C4C2060506F0023536780F3118802F1F1
:10910C00300090E8F01F8CF3098802F1000004B5E0
:10911C0003F0B3F9BDE80440704700003C030021A4
:10912C0004ED00E0700200211EF0040F0CBFEFF301
:10913C000880EFF30980816911F8021C0229FFD025
:10914C0001B5724603F08AF901BD00BF40B2002898
:10915C0007DB01234109034A00F01F00834042F85A
:10916C002130704700E100E0054B420953F8222002
:10917C00012300F01F0003FA00F01040704700BFFD
:10918C0000E100E040B2002801F10101ACBF00F1A8
:10919C006040064B4FEA4111C9B2ABBF00F56140CC
:1091AC0000F00F0080F800131954704714ED00E024
:1091BC0008B5084B084A23F07F039360BFF34F8F29
:1091CC00BFF36F8F01F072FF02F0E8FB00F048F87C
:1091DC0001F0ACFF0088000100ED00E042F8203CFB
:1091EC00009B0B4942F81C3C019B21F0010142F809
:1091FC00183C029B42F8081C42F8143C4FF0807358
:10920C0042F8043C0023203A02654367704700BFD4
:10921C00798A000100B50B4B15469860026F0A4B1A
:10922C000E461A60036E83F30B882C4686F309886E
:10923C000020064B98472046002100220023044CB6
:10924C00204700BF3C030021700200218FC40001A5
:10925C00798A00011022014B1A61704700ED00E081
:10926C00002320210348C21801331E2B82F800135F
:10927C00F9D1704700E100E008B5EFF30583064A29
:10928C00103B02EBC30152F8330049688847BDE834
:10929C000840FFF74BBD00BF2CCC00011FB5094C9B
:1092AC00094A23460121094800F0FAF800230393E8
:1092BC00074B0121E41A01A80193029400F0FAF87B
:1092CC0004B010BD000001210000002188CD000178
:1092DC00B000002110B50C7A0B6804F01F0223F0CB
:1092EC001F031A43CB68640923F01F03054943EAA3
:1092FC00440343F00103C1F89800C1F89C20C1F865
:10930C00A03010BD00ED00E010B5074BD3F8903045
:10931C00C3F30723013B984202D8FFF7DBFF10BDD4
:10932C006FF01500FBE700BF00ED00E02DE9F04FFA
:10933C000F46144606464FF000084D4D85B0B84513
:10934C0080F29280D6F80490B9F1000F36D0B9F1C2
:10935C001F0F40F2878019F01F0F40F08380D6F862
:10936C0000A01AF01F0F7DD1504603F0CAF88346B7
:10937C0009EB0A00013803F0C4F8834572D11BF1E4
:10938C00160F6FD05C456DDDC5F898B0D5F89C1004
:10939C00C5F898B0D5F8A03021F01F0143F01F0A92
:1093AC00D6E900321A44994202F1FF391ED1CA455E
:1093BC0008D131465FFA8BF003F0ACF808F10108E4
:1093CC000C36BCE73146C5F898B0D5F89C3022F085
:1093DC001F0203F01F031343C5F89C30E0B203F0E7
:1093EC0099F810F1160F3DD0441CE7E7C5F898B07A
:1093FC00D5F8A020013B23F01F0302F01F021343FA
:10940C00CA453146E0B2C5F8A030E8D003F082F886
:10941C0010F1160F26D0C5F898B0D5F89C209DF801
:10942C0008300AF1FF3A62F304038DF80830D5F8DE
:10943C00A0309DF808205B0863F347128DF80820D4
:10944C00D6E900321344009323F01F035344A3EBDB
:10945C000903013023F01F036946C0B20393FFF7E1
:10946C0053FFBEE76FF01504204605B0BDE8F08F42
:10947C0000ED00E00522044BC3F89420BFF34F8F9E
:10948C00BFF36F8F704700BF00ED00E0BFF35F8F3D
:10949C000022024BC3F89420704700BF00ED00E09F
:1094AC0010B5034C2278FFF741FF207010BD00BFB0
:1094BC006C0300212DE9F74F294D8A4606464FF0E3
:1094CC000008AB46274FD0451BDAD6F80490B9F10B
:1094DC00000F3FD031680846019103F012F8019952
:1094EC00044609EB0100013803F00BF884424FF0FD
:1094FC0014021D4B08D002FB08F36FF015024BF859
:10950C00032003B0BDE8F08F14F1160F2C60F8D0D7
:10951C001978A142F5DD02FB08B0C7F89840C7F8EE
:10952C009840D7F89C4000F10801007B64F30400DC
:10953C000871D7F8A0000C79400860F347140C713F
:10954C00D7F89C1021F01F016960D7F8A01021F00A
:10955C001F01296108F1010814350C36B3E700BF6F
:10956C007402002100ED00E06C030021F0B54149CC
:10957C00414CD1F890302568C3F307239D4287B046
:10958C0075D80020FFF782FF3C4BC1F8C0308542F4
:10959C0016D13B4C01A82570FFF790FB0025064621
:1095AC00384FAE4213D1002023783249D1F89020A5
:1095BC00C2F30722934254DBFFF75CFF00202FE03D
:1095CC00616801EB0011FFF785FE0130DFE70199BF
:1095DC00280101EB0513DA683A40B2F5001F21D0DF
:1095EC00B2F5800F2BD0B2F5801F38D15A689B682A
:1095FC000958013B22F01F0003440120844623F04C
:10960C001F0340EA4C10CDE902218DF8100002A98D
:10961C0020780593FFF778FE00281DDA6FF015000F
:10962C0007B0F0BD5A689B680958013B22F01F0037
:10963C0003444FF0020C012023F01F03E1E75A68AA
:10964C009B680958013B22F01F0003444FF0000CAB
:10965C00062023F01F03D4E7237801332370013550
:10966C009FE7C1F89830C1F8A00001339EE74FF096
:10967C00FF30D5E700ED00E094CD0001AAFF4400D7
:10968C006C0300210000F0FF08B50649064821F0E4
:10969C000701C1F1045202F5803202F09AFD00205C
:1096AC0008BD00BF7F10002188020021064AD2F8B5
:1096BC00AC3123F00043C2F8AC310022034BC3F8A9
:1096CC004C21D3F84C31704700200141006001411E
:1096DC000122024B0020C3F84025704700000841CE
:1096EC005023142213B51F4C0DF10700C4F80C3590
:1096FC001D4BC3F820214FF400621C4BC3F8BC2552
:10970C004FF48062C3F8382500F028FF184B9842BC
:10971C0025D118499DF8070003F02DF816499DF83E
:10972C00070003F02DF815499DF8070003F023F806
:10973C0021469DF8070003F023F801209DF807301F
:10974C00984000F005FF4FF4002200200C4BC3F8AA
:10975C004423C3F84C01D3F84C3102B010BD6FF068
:10976C000B00FAE700B0004100302041002001411D
:10977C000000AD0B4C610141282001412C2101411D
:10978C000060014173B5354BD3E84F3F002334499A
:10979C00CDE90033334BD3F80445BFF35F8FD1F8D9
:1097AC000465BFF35F8FD3F804259442F3D16B4665
:1097BC00224601212B4802F0C6FE324605460F21F7
:1097CC00274801AB02F0BFFEE0B1019B0DB900933D
:1097DC0002E0009A9342FAD3009B22481C44013CBD
:1097EC00D0F84C3524F07F449C421F4932D0FFF70F
:1097FC005DFFC0F84C451D4B009A9A4218D90123C5
:10980C000B7001E0002DE7D1194AD2F8AC3143F0CE
:10981C000043C2F8AC31134BD3F84C2132B90121BF
:10982C00144A5160D3F84C3103B1116001230DE09F
:10983C00BFF35F8FD0F80435E41A24F07F440E4B4D
:10984C00033C9C42DBD900230B7000230B4A1370A2
:10985C0002B070BD0B78002BF7D0D5E77103002157
:10986C0000100141006001416F030021FEFF7F00E9
:10987C000020014100B00041FBFF7F00700300217C
:10988C00F8B51E490023C1E8423F52BB1C4B1D7862
:10989C003DB305231B4E1C4F34780134B4FBF3F35A
:1098AC0003EB8303E41A02F054FF184A137823B134
:1098BC0057F82430C01A072813D9154BD3F81411B4
:1098CC0041B10021C3F81411D3F8143134700CB920
:1098DC0001231370347802F03CFF47F8240028462B
:1098EC00F8BD0C4A0025D2F8AC3123F00043C2F885
:1098FC00AC310122084B5A60F1E700BF7103002123
:10990C00700300216E030021940200216D030021DD
:10991C00005000410020014100B0004120B1034B38
:10992C00800143F001031847704700BF80CD000150
:10993C00084B70B5C31A0D4607499B100446594392
:10994C004022064802F039FE2B4601462046BDE86F
:10995C0070401847BC020021B76DDBB6F0CB00019C
:10996C00402373B50B4C0093041B0B460D460A4960
:10997C00A41061430646094A094802F04AFE011E3A
:10998C0005DA30462B4602B0BDE87040184702B0ED
:10999C0070BD00BFBC020021B76DDBB689C60001EB
:1099AC00F0CB000110B5EFF31184202383F3128860
:1099BC00BFF36F8F074A136823F00201DB071160B6
:1099CC0002D4012002F0E1FE84F31188BFF36F8F03
:1099DC0010BD00BF0C03002170B50022012104460C
:1099EC000520FFF7CFFB0F4800F01CFE0E4B9842F2
:1099FC0015D100F027FE26690C49304602F09FFC79
:109A0C0000280BDB012535642469084904F11C008E
:109A1C0002F095FC002801DB0020E56470BD6FF0BE
:109A2C000400FBE7399B00010000AD0BBCCD00012D
:109A3C001FB500220123CDE902236B46084ACDF85D
:109A4C0000D0CDF804D002F012FE002805DB4FF454
:109A5C0080420023684601F00BFC05B05DF804FB66
:109A6C00A7C600010C22104B014602FB003300205C
:109A7C0030B4D3E90E529863EFF31180202484F3B1
:109A8C001288BFF36F8F1C6C04F0C00444F0020406
:109A9C001C6480F31188BFF36F8F1DB12B4630BC53
:109AAC000248184730BC7047BC020021F0CB0001C3
:109ABC0010B4EFF31182202383F31288BFF36F8F5E
:109ACC001748016841F002040460C80707D482F308
:109ADC001188BFF36F8F012010BC00F0C9BD114974
:109AEC00D1F80C04D1F80C14C907F0D5EFF31180A0
:109AFC0083F31288BFF36F8F0B490B6C03F0C00319
:109B0C0043F002030B6480F31188BFF36F8F82F371
:109B1C001188BFF36F8F002010BCFFF7A3BF00BFED
:109B2C000C03002100500041BC02002110B101289F
:109B3C0004D07047034B1B6C5B0701D1FFF792BF3E
:109B4C00704700BFBC0200212DE9F04101220746FD
:109B5C003449D1E8EF3FC1E8E02F0028F9D133B9FF
:109B6C00314932484B60CB608A6002F0FBFB7B1EB4
:109B7C00012B28D8012F06D12D4BD3F81C3403F020
:109B8C000303022B1FD002F0B8FE0546E8B9294B9F
:109B9C001B78D3B102220646254BC3F80823244C6C
:109BAC00DFF89480D4F81824D4F81834D20315D5DF
:109BBC0003F00303022B01D0012F0FD16DB386F3F9
:109BCC001188BFF36F8FBDE8F081EFF3118620236E
:109BDC0083F31288BFF36F8F0125E0E7C5B13046E0
:109BEC0002F071FCD4F81835DBB2012BDAD1D4F8C1
:109BFC000421002AD6D00022C4F80421D4F8042170
:109C0C000222C4F818252022C8F88021A360C9E7D5
:109C1C000021212002F0E1FEE4E70222044BC3F80C
:109C2C000423D0E7B8020021A8020021D8020021A9
:109C3C00005000417203002100E100E0F0B54068E3
:109C4C0001F01F04057B87B044EA45140569002D1B
:109C5C0063D0B2F5001F00F1100506D1214628464D
:109C6C0002F012FE002007B0F0BD0027B2F5800F05
:109C7C0001AE0197776039D1B3F1007F14BF052392
:109C8C0004238DF804300023CDE904630393836827
:109C9C0023FA01F111F001011AD1B2F1A07F17D111
:109CAC0004F01F03620903F180032AD0012A3AD180
:109CBC001E4A52F82330DB070AD40DF10306324654
:109CCC002146284600F0D0FF194B98421BD0029633
:109CDC002146284603AA00F083FE164B98421FD15A
:109CEC0001222146284601F021F8BBE7B3F1C06FF1
:109CFC0005D0B3F1007F14BF01230223C1E7032376
:109D0C00BFE70D4AD5E73146284601F009F8094B63
:109D1C009842DCD06FF00B00A5E76FF08500A2E74E
:109D2C006FF015009FE751F82330FFDE00088C41DF
:109D3C000400AD0B0000AD0B00058C4138B5456837
:109D4C002B69B3B11035284600F0DAFF044680B910
:109D5C000146284600F0A2FF084B98420BD1224640
:109D6C002846074900F07AFF224605210A20FFF712
:109D7C0009FA002038BD6FF00400FBE70000AD0BC2
:109D8C00919D00014209034670B502D0012A17D0FB
:109D9C0070BD0D4E326951680029F9D0012503F0D0
:109DAC001F030C689D400029F2D08A682A4002D01B
:109DBC0030464B6898472CB1236821461C46F2E785
:109DCC00024EE7E72346F8E718CC000104CC00016B
:109DDC002DE9F04340F206354668D00648BF032013
:109DEC00337B02EA050558BFC2F3401087B001F07F
:109DFC001F07B5F5837F144647EA43178DF8030018
:109E0C0044D00FD8062D18D007D8B5B1022D3FD0AD
:109E1C006FF0150007B0BDE8F083B5F5807FF7D182
:109E2C0001250AE040F20222954233D0B5F5407F7D
:109E3C0032D0B5F5007FEBD102250123220303FAC2
:109E4C0001F12BD573689960326972BB07F01F035F
:109E5C007F0928D0012F75D13C4A02EB830284F490
:109E6C008033D2F80012C3F30043C4F3404444EAF5
:109E7C00430421F4706144EA800421F00F0144EAA8
:109E8C0005230B43C2F800320020C3E70725D4E7B3
:109E9C000425D2E70525D0E70325CEE7630344BFAD
:109EAC007368D960D0E72A4AD7E71036394630466E
:109EBC000DF1020200F0D8FE14F4403F80460CD1A4
:109ECC003946304602F0DEFC224B9845DCD1304658
:109EDC009DF8021000F01EFFD6E74FF0000901AB11
:109EEC003946304603AACDE90439CDE90199CDF8BC
:109EFC000C9000F075FD174B984289D114F4003387
:109F0C0015D09DF8033084F48034C4F300448DF8EC
:109F1C000E3039464B46304603AA8DF80C508DF85E
:109F2C000D4000F019FE0B4B9842CDD070E7CDE9F7
:109F3C00043339460DF10303304603AA039300F0B2
:109F4C004FFDF0E7803352F82330FFDE00088C41E0
:109F5C0000058C410000AD0B0123834070B5DC4340
:109F6C000B4AD2E8EF1F01EA0405C2E8E65F002EB7
:109F7C00F7D14FF4803282400648C0F80823BFF373
:109F8C005F8FBFF36F8F0B4214BF0120002070BD99
:109F9C002C0300210060014170B40E4922F07F4671
:109FAC00D1E90034D01AC31844F10004C1E90034DB
:109FBC00A6F50013B3F5400F09D2074B1B681A0A1C
:109FCC001B069C19054B42F10005C3E9004570BC0A
:109FDC0001F0A4BDC000002130030021C800002105
:109FEC00D9B101230D4A8340D2E8EFCF4CEA030CE0
:109FFC00C2E8E1CF0029F7D14FF48033084A8340FF
:10A00C00C2F80433074BD3E8AF3FC340DB0742BF72
:10A01C004FF48002044BC3F8002170472C0300213D
:10A02C00006001412803002100E100E00D4B18689D
:10A03C00010A0006BFF35F8F0B4BD3F804351818D9
:10A04C0041F10001B3F5801F0AD2084BD3E900237C
:10A05C00904271EB030303D210F1807041F10001C7
:10A06C00704700BF3003002100600141C80000218F
:10A07C002DE9F04F85B016461F4604469DF840A0CA
:10A08C00FFF76AFF0190FFF7D1FFB04271EB0703B6
:10A09C0052D23B4B301A67EB0101984271F100012F
:10A0AC004DD2384B03EB0413D3E902239F4208BF74
:10A0BC00964258D04FF48038334908FA04F82046B9
:10A0CC0026F07F4BC1F8488302F037FB4FF00309B1
:10A0DC00584604F15005AD00ADB205F1824504F5CA
:10A0EC00A87305F5B0350293029A20F07F4341F82E
:10A0FC002230C1F84483D1F80435244AC01A0338FD
:10A10C0020F07F4090422ED9286868B1D1F80435F0
:10A11C00A3EB0B0020F07F40B0F5000F039322D986
:10A12C00204602F00AFB039BBAF1000F07D109EBA2
:10A13C00030009F10109D7E7BAF1000F09D06FF05C
:10A14C00150520460199FFF74BFF284605B0BDE8E1
:10A15C00F08F01230E4AA340D2E8EF0F1843C2E858
:10A16C00E10F0029F8D107490E982301C8500F9B25
:10A17C0001EB04120025C2E902675360E1E700BF5E
:10A18C0001008000B000002100600141FDFF7F0054
:10A19C00280300217FB500254FF0FF304FF0FF3131
:10A1AC00194C1A4B0226C4F80833C4F84833184B20
:10A1BC00C4F80855C3E902014FF480334FF4800210
:10A1CC00C4F80433134B0121C4F804631620C3F8FC
:10A1DC0080212A46FEF7D6FF1620FEF7B7FF012393
:10A1EC000D4AA360236013600C4B0D4A0093284664
:10A1FC000023CDE90155FFF73BFF3046FFF7A4FCE8
:10A20C00284604B070BD00BF0060014103000F0080
:10A21C00B000002100E100E02C030021A59F00010B
:10A22C00FFFF7F002DE9F74302F0BCF92E4BD3F86A
:10A23C00042390070BD5D3F8042142B10022C3F8B4
:10A24C0004212A4AD3F80431136801331360264AD7
:10A25C00D2F80433D90326D5254BD3E8EF1F21F0D0
:10A26C000100C3E8E40F002CF7D1CB0702D4D2F8DD
:10A27C004031C3B100251C4CC4F84051D4F84031D6
:10A28C00FFF7D4FEEFF31182202383F31288BFF380
:10A29C006F8F184BD3E90267B042B94106D282F3F3
:10A2AC001188BFF36F8F03B0BDE8F0834FF0FF3818
:10A2BC00D3E900104FF0FF391D60C3E902894FF458
:10A2CC008033C4F84833C4F84051D4F8403182F399
:10A2DC001188BFF36F8F0029E5D0009032463B46C2
:10A2EC0028468847DFE700BF0060014130030021AA
:10A2FC0028030021B000002130B5431C124C85B05E
:10A30C0005D08442A8BF0446012CB8BF0124FFF736
:10A31C008DFE0E4B0C4DD3E90013401AB0F5000F17
:10A32C000FD22218AA4228BF2A46002052180849E8
:10A33C00CDE90100009143F10003FFF799FE05B050
:10A34C0030BD2A46F1E700BFFFFF7F00C0000021AF
:10A35C00A59F000108B5FFF769FE024B1B68C01AE8
:10A36C0008BD00BFC00000212DE9F043224885B094
:10A37C0002F0F3F9002604461F4B204FD3F8388027
:10A38C00DFF87C90B04503D8002005B0BDE8F08321
:10A39C00636A97E807001D6801AB83E807000C228D
:10A3AC001946284602F086FB78B975B122692B69EB
:10A3BC009A420AD1AB69A2699A4206D8E2699A42DA
:10A3CC0003D963696A6993430CD0256A75B10D484A
:10A3DC0001F059FF002383F31188BFF36F8F04231F
:10A3EC00184602DFE36801361C44CBE7484601F00F
:10A3FC004AFF636A1D60F5E7008A000160CD000129
:10A40C00E6CE0001BDCE00010022D30003F1FF73A4
:10A41C0003F58033D3F80013013107D0D3F80013C0
:10A42C000132D3F80433202A0B60EED1224BD3E94E
:10A43C004C32072B26D1023A032A204B28D9D3F8C9
:10A44C000024D10732D41C4BD3F83021072A19D160
:10A45C00D3F83431023B032B02D8194AD35C8BB1AD
:10A46C007F23184A1849C2F818310023C1F8043E5A
:10A47C00C1F8083EC2F82431C2F82C3102F57F2213
:10A48C00C2F81031114B1A68114BC3F844257047B0
:10A49C0010498A5C002AD2D0D3F80024D207CED53A
:10A4AC000022C3F81421C3F81821C8E76FF0010289
:10A4BC00C3F80024C7E700BF0000FF0100500041B3
:10A4CC0019CF000100200041000008410080FF016D
:10A4DC00006000411DCF000130B50468ACB1B4FA86
:10A4EC0084F30122C3F11F03DBB29A4024EA020277
:10A4FC00D0E8EF5FA54204D1C0E8EC2FBCF1000F0F
:10A50C00F6D1EAD102480B7030BD0248FCE700BF1F
:10A51C000000AD0B0200AD0B10B50368CB40DB07A0
:10A52C0010D401238B40026843EA0201D0E8EF4FBC
:10A53C00944204D1C0E8EC1FBCF1000FF6D1F2D16B
:10A54C00014810BD0148FCE70000AD0B0400AD0B49
:10A55C00014BC3F80405704700F000410146014867
:10A56C0000F01CB904000021F7B5064618B3012809
:10A57C001FD104224FF48073014629480025C0F8EE
:10A58C000813012142F2107402F1824203F182435A
:10A59C0003F5A04302F5A04211601D608E421B68BA
:10A5AC001F4F8DF8071008BF0DF1070546B1012E9E
:10A5BC0023D003B0F0BD0C224FF482730221DCE7F0
:10A5CC00D7F8183403F480333DB9002BF1D00120B7
:10A5DC0002F0CFF8013CF3D1EBE7D7F8182402F0E6
:10A5EC0003022A70002BE4D09DF807000128E0D16B
:10A5FC0002F0BFF8013CD9D1DBE7D7F80C3403F4F7
:10A60C0080333DB9002BD4D0012002F0B2F8013CCC
:10A61C00F3D1CEE7D7F80C2402F00102E1E700BF3A
:10A62C0000500041044B1A7922B9012218601A71AA
:10A63C000248704702487047340300210000AD0BFC
:10A64C000C00AD0B08B5084B1B6833B10520FEF7A9
:10A65C008BFD10B90520FEF779FD0122034BC3F8E1
:10A66C001825C3F8142508BD3403002100500041FF
:10A67C0010B510B1012848D010BD294BD3F81814CF
:10A68C00D3F81824C90324D502F00303022B05D0F8
:10A69C00012B02D00020FFF767FF0123204A022084
:10A6AC00C2F8183508224FF48273002103F182435B
:10A6BC0003F5A04319601C68012402F1824202F5E3
:10A6CC00A0421460174A12681AB3154BC3F804035E
:10A6DC00D2E7D3F81424D207DFD5D3F81C2402F028
:10A6EC000302013A012AD5D80E4A12681AB1022285
:10A6FC00C3F80423C0E7D3F80421002AFBD00022BE
:10A70C00C3F80421D3F80431B6E700224FF4807368
:10A71C00CBE71A68002AFCD019601B68ACE700BFB5
:10A72C000050004134030021F8B50126194C1A4F92
:10A73C00D4F8045305B9F8BDB5FA85F0C0F11F0083
:10A74C00830003F580739BB203F1824303F5A043AE
:10A75C0006FA00F21968D2B225EA02050029E9D0FE
:10A76C000021022A19601B68C4F808230DD1D4F803
:10A77C001834D4F8183403F00303012B05D1C4F8B2
:10A78C001825C4F80423A360D4E73B68C0B29847EB
:10A79C00D0E700BF00500041340300210079024B88
:10A7AC0003EB0010FFF798BE0C000021036803F0C8
:10A7BC001F025B09026004D0012B034818BF002064
:10A7CC0070470248704700BF00088C4100058C415F
:10A7DC00034A4309D35C00F01F001844C0B2704711
:10A7EC0021CF000170B50546FFF7F2FF0C4C083085
:10A7FC0034F810300E46DA0508D5C3F3432304EBC6
:10A80C00C302284654F8333052689847A3682BB1DA
:10A81C0031462846E268BDE87040184770BD00BF5D
:10A82C001C00002108B5FFF7D3FF034B083033F8A9
:10A83C001000400B08BD00BF1C00002108B5FFF73D
:10A84C00C7FF034B083033F81000C0F3400008BDBD
:10A85C001C00002108B5FFF7BBFF034B083033F891
:10A86C001000C0F3401008BD1C000021034611F07D
:10A87C00010010B5CCB20BD1A207C4F340000DD52A
:10A88C00074A106A58601062003818BF012005E0B2
:10A89C0004490A6A1A600A62002AEDD010BD00BF92
:10A8AC0000088C4100058C4110B5FFF791FF124A4E
:10A8BC00083032F81030D9051CD5C3F3432123F4EA
:10A8CC00F85322F81030002002F10E0434F8023F45
:10A8DC0013F4807F03D0C3F3432399420AD0013091
:10A8EC003028F3D1002342F831300448BDE8104041
:10A8FC00FFF712BE10BD00BF1C0000219400002108
:10A90C00F0B5054600200126044607468C420BD1C3
:10A91C00114BD3F87C2132B10022C3F87C21D3F83F
:10A92C007C3140F00040F0BDE3B29B0003F5807237
:10A93C009B0806FA03F31D420BD002F1824202F58A
:10A94C002042D2F800C0BCF1000F02D01760126890
:10A95C0018430134DAE700BF00A00041F7B5064602
:10A96C000846FFF735FF1A4F00F1080537F8153088
:10A97C000C46DB0729D5304601F061FF2046FFF776
:10A98C0069FF50B12046FFF74DFF0023316801EB02
:10A99C008000C0F81035C0F810352046FFF784FF52
:10A9AC00002301A827F815300194FFF7FFFE019B47
:10A9BC0000EB8300D0F80022064B134043F0020357
:10A9CC00C0F80032044803B0F0BD0448FBE700BFF8
:10A9DC001C000021F0F0FCFF0000AD0B0400AD0BDF
:10A9EC002DE9F0431646804685B00846FFF7F0FE89
:10A9FC000D463168044609B32846FFF71FFF18B10E
:10AA0C002846FFF727FF10BB00230DF10F02CDE9FD
:10AA1C0000338DF80E308DF80F3028460B460DF1B3
:10AA2C000E0101F0B4FE484A04F1080132F811306D
:10AA3C0023F0020343F0010322F8113073687BB357
:10AA4C0028461F785968FFF7F9FE10B1E9B13F4865
:10AA5C0029E03D4A04F1080032F8103023F02003BD
:10AA6C00DB04DB0C22F8103079B1032FEFD87168BE
:10AA7C00496891F800C0D8F800104FEA8C09494495
:10AA8C00A7B9C1F81075C1F810752F4A04F1080167
:10AA9C0032F8113023F01C0343EA870322F81130FB
:10AAAC00B3683BBB2A4805B0BDE8F083D1F810E58C
:10AABC0043EA4C332EF0030EC1F810E5D8F8001021
:10AACC0043F0200301EB090EDEF8101522F81030CC
:10AADC0021F44F3121F44071CEF810152902DEF823
:10AAEC00108501F47C5141EA074141EA0801CEF896
:10AAFC001015CAE72846D3E90067FFF7D5FE002EEC
:10AB0C00D0D0114DD5E90023964203D19F4201D1FB
:10AB1C00002209E00F480DF10F01FFF7DDFC0C4B93
:10AB2C009842C0D19DF80F2005EBC20308345F603A
:10AB3C0035F8143045F8326043EA422343F480730D
:10AB4C0025F81430AEE700BF1C0000210400AD0B4B
:10AB5C000000AD0B940000212DE9F0430C4680461B
:10AB6C0085B0204611461E46FFF732FE054629B336
:10AB7C002046FFF763FE18B92046FFF76BFE18BBA3
:10AB8C00334F05F1080937F8193013F01C0F02D0B8
:10AB9C004B78012B18D001238DF80F3000234A1C61
:10ABAC00CDE9001320468B1C0DF10F0101F0EFFDD8
:10ABBC0037F8193043F0030327F81930002E44D02E
:10ABCC002046FFF73BFE18B9224805B0BDE8F083DC
:10ABDC00002296F800C0D8F800301D4F03EB8C0310
:10ABEC00C3F81025C3F8102505F1080237F8121028
:10ABFC004FEA8C0E21F02001C904C90C27F8121061
:10AC0C00757815B3D8F80000B6787044D0F81035C4
:10AC1C002D0423F4991323F4F853C0F810352302B0
:10AC2C0003F47C5305F440353605D0F810E52B437E
:10AC3C0006F48016334341EA4C3143EA0E0341F0EB
:10AC4C002001C0F8103527F812100348BDE700BFEB
:10AC5C001C0000210400AD0B0000AD0B014BC3E93F
:10AC6C00021270471C00002110B508461446FFF76D
:10AC7C00F1FD50B10846FFF7ABFD054B083033F83A
:10AC8C00103004485B0B237010BD0348FCE700BF79
:10AC9C001C0000210000AD0B0400AD0B70B5154D70
:10ACAC00064695F880401CBB2146602205F1100039
:10ACBC0001F0F8FE214630682E6F8E420ED1002333
:10ACCC00C0F87C31D0F87C3140F30730FEF73EFA07
:10ACDC000123094885F88030AB6770BDCBB29B006F
:10ACEC0003F580727C2B04BF845083580131E4E758
:10ACFC000248F2E71C0000210000AD0B0C00AD0B6C
:10AD0C00034B93F88000003818BF0120704700BF38
:10AD1C001C0000210148FFF7FFBB00BF9000002181
:10AD2C000148FFF7D9BB00BF9000002173B5036841
:10AD3C001646D3F804230546002AA8BF4FF000425C
:10AD4C000846A8BFC3F804230C46FFF783FDE8B1FF
:10AD5C000846FFF773FD0146C0B92046FFF762FDB8
:10AD6C002C68820002F58073E150E3582B68134481
:10AD7C00D3F8102542F00102C3F8102526B10123A7
:10AD8C002A688340C2F8043302B070BD2046FFF736
:10AD9C001FFD0F4B083033F81030C3F38203042B24
:10ADAC0011D0052B11D001A80194FFF7FFFC019ADB
:10ADBC000369D34003F00103991C204602B0BDE89F
:10ADCC00704001F02DBD0321F7E70221F5E700BF2C
:10ADDC001C0000212DE9F04F684BDFF8A481D3F85B
:10ADEC000403D8F87010C0B289B040F00040FFF7EF
:10ADFC0087FD051E2FDAC24600235AF87C1F06A8D1
:10AE0C00CDE90633FFF732FD4FF0000B5D4B0DF132
:10AE1C0018090193019A12F8013B0192DA081AF809
:10AE2C00022003F0070322FA03F3DA071CD409F11A
:10AE3C000409BBF1000F14D0D8F870104FF000408B
:10AE4C00FFF75EFDD8F87C1006A8FFF70FFD002871
:10AE5C00DAD125F000450124002D76D109B0BDE8EA
:10AE6C00F08F4FF0010BD5E7474B5B440293D9F8B9
:10AE7C0000100029DBD091FAA1F1B1FA81F1029B0B
:10AE8C001C7841EA44142046FFF7A2FC083038F83D
:10AE9C001070C808BB080393012319F8002001F0B7
:10AEAC00070103FA01F122EA010209F8002005A8C2
:10AEBC000594FFF77BFC059A039B803250F8222007
:10AECC00C7F382065B073746C2F3014222D5204600
:10AEDC003946D6B2FFF786FC05A80594FFF766FC49
:10AEEC00059B803350F82330C3F301439E4207D1B6
:10AEFC000021204601F094FC3146204601F090FCE4
:10AF0C0005A80594FFF752FC0122059B02FA03F3F6
:10AF1C000362ACE7022A0CD10321204601F080FC2D
:10AF2C0006F00503012BEBD139462046FFF75AFCFE
:10AF3C00E6E702212046039201F072FC032EF3D0C7
:10AF4C00039A032ADCD1022EEDE795FAA5F3B3FAA6
:10AF5C0083F304FA03F29B0003F1824303F52043CD
:10AF6C00D3F81005D3F81015C0F30520C1F3014137
:10AF7C0025EA0205FFF736FC6EE700BF00A0004192
:10AF8C001C00002131CF000131CF000138B5EFF3A7
:10AF9C001185202383F31288BFF36F8F064B9C68B7
:10AFAC0001F080FC85F31188BFF36F8F2046BDE85C
:10AFBC003840FEF76FB800BF3C03002138B5094B91
:10AFCC0053F82040013053F82050A54200D838BD2A
:10AFDC00636823B1204601F068FC0834F5E7236868
:10AFEC009847FAE708CE0001012270B52A4B0320DE
:10AFFC0086B01A70FFF7E2FFFDF766FE01F071FCF8
:10B00C000420FFF7DBFF254C254D2646AE4204F10C
:10B01C00300410D300F0B4FA204C224EAC4226D3AC
:10B02C0000F0C2FA01F04BF81F4A137B23F0010326
:10B03C00137306B070BD54F80C3C059354F8103CD7
:10B04C00049354F8143C039354F8183C029354F8AA
:10B05C001C3C019354F8203C009354E90A2354E916
:10B06C000C0100F02BF954F8303C5E65CDE7D4E9C7
:10B07C000A23B3F1FF3F08BFB2F1FF3F05D052EAFC
:10B08C000301206803D100F04FFB3034C6E7314692
:10B09C00183000F0CDFCF8E7720300211CCD000144
:10B0AC001CCD0001DFC900015001002108B5034887
:10B0BC00034A0021121A01F010FC08BDB000002157
:10B0CC00740300210023012270B586B0CDE904235E
:10B0DC000F220193CDE9023214230F4D0F4E03FBC7
:10B0EC0000550F4906EBC016044601EB00214FF446
:10B0FC00807230460B4B009500F0E0F8737B2C749B
:10B10C0023F004037373084B013403EBC423EE6088
:10B11C006B6006B070BD00BF3C030021D000002165
:10B12C00780B0021F1C8000178030021BFB5002085
:10B13C00FFF744FF2C4B03F5006282F3088883F37E
:10B14C000A880024E023294D294E85F82230EC771B
:10B15C002C766C76AC7685F820406B6A254F43F4E0
:10B16C00E0236B6285F82340FDF712FFFEF772F8BF
:10B17C004FF0FF33AB62EB62FEF7F8F9FEF78EF897
:10B18C0040F201121C4B1D4D9A81B360C3E9184467
:10B19C00DC6601F079FC0120FFF710FF0220FFF7BD
:10B1AC000DFF00F035FA164B756105930123154917
:10B1BC004FF48062CDE9034328463B46CDE9014478
:10B1CC00009400F07BF806466A7B284622F00402C5
:10B1DC006A7301F0D2FB2046FFF774FF3A46314602
:10B1EC002846FEF717F800BF7803002100ED00E0B9
:10B1FC003C030021F5AF0001D001002150010021DA
:10B20C0033CF0001780C002170B5EFF311862023A9
:10B21C0083F31288BFF36F8F0468A0421AD0CCB1AD
:10B22C00D4E90032002513605A60637BC4E90055F1
:10B23C0023F002036373A56004F1180001F0FFFB17
:10B24C002046A56701F099FB3146BDE870400748E0
:10B25C0000F070B9D0E902329A4218BF0133836012
:10B26C0086F31188BFF36F8F70BD00BF730300218D
:10B27C0013B5EFF31181202484F31288BFF36F8F81
:10B28C00846844B1013C846081F31188BFF36F8FF3
:10B29C00002002B010BD52EA030406D181F31188DC
:10B2AC00BFF36F8F6FF00F00F3E7CDE90023024679
:10B2BC00014800F013F9ECE7730300212DE9F0438A
:10B2CC00984685B000F15803C0E91633109B002650
:10B2DC0003730423073222F0070543730F9B01EB22
:10B2EC0005090F4683734946C0E906668660C67336
:10B2FC000446FDF7FBFC0E9B073020F00700A06610
:10B30C00C4E9187502930D9BA9EB000901930C9BE2
:10B31C004A460093394643462046FDF75FFF054BEE
:10B32C0066659B6803B1DB6E4846E36605B0BDE815
:10B33C00F08300BF3C0300216FF00A01084A9368B8
:10B34C009967084958674B6843F080534B6000235A
:10B35C0083F31188BFF36F8F9368986F704700BFAA
:10B36C003C03002100ED00E070B590F90D20437B0B
:10B37C00002A39DBD90637D18269002A34D11D4C19
:10B38C0063F07F032246437352F8183F93422CD14B
:10B39C00E169C0E900210860E06111E09942F8D050
:10B3AC001B68002BF5D090F90E5093F90E60B54246
:10B3BC00F4D0AE42F2DD5968C0E900310860586043
:10B3CC00A569954200D005B9E568A3685A7BD206F9
:10B3DC0004D1DA897F2A01D9AA6942B1AB4202D0E1
:10B3EC00284600F083FA656170BDE169D9E76361B5
:10B3FC00FAE700BF3C03002138B590F90D20014657
:10B40C00002A437B04DA03F07F03437301F07BFAD9
:10B41C000D4D2A4652F8184FAB68944200D004B92F
:10B42C00EC688B4207D05A7BD20604D1DA897F2A8A
:10B43C0001D9A2692AB1A34202D0204600F056FAE3
:10B44C0023466B6138BD00BF3C03002170B590F9F9
:10B45C000D200146002A437B04DA03F07F0343737B
:10B46C0001F051FA1C4C4B7B224663F07F034B736B
:10B47C0052F8183FE069934207D1C1E900200160FE
:10B48C00E16111E09842F8D01B68002BF5D091F9DE
:10B49C000E5093F90E60B542F4D0AE42F2DD58680E
:10B4AC00C1E9003001605960A569A368954200D0DC
:10B4BC0005B9E5688B4207D05A7BD20604D1DA89EC
:10B4CC007F2A01D9AA692AB1AB4202D0284600F0E2
:10B4DC000DFA2B46636170BD3C030021F8B5124B8D
:10B4EC000C46DDE9067611469868104A1060EFF3B9
:10B4FC001182202282F31288BFF36F8F9D68284639
:10B50C0001F013FAB6F1FF3F08BFB7F1FF3F06D0C9
:10B51C003A463346064905F1180000F089FA2046F0
:10B52C00BDE8F840FFF708BF3C0300215C03002195
:10B53C00DFC9000149B9EFF3058030B9054B5A69F1
:10B54C009B689A4201D0FFF7F7BE81F31188BFF3D5
:10B55C006F8F70473C030021034648B9EFF3058217
:10B56C0032B9064A51699268914201D0FFF7E4BEA4
:10B57C0083F31188BFF36F8F704700BF3C0300212A
:10B58C00EFF31181202383F31288BFF36F8F054BE8
:10B59C009A68D37B013BD37381F31188BFF36F8F10
:10B5AC00704700BF3C03002170B5EFF311862023D8
:10B5BC0083F31288BFF36F8F144DAB68DA7B0132C3
:10B5CC00DA732A4652F8184F944200D004B9EC684A
:10B5DC005A7BD20604D1DA897F2A01D9A2692AB111
:10B5EC00A34202D0204600F081F923466B6186F31A
:10B5FC001188BFF36F8FEFF31180202383F3128830
:10B60C00BFF36F8FBDE87040FFF7A6BF3C0300216E
:10B61C00024B03F11802C3E9062270473C030021D8
:10B62C0070B5EFF31186202383F31288BFF36F8F6D
:10B63C001B4CA168E0690B68814214BF1A460022BA
:10B64C0049680B605960A368E1692AB9154AC3E9D6
:10B65C0000210B60E3610CE093F90E0092F90E509F
:10B66C00A84218D0854216DD5168C3E900210B6051
:10B67C005360A5690B4B9D4200D005B9E568A368E2
:10B68C009D4202D0284600F031F965613046BDE894
:10B69C007040FFF751BE8A42D8D01268D5E700BF80
:10B6AC003C0300215403002150EA01032DE9F04131
:10B6BC0005460E4604D1FFF7B3FF0020BDE8F0812C
:10B6CC00831C71F1FF3324DB01F0DAF94419EFF339
:10B6DC001188202383F31288BFF36F8F0F4F104B09
:10B6EC00B8681860FFF788FEB8680E492A463346DA
:10B6FC00183000F09DF9BA684046537B43F00403C0
:10B70C005373FFF719FE01F0BBF9201A20EAE07021
:10B71C00D4E76FF00104241AD9E700BF3C030021E1
:10B72C005C030021DFC9000138B50446183001F074
:10B73C0086F9EFF31185202383F31288BFF36F8F03
:10B74C00637B5A0704D485F31188BFF36F8F38BD20
:10B75C0023F0040320466373FFF706FEEFF3058323
:10B76C00002BF0D12946BDE838400148FFF7E2BE76
:10B77C0073030021014B9868704700BF3C03002104
:10B78C002DE9F8430446EFF31187202383F3128845
:10B79C00BFF36F8F067B16F001060DD087F311886F
:10B7AC00BFF36F8F002383F31188BFF36F8F0423D4
:10B7BC00184602DFBDE8F883437B1A0704D587F3EC
:10B7CC001188BFF36F8FF5E7D90943F0080250D108
:10B7DC004273A36813B1204601F09DF804F11800E0
:10B7EC0001F02DF9A56D04F15808A84511D04FF0C2
:10B7FC00000975B1284601F08EF805F1180001F02A
:10B80C001EF92846C5F87890FFF7AEFDA56DA84542
:10B81C00EFD11C4DAB689C4204D1EFF30586003E82
:10B82C0018BF0126D5F81880174A904502D0B8F1F8
:10B83C00000F01D1D5F80C80434502D0404600F0F2
:10B84C0055F8C5F8148046B140F201120F4B9A819D
:10B85C000022C3E91822DA66AB60AB689C42AED119
:10B86C00EFF30583002BAAD13846BDE8F843FFF768
:10B87C0063BD03F07F0343F00803437301F043F807
:10B88C00A7E700BF3C03002154030021D001002195
:10B89C000122044BC01A044BC0105843034B1A54DA
:10B8AC00704700BF50020021ABAAAAAA7303002163
:10B8BC00C3897F2B12D80A4B1B6863B1094B90F9D3
:10B8CC000E201B689A4209DB437BDB0606D1064B34
:10B8DC00C31A18BF012303F0010070470023FAE7D5
:10B8EC006403002160030021D000002170B50E4BD1
:10B8FC000E4C1E7C182303FB06440546204601F023
:10B90C009EF800220A4B28469A55FFF7D1FF48B102
:10B91C00084B2046BDE870401A680749013AD31716
:10B92C0000F086B870BD00BF3C030021500200211E
:10B93C0073030021640300219DB8000138B5EFF3B7
:10B94C001185202383F31288BFF36F8F104B114A9C
:10B95C009C681068A04206D1FFF7C8FF85F31188D8
:10B96C00BFF36F8F38BD00211B7C11600A4AD35C7A
:10B97C00002BF3D02046FFF79BFF0028EED0637B13
:10B98C00DB0602D12046FFF761FD2046E4E700BF4D
:10B99C003C0300215C03002173030021074808B518
:10B9AC00074A0849121A00F09AFFBDE808400648F9
:10B9BC00064A0749121A00F092BF00BF000000218E
:10B9CC00AE0000214CCF000100000021000000213E
:10B9DC004CCF0001024B1868984208BF00207047FA
:10B9EC00A0000021034B1B680BB9FEF7B3BC002071
:10B9FC00704700BF6803002130B570B10B4B5B681A
:10BA0C0098420AD0036843B1D3E90421D0E9044534
:10BA1C00121941EB0501C3E90421D0E9003213608E
:10BA2C005A600023C0E9003330BD00BFA0000021E4
:10BA3C00B3F1FF3F08BFB2F1FF3FF8B504461D4616
:10BA4C0016465AD08160EFF31187202383F31288B6
:10BA5C00BFF36F8F013275F1FF3321DA6FF0010301
:10BA6C002B49D1E900209B1A4FF0FF3262EB00000A
:10BA7C009E1B60EB0500012E70F1000301DA01261C
:10BA8C000020C4E90460FFF7A5FF224E84467068CD
:10BA9C00BCF1000F0DD1C4E90060046074601CE0BF
:10BAAC00FFF7A0FF013645F10005361845EBE070B5
:10BABC00E7E7DCE90425D4E90431934271EB050E88
:10BACC001CDAD21ADCF8043065EB0105CCE904254C
:10BADC00C4E900C31C60CCF80440FFF77BFF844230
:10BAEC0007D10D4B1C6824B900F090FF2146FEF7DE
:10BAFC0003FC87F31188BFF36F8FF8BD9B1A61EBC2
:10BB0C0005018445C4E90431C5D0DCF800C0BFE7A9
:10BB1C0068020021A0000021680300212DE9F047F4
:10BB2C00EFF31185202383F31288BFF36F8FDFF8B7
:10BB3C00A0900026C9F800000027FFF74BFFDFF8A4
:10BB4C009480D9F80030D8E900ECD91750B1D0E97D
:10BB5C000442A34271EB020A1ADAE41A62EB010204
:10BB6C00C0E90442002413EB0E034CEB0101C8E9BD
:10BB7C000031C9F8004000F049FF2146FEF7BCFB3C
:10BB8C0085F31188BFF36F8FBDE8F047FFF7D6BE82
:10BB9C0014EB0E024CEBE473C0E90467C8E9002314
:10BBAC00FFF72AFF85F31188BFF36F8F83689847DF
:10BBBC00EFF31185202383F31288BFF36F8FD9F82D
:10BBCC0000301B1BC9F80030FFF704FFB9E700BFBA
:10BBDC00680300216802002110B5EFF311842023C3
:10BBEC0083F31288BFF36F8FFFF7FCFE0346054A01
:10BBFC00D2E90001181841EBE37184F31188BFF30B
:10BC0C006F8F10BD680200212DE9F04F43688DB095
:10BC1C0015468046029383789A0740F10D810024E3
:10BC2C000E78002E00F00A81252E0BD04B1C0393AE
:10BC3C00013441463046029B98470028C0F2F680FA
:10BC4C000399EDE74E788B1C252E0393F0D000273B
:10BC5C00B946BB46BBF11F0F38D8A6F12003102BF9
:10BC6C000AD8DFE803F02A09093009090921090972
:10BC7C000928092D09091F00A6F13003092B33D916
:10BC8C002A2E37D11BF0400F55F8043B40F0828030
:10BC9C00002BA7BF4BF0200B9946C3F100094BF0CA
:10BCAC00280B01E04BF0010B039B13F8016B039382
:10BCBC00002ECFD130E04BF0020B4BF0040BF3E72E
:10BCCC004BF0080BF0E74BF0100BEDE7BBF17F0FDF
:10BCDC0019D8A6F13003092BD2D81BF0400F03D092
:10BCEC000A2101FB0737DFE70A214BF0200B01FB90
:10BCFC000939D9E72E2E06D11BF0400F40F09E805B
:10BD0C004BF0400BD0E76C2E31D02BD8682E36D0B0
:10BD1C006A2E3CD04C2E3AD0002F46F02003B8BFF0
:10BD2C002BF04002A3F16501BCBF00271FFA82FB78
:10BD3C00022901D9612B2FD107350727DFF8ACA2D7
:10BD4C0025F0070508351BF0080F66D00AEB070B2A
:10BD5C0056465E4563D1A4EB0A0AA9EB070906EB2C
:10BD6C000A026FE1742E9FD07A2E9DD0D4E71BF07F
:10BD7C00800F18BF4BF4007B4BF0800B94E71BF447
:10BD8C00807F18BF4BF4007B4BF4807B8CE74BF42B
:10BD9C00207B89E71F4687E7A6F16301122900F291
:10BDAC00F080DFE811F013004F00EE00EE00EE0023
:10BDBC00EE004F00EE00EE00EE00EE00EE00FE0096
:10BDCC00E900EE00EE001B00EE00AF0055F8043B5E
:10BDDC0001270DF1180A8DF81830B4E755F804ABAB
:10BDEC00834BBAF1000F08BF9A461BF0400F504628
:10BDFC0014BF39464FF0FF3100F06CFE0746A2E746
:10BE0C0041462020029B984700280FDB013EB74299
:10BE1C00F6D34C44B146A41B98E74E46F7E741468F
:10BE2C0016F8010B029B9847002892DA98F802301A
:10BE3C0043F0040388F802304FF0FF3420460DB075
:10BE4C00BDE8F08F1BF0800F34D01BF4007F2CD09A
:10BE5C00073525F00705AA4669685AF8080B2BF038
:10BE6C0010050029ADB237DA404245F4806561EB2C
:10BE7C0041010DF1180B0A235A4600F037FEA0EBD6
:10BE8C000B0301936B0662D5019B25F001019F42C8
:10BE9C0089B240F3A180002E00F0998015F01002B9
:10BEAC0040F09C80BB460D4623E0AA465AF8040B92
:10BEBC00C117D4E7AA461BF4807F5AF8041B01D1A2
:10BECC000846F5E71BF4007F19BF48B241F3C011D7
:10BEDC0008B241F3C031C2E750EA0103C9D11BF0EB
:10BEEC00400FC6D0002FC4D12BF01102BB460197D6
:10BEFC0095B240F2064115EA01021CBF0BF1010B91
:10BF0C0000222CE02BF010020A231FFA82FB1BF0FC
:10BF1C00800C49D01BF4007115BF0735AA4625F0DB
:10BF2C0007055AF8040B1EBFAA4669685AF8080B95
:10BF3C0050EA010545D12BF016051BF0400FADB2B0
:10BF4C0042D0002F40D12BF01702019795B215F07B
:10BF5C00100248D0019B002E42D103F1010B29079E
:10BF6C005AD4EB0706D5D9456FDDA9EB0B03019924
:10BF7C00CB465F185B4649E04BF0100B102378263C
:10BF8C00C5E7782B04D1C6F1780343F01003BEE764
:10BF9C0041462520029B98470028FFF647AF023404
:10BFAC0047E608230026B2E7AA461BF480715AF82C
:10BFBC00040BBDD01BF400711ABFC0B2614680B235
:10BFCC00B6E72BF0060295B20DF1180B54E725F0ED
:10BFDC001105BB46ADB28CE70D46B8E73B460D46A6
:10BFEC0003F1020BBBE7DDF804B082E73FCF0001A1
:10BFFC0038CF0001CDE9043241462020029B9847FE
:10C00C000028FFF613AF049B059A01339945F1DC28
:10C01C00A4EB0B019B46CC180AB341463020029B83
:10C02C0098470028FFF602AF8EB901342744391B1C
:10C03C00019B994224DC1D4655BB019AA9EB0B09C7
:10C04C00554622441446914433E0019F92E7023452
:10C05C0041463046029B98470028E7DAE6E640F274
:10C06C0006410D42E2D015F0020F04F101044146E5
:10C07C0014BF2B20202015F4806F18BF2D20E9E76A
:10C08C0041463020029B013498470028CFDACDE698
:10C09C0006AB013D4146585D029B98470028CBDA20
:10C0AC00C4E641462020029B013498470028FFF645
:10C0BC00BDAEA9EB0403002BF3DCC1E570470020F7
:10C0CC007047836800EBC101B3F5004F2CBF51F8EA
:10C0DC00220031F81200704700EBC1018068B0F506
:10C0EC00004F2CBF41F8223021F81230704701224A
:10C0FC0008B5FFF7E6FFD04008BD836800EBC1012F
:10C10C00B3F5004F08D34B681AB143F001034B60F1
:10C11C00704723F00103FAE74B881AB143F001038F
:10C12C004B80704723F00103FAE753000122FFF71D
:10C13C00D3BFB0F5004F34BF04230823481C083389
:10C14C00A0EBD300B0FA80F0C0F11F0070472DE9CE
:10C15C00F0410D4686680446FFF7C9FFB6F5004F5F
:10C16C00014601D3012832D03046FFF7E2FF04EB41
:10C17C0080010E6996B90122E36882401343E360A3
:10C18C0002220D612B4629462046FFF7A5FF03220C
:10C19C0029462046BDE8F041FFF79EBF02223146FA
:10C1AC002046FFF78EFF0746034629462046FFF739
:10C1BC0093FF0322334629462046FFF78DFF39466D
:10C1CC002B462046FFF788FF02223146E1E7BDE807
:10C1DC00F081B2F5802F2CBF082304232DE9F04108
:10C1EC000026D21A8C18CD1D25F0070524F0070463
:10C1FC00641BE408056021462046AC60EE60FFF746
:10C20C0098FF421D9200013002F107074FEAD70751
:10C21C003146A2F1100205F11000B8BF324600F011
:10C22C0041FC3A4631462846FFF77FFF33463246FB
:10C23C0031462846FFF750FFA4EB07082846314645
:10C24C000122FFF75AFF42463946FFF76EFF3B4685
:10C25C00324639462846FFF73FFF21462846FFF76E
:10C26C0064FF4346324621462846FFF735FF2146F8
:10C27C0028460122FFF741FF3946BDE8F041FFF7A0
:10C28C0066BF002070470FB407B504A951F8040B22
:10C29C000191FCF7D3FB03B05DF804EB04B07047DD
:10C2AC00038B13F0070305D10368002B0CBF002090
:10C2BC0003207047022B05D1408BB0FA80F0400967
:10C2CC0080007047012B05D10368002B0CBF0020A8
:10C2DC00052070470020704710B50C4600B111B90D
:10C2EC006FF0150010BD081D00F093F80028F9D16F
:10C2FC00A368032BF6D9F3E72DE9F0410D46074669
:10C30C001946281D90461E4600F094F8044638B194
:10C31C003346424629463846A446BDE8F0416047BC
:10C32C00BDE8F08110B4EFF31182202484F312885D
:10C33C00BFF36F8F416110BC0121FCF7B1BB38B565
:10C34C000C46054658B151B10B6843B14B6833B13B
:10C35C001C22002100F0A6FB00202C6138BD6FF0E0
:10C36C001500FBE770B505460E46FFF7B5FF041E3A
:10C37C0014DBEFF31182202383F31288BFF36F8F4A
:10C38C004FF6FF716B8B2C8B8B4204F0070407D19B
:10C39C0082F31188BFF36F8F6FF00A04204670BDD3
:10C3AC00022C0CD101336B8382F31188BFF36F8F96
:10C3BC000023224631462846FFF79EFFEEE7062C67
:10C3CC0014D8DFE804F004131313041A0400002338
:10C3DC0033606B683BB9C5E90066ACB902212846ED
:10C3EC00FCF75EFBDAE71E606E60F6E782F31188FD
:10C3FC00BFF36F8F6FF00404D0E782F31188BFF3A3
:10C40C006F8F6FF08504C9E782F31188BFF36F8FCC
:10C41C00C4E7034658B1426802F00302012A03D074
:10C42C00032A04D1026812B10020986070476FF0A3
:10C43C00150070474268034602F00302032A4FF0CE
:10C44C000002816014BF104600685A607047704744
:10C45C00012801D1EFF30583FEF798BD0146006872
:10C46C00FFF7F6BF08B5FCF73DFCBDE80840FCF74C
:10C47C005DBC00210120FFF7EBBF036E83F30B883B
:10C48C00704761B662B680F31188BFF36F8F704747
:10C49C0008B5FDF777F972B6002383F31188BFF363
:10C4AC006F8FFDF7EDF950B1BFF34F8F30BF00BF69
:10C4BC0000BF00BF00BF00BF00BF00BF00BF62B61F
:10C4CC00BFF36F8F08BD10B50446FDF75BF972B66C
:10C4DC00002383F31188BFF36F8FFDF7D1F950B1AF
:10C4EC00BFF34F8F20BF00BF00BF00BF00BF00BF16
:10C4FC0000BF00BF00BF84F31188BFF36F8F62B61B
:10C50C0010BD40E800F313F4803FD8B208BF6FF0C1
:10C51C001500704730B50C684B6885B00A894D8999
:10C52C000094013B24F01F04234402F01F0242EA52
:10C53C00451223F01F0369468DF808200393FCF77E
:10C54C00E3FE05B030BDF0B5D0F80473064617F025
:10C55C0002001CBFC2F1807018604FF0000518BFBC
:10C56C0001204FF0010C4FF4803E0CFA05F40C4204
:10C57C0014D00EFA05F43C4210D005F5A87456F808
:10C58C002440A41A34F07F4408BF4FF0807408B9DB
:10C59C001C6002E01868A042FAD801200135042D75
:10C5AC00E3D1F0BDFDF782B80C220369C9B201FBDF
:10C5BC000233186C00F00700704770B5C9B20369FC
:10C5CC00EFF31185202484F31288BFF36F8F0C26B0
:10C5DC0006FB0134246C14F0C00408D0A24206D02F
:10C5EC0085F31188BFF36F8F4FF0FF3070BD0122C0
:10C5FC0006FB01331A6485F31188BFF36F8F436810
:10C60C0003EBC1035B6898470020EFE78022FFF73C
:10C61C00D4BFF8B5069F0469C9B2EFF31186202583
:10C62C0085F31288BFF36F8F0C2505FB0144256C35
:10C63C0005F0070CBCF1010F0CD1276486F31188AF
:10C64C00BFF36F8FC4E90E23436853F8313098471A
:10C65C000020F8BD05F0C005AF4286F31188BFF38A
:10C66C006F8F0CBF6FF077004FF0FF30F1E713B511
:10C67C0080240094FFF7CDFF02B010BD10B41C2431
:10C68C000069CBB203FB0400002110BC1047002052
:10C69C00FDF7EEBF002000F078B81046FEF7B4BDF1
:10C6AC00436800205B681B690B607047436802EAB3
:10C6BC0001005B6821EA020198600020D960704794
:10C6CC00436800205B6899607047436800205B6892
:10C6DC00D960704743685A68536821EA03000B40DD
:10C6EC0090600020D360704710B503695868F8B1AA
:10C6FC00884219D19C680868A142586000D19860A2
:10C70C00002008602AB15A680A609A68596002B918
:10C71C009960002010E0814206D10868206098687A
:10C72C008142EDD19C60EBE7044600680028F2D111
:10C73C00002AE8D16FF0150010BD002200F1500363
:10C74C009B009BB203F1824303F5B0331A601B6864
:10C75C00704708B5FDF76AFC08BD03465A6B002309
:10C76C003C309A4200D17047C16801330844F8E765
:10C77C00004700F08BB840F00040C1F880007047D3
:10C78C0040F00040C1F880007047FDF7EDBEF7B5F2
:10C79C001646DDE90847019001A81D46FEF706F88C
:10C7AC00019BB6F1000C18BF4FF0010C00EB83009D
:10C7BC000B1E18BF0123002D43EA4C0314BF4FF08E
:10C7CC000C0C4FF0000C002C43EA0C0314BF4FF47C
:10C7DC00706C4FF0000C002F43EA0C0314BF4FF4A5
:10C7EC00403C4FF0000CD0F8002243EA0C0322EA44
:10C7FC00030301B109780EB13678760019430DB1F7
:10C80C002D78AD0031430CB12478240229430FB1AB
:10C81C003F783F040C433C43C0F8004203B0F0BDEA
:10C82C001FB50DF10F03019300238DF80F101A465D
:10C83C0019460093FFF7ABFF05B05DF804FB38B564
:10C84C00054608460C46FEF705F8A8B10846FDF764
:10C85C00F5FF88B90846FDF7E5FF01232A688340F8
:10C86C00C2F808332B6803EB8000D0F8103523F0A6
:10C87C000303C0F8103538BD2046BDE83840002110
:10C88C00FFF7CEBFFEF76AB8FFF7D9BF08B1FDF7C7
:10C89C0045B87047EFF31183202383F31288BFF35D
:10C8AC006F8FFEE708B5FFF7F5FF10B5D0E9003440
:10C8BC0033B90020E268537843F00103537010BD84
:10C8CC00204698470028F4D00028B8BF4042FF28E3
:10C8DC00A8BFFF20E3681870ECE700F0E3B800F0A5
:10C8EC00D4B87047202408B5EFF3118384F3128871
:10C8FC00BFF36F8FFFF7CCFDF6E7EFF30580003841
:10C90C0018BF01207047D0E9003213605A60002331
:10C91C00C0E90033704708B5FFF7F5FF437B23F000
:10C92C00020343730023836008BD38B504460D46EB
:10C93C00FEF762FD637B43F002036373E5B1A56010
:10C94C002B689D4209D16B68C4E900531C606C6074
:10C95C0012E06A689A42F6D01B68002BF3D094F967
:10C96C000E2093F90E108A42F3D09142F1DD5A68F1
:10C97C00C4E9003214605C6038BD10B5EFF311846B
:10C98C00202383F31288BFF36F8FFEF7EDFC84F343
:10C99C001188BFF36F8F10BD014610B5EFF31184F2
:10C9AC00202383F31288BFF36F8F437B13F0280F80
:10C9BC000AD183680BB1FFF7AEFF4B7B084623F01F
:10C9CC0004034B73FEF7D0FC84F31188BFF36F8F15
:10C9DC0010BD01211838FFF7DFBF38B50C460546EE
:10C9EC00FEF762FEB4F1FF3F08BFB5F1FF3F1FBF7A
:10C9FC0047F6FF7300224FF47A71C0FB013216BF69
:10CA0C00D80B4FF0FF3040EA424038BD10B5FEF76E
:10CA1C00E1FF0446FEF7E6FF74B1D4E904321B1AB9
:10CA2C0062EBE072B3F1004F72F1000104DA002AFC
:10CA3C00ACBF1846002010BD6FF00040FBE702466B
:10CA4C0038B5EFF31185202383F31288BFF36F8F72
:10CA5C00036893B1FEF7BEFF04461046FEF7CCFF09
:10CA6C00844204D1FFF7D2FF0021FDF745FC0020E2
:10CA7C0085F31188BFF36F8F38BD6FF01500F7E7A2
:10CA8C0008B5FFF7A9F808BD70470A44431E914248
:10CA9C0000D1704710B511F8014B914203F8014FCA
:10CAAC00F9D110BD02440346934200D1704703F8FC
:10CABC00011BF9E70139024410B5904201D1002065
:10CACC0005E0037811F8014FA34201D0181B10BDEB
:10CADC000130F2E70246014410B58A42134603D0F6
:10CAEC001C780132002CF8D1181A10BDF0B5C3F126
:10CAFC003707044603F01F031046FFB2082BE6B2BB
:10CB0C0032D0102B3DD06508A40845EAC17544EA23
:10CB1C0081748A082D1942EB5102290941EA0271EC
:10CB2C006D1842EB1212290A41EA02616D1842EBB0
:10CB3C001222290C41EA02416D1842EB1242AD1847
:10CB4C0042F10002EC0844EA4274D10804EB84027E
:10CB5C00A6EB4205EDB2092D0CD90134A5F10A055D
:10CB6C0041F10001EDB212E0E40806F0070544EAD9
:10CB7C004174C908303554EA010200F8015BBDD19B
:10CB8C00F0BD240906F00F0544EA01740909092DCA
:10CB9C0084BFED19EDB2EDE7014800687047000065
:04CBAC0070020021F2
:10CBB000DD96000100000000E5990001F0CB0001C6
:10CBC000499D000118CC0001499D000104CC0001E1
:10CBD000A1A1000100000000ED960001000000008E
:10CBE000959600010000000075A300010000000000
:10CBF00092CE0001C8CD000140CD0001A800002167
:10CC0000BC020021A1CE0001D8CD00011CCD000145
:10CC1000AA00002110030021AFCE0001F0CD0001D9
:0CCC20001CCD0001AC0000211C03002111
:10CC2C00000000007FC40001000000007FC4000170
:10CC3C00000000007FC40001000000007FC4000160
:10CC4C00000000007FC4000135A700017DC7000172
:10CC5C00000000007FC40001000000007FC4000140
:10CC6C00000000007FC40001000000007FC4000130
:10CC7C00E1AD00017DC70001000000007FC4000190
:10CC8C00000000007FC40001000000007FC4000110
:10CC9C00000000007FC40001000000007FC4000100
:10CCAC00000000007FC40001000000007FC40001F0
:10CCBC00000000007FC40001000000007FC40001E0
:10CCCC00000000007FC40001000000007FC40001D0
:10CCDC000000000031A20001000000007FC4000130
:10CCEC00000000007FC40001000000007FC40001B0
:10CCFC00000000007FC40001000000007FC40001A0
:10CD0C00000000007FC40001000000007FC400018F
:10CD1C00DD9D0001ADC60001B9C60001CDC6000104
:10CD2C00D7C60001E1C60001499C0001F5C600010F
:04CD3C0000000000F3
:10CD40003D9A000119C600017BC6000100000000E9
:0CCD5000B5C5000100000000000000005C
:10CD6000DEE61E28EAAC45B802350000DEE61E28E5
:10CD70004CBBCE8F02350000000000000000000018
:10CD80000338FDD8704700000000002100000000BB
:10CD900006000100020000009CCD0001000000011F
:10CDA00083CE000106000000E0FF03010000002127
:10CDB0008BCE000121000000E0FF00216D990001F1
:10CDC0003D99000100000000BD9A0001B1990001E9
:10CDD0009BC60001A1C60001FFFF000000088C41B6
:10CDE000000000000100000000A000410000000061
:10CDF000FFFFFFFF00058C41000000000000000065
:10CE000000A0004100000000B0CB0001B0CB000149
:10CE1000D0CB0001D8CB0001F0CB0001F0CB00015A
:10CE20002A2A2A20426F6F74696E67206E5246204C
:10CE3000436F6E6E6563742053444B2076332E30FF
:10CE40002E302D3362666334363537386534322000
:10CE50002A2A2A0A002A2A2A205573696E67205A2C
:10CE60006570687972204F532076342E302E393910
:10CE70002D336530636537363336666136202A2AAE
:10CE80002A0A00464C4153485F30005352414D5FDF
:10CE90003000636C6F636B4034313030353030308C
:10CEA000006770696F403431386330383030006764
:10CEB00070696F403431386330353030004552523C
:10CEC0004F523A2043616E6E6F742066756C6669CE
:10CED0006C6C204558545F415049207265717565EE
:10CEE00073742E0D0A005741524E494E473A204F57
:10CEF0007074696F6E616C204558545F41504920D1
:10CF000072657175657374206E6F742066756C66DA
:10CF1000696C6C65642E0D0A0000000001010000C0
:10CF20000000203030303030303030303030303071
:10CF30003000016D61696E00286E756C6C29002AE5
:0CCF4000666C6F61742A0000008800011C
:10CF4C008FC2000100F0004100000000FFFFFFFF56
:10CF5C003F000000FFFFFFFF3F000000000000004B
:10CF6C0000000000000000000000000000000000B5
:10CF7C0000000000000000000000000000000000A5
:10CF8C000000000000000000000000000000000095
:10CF9C000000000000000000000000000000000085
:10CFAC000000000000000000000000000000000075
:10CFBC000000000000000000000000000000000065
:10CFCC00000000000000000000000000080000004D
:10CFDC00FF00000000000000030000000000000043
:08CFEC00A0000021A0000021BB
:06CFF40000000000000037
:04CFFC0015E015E047
:0400000501008FD196
:00000001FF
